{
  "contractName": "DateTime",
  "abi": [
    {
      "inputs": [
        {
          "internalType": "uint16",
          "name": "year",
          "type": "uint16"
        }
      ],
      "name": "isLeapYear",
      "outputs": [
        {
          "internalType": "bool",
          "name": "",
          "type": "bool"
        }
      ],
      "stateMutability": "pure",
      "type": "function"
    },
    {
      "inputs": [
        {
          "internalType": "uint256",
          "name": "year",
          "type": "uint256"
        }
      ],
      "name": "leapYearsBefore",
      "outputs": [
        {
          "internalType": "uint256",
          "name": "",
          "type": "uint256"
        }
      ],
      "stateMutability": "pure",
      "type": "function"
    },
    {
      "inputs": [
        {
          "internalType": "uint8",
          "name": "month",
          "type": "uint8"
        },
        {
          "internalType": "uint16",
          "name": "year",
          "type": "uint16"
        }
      ],
      "name": "getDaysInMonth",
      "outputs": [
        {
          "internalType": "uint8",
          "name": "",
          "type": "uint8"
        }
      ],
      "stateMutability": "pure",
      "type": "function"
    },
    {
      "inputs": [
        {
          "internalType": "uint256",
          "name": "timestamp",
          "type": "uint256"
        }
      ],
      "name": "parseTimestamp",
      "outputs": [
        {
          "components": [
            {
              "internalType": "uint16",
              "name": "year",
              "type": "uint16"
            },
            {
              "internalType": "uint8",
              "name": "month",
              "type": "uint8"
            },
            {
              "internalType": "uint8",
              "name": "day",
              "type": "uint8"
            },
            {
              "internalType": "uint8",
              "name": "hour",
              "type": "uint8"
            },
            {
              "internalType": "uint8",
              "name": "minute",
              "type": "uint8"
            },
            {
              "internalType": "uint8",
              "name": "second",
              "type": "uint8"
            },
            {
              "internalType": "uint8",
              "name": "weekday",
              "type": "uint8"
            }
          ],
          "internalType": "struct DateTime.DateTimeStruct",
          "name": "dt",
          "type": "tuple"
        }
      ],
      "stateMutability": "pure",
      "type": "function"
    },
    {
      "inputs": [
        {
          "internalType": "uint256",
          "name": "timestamp",
          "type": "uint256"
        }
      ],
      "name": "getYear",
      "outputs": [
        {
          "internalType": "uint16",
          "name": "",
          "type": "uint16"
        }
      ],
      "stateMutability": "pure",
      "type": "function"
    },
    {
      "inputs": [
        {
          "internalType": "uint256",
          "name": "timestamp",
          "type": "uint256"
        }
      ],
      "name": "getMonth",
      "outputs": [
        {
          "internalType": "uint8",
          "name": "",
          "type": "uint8"
        }
      ],
      "stateMutability": "pure",
      "type": "function"
    },
    {
      "inputs": [
        {
          "internalType": "uint256",
          "name": "timestamp",
          "type": "uint256"
        }
      ],
      "name": "getDay",
      "outputs": [
        {
          "internalType": "uint8",
          "name": "",
          "type": "uint8"
        }
      ],
      "stateMutability": "pure",
      "type": "function"
    },
    {
      "inputs": [
        {
          "internalType": "uint256",
          "name": "timestamp",
          "type": "uint256"
        }
      ],
      "name": "getHour",
      "outputs": [
        {
          "internalType": "uint8",
          "name": "",
          "type": "uint8"
        }
      ],
      "stateMutability": "pure",
      "type": "function"
    },
    {
      "inputs": [
        {
          "internalType": "uint256",
          "name": "timestamp",
          "type": "uint256"
        }
      ],
      "name": "getMinute",
      "outputs": [
        {
          "internalType": "uint8",
          "name": "",
          "type": "uint8"
        }
      ],
      "stateMutability": "pure",
      "type": "function"
    },
    {
      "inputs": [
        {
          "internalType": "uint256",
          "name": "timestamp",
          "type": "uint256"
        }
      ],
      "name": "getSecond",
      "outputs": [
        {
          "internalType": "uint8",
          "name": "",
          "type": "uint8"
        }
      ],
      "stateMutability": "pure",
      "type": "function"
    },
    {
      "inputs": [
        {
          "internalType": "uint256",
          "name": "timestamp",
          "type": "uint256"
        }
      ],
      "name": "getWeekday",
      "outputs": [
        {
          "internalType": "uint8",
          "name": "",
          "type": "uint8"
        }
      ],
      "stateMutability": "pure",
      "type": "function"
    },
    {
      "inputs": [
        {
          "internalType": "uint16",
          "name": "year",
          "type": "uint16"
        },
        {
          "internalType": "uint8",
          "name": "month",
          "type": "uint8"
        },
        {
          "internalType": "uint8",
          "name": "day",
          "type": "uint8"
        },
        {
          "internalType": "uint8",
          "name": "hour",
          "type": "uint8"
        },
        {
          "internalType": "uint8",
          "name": "minute",
          "type": "uint8"
        }
      ],
      "name": "toTimestamp",
      "outputs": [
        {
          "internalType": "uint256",
          "name": "timestamp",
          "type": "uint256"
        }
      ],
      "stateMutability": "pure",
      "type": "function"
    },
    {
      "inputs": [
        {
          "internalType": "uint16",
          "name": "year",
          "type": "uint16"
        },
        {
          "internalType": "uint8",
          "name": "month",
          "type": "uint8"
        },
        {
          "internalType": "uint8",
          "name": "day",
          "type": "uint8"
        },
        {
          "internalType": "uint8",
          "name": "hour",
          "type": "uint8"
        }
      ],
      "name": "toTimestamp",
      "outputs": [
        {
          "internalType": "uint256",
          "name": "timestamp",
          "type": "uint256"
        }
      ],
      "stateMutability": "pure",
      "type": "function"
    },
    {
      "inputs": [
        {
          "internalType": "uint16",
          "name": "year",
          "type": "uint16"
        },
        {
          "internalType": "uint8",
          "name": "month",
          "type": "uint8"
        },
        {
          "internalType": "uint8",
          "name": "day",
          "type": "uint8"
        }
      ],
      "name": "toTimestamp",
      "outputs": [
        {
          "internalType": "uint256",
          "name": "timestamp",
          "type": "uint256"
        }
      ],
      "stateMutability": "pure",
      "type": "function"
    },
    {
      "inputs": [
        {
          "internalType": "uint16",
          "name": "year",
          "type": "uint16"
        },
        {
          "internalType": "uint8",
          "name": "month",
          "type": "uint8"
        },
        {
          "internalType": "uint8",
          "name": "day",
          "type": "uint8"
        },
        {
          "internalType": "uint8",
          "name": "hour",
          "type": "uint8"
        },
        {
          "internalType": "uint8",
          "name": "minute",
          "type": "uint8"
        },
        {
          "internalType": "uint8",
          "name": "second",
          "type": "uint8"
        }
      ],
      "name": "toTimestamp",
      "outputs": [
        {
          "internalType": "uint256",
          "name": "timestamp",
          "type": "uint256"
        }
      ],
      "stateMutability": "pure",
      "type": "function"
    }
  ],
  "bytecode": "0x608060405234801561001057600080fd5b50610d15806100206000396000f3fe608060405234801561001057600080fd5b50600436106100c55760003560e01c80633e239e1a146100ca5780634ac1ad78146100f457806362ba96871461010757806365c72840146101285780637f7918331461013b5780638aa001fc1461014e5780638c8d98a0146101615780639054bdec1461017457806392d6631314610187578063a324ad24146101ad578063a6f0e577146101c0578063b1999937146101e3578063b238ad0e146101f6578063f97d059114610209578063fa93f88314610287575b600080fd5b6100dd6100d8366004610b4a565b61029a565b60405160ff90911681526020015b60405180910390f35b6100dd610102366004610b4a565b6102c4565b61011a610115366004610a73565b6102e0565b6040519081526020016100eb565b6100dd610136366004610b4a565b6102fb565b61011a610149366004610a20565b610310565b6100dd61015c366004610b4a565b61032a565b61011a61016f3660046109de565b610337565b61011a610182366004610ad7565b610351565b61019a610195366004610b4a565b610510565b60405161ffff90911681526020016100eb565b6100dd6101bb366004610b4a565b610600565b6101d36101ce3660046109bd565b610615565b60405190151581526020016100eb565b61011a6101f1366004610b4a565b610674565b6100dd610204366004610b62565b6106b9565b61021c610217366004610b4a565b610780565b6040516100eb9190600060e08201905061ffff8351168252602083015160ff80821660208501528060408601511660408501528060608601511660608501528060808601511660808501528060a08601511660a08501528060c08601511660c0850152505092915050565b6100dd610295366004610b4a565b610968565b60006018603c6102aa8185610bac565b6102b49190610bac565b6102be9190610c9f565b92915050565b600060076102d56201518084610bac565b6102b4906004610b94565b60006102f186868686866000610351565b9695505050505050565b600061030682610780565b6040015192915050565b600061032185858585600080610351565b95945050505050565b60006102be603c83610c9f565b60006103498484846000806000610351565b949350505050565b60006107b25b8761ffff168161ffff1610156103ad5761037081610615565b1561038a576103836301e2850083610b94565b915061039b565b6103986301e1338083610b94565b91505b806103a581610c3c565b915050610357565b6103b5610976565b601f81526103c289610615565b156103d357601d60208201526103db565b601c60208201525b601f60408201819052601e606083018190526080830182905260a0830181905260c0830182905260e0830182905261010083018190526101208301829052610140830152610160820152600191505b8760ff168261ffff16101561049a5780610445600184610bdf565b61ffff16600c811061046757634e487b7160e01b600052603260045260246000fd5b602002015161047c9060ff1662015180610bc0565b6104869084610b94565b92508161049281610c3c565b92505061042a565b6104a5600188610c19565b6104b59060ff1662015180610bc0565b6104bf9084610b94565b92506104d060ff8716610e10610bc0565b6104da9084610b94565b92506104ea60ff8616603c610bc0565b6104f49084610b94565b925061050360ff851684610b94565b9998505050505050505050565b60008080806105236301e1338086610bac565b61052f906107b2610b94565b915061053c6107b2610674565b6105498361ffff16610674565b6105539190610c02565b9050610563816301e28500610bc0565b61056d9084610b94565b92508061057c6107b284610bdf565b61ffff1661058a9190610c02565b610598906301e13380610bc0565b6105a29084610b94565b92505b848311156105f8576105bb6101ce600184610bdf565b156105d5576105ce6301e2850084610c02565b92506105e6565b6105e36301e1338084610c02565b92505b6105f1600183610bdf565b91506105a5565b509392505050565b600061060b82610780565b6020015192915050565b6000610622600483610c7e565b61ffff161561063357506000919050565b61063e606483610c7e565b61ffff161561064f57506001919050565b61065b61019083610c7e565b61ffff161561066c57506000919050565b506001919050565b6000610681600183610c02565b915061068f61019083610bac565b61069a606484610bac565b6106a5600485610bac565b6106af9190610c02565b6102be9190610b94565b60008260ff16600114806106d057508260ff166003145b806106de57508260ff166005145b806106ec57508260ff166007145b806106fa57508260ff166008145b8061070857508260ff16600a145b8061071657508260ff16600c145b156107235750601f6102be565b8260ff166004148061073857508260ff166006145b8061074657508260ff166009145b8061075457508260ff16600b145b156107615750601e6102be565b61076a82610615565b156107775750601d6102be565b50601c92915050565b6040805160e081018252600080825260208201819052918101829052606081018290526080810182905260a0810182905260c081018290529080806107c485610510565b61ffff1684526107d56107b2610674565b84516107e49061ffff16610674565b6107ee9190610c02565b91506107fe826301e28500610bc0565b6108089084610b94565b9250816107b2856000015161081d9190610bdf565b61ffff1661082b9190610c02565b610839906301e13380610bc0565b6108439084610b94565b92506000600191505b600c8260ff16116108b4576108658286600001516106b9565b6108759060ff1662015180610bc0565b9050856108828583610b94565b11156108965760ff821660208601526108b4565b6108a08185610b94565b9350816108ac81610c5e565b92505061084c565b600191505b6108cb856020015186600001516106b9565b60ff168260ff161161091a57856108e58562015180610b94565b11156108f95760ff8216604086015261091a565b6109066201518085610b94565b93508161091281610c5e565b9250506108b9565b6109238661029a565b60ff16606086015261093486610968565b60ff1660808601526109458661032a565b60ff1660a0860152610956866102c4565b60ff1660c08601525092949350505050565b6000603c6102b48184610bac565b604051806101800160405280600c906020820280368337509192915050565b803561ffff811681146109a757600080fd5b919050565b803560ff811681146109a757600080fd5b6000602082840312156109ce578081fd5b6109d782610995565b9392505050565b6000806000606084860312156109f2578182fd5b6109fb84610995565b9250610a09602085016109ac565b9150610a17604085016109ac565b90509250925092565b60008060008060808587031215610a35578081fd5b610a3e85610995565b9350610a4c602086016109ac565b9250610a5a604086016109ac565b9150610a68606086016109ac565b905092959194509250565b600080600080600060a08688031215610a8a578081fd5b610a9386610995565b9450610aa1602087016109ac565b9350610aaf604087016109ac565b9250610abd606087016109ac565b9150610acb608087016109ac565b90509295509295909350565b60008060008060008060c08789031215610aef578081fd5b610af887610995565b9550610b06602088016109ac565b9450610b14604088016109ac565b9350610b22606088016109ac565b9250610b30608088016109ac565b9150610b3e60a088016109ac565b90509295509295509295565b600060208284031215610b5b578081fd5b5035919050565b60008060408385031215610b74578182fd5b610b7d836109ac565b9150610b8b60208401610995565b90509250929050565b60008219821115610ba757610ba7610cb3565b500190565b600082610bbb57610bbb610cc9565b500490565b6000816000190483118215151615610bda57610bda610cb3565b500290565b600061ffff83811690831681811015610bfa57610bfa610cb3565b039392505050565b600082821015610c1457610c14610cb3565b500390565b600060ff821660ff841680821015610c3357610c33610cb3565b90039392505050565b600061ffff80831681811415610c5457610c54610cb3565b6001019392505050565b600060ff821660ff811415610c7557610c75610cb3565b60010192915050565b600061ffff80841680610c9357610c93610cc9565b92169190910692915050565b600082610cae57610cae610cc9565b500690565b634e487b7160e01b600052601160045260246000fd5b634e487b7160e01b600052601260045260246000fdfea26469706673582212207771c78b3d5a6df32be4330a411ce6b11e6d93dbc836af0134446168328f38da64736f6c63430008040033",
  "immutableReferences": {},
  "source": "// SPDX-License-Identifier: MIT\npragma solidity >=0.8.0; // Modified for and updated pragma solidity declaration\n// pragma solidity ^0.4.16;\n\n/// @notice Date and Time utilities for ethereum contracts\n/// @author Piper Merriam https://github.com/pipermerriam\ncontract DateTime {\n\n        struct DateTimeStruct {\n                uint16 year;\n                uint8 month;\n                uint8 day;\n                uint8 hour;\n                uint8 minute;\n                uint8 second;\n                uint8 weekday;\n        }\n\n        uint constant DAY_IN_SECONDS = 86400;\n        uint constant YEAR_IN_SECONDS = 31536000;\n        uint constant LEAP_YEAR_IN_SECONDS = 31622400;\n\n        uint constant HOUR_IN_SECONDS = 3600;\n        uint constant MINUTE_IN_SECONDS = 60;\n\n        uint16 constant ORIGIN_YEAR = 1970;\n\n        function isLeapYear(uint16 year) public pure returns (bool) {\n                if (year % 4 != 0) {\n                        return false;\n                }\n                if (year % 100 != 0) {\n                        return true;\n                }\n                if (year % 400 != 0) {\n                        return false;\n                }\n                return true;\n        }\n\n        function leapYearsBefore(uint year) public pure returns (uint) {\n                year -= 1;\n                return year / 4 - year / 100 + year / 400;\n        }\n\n        function getDaysInMonth(uint8 month, uint16 year) public pure returns (uint8) {\n                if (month == 1 || month == 3 || month == 5 || month == 7 || month == 8 || month == 10 || month == 12) {\n                        return 31;\n                }\n                else if (month == 4 || month == 6 || month == 9 || month == 11) {\n                        return 30;\n                }\n                else if (isLeapYear(year)) {\n                        return 29;\n                }\n                else {\n                        return 28;\n                }\n        }\n\n        // function parseTimestamp(uint timestamp) internal pure returns (DateTimeStruct dt) {\n        function parseTimestamp(uint timestamp) public pure returns (DateTimeStruct memory dt) {\n                uint secondsAccountedFor = 0;\n                uint buf;\n                uint8 i;\n\n                // Year\n                dt.year = getYear(timestamp);\n                buf = leapYearsBefore(dt.year) - leapYearsBefore(ORIGIN_YEAR);\n\n                secondsAccountedFor += LEAP_YEAR_IN_SECONDS * buf;\n                secondsAccountedFor += YEAR_IN_SECONDS * (dt.year - ORIGIN_YEAR - buf);\n\n                // Month\n                uint secondsInMonth;\n                for (i = 1; i <= 12; i++) {\n                        secondsInMonth = DAY_IN_SECONDS * getDaysInMonth(i, dt.year);\n                        if (secondsInMonth + secondsAccountedFor > timestamp) {\n                                dt.month = i;\n                                break;\n                        }\n                        secondsAccountedFor += secondsInMonth;\n                }\n\n                // Day\n                for (i = 1; i <= getDaysInMonth(dt.month, dt.year); i++) {\n                        if (DAY_IN_SECONDS + secondsAccountedFor > timestamp) {\n                                dt.day = i;\n                                break;\n                        }\n                        secondsAccountedFor += DAY_IN_SECONDS;\n                }\n\n                // Hour\n                dt.hour = getHour(timestamp);\n\n                // Minute\n                dt.minute = getMinute(timestamp);\n\n                // Second\n                dt.second = getSecond(timestamp);\n\n                // Day of week.\n                dt.weekday = getWeekday(timestamp);\n        }\n\n        function getYear(uint timestamp) public pure returns (uint16) {\n                uint secondsAccountedFor = 0;\n                uint16 year;\n                uint numLeapYears;\n\n                // Year\n                year = uint16(ORIGIN_YEAR + timestamp / YEAR_IN_SECONDS);\n                numLeapYears = leapYearsBefore(year) - leapYearsBefore(ORIGIN_YEAR);\n\n                secondsAccountedFor += LEAP_YEAR_IN_SECONDS * numLeapYears;\n                secondsAccountedFor += YEAR_IN_SECONDS * (year - ORIGIN_YEAR - numLeapYears);\n\n                while (secondsAccountedFor > timestamp) {\n                        if (isLeapYear(uint16(year - 1))) {\n                                secondsAccountedFor -= LEAP_YEAR_IN_SECONDS;\n                        }\n                        else {\n                                secondsAccountedFor -= YEAR_IN_SECONDS;\n                        }\n                        year -= 1;\n                }\n                return year;\n        }\n\n        function getMonth(uint timestamp) public pure returns (uint8) {\n                return parseTimestamp(timestamp).month;\n        }\n\n        function getDay(uint timestamp) public pure returns (uint8) {\n                return parseTimestamp(timestamp).day;\n        }\n\n        function getHour(uint timestamp) public pure returns (uint8) {\n                return uint8((timestamp / 60 / 60) % 24);\n        }\n\n        function getMinute(uint timestamp) public pure returns (uint8) {\n                return uint8((timestamp / 60) % 60);\n        }\n\n        function getSecond(uint timestamp) public pure returns (uint8) {\n                return uint8(timestamp % 60);\n        }\n\n        function getWeekday(uint timestamp) public pure returns (uint8) {\n                return uint8((timestamp / DAY_IN_SECONDS + 4) % 7);\n        }\n\n        function toTimestamp(uint16 year, uint8 month, uint8 day) public pure returns (uint timestamp) {\n                return toTimestamp(year, month, day, 0, 0, 0);\n        }\n\n        function toTimestamp(uint16 year, uint8 month, uint8 day, uint8 hour) public pure returns (uint timestamp) {\n                return toTimestamp(year, month, day, hour, 0, 0);\n        }\n\n        function toTimestamp(uint16 year, uint8 month, uint8 day, uint8 hour, uint8 minute) public pure returns (uint timestamp) {\n                return toTimestamp(year, month, day, hour, minute, 0);\n        }\n\n        function toTimestamp(uint16 year, uint8 month, uint8 day, uint8 hour, uint8 minute, uint8 second) public pure returns (uint timestamp) {\n                uint16 i;\n\n                // Year\n                for (i = ORIGIN_YEAR; i < year; i++) {\n                        if (isLeapYear(i)) {\n                                timestamp += LEAP_YEAR_IN_SECONDS;\n                        }\n                        else {\n                                timestamp += YEAR_IN_SECONDS;\n                        }\n                }\n\n                // Month\n                uint8[12] memory monthDayCounts;\n                monthDayCounts[0] = 31;\n                if (isLeapYear(year)) {\n                        monthDayCounts[1] = 29;\n                }\n                else {\n                        monthDayCounts[1] = 28;\n                }\n                monthDayCounts[2] = 31;\n                monthDayCounts[3] = 30;\n                monthDayCounts[4] = 31;\n                monthDayCounts[5] = 30;\n                monthDayCounts[6] = 31;\n                monthDayCounts[7] = 31;\n                monthDayCounts[8] = 30;\n                monthDayCounts[9] = 31;\n                monthDayCounts[10] = 30;\n                monthDayCounts[11] = 31;\n\n                for (i = 1; i < month; i++) {\n                        timestamp += DAY_IN_SECONDS * monthDayCounts[i - 1];\n                }\n\n                // Day\n                timestamp += DAY_IN_SECONDS * (day - 1);\n\n                // Hour\n                timestamp += HOUR_IN_SECONDS * (hour);\n\n                // Minute\n                timestamp += MINUTE_IN_SECONDS * (minute);\n\n                // Second\n                timestamp += second;\n\n                return timestamp;\n        }\n}",
  "sourcePath": "/Users/matias/coding/github/Rx/contracts/DateTime.sol",
  "compiler": {
    "name": "solc",
    "version": "0.8.4+commit.c7e474f2.Emscripten.clang"
  },
  "schemaVersion": "3.4.3",
  "updatedAt": "2021-11-12T18:55:20.608Z",
  "devdoc": {
    "author": "Piper Merriam https://github.com/pipermerriam",
    "kind": "dev",
    "methods": {},
    "version": 1
  },
  "userdoc": {
    "kind": "user",
    "methods": {},
    "notice": "Date and Time utilities for ethereum contracts",
    "version": 1
  }
}