{
  "contractName": "DateTime",
  "abi": [
    {
      "inputs": [
        {
          "internalType": "uint256",
          "name": "dt",
          "type": "uint256"
        }
      ],
      "name": "timestampToString",
      "outputs": [
        {
          "internalType": "string",
          "name": "",
          "type": "string"
        }
      ],
      "stateMutability": "pure",
      "type": "function",
      "constant": true
    },
    {
      "inputs": [
        {
          "internalType": "uint256",
          "name": "dt",
          "type": "uint256"
        },
        {
          "internalType": "string",
          "name": "separator",
          "type": "string"
        }
      ],
      "name": "timestampToString",
      "outputs": [
        {
          "internalType": "string",
          "name": "",
          "type": "string"
        }
      ],
      "stateMutability": "pure",
      "type": "function",
      "constant": true
    },
    {
      "inputs": [
        {
          "internalType": "uint16",
          "name": "year",
          "type": "uint16"
        }
      ],
      "name": "isLeapYear",
      "outputs": [
        {
          "internalType": "bool",
          "name": "",
          "type": "bool"
        }
      ],
      "stateMutability": "pure",
      "type": "function",
      "constant": true
    },
    {
      "inputs": [
        {
          "internalType": "uint256",
          "name": "year",
          "type": "uint256"
        }
      ],
      "name": "leapYearsBefore",
      "outputs": [
        {
          "internalType": "uint256",
          "name": "",
          "type": "uint256"
        }
      ],
      "stateMutability": "pure",
      "type": "function",
      "constant": true
    },
    {
      "inputs": [
        {
          "internalType": "uint8",
          "name": "month",
          "type": "uint8"
        },
        {
          "internalType": "uint16",
          "name": "year",
          "type": "uint16"
        }
      ],
      "name": "getDaysInMonth",
      "outputs": [
        {
          "internalType": "uint8",
          "name": "",
          "type": "uint8"
        }
      ],
      "stateMutability": "pure",
      "type": "function",
      "constant": true
    },
    {
      "inputs": [
        {
          "internalType": "uint256",
          "name": "timestamp",
          "type": "uint256"
        }
      ],
      "name": "parseTimestamp",
      "outputs": [
        {
          "components": [
            {
              "internalType": "uint16",
              "name": "year",
              "type": "uint16"
            },
            {
              "internalType": "uint8",
              "name": "month",
              "type": "uint8"
            },
            {
              "internalType": "uint8",
              "name": "day",
              "type": "uint8"
            },
            {
              "internalType": "uint8",
              "name": "hour",
              "type": "uint8"
            },
            {
              "internalType": "uint8",
              "name": "minute",
              "type": "uint8"
            },
            {
              "internalType": "uint8",
              "name": "second",
              "type": "uint8"
            },
            {
              "internalType": "uint8",
              "name": "weekday",
              "type": "uint8"
            }
          ],
          "internalType": "struct DateTime.DateTimeStruct",
          "name": "dt",
          "type": "tuple"
        }
      ],
      "stateMutability": "pure",
      "type": "function",
      "constant": true
    },
    {
      "inputs": [
        {
          "internalType": "uint256",
          "name": "timestamp",
          "type": "uint256"
        }
      ],
      "name": "getYear",
      "outputs": [
        {
          "internalType": "uint16",
          "name": "",
          "type": "uint16"
        }
      ],
      "stateMutability": "pure",
      "type": "function",
      "constant": true
    },
    {
      "inputs": [
        {
          "internalType": "uint256",
          "name": "timestamp",
          "type": "uint256"
        }
      ],
      "name": "getMonth",
      "outputs": [
        {
          "internalType": "uint8",
          "name": "",
          "type": "uint8"
        }
      ],
      "stateMutability": "pure",
      "type": "function",
      "constant": true
    },
    {
      "inputs": [
        {
          "internalType": "uint256",
          "name": "timestamp",
          "type": "uint256"
        }
      ],
      "name": "getDay",
      "outputs": [
        {
          "internalType": "uint8",
          "name": "",
          "type": "uint8"
        }
      ],
      "stateMutability": "pure",
      "type": "function",
      "constant": true
    },
    {
      "inputs": [
        {
          "internalType": "uint256",
          "name": "timestamp",
          "type": "uint256"
        }
      ],
      "name": "getHour",
      "outputs": [
        {
          "internalType": "uint8",
          "name": "",
          "type": "uint8"
        }
      ],
      "stateMutability": "pure",
      "type": "function",
      "constant": true
    },
    {
      "inputs": [
        {
          "internalType": "uint256",
          "name": "timestamp",
          "type": "uint256"
        }
      ],
      "name": "getMinute",
      "outputs": [
        {
          "internalType": "uint8",
          "name": "",
          "type": "uint8"
        }
      ],
      "stateMutability": "pure",
      "type": "function",
      "constant": true
    },
    {
      "inputs": [
        {
          "internalType": "uint256",
          "name": "timestamp",
          "type": "uint256"
        }
      ],
      "name": "getSecond",
      "outputs": [
        {
          "internalType": "uint8",
          "name": "",
          "type": "uint8"
        }
      ],
      "stateMutability": "pure",
      "type": "function",
      "constant": true
    },
    {
      "inputs": [
        {
          "internalType": "uint256",
          "name": "timestamp",
          "type": "uint256"
        }
      ],
      "name": "getWeekday",
      "outputs": [
        {
          "internalType": "uint8",
          "name": "",
          "type": "uint8"
        }
      ],
      "stateMutability": "pure",
      "type": "function",
      "constant": true
    },
    {
      "inputs": [
        {
          "internalType": "uint16",
          "name": "year",
          "type": "uint16"
        },
        {
          "internalType": "uint8",
          "name": "month",
          "type": "uint8"
        },
        {
          "internalType": "uint8",
          "name": "day",
          "type": "uint8"
        },
        {
          "internalType": "uint8",
          "name": "hour",
          "type": "uint8"
        },
        {
          "internalType": "uint8",
          "name": "minute",
          "type": "uint8"
        }
      ],
      "name": "toTimestamp",
      "outputs": [
        {
          "internalType": "uint256",
          "name": "timestamp",
          "type": "uint256"
        }
      ],
      "stateMutability": "pure",
      "type": "function",
      "constant": true
    },
    {
      "inputs": [
        {
          "internalType": "uint16",
          "name": "year",
          "type": "uint16"
        },
        {
          "internalType": "uint8",
          "name": "month",
          "type": "uint8"
        },
        {
          "internalType": "uint8",
          "name": "day",
          "type": "uint8"
        },
        {
          "internalType": "uint8",
          "name": "hour",
          "type": "uint8"
        }
      ],
      "name": "toTimestamp",
      "outputs": [
        {
          "internalType": "uint256",
          "name": "timestamp",
          "type": "uint256"
        }
      ],
      "stateMutability": "pure",
      "type": "function",
      "constant": true
    },
    {
      "inputs": [
        {
          "internalType": "uint16",
          "name": "year",
          "type": "uint16"
        },
        {
          "internalType": "uint8",
          "name": "month",
          "type": "uint8"
        },
        {
          "internalType": "uint8",
          "name": "day",
          "type": "uint8"
        }
      ],
      "name": "toTimestamp",
      "outputs": [
        {
          "internalType": "uint256",
          "name": "timestamp",
          "type": "uint256"
        }
      ],
      "stateMutability": "pure",
      "type": "function",
      "constant": true
    },
    {
      "inputs": [
        {
          "internalType": "uint16",
          "name": "year",
          "type": "uint16"
        },
        {
          "internalType": "uint8",
          "name": "month",
          "type": "uint8"
        },
        {
          "internalType": "uint8",
          "name": "day",
          "type": "uint8"
        },
        {
          "internalType": "uint8",
          "name": "hour",
          "type": "uint8"
        },
        {
          "internalType": "uint8",
          "name": "minute",
          "type": "uint8"
        },
        {
          "internalType": "uint8",
          "name": "second",
          "type": "uint8"
        }
      ],
      "name": "toTimestamp",
      "outputs": [
        {
          "internalType": "uint256",
          "name": "timestamp",
          "type": "uint256"
        }
      ],
      "stateMutability": "pure",
      "type": "function",
      "constant": true
    }
  ],
  "bytecode": "0x6110d261003a600b82828239805160001a60731461002d57634e487b7160e01b600052600060045260246000fd5b30600052607381538281f3fe73000000000000000000000000000000000000000030146080604052600436106100f55760003560e01c80639054bdec1161009c5780639054bdec146101c457806392d66313146101d7578063a324ad24146101fd578063a6f0e57714610210578063b199993714610233578063b238ad0e14610246578063bbcb08c814610259578063f97d05911461026c578063fa93f883146102ea57600080fd5b80633e239e1a146100fa5780634ac1ad7814610124578063588a93881461013757806362ba96871461015757806365c72840146101785780637f7918331461018b5780638aa001fc1461019e5780638c8d98a0146101b1575b600080fd5b61010d610108366004610b7b565b6102fd565b60405160ff90911681526020015b60405180910390f35b61010d610132366004610b7b565b610327565b61014a610145366004610b7b565b610343565b60405161011b9190610bc4565b61016a610165366004610c1f565b610368565b60405190815260200161011b565b61010d610186366004610b7b565b610383565b61016a610199366004610c84565b610398565b61010d6101ac366004610b7b565b6103b2565b61016a6101bf366004610cd8565b6103bf565b61016a6101d2366004610d1b565b6103d9565b6101ea6101e5366004610b7b565b61058a565b60405161ffff909116815260200161011b565b61010d61020b366004610b7b565b61067a565b61022361021e366004610d8f565b61068f565b604051901515815260200161011b565b61016a610241366004610b7b565b6106ee565b61010d610254366004610db1565b610733565b61014a610267366004610dfa565b6107fa565b61027f61027a366004610b7b565b610868565b60405161011b9190600060e08201905061ffff8351168252602083015160ff80821660208501528060408601511660408501528060608601511660608501528060808601511660808501528060a08601511660a08501528060c08601511660c0850152505092915050565b61010d6102f8366004610b7b565b610a50565b60006018603c61030d8185610ee1565b6103179190610ee1565b6103219190610ef5565b92915050565b600060076103386201518084610ee1565b610317906004610f09565b606061032182604051806040016040528060018152602001602d60f81b8152506107fa565b6000610379868686868660006103d9565b9695505050505050565b600061038e82610868565b6040015192915050565b60006103a9858585856000806103d9565b95945050505050565b6000610321603c83610ef5565b60006103d184848460008060006103d9565b949350505050565b60006107b25b8761ffff168161ffff161015610435576103f88161068f565b156104125761040b6301e2850083610f09565b9150610423565b6104206301e1338083610f09565b91505b8061042d81610f21565b9150506103df565b61043d610b5c565b601f815261044a8961068f565b1561045b57601d6020820152610463565b601c60208201525b601f60408201819052601e606083018190526080830182905260a0830181905260c0830182905260e0830182905261010083018190526101208301829052610140830152610160820152600191505b8760ff168261ffff16101561051457806104cd600184610f59565b61ffff16600c81106104e1576104e1610f43565b60200201516104f69060ff1662015180610f7c565b6105009084610f09565b92508161050c81610f21565b9250506104b2565b61051f600188610f9b565b61052f9060ff1662015180610f7c565b6105399084610f09565b925061054a60ff8716610e10610f7c565b6105549084610f09565b925061056460ff8616603c610f7c565b61056e9084610f09565b925061057d60ff851684610f09565b9998505050505050505050565b600080808061059d6301e1338086610ee1565b6105a9906107b2610f09565b91506105b66107b26106ee565b6105c38361ffff166106ee565b6105cd9190610fbe565b90506105dd816301e28500610f7c565b6105e79084610f09565b9250806105f66107b284610f59565b61ffff166106049190610fbe565b610612906301e13380610f7c565b61061c9084610f09565b92505b848311156106725761063561021e600184610f59565b1561064f576106486301e2850084610fbe565b9250610660565b61065d6301e1338084610fbe565b92505b61066b600183610f59565b915061061f565b509392505050565b600061068582610868565b6020015192915050565b600061069c600483610fd5565b61ffff16156106ad57506000919050565b6106b8606483610fd5565b61ffff16156106c957506001919050565b6106d561019083610fd5565b61ffff16156106e657506000919050565b506001919050565b60006106fb600183610fbe565b915061070961019083610ee1565b610714606484610ee1565b61071f600485610ee1565b6107299190610fbe565b6103219190610f09565b60008260ff166001148061074a57508260ff166003145b8061075857508260ff166005145b8061076657508260ff166007145b8061077457508260ff166008145b8061078257508260ff16600a145b8061079057508260ff16600c145b1561079d5750601f610321565b8260ff16600414806107b257508260ff166006145b806107c057508260ff166009145b806107ce57508260ff16600b145b156107db5750601e610321565b6107e48261068f565b156107f15750601d610321565b50601c92915050565b6060600061080784610868565b905061081a816000015161ffff16610a5e565b8361082b836020015160ff16610a5e565b8561083c856040015160ff16610a5e565b604051602001610850959493929190610ff6565b60405160208183030381529060405291505092915050565b6040805160e081018252600080825260208201819052918101829052606081018290526080810182905260a0810182905260c081018290529080806108ac8561058a565b61ffff1684526108bd6107b26106ee565b84516108cc9061ffff166106ee565b6108d69190610fbe565b91506108e6826301e28500610f7c565b6108f09084610f09565b9250816107b285600001516109059190610f59565b61ffff166109139190610fbe565b610921906301e13380610f7c565b61092b9084610f09565b92506000600191505b600c8260ff161161099c5761094d828660000151610733565b61095d9060ff1662015180610f7c565b90508561096a8583610f09565b111561097e5760ff8216602086015261099c565b6109888185610f09565b93508161099481611061565b925050610934565b600191505b6109b385602001518660000151610733565b60ff168260ff1611610a0257856109cd8562015180610f09565b11156109e15760ff82166040860152610a02565b6109ee6201518085610f09565b9350816109fa81611061565b9250506109a1565b610a0b866102fd565b60ff166060860152610a1c86610a50565b60ff166080860152610a2d866103b2565b60ff1660a0860152610a3e86610327565b60ff1660c08601525092949350505050565b6000603c6103178184610ee1565b606081610a825750506040805180820190915260018152600360fc1b602082015290565b8160005b8115610aac5780610a9681611081565b9150610aa59050600a83610ee1565b9150610a86565b60008167ffffffffffffffff811115610ac757610ac7610de4565b6040519080825280601f01601f191660200182016040528015610af1576020820181803683370190505b5090505b84156103d157610b06600183610fbe565b9150610b13600a86610ef5565b610b1e906030610f09565b60f81b818381518110610b3357610b33610f43565b60200101906001600160f81b031916908160001a905350610b55600a86610ee1565b9450610af5565b604051806101800160405280600c906020820280368337509192915050565b600060208284031215610b8d57600080fd5b5035919050565b60005b83811015610baf578181015183820152602001610b97565b83811115610bbe576000848401525b50505050565b6020815260008251806020840152610be3816040850160208701610b94565b601f01601f19169190910160400192915050565b803561ffff81168114610c0957600080fd5b919050565b803560ff81168114610c0957600080fd5b600080600080600060a08688031215610c3757600080fd5b610c4086610bf7565b9450610c4e60208701610c0e565b9350610c5c60408701610c0e565b9250610c6a60608701610c0e565b9150610c7860808701610c0e565b90509295509295909350565b60008060008060808587031215610c9a57600080fd5b610ca385610bf7565b9350610cb160208601610c0e565b9250610cbf60408601610c0e565b9150610ccd60608601610c0e565b905092959194509250565b600080600060608486031215610ced57600080fd5b610cf684610bf7565b9250610d0460208501610c0e565b9150610d1260408501610c0e565b90509250925092565b60008060008060008060c08789031215610d3457600080fd5b610d3d87610bf7565b9550610d4b60208801610c0e565b9450610d5960408801610c0e565b9350610d6760608801610c0e565b9250610d7560808801610c0e565b9150610d8360a08801610c0e565b90509295509295509295565b600060208284031215610da157600080fd5b610daa82610bf7565b9392505050565b60008060408385031215610dc457600080fd5b610dcd83610c0e565b9150610ddb60208401610bf7565b90509250929050565b634e487b7160e01b600052604160045260246000fd5b60008060408385031215610e0d57600080fd5b82359150602083013567ffffffffffffffff80821115610e2c57600080fd5b818501915085601f830112610e4057600080fd5b813581811115610e5257610e52610de4565b604051601f8201601f19908116603f01168101908382118183101715610e7a57610e7a610de4565b81604052828152886020848701011115610e9357600080fd5b8260208601602083013760006020848301015280955050505050509250929050565b634e487b7160e01b600052601260045260246000fd5b634e487b7160e01b600052601160045260246000fd5b600082610ef057610ef0610eb5565b500490565b600082610f0457610f04610eb5565b500690565b60008219821115610f1c57610f1c610ecb565b500190565b600061ffff80831681811415610f3957610f39610ecb565b6001019392505050565b634e487b7160e01b600052603260045260246000fd5b600061ffff83811690831681811015610f7457610f74610ecb565b039392505050565b6000816000190483118215151615610f9657610f96610ecb565b500290565b600060ff821660ff841680821015610fb557610fb5610ecb565b90039392505050565b600082821015610fd057610fd0610ecb565b500390565b600061ffff80841680610fea57610fea610eb5565b92169190910692915050565b60008651611008818460208b01610b94565b86519083019061101c818360208b01610b94565b865191019061102f818360208a01610b94565b8551910190611042818360208901610b94565b8451910190611055818360208801610b94565b01979650505050505050565b600060ff821660ff81141561107857611078610ecb565b60010192915050565b600060001982141561109557611095610ecb565b506001019056fea264697066735822122052e611cea254ad406f1df4dcd8089cd35e24035e53d02a1e263d27160421445e64736f6c63430008090033",
  "immutableReferences": {},
  "source": "// SPDX-License-Identifier: MIT\npragma solidity 0.8.9; // Modified for and updated pragma solidity declaration\n// pragma solidity ^0.4.16;\n\nimport '@openzeppelin/contracts/utils/Strings.sol';\n\n\n/// @notice Date and Time utilities for ethereum contracts\n/// @author Piper Merriam https://github.com/pipermerriam\nlibrary DateTime {\n\n        struct DateTimeStruct {\n                uint16 year;\n                uint8 month;\n                uint8 day;\n                uint8 hour;\n                uint8 minute;\n                uint8 second;\n                uint8 weekday;\n        }\n\n        uint constant DAY_IN_SECONDS = 86400;\n        uint constant YEAR_IN_SECONDS = 31536000;\n        uint constant LEAP_YEAR_IN_SECONDS = 31622400;\n\n        uint constant HOUR_IN_SECONDS = 3600;\n        uint constant MINUTE_IN_SECONDS = 60;\n\n        uint16 constant ORIGIN_YEAR = 1970;\n\n        string constant DATE_SEPARATOR = '-';\n\n        /// @notice Function that returns a string (YYYY-MM-DD) from a timestamp\n        /// @param dt uint256 timestamp (commonly block.timestamp)\n        function timestampToString(uint256 dt) public pure returns (string memory) {\n                return timestampToString(dt, DATE_SEPARATOR);\n        }\n\n\n        /// @notice Function that returns a string (YYYY-MM-DD) from a timestamp\n        /// @param dt uint256 timestamp (commonly block.timestamp)\n        /// @param separator string with the separator\n        function timestampToString(uint256 dt, string memory separator) public pure returns (string memory) {\n                DateTimeStruct memory date = parseTimestamp(dt);\n                return string(abi.encodePacked(\n                Strings.toString(date.year),\n                separator,\n                Strings.toString(date.month),\n                separator,\n                Strings.toString(date.day)\n                ));\n        }\n\n        function isLeapYear(uint16 year) public pure returns (bool) {\n                if (year % 4 != 0) {\n                        return false;\n                }\n                if (year % 100 != 0) {\n                        return true;\n                }\n                if (year % 400 != 0) {\n                        return false;\n                }\n                return true;\n        }\n\n        function leapYearsBefore(uint year) public pure returns (uint) {\n                year -= 1;\n                return year / 4 - year / 100 + year / 400;\n        }\n\n        function getDaysInMonth(uint8 month, uint16 year) public pure returns (uint8) {\n                if (month == 1 || month == 3 || month == 5 || month == 7 || month == 8 || month == 10 || month == 12) {\n                        return 31;\n                }\n                else if (month == 4 || month == 6 || month == 9 || month == 11) {\n                        return 30;\n                }\n                else if (isLeapYear(year)) {\n                        return 29;\n                }\n                else {\n                        return 28;\n                }\n        }\n\n        // function parseTimestamp(uint timestamp) internal pure returns (DateTimeStruct dt) {\n        function parseTimestamp(uint timestamp) public pure returns (DateTimeStruct memory dt) {\n                uint secondsAccountedFor = 0;\n                uint buf;\n                uint8 i;\n\n                // Year\n                dt.year = getYear(timestamp);\n                buf = leapYearsBefore(dt.year) - leapYearsBefore(ORIGIN_YEAR);\n\n                secondsAccountedFor += LEAP_YEAR_IN_SECONDS * buf;\n                secondsAccountedFor += YEAR_IN_SECONDS * (dt.year - ORIGIN_YEAR - buf);\n\n                // Month\n                uint secondsInMonth;\n                for (i = 1; i <= 12; i++) {\n                        secondsInMonth = DAY_IN_SECONDS * getDaysInMonth(i, dt.year);\n                        if (secondsInMonth + secondsAccountedFor > timestamp) {\n                                dt.month = i;\n                                break;\n                        }\n                        secondsAccountedFor += secondsInMonth;\n                }\n\n                // Day\n                for (i = 1; i <= getDaysInMonth(dt.month, dt.year); i++) {\n                        if (DAY_IN_SECONDS + secondsAccountedFor > timestamp) {\n                                dt.day = i;\n                                break;\n                        }\n                        secondsAccountedFor += DAY_IN_SECONDS;\n                }\n\n                // Hour\n                dt.hour = getHour(timestamp);\n\n                // Minute\n                dt.minute = getMinute(timestamp);\n\n                // Second\n                dt.second = getSecond(timestamp);\n\n                // Day of week.\n                dt.weekday = getWeekday(timestamp);\n        }\n\n        function getYear(uint timestamp) public pure returns (uint16) {\n                uint secondsAccountedFor = 0;\n                uint16 year;\n                uint numLeapYears;\n\n                // Year\n                year = uint16(ORIGIN_YEAR + timestamp / YEAR_IN_SECONDS);\n                numLeapYears = leapYearsBefore(year) - leapYearsBefore(ORIGIN_YEAR);\n\n                secondsAccountedFor += LEAP_YEAR_IN_SECONDS * numLeapYears;\n                secondsAccountedFor += YEAR_IN_SECONDS * (year - ORIGIN_YEAR - numLeapYears);\n\n                while (secondsAccountedFor > timestamp) {\n                        if (isLeapYear(uint16(year - 1))) {\n                                secondsAccountedFor -= LEAP_YEAR_IN_SECONDS;\n                        }\n                        else {\n                                secondsAccountedFor -= YEAR_IN_SECONDS;\n                        }\n                        year -= 1;\n                }\n                return year;\n        }\n\n        function getMonth(uint timestamp) public pure returns (uint8) {\n                return parseTimestamp(timestamp).month;\n        }\n\n        function getDay(uint timestamp) public pure returns (uint8) {\n                return parseTimestamp(timestamp).day;\n        }\n\n        function getHour(uint timestamp) public pure returns (uint8) {\n                return uint8((timestamp / 60 / 60) % 24);\n        }\n\n        function getMinute(uint timestamp) public pure returns (uint8) {\n                return uint8((timestamp / 60) % 60);\n        }\n\n        function getSecond(uint timestamp) public pure returns (uint8) {\n                return uint8(timestamp % 60);\n        }\n\n        function getWeekday(uint timestamp) public pure returns (uint8) {\n                return uint8((timestamp / DAY_IN_SECONDS + 4) % 7);\n        }\n\n        function toTimestamp(uint16 year, uint8 month, uint8 day) public pure returns (uint timestamp) {\n                return toTimestamp(year, month, day, 0, 0, 0);\n        }\n\n        function toTimestamp(uint16 year, uint8 month, uint8 day, uint8 hour) public pure returns (uint timestamp) {\n                return toTimestamp(year, month, day, hour, 0, 0);\n        }\n\n        function toTimestamp(uint16 year, uint8 month, uint8 day, uint8 hour, uint8 minute) public pure returns (uint timestamp) {\n                return toTimestamp(year, month, day, hour, minute, 0);\n        }\n\n        function toTimestamp(uint16 year, uint8 month, uint8 day, uint8 hour, uint8 minute, uint8 second) public pure returns (uint timestamp) {\n                uint16 i;\n\n                // Year\n                for (i = ORIGIN_YEAR; i < year; i++) {\n                        if (isLeapYear(i)) {\n                                timestamp += LEAP_YEAR_IN_SECONDS;\n                        }\n                        else {\n                                timestamp += YEAR_IN_SECONDS;\n                        }\n                }\n\n                // Month\n                uint8[12] memory monthDayCounts;\n                monthDayCounts[0] = 31;\n                if (isLeapYear(year)) {\n                        monthDayCounts[1] = 29;\n                }\n                else {\n                        monthDayCounts[1] = 28;\n                }\n                monthDayCounts[2] = 31;\n                monthDayCounts[3] = 30;\n                monthDayCounts[4] = 31;\n                monthDayCounts[5] = 30;\n                monthDayCounts[6] = 31;\n                monthDayCounts[7] = 31;\n                monthDayCounts[8] = 30;\n                monthDayCounts[9] = 31;\n                monthDayCounts[10] = 30;\n                monthDayCounts[11] = 31;\n\n                for (i = 1; i < month; i++) {\n                        timestamp += DAY_IN_SECONDS * monthDayCounts[i - 1];\n                }\n\n                // Day\n                timestamp += DAY_IN_SECONDS * (day - 1);\n\n                // Hour\n                timestamp += HOUR_IN_SECONDS * (hour);\n\n                // Minute\n                timestamp += MINUTE_IN_SECONDS * (minute);\n\n                // Second\n                timestamp += second;\n\n                return timestamp;\n        }\n}",
  "sourcePath": "/Users/matias/coding/github/blockchain-developer-bootcamp-final-project/contracts/libraries/DateTime.sol",
  "compiler": {
    "name": "solc",
    "version": "0.8.9+commit.e5eed63a.Emscripten.clang"
  },
  "schemaVersion": "3.4.3",
  "updatedAt": "2021-11-30T08:03:18.576Z",
  "networkType": "ethereum",
  "devdoc": {
    "author": "Piper Merriam https://github.com/pipermerriam",
    "kind": "dev",
    "methods": {
      "timestampToString(uint256)": {
        "params": {
          "dt": "uint256 timestamp (commonly block.timestamp)"
        }
      },
      "timestampToString(uint256,string)": {
        "params": {
          "dt": "uint256 timestamp (commonly block.timestamp)",
          "separator": "string with the separator"
        }
      }
    },
    "version": 1
  },
  "userdoc": {
    "kind": "user",
    "methods": {
      "timestampToString(uint256)": {
        "notice": "Function that returns a string (YYYY-MM-DD) from a timestamp"
      },
      "timestampToString(uint256,string)": {
        "notice": "Function that returns a string (YYYY-MM-DD) from a timestamp"
      }
    },
    "notice": "Date and Time utilities for ethereum contracts",
    "version": 1
  }
}