{
  "contractName": "DateTime",
  "abi": [
    {
      "inputs": [
        {
          "internalType": "uint256",
          "name": "dt",
          "type": "uint256"
        }
      ],
      "name": "timestampToString",
      "outputs": [
        {
          "internalType": "string",
          "name": "",
          "type": "string"
        }
      ],
      "stateMutability": "pure",
      "type": "function",
      "constant": true
    },
    {
      "inputs": [
        {
          "internalType": "uint256",
          "name": "dt",
          "type": "uint256"
        },
        {
          "internalType": "string",
          "name": "separator",
          "type": "string"
        }
      ],
      "name": "timestampToString",
      "outputs": [
        {
          "internalType": "string",
          "name": "",
          "type": "string"
        }
      ],
      "stateMutability": "pure",
      "type": "function",
      "constant": true
    },
    {
      "inputs": [
        {
          "internalType": "uint16",
          "name": "year",
          "type": "uint16"
        }
      ],
      "name": "isLeapYear",
      "outputs": [
        {
          "internalType": "bool",
          "name": "",
          "type": "bool"
        }
      ],
      "stateMutability": "pure",
      "type": "function",
      "constant": true
    },
    {
      "inputs": [
        {
          "internalType": "uint256",
          "name": "year",
          "type": "uint256"
        }
      ],
      "name": "leapYearsBefore",
      "outputs": [
        {
          "internalType": "uint256",
          "name": "",
          "type": "uint256"
        }
      ],
      "stateMutability": "pure",
      "type": "function",
      "constant": true
    },
    {
      "inputs": [
        {
          "internalType": "uint8",
          "name": "month",
          "type": "uint8"
        },
        {
          "internalType": "uint16",
          "name": "year",
          "type": "uint16"
        }
      ],
      "name": "getDaysInMonth",
      "outputs": [
        {
          "internalType": "uint8",
          "name": "",
          "type": "uint8"
        }
      ],
      "stateMutability": "pure",
      "type": "function",
      "constant": true
    },
    {
      "inputs": [
        {
          "internalType": "uint256",
          "name": "timestamp",
          "type": "uint256"
        }
      ],
      "name": "parseTimestamp",
      "outputs": [
        {
          "components": [
            {
              "internalType": "uint16",
              "name": "year",
              "type": "uint16"
            },
            {
              "internalType": "uint8",
              "name": "month",
              "type": "uint8"
            },
            {
              "internalType": "uint8",
              "name": "day",
              "type": "uint8"
            },
            {
              "internalType": "uint8",
              "name": "hour",
              "type": "uint8"
            },
            {
              "internalType": "uint8",
              "name": "minute",
              "type": "uint8"
            },
            {
              "internalType": "uint8",
              "name": "second",
              "type": "uint8"
            },
            {
              "internalType": "uint8",
              "name": "weekday",
              "type": "uint8"
            }
          ],
          "internalType": "struct DateTime.DateTimeStruct",
          "name": "dt",
          "type": "tuple"
        }
      ],
      "stateMutability": "pure",
      "type": "function",
      "constant": true
    },
    {
      "inputs": [
        {
          "internalType": "uint256",
          "name": "timestamp",
          "type": "uint256"
        }
      ],
      "name": "getYear",
      "outputs": [
        {
          "internalType": "uint16",
          "name": "",
          "type": "uint16"
        }
      ],
      "stateMutability": "pure",
      "type": "function",
      "constant": true
    },
    {
      "inputs": [
        {
          "internalType": "uint256",
          "name": "timestamp",
          "type": "uint256"
        }
      ],
      "name": "getMonth",
      "outputs": [
        {
          "internalType": "uint8",
          "name": "",
          "type": "uint8"
        }
      ],
      "stateMutability": "pure",
      "type": "function",
      "constant": true
    },
    {
      "inputs": [
        {
          "internalType": "uint256",
          "name": "timestamp",
          "type": "uint256"
        }
      ],
      "name": "getDay",
      "outputs": [
        {
          "internalType": "uint8",
          "name": "",
          "type": "uint8"
        }
      ],
      "stateMutability": "pure",
      "type": "function",
      "constant": true
    },
    {
      "inputs": [
        {
          "internalType": "uint256",
          "name": "timestamp",
          "type": "uint256"
        }
      ],
      "name": "getHour",
      "outputs": [
        {
          "internalType": "uint8",
          "name": "",
          "type": "uint8"
        }
      ],
      "stateMutability": "pure",
      "type": "function",
      "constant": true
    },
    {
      "inputs": [
        {
          "internalType": "uint256",
          "name": "timestamp",
          "type": "uint256"
        }
      ],
      "name": "getMinute",
      "outputs": [
        {
          "internalType": "uint8",
          "name": "",
          "type": "uint8"
        }
      ],
      "stateMutability": "pure",
      "type": "function",
      "constant": true
    },
    {
      "inputs": [
        {
          "internalType": "uint256",
          "name": "timestamp",
          "type": "uint256"
        }
      ],
      "name": "getSecond",
      "outputs": [
        {
          "internalType": "uint8",
          "name": "",
          "type": "uint8"
        }
      ],
      "stateMutability": "pure",
      "type": "function",
      "constant": true
    },
    {
      "inputs": [
        {
          "internalType": "uint256",
          "name": "timestamp",
          "type": "uint256"
        }
      ],
      "name": "getWeekday",
      "outputs": [
        {
          "internalType": "uint8",
          "name": "",
          "type": "uint8"
        }
      ],
      "stateMutability": "pure",
      "type": "function",
      "constant": true
    },
    {
      "inputs": [
        {
          "internalType": "uint16",
          "name": "year",
          "type": "uint16"
        },
        {
          "internalType": "uint8",
          "name": "month",
          "type": "uint8"
        },
        {
          "internalType": "uint8",
          "name": "day",
          "type": "uint8"
        },
        {
          "internalType": "uint8",
          "name": "hour",
          "type": "uint8"
        },
        {
          "internalType": "uint8",
          "name": "minute",
          "type": "uint8"
        }
      ],
      "name": "toTimestamp",
      "outputs": [
        {
          "internalType": "uint256",
          "name": "timestamp",
          "type": "uint256"
        }
      ],
      "stateMutability": "pure",
      "type": "function",
      "constant": true
    },
    {
      "inputs": [
        {
          "internalType": "uint16",
          "name": "year",
          "type": "uint16"
        },
        {
          "internalType": "uint8",
          "name": "month",
          "type": "uint8"
        },
        {
          "internalType": "uint8",
          "name": "day",
          "type": "uint8"
        },
        {
          "internalType": "uint8",
          "name": "hour",
          "type": "uint8"
        }
      ],
      "name": "toTimestamp",
      "outputs": [
        {
          "internalType": "uint256",
          "name": "timestamp",
          "type": "uint256"
        }
      ],
      "stateMutability": "pure",
      "type": "function",
      "constant": true
    },
    {
      "inputs": [
        {
          "internalType": "uint16",
          "name": "year",
          "type": "uint16"
        },
        {
          "internalType": "uint8",
          "name": "month",
          "type": "uint8"
        },
        {
          "internalType": "uint8",
          "name": "day",
          "type": "uint8"
        }
      ],
      "name": "toTimestamp",
      "outputs": [
        {
          "internalType": "uint256",
          "name": "timestamp",
          "type": "uint256"
        }
      ],
      "stateMutability": "pure",
      "type": "function",
      "constant": true
    },
    {
      "inputs": [
        {
          "internalType": "uint16",
          "name": "year",
          "type": "uint16"
        },
        {
          "internalType": "uint8",
          "name": "month",
          "type": "uint8"
        },
        {
          "internalType": "uint8",
          "name": "day",
          "type": "uint8"
        },
        {
          "internalType": "uint8",
          "name": "hour",
          "type": "uint8"
        },
        {
          "internalType": "uint8",
          "name": "minute",
          "type": "uint8"
        },
        {
          "internalType": "uint8",
          "name": "second",
          "type": "uint8"
        }
      ],
      "name": "toTimestamp",
      "outputs": [
        {
          "internalType": "uint256",
          "name": "timestamp",
          "type": "uint256"
        }
      ],
      "stateMutability": "pure",
      "type": "function",
      "constant": true
    }
  ],
  "bytecode": "0x6110fa61003a600b82828239805160001a60731461002d57634e487b7160e01b600052600060045260246000fd5b30600052607381538281f3fe73000000000000000000000000000000000000000030146080604052600436106101155760003560e01c80639054bdec116100ac578063b19999371161007b578063b199993714610253578063b238ad0e14610266578063bbcb08c814610279578063f97d05911461028c578063fa93f8831461030a57600080fd5b80639054bdec146101e457806392d66313146101f7578063a324ad241461021d578063a6f0e5771461023057600080fd5b806365c72840116100e857806365c72840146101985780637f791833146101ab5780638aa001fc146101be5780638c8d98a0146101d157600080fd5b80633e239e1a1461011a5780634ac1ad7814610144578063588a93881461015757806362ba968714610177575b600080fd5b61012d610128366004610d7a565b61031d565b60405160ff90911681526020015b60405180910390f35b61012d610152366004610d7a565b610347565b61016a610165366004610d7a565b610363565b60405161013b9190610ee5565b61018a610185366004610ca3565b610388565b60405190815260200161013b565b61012d6101a6366004610d7a565b6103a3565b61018a6101b9366004610c50565b6103b8565b61012d6101cc366004610d7a565b6103d2565b61018a6101df366004610c0e565b6103df565b61018a6101f2366004610d07565b6103f9565b61020a610205366004610d7a565b6105b8565b60405161ffff909116815260200161013b565b61012d61022b366004610d7a565b6106a8565b61024361023e366004610bed565b6106bd565b604051901515815260200161013b565b61018a610261366004610d7a565b61071c565b61012d610274366004610e48565b610761565b61016a610287366004610d92565b610828565b61029f61029a366004610d7a565b610896565b60405161013b9190600060e08201905061ffff8351168252602083015160ff80821660208501528060408601511660408501528060608601511660608501528060808601511660808501528060a08601511660a08501528060c08601511660c0850152505092915050565b61012d610318366004610d7a565b610a7e565b60006018603c61032d8185610f30565b6103379190610f30565b610341919061106e565b92915050565b600060076103586201518084610f30565b610337906004610f18565b606061034182604051806040016040528060018152602001602d60f81b815250610828565b6000610399868686868660006103f9565b9695505050505050565b60006103ae82610896565b6040015192915050565b60006103c9858585856000806103f9565b95945050505050565b6000610341603c8361106e565b60006103f184848460008060006103f9565b949350505050565b60006107b25b8761ffff168161ffff16101561045557610418816106bd565b156104325761042b6301e2850083610f18565b9150610443565b6104406301e1338083610f18565b91505b8061044d81610ff0565b9150506103ff565b61045d610ba6565b601f815261046a896106bd565b1561047b57601d6020820152610483565b601c60208201525b601f60408201819052601e606083018190526080830182905260a0830181905260c0830182905260e0830182905261010083018190526101208301829052610140830152610160820152600191505b8760ff168261ffff16101561054257806104ed600184610f63565b61ffff16600c811061050f57634e487b7160e01b600052603260045260246000fd5b60200201516105249060ff1662015180610f44565b61052e9084610f18565b92508161053a81610ff0565b9250506104d2565b61054d600188610f9d565b61055d9060ff1662015180610f44565b6105679084610f18565b925061057860ff8716610e10610f44565b6105829084610f18565b925061059260ff8616603c610f44565b61059c9084610f18565b92506105ab60ff851684610f18565b9998505050505050505050565b60008080806105cb6301e1338086610f30565b6105d7906107b2610f18565b91506105e46107b261071c565b6105f18361ffff1661071c565b6105fb9190610f86565b905061060b816301e28500610f44565b6106159084610f18565b9250806106246107b284610f63565b61ffff166106329190610f86565b610640906301e13380610f44565b61064a9084610f18565b92505b848311156106a05761066361023e600184610f63565b1561067d576106766301e2850084610f86565b925061068e565b61068b6301e1338084610f86565b92505b610699600183610f63565b915061064d565b509392505050565b60006106b382610896565b6020015192915050565b60006106ca60048361104d565b61ffff16156106db57506000919050565b6106e660648361104d565b61ffff16156106f757506001919050565b6107036101908361104d565b61ffff161561071457506000919050565b506001919050565b6000610729600183610f86565b915061073761019083610f30565b610742606484610f30565b61074d600485610f30565b6107579190610f86565b6103419190610f18565b60008260ff166001148061077857508260ff166003145b8061078657508260ff166005145b8061079457508260ff166007145b806107a257508260ff166008145b806107b057508260ff16600a145b806107be57508260ff16600c145b156107cb5750601f610341565b8260ff16600414806107e057508260ff166006145b806107ee57508260ff166009145b806107fc57508260ff16600b145b156108095750601e610341565b610812826106bd565b1561081f5750601d610341565b50601c92915050565b6060600061083584610896565b9050610848816000015161ffff16610a8c565b83610859836020015160ff16610a8c565b8561086a856040015160ff16610a8c565b60405160200161087e959493929190610e7a565b60405160208183030381529060405291505092915050565b6040805160e081018252600080825260208201819052918101829052606081018290526080810182905260a0810182905260c081018290529080806108da856105b8565b61ffff1684526108eb6107b261071c565b84516108fa9061ffff1661071c565b6109049190610f86565b9150610914826301e28500610f44565b61091e9084610f18565b9250816107b285600001516109339190610f63565b61ffff166109419190610f86565b61094f906301e13380610f44565b6109599084610f18565b92506000600191505b600c8260ff16116109ca5761097b828660000151610761565b61098b9060ff1662015180610f44565b9050856109988583610f18565b11156109ac5760ff821660208601526109ca565b6109b68185610f18565b9350816109c28161102d565b925050610962565b600191505b6109e185602001518660000151610761565b60ff168260ff1611610a3057856109fb8562015180610f18565b1115610a0f5760ff82166040860152610a30565b610a1c6201518085610f18565b935081610a288161102d565b9250506109cf565b610a398661031d565b60ff166060860152610a4a86610a7e565b60ff166080860152610a5b866103d2565b60ff1660a0860152610a6c86610347565b60ff1660c08601525092949350505050565b6000603c6103378184610f30565b606081610ab05750506040805180820190915260018152600360fc1b602082015290565b8160005b8115610ada5780610ac481611012565b9150610ad39050600a83610f30565b9150610ab4565b60008167ffffffffffffffff811115610b0357634e487b7160e01b600052604160045260246000fd5b6040519080825280601f01601f191660200182016040528015610b2d576020820181803683370190505b5090505b84156103f157610b42600183610f86565b9150610b4f600a8661106e565b610b5a906030610f18565b60f81b818381518110610b7d57634e487b7160e01b600052603260045260246000fd5b60200101906001600160f81b031916908160001a905350610b9f600a86610f30565b9450610b31565b604051806101800160405280600c906020820280368337509192915050565b803561ffff81168114610bd757600080fd5b919050565b803560ff81168114610bd757600080fd5b600060208284031215610bfe578081fd5b610c0782610bc5565b9392505050565b600080600060608486031215610c22578182fd5b610c2b84610bc5565b9250610c3960208501610bdc565b9150610c4760408501610bdc565b90509250925092565b60008060008060808587031215610c65578081fd5b610c6e85610bc5565b9350610c7c60208601610bdc565b9250610c8a60408601610bdc565b9150610c9860608601610bdc565b905092959194509250565b600080600080600060a08688031215610cba578081fd5b610cc386610bc5565b9450610cd160208701610bdc565b9350610cdf60408701610bdc565b9250610ced60608701610bdc565b9150610cfb60808701610bdc565b90509295509295909350565b60008060008060008060c08789031215610d1f578081fd5b610d2887610bc5565b9550610d3660208801610bdc565b9450610d4460408801610bdc565b9350610d5260608801610bdc565b9250610d6060808801610bdc565b9150610d6e60a08801610bdc565b90509295509295509295565b600060208284031215610d8b578081fd5b5035919050565b60008060408385031215610da4578182fd5b82359150602083013567ffffffffffffffff80821115610dc2578283fd5b818501915085601f830112610dd5578283fd5b813581811115610de757610de76110ae565b604051601f8201601f19908116603f01168101908382118183101715610e0f57610e0f6110ae565b81604052828152886020848701011115610e27578586fd5b82602086016020830137856020848301015280955050505050509250929050565b60008060408385031215610e5a578182fd5b610e6383610bdc565b9150610e7160208401610bc5565b90509250929050565b60008651610e8c818460208b01610fc0565b865190830190610ea0818360208b01610fc0565b8651910190610eb3818360208a01610fc0565b8551910190610ec6818360208901610fc0565b8451910190610ed9818360208801610fc0565b01979650505050505050565b6020815260008251806020840152610f04816040850160208701610fc0565b601f01601f19169190910160400192915050565b60008219821115610f2b57610f2b611082565b500190565b600082610f3f57610f3f611098565b500490565b6000816000190483118215151615610f5e57610f5e611082565b500290565b600061ffff83811690831681811015610f7e57610f7e611082565b039392505050565b600082821015610f9857610f98611082565b500390565b600060ff821660ff841680821015610fb757610fb7611082565b90039392505050565b60005b83811015610fdb578181015183820152602001610fc3565b83811115610fea576000848401525b50505050565b600061ffff8083168181141561100857611008611082565b6001019392505050565b600060001982141561102657611026611082565b5060010190565b600060ff821660ff81141561104457611044611082565b60010192915050565b600061ffff8084168061106257611062611098565b92169190910692915050565b60008261107d5761107d611098565b500690565b634e487b7160e01b600052601160045260246000fd5b634e487b7160e01b600052601260045260246000fd5b634e487b7160e01b600052604160045260246000fdfea2646970667358221220d51add3dfbdd534948bbae2f9a4865ca438d8d86cb13e717d76bb0109a5c7b7e64736f6c63430008040033",
  "immutableReferences": {},
  "source": "// SPDX-License-Identifier: MIT\npragma solidity >=0.8.0; // Modified for and updated pragma solidity declaration\n// pragma solidity ^0.4.16;\n\nimport '@openzeppelin/contracts/utils/Strings.sol';\n\n\n/// @notice Date and Time utilities for ethereum contracts\n/// @author Piper Merriam https://github.com/pipermerriam\nlibrary DateTime {\n\n        struct DateTimeStruct {\n                uint16 year;\n                uint8 month;\n                uint8 day;\n                uint8 hour;\n                uint8 minute;\n                uint8 second;\n                uint8 weekday;\n        }\n\n        uint constant DAY_IN_SECONDS = 86400;\n        uint constant YEAR_IN_SECONDS = 31536000;\n        uint constant LEAP_YEAR_IN_SECONDS = 31622400;\n\n        uint constant HOUR_IN_SECONDS = 3600;\n        uint constant MINUTE_IN_SECONDS = 60;\n\n        uint16 constant ORIGIN_YEAR = 1970;\n\n        string constant DATE_SEPARATOR = '-';\n\n        /// @notice Function that returns a string (YYYY-MM-DD) from a timestamp\n        /// @param dt uint256 timestamp (commonly block.timestamp)\n        function timestampToString(uint256 dt) public pure returns (string memory) {\n                return timestampToString(dt, DATE_SEPARATOR);\n        }\n\n\n        /// @notice Function that returns a string (YYYY-MM-DD) from a timestamp\n        /// @param dt uint256 timestamp (commonly block.timestamp)\n        /// @param separator string with the separator\n        function timestampToString(uint256 dt, string memory separator) public pure returns (string memory) {\n                DateTimeStruct memory date = parseTimestamp(dt);\n                return string(abi.encodePacked(\n                Strings.toString(date.year),\n                separator,\n                Strings.toString(date.month),\n                separator,\n                Strings.toString(date.day)\n                ));\n        }\n\n        function isLeapYear(uint16 year) public pure returns (bool) {\n                if (year % 4 != 0) {\n                        return false;\n                }\n                if (year % 100 != 0) {\n                        return true;\n                }\n                if (year % 400 != 0) {\n                        return false;\n                }\n                return true;\n        }\n\n        function leapYearsBefore(uint year) public pure returns (uint) {\n                year -= 1;\n                return year / 4 - year / 100 + year / 400;\n        }\n\n        function getDaysInMonth(uint8 month, uint16 year) public pure returns (uint8) {\n                if (month == 1 || month == 3 || month == 5 || month == 7 || month == 8 || month == 10 || month == 12) {\n                        return 31;\n                }\n                else if (month == 4 || month == 6 || month == 9 || month == 11) {\n                        return 30;\n                }\n                else if (isLeapYear(year)) {\n                        return 29;\n                }\n                else {\n                        return 28;\n                }\n        }\n\n        // function parseTimestamp(uint timestamp) internal pure returns (DateTimeStruct dt) {\n        function parseTimestamp(uint timestamp) public pure returns (DateTimeStruct memory dt) {\n                uint secondsAccountedFor = 0;\n                uint buf;\n                uint8 i;\n\n                // Year\n                dt.year = getYear(timestamp);\n                buf = leapYearsBefore(dt.year) - leapYearsBefore(ORIGIN_YEAR);\n\n                secondsAccountedFor += LEAP_YEAR_IN_SECONDS * buf;\n                secondsAccountedFor += YEAR_IN_SECONDS * (dt.year - ORIGIN_YEAR - buf);\n\n                // Month\n                uint secondsInMonth;\n                for (i = 1; i <= 12; i++) {\n                        secondsInMonth = DAY_IN_SECONDS * getDaysInMonth(i, dt.year);\n                        if (secondsInMonth + secondsAccountedFor > timestamp) {\n                                dt.month = i;\n                                break;\n                        }\n                        secondsAccountedFor += secondsInMonth;\n                }\n\n                // Day\n                for (i = 1; i <= getDaysInMonth(dt.month, dt.year); i++) {\n                        if (DAY_IN_SECONDS + secondsAccountedFor > timestamp) {\n                                dt.day = i;\n                                break;\n                        }\n                        secondsAccountedFor += DAY_IN_SECONDS;\n                }\n\n                // Hour\n                dt.hour = getHour(timestamp);\n\n                // Minute\n                dt.minute = getMinute(timestamp);\n\n                // Second\n                dt.second = getSecond(timestamp);\n\n                // Day of week.\n                dt.weekday = getWeekday(timestamp);\n        }\n\n        function getYear(uint timestamp) public pure returns (uint16) {\n                uint secondsAccountedFor = 0;\n                uint16 year;\n                uint numLeapYears;\n\n                // Year\n                year = uint16(ORIGIN_YEAR + timestamp / YEAR_IN_SECONDS);\n                numLeapYears = leapYearsBefore(year) - leapYearsBefore(ORIGIN_YEAR);\n\n                secondsAccountedFor += LEAP_YEAR_IN_SECONDS * numLeapYears;\n                secondsAccountedFor += YEAR_IN_SECONDS * (year - ORIGIN_YEAR - numLeapYears);\n\n                while (secondsAccountedFor > timestamp) {\n                        if (isLeapYear(uint16(year - 1))) {\n                                secondsAccountedFor -= LEAP_YEAR_IN_SECONDS;\n                        }\n                        else {\n                                secondsAccountedFor -= YEAR_IN_SECONDS;\n                        }\n                        year -= 1;\n                }\n                return year;\n        }\n\n        function getMonth(uint timestamp) public pure returns (uint8) {\n                return parseTimestamp(timestamp).month;\n        }\n\n        function getDay(uint timestamp) public pure returns (uint8) {\n                return parseTimestamp(timestamp).day;\n        }\n\n        function getHour(uint timestamp) public pure returns (uint8) {\n                return uint8((timestamp / 60 / 60) % 24);\n        }\n\n        function getMinute(uint timestamp) public pure returns (uint8) {\n                return uint8((timestamp / 60) % 60);\n        }\n\n        function getSecond(uint timestamp) public pure returns (uint8) {\n                return uint8(timestamp % 60);\n        }\n\n        function getWeekday(uint timestamp) public pure returns (uint8) {\n                return uint8((timestamp / DAY_IN_SECONDS + 4) % 7);\n        }\n\n        function toTimestamp(uint16 year, uint8 month, uint8 day) public pure returns (uint timestamp) {\n                return toTimestamp(year, month, day, 0, 0, 0);\n        }\n\n        function toTimestamp(uint16 year, uint8 month, uint8 day, uint8 hour) public pure returns (uint timestamp) {\n                return toTimestamp(year, month, day, hour, 0, 0);\n        }\n\n        function toTimestamp(uint16 year, uint8 month, uint8 day, uint8 hour, uint8 minute) public pure returns (uint timestamp) {\n                return toTimestamp(year, month, day, hour, minute, 0);\n        }\n\n        function toTimestamp(uint16 year, uint8 month, uint8 day, uint8 hour, uint8 minute, uint8 second) public pure returns (uint timestamp) {\n                uint16 i;\n\n                // Year\n                for (i = ORIGIN_YEAR; i < year; i++) {\n                        if (isLeapYear(i)) {\n                                timestamp += LEAP_YEAR_IN_SECONDS;\n                        }\n                        else {\n                                timestamp += YEAR_IN_SECONDS;\n                        }\n                }\n\n                // Month\n                uint8[12] memory monthDayCounts;\n                monthDayCounts[0] = 31;\n                if (isLeapYear(year)) {\n                        monthDayCounts[1] = 29;\n                }\n                else {\n                        monthDayCounts[1] = 28;\n                }\n                monthDayCounts[2] = 31;\n                monthDayCounts[3] = 30;\n                monthDayCounts[4] = 31;\n                monthDayCounts[5] = 30;\n                monthDayCounts[6] = 31;\n                monthDayCounts[7] = 31;\n                monthDayCounts[8] = 30;\n                monthDayCounts[9] = 31;\n                monthDayCounts[10] = 30;\n                monthDayCounts[11] = 31;\n\n                for (i = 1; i < month; i++) {\n                        timestamp += DAY_IN_SECONDS * monthDayCounts[i - 1];\n                }\n\n                // Day\n                timestamp += DAY_IN_SECONDS * (day - 1);\n\n                // Hour\n                timestamp += HOUR_IN_SECONDS * (hour);\n\n                // Minute\n                timestamp += MINUTE_IN_SECONDS * (minute);\n\n                // Second\n                timestamp += second;\n\n                return timestamp;\n        }\n}",
  "sourcePath": "/Users/matias/coding/github/blockchain-developer-bootcamp-final-project/contracts/libraries/DateTime.sol",
  "compiler": {
    "name": "solc",
    "version": "0.8.4+commit.c7e474f2.Emscripten.clang"
  },
  "schemaVersion": "3.4.3",
  "updatedAt": "2021-11-29T05:09:26.854Z",
  "networkType": "ethereum",
  "devdoc": {
    "author": "Piper Merriam https://github.com/pipermerriam",
    "kind": "dev",
    "methods": {
      "timestampToString(uint256)": {
        "params": {
          "dt": "uint256 timestamp (commonly block.timestamp)"
        }
      },
      "timestampToString(uint256,string)": {
        "params": {
          "dt": "uint256 timestamp (commonly block.timestamp)",
          "separator": "string with the separator"
        }
      }
    },
    "version": 1
  },
  "userdoc": {
    "kind": "user",
    "methods": {
      "timestampToString(uint256)": {
        "notice": "Function that returns a string (YYYY-MM-DD) from a timestamp"
      },
      "timestampToString(uint256,string)": {
        "notice": "Function that returns a string (YYYY-MM-DD) from a timestamp"
      }
    },
    "notice": "Date and Time utilities for ethereum contracts",
    "version": 1
  }
}