{
  "contractName": "Rx",
  "abi": [
    {
      "inputs": [],
      "stateMutability": "nonpayable",
      "type": "constructor"
    },
    {
      "anonymous": false,
      "inputs": [
        {
          "indexed": true,
          "internalType": "address",
          "name": "owner",
          "type": "address"
        },
        {
          "indexed": true,
          "internalType": "address",
          "name": "approved",
          "type": "address"
        },
        {
          "indexed": true,
          "internalType": "uint256",
          "name": "tokenId",
          "type": "uint256"
        }
      ],
      "name": "Approval",
      "type": "event"
    },
    {
      "anonymous": false,
      "inputs": [
        {
          "indexed": true,
          "internalType": "address",
          "name": "owner",
          "type": "address"
        },
        {
          "indexed": true,
          "internalType": "address",
          "name": "operator",
          "type": "address"
        },
        {
          "indexed": false,
          "internalType": "bool",
          "name": "approved",
          "type": "bool"
        }
      ],
      "name": "ApprovalForAll",
      "type": "event"
    },
    {
      "anonymous": false,
      "inputs": [
        {
          "indexed": true,
          "internalType": "bytes32",
          "name": "role",
          "type": "bytes32"
        },
        {
          "indexed": true,
          "internalType": "bytes32",
          "name": "previousAdminRole",
          "type": "bytes32"
        },
        {
          "indexed": true,
          "internalType": "bytes32",
          "name": "newAdminRole",
          "type": "bytes32"
        }
      ],
      "name": "RoleAdminChanged",
      "type": "event"
    },
    {
      "anonymous": false,
      "inputs": [
        {
          "indexed": true,
          "internalType": "bytes32",
          "name": "role",
          "type": "bytes32"
        },
        {
          "indexed": true,
          "internalType": "address",
          "name": "account",
          "type": "address"
        },
        {
          "indexed": true,
          "internalType": "address",
          "name": "sender",
          "type": "address"
        }
      ],
      "name": "RoleGranted",
      "type": "event"
    },
    {
      "anonymous": false,
      "inputs": [
        {
          "indexed": true,
          "internalType": "bytes32",
          "name": "role",
          "type": "bytes32"
        },
        {
          "indexed": true,
          "internalType": "address",
          "name": "account",
          "type": "address"
        },
        {
          "indexed": true,
          "internalType": "address",
          "name": "sender",
          "type": "address"
        }
      ],
      "name": "RoleRevoked",
      "type": "event"
    },
    {
      "anonymous": false,
      "inputs": [
        {
          "indexed": true,
          "internalType": "address",
          "name": "from",
          "type": "address"
        },
        {
          "indexed": true,
          "internalType": "address",
          "name": "to",
          "type": "address"
        },
        {
          "indexed": true,
          "internalType": "uint256",
          "name": "tokenId",
          "type": "uint256"
        }
      ],
      "name": "Transfer",
      "type": "event"
    },
    {
      "anonymous": false,
      "inputs": [
        {
          "indexed": true,
          "internalType": "address",
          "name": "sender",
          "type": "address"
        },
        {
          "indexed": true,
          "internalType": "address",
          "name": "_subjectId",
          "type": "address"
        },
        {
          "indexed": false,
          "internalType": "string",
          "name": "_degree",
          "type": "string"
        },
        {
          "indexed": false,
          "internalType": "string",
          "name": "_license",
          "type": "string"
        }
      ],
      "name": "doctorDataSet",
      "type": "event"
    },
    {
      "anonymous": false,
      "inputs": [
        {
          "indexed": true,
          "internalType": "address",
          "name": "sender",
          "type": "address"
        },
        {
          "indexed": true,
          "internalType": "address",
          "name": "_subjectId",
          "type": "address"
        }
      ],
      "name": "doctorRemoved",
      "type": "event"
    },
    {
      "anonymous": false,
      "inputs": [
        {
          "indexed": true,
          "internalType": "address",
          "name": "sender",
          "type": "address"
        },
        {
          "indexed": true,
          "internalType": "address",
          "name": "receiver",
          "type": "address"
        },
        {
          "indexed": true,
          "internalType": "uint256",
          "name": "tokenId",
          "type": "uint256"
        }
      ],
      "name": "minted",
      "type": "event"
    },
    {
      "anonymous": false,
      "inputs": [
        {
          "indexed": true,
          "internalType": "address",
          "name": "sender",
          "type": "address"
        },
        {
          "indexed": true,
          "internalType": "address",
          "name": "_subjectId",
          "type": "address"
        },
        {
          "indexed": false,
          "internalType": "string",
          "name": "_degree",
          "type": "string"
        },
        {
          "indexed": false,
          "internalType": "string",
          "name": "_license",
          "type": "string"
        }
      ],
      "name": "pharmacistDataSet",
      "type": "event"
    },
    {
      "anonymous": false,
      "inputs": [
        {
          "indexed": true,
          "internalType": "address",
          "name": "sender",
          "type": "address"
        },
        {
          "indexed": true,
          "internalType": "address",
          "name": "_subjectId",
          "type": "address"
        }
      ],
      "name": "pharmacistRemoved",
      "type": "event"
    },
    {
      "anonymous": false,
      "inputs": [
        {
          "indexed": true,
          "internalType": "address",
          "name": "sender",
          "type": "address"
        },
        {
          "indexed": true,
          "internalType": "address",
          "name": "_subjectId",
          "type": "address"
        },
        {
          "indexed": false,
          "internalType": "uint256",
          "name": "_birthDate",
          "type": "uint256"
        },
        {
          "indexed": false,
          "internalType": "string",
          "name": "_name",
          "type": "string"
        },
        {
          "indexed": false,
          "internalType": "string",
          "name": "_homeAddress",
          "type": "string"
        }
      ],
      "name": "subjectDataSet",
      "type": "event"
    },
    {
      "anonymous": false,
      "inputs": [
        {
          "indexed": true,
          "internalType": "address",
          "name": "sender",
          "type": "address"
        },
        {
          "indexed": true,
          "internalType": "address",
          "name": "_subjectId",
          "type": "address"
        }
      ],
      "name": "subjectRemoved",
      "type": "event"
    },
    {
      "inputs": [],
      "name": "ADMIN_ROLE",
      "outputs": [
        {
          "internalType": "bytes32",
          "name": "",
          "type": "bytes32"
        }
      ],
      "stateMutability": "view",
      "type": "function",
      "constant": true
    },
    {
      "inputs": [],
      "name": "BURNER_ROLE",
      "outputs": [
        {
          "internalType": "bytes32",
          "name": "",
          "type": "bytes32"
        }
      ],
      "stateMutability": "view",
      "type": "function",
      "constant": true
    },
    {
      "inputs": [],
      "name": "DEFAULT_ADMIN_ROLE",
      "outputs": [
        {
          "internalType": "bytes32",
          "name": "",
          "type": "bytes32"
        }
      ],
      "stateMutability": "view",
      "type": "function",
      "constant": true
    },
    {
      "inputs": [],
      "name": "MINTER_ROLE",
      "outputs": [
        {
          "internalType": "bytes32",
          "name": "",
          "type": "bytes32"
        }
      ],
      "stateMutability": "view",
      "type": "function",
      "constant": true
    },
    {
      "inputs": [
        {
          "internalType": "address",
          "name": "to",
          "type": "address"
        },
        {
          "internalType": "uint256",
          "name": "tokenId",
          "type": "uint256"
        }
      ],
      "name": "approve",
      "outputs": [],
      "stateMutability": "nonpayable",
      "type": "function"
    },
    {
      "inputs": [
        {
          "internalType": "address",
          "name": "owner",
          "type": "address"
        }
      ],
      "name": "balanceOf",
      "outputs": [
        {
          "internalType": "uint256",
          "name": "",
          "type": "uint256"
        }
      ],
      "stateMutability": "view",
      "type": "function",
      "constant": true
    },
    {
      "inputs": [
        {
          "internalType": "uint256",
          "name": "tokenId",
          "type": "uint256"
        }
      ],
      "name": "burn",
      "outputs": [],
      "stateMutability": "nonpayable",
      "type": "function"
    },
    {
      "inputs": [
        {
          "internalType": "uint256",
          "name": "tokenId",
          "type": "uint256"
        }
      ],
      "name": "getApproved",
      "outputs": [
        {
          "internalType": "address",
          "name": "",
          "type": "address"
        }
      ],
      "stateMutability": "view",
      "type": "function",
      "constant": true
    },
    {
      "inputs": [
        {
          "internalType": "bytes32",
          "name": "role",
          "type": "bytes32"
        }
      ],
      "name": "getRoleAdmin",
      "outputs": [
        {
          "internalType": "bytes32",
          "name": "",
          "type": "bytes32"
        }
      ],
      "stateMutability": "view",
      "type": "function",
      "constant": true
    },
    {
      "inputs": [
        {
          "internalType": "bytes32",
          "name": "role",
          "type": "bytes32"
        },
        {
          "internalType": "address",
          "name": "account",
          "type": "address"
        }
      ],
      "name": "grantRole",
      "outputs": [],
      "stateMutability": "nonpayable",
      "type": "function"
    },
    {
      "inputs": [
        {
          "internalType": "bytes32",
          "name": "role",
          "type": "bytes32"
        },
        {
          "internalType": "address",
          "name": "account",
          "type": "address"
        }
      ],
      "name": "hasRole",
      "outputs": [
        {
          "internalType": "bool",
          "name": "",
          "type": "bool"
        }
      ],
      "stateMutability": "view",
      "type": "function",
      "constant": true
    },
    {
      "inputs": [
        {
          "internalType": "address",
          "name": "owner",
          "type": "address"
        },
        {
          "internalType": "address",
          "name": "operator",
          "type": "address"
        }
      ],
      "name": "isApprovedForAll",
      "outputs": [
        {
          "internalType": "bool",
          "name": "",
          "type": "bool"
        }
      ],
      "stateMutability": "view",
      "type": "function",
      "constant": true
    },
    {
      "inputs": [],
      "name": "name",
      "outputs": [
        {
          "internalType": "string",
          "name": "",
          "type": "string"
        }
      ],
      "stateMutability": "view",
      "type": "function",
      "constant": true
    },
    {
      "inputs": [
        {
          "internalType": "uint256",
          "name": "tokenId",
          "type": "uint256"
        }
      ],
      "name": "ownerOf",
      "outputs": [
        {
          "internalType": "address",
          "name": "",
          "type": "address"
        }
      ],
      "stateMutability": "view",
      "type": "function",
      "constant": true
    },
    {
      "inputs": [
        {
          "internalType": "bytes32",
          "name": "role",
          "type": "bytes32"
        },
        {
          "internalType": "address",
          "name": "account",
          "type": "address"
        }
      ],
      "name": "renounceRole",
      "outputs": [],
      "stateMutability": "nonpayable",
      "type": "function"
    },
    {
      "inputs": [
        {
          "internalType": "bytes32",
          "name": "role",
          "type": "bytes32"
        },
        {
          "internalType": "address",
          "name": "account",
          "type": "address"
        }
      ],
      "name": "revokeRole",
      "outputs": [],
      "stateMutability": "nonpayable",
      "type": "function"
    },
    {
      "inputs": [
        {
          "internalType": "address",
          "name": "from",
          "type": "address"
        },
        {
          "internalType": "address",
          "name": "to",
          "type": "address"
        },
        {
          "internalType": "uint256",
          "name": "tokenId",
          "type": "uint256"
        }
      ],
      "name": "safeTransferFrom",
      "outputs": [],
      "stateMutability": "nonpayable",
      "type": "function"
    },
    {
      "inputs": [
        {
          "internalType": "address",
          "name": "from",
          "type": "address"
        },
        {
          "internalType": "address",
          "name": "to",
          "type": "address"
        },
        {
          "internalType": "uint256",
          "name": "tokenId",
          "type": "uint256"
        },
        {
          "internalType": "bytes",
          "name": "_data",
          "type": "bytes"
        }
      ],
      "name": "safeTransferFrom",
      "outputs": [],
      "stateMutability": "nonpayable",
      "type": "function"
    },
    {
      "inputs": [
        {
          "internalType": "address",
          "name": "operator",
          "type": "address"
        },
        {
          "internalType": "bool",
          "name": "approved",
          "type": "bool"
        }
      ],
      "name": "setApprovalForAll",
      "outputs": [],
      "stateMutability": "nonpayable",
      "type": "function"
    },
    {
      "inputs": [],
      "name": "symbol",
      "outputs": [
        {
          "internalType": "string",
          "name": "",
          "type": "string"
        }
      ],
      "stateMutability": "view",
      "type": "function",
      "constant": true
    },
    {
      "inputs": [
        {
          "internalType": "address",
          "name": "from",
          "type": "address"
        },
        {
          "internalType": "address",
          "name": "to",
          "type": "address"
        },
        {
          "internalType": "uint256",
          "name": "tokenId",
          "type": "uint256"
        }
      ],
      "name": "transferFrom",
      "outputs": [],
      "stateMutability": "nonpayable",
      "type": "function"
    },
    {
      "inputs": [
        {
          "internalType": "uint256",
          "name": "tokenId",
          "type": "uint256"
        }
      ],
      "name": "tokenURI",
      "outputs": [
        {
          "internalType": "string",
          "name": "",
          "type": "string"
        }
      ],
      "stateMutability": "view",
      "type": "function",
      "constant": true
    },
    {
      "inputs": [
        {
          "internalType": "bytes4",
          "name": "interfaceId",
          "type": "bytes4"
        }
      ],
      "name": "supportsInterface",
      "outputs": [
        {
          "internalType": "bool",
          "name": "",
          "type": "bool"
        }
      ],
      "stateMutability": "view",
      "type": "function",
      "constant": true
    },
    {
      "inputs": [
        {
          "internalType": "address",
          "name": "to",
          "type": "address"
        },
        {
          "internalType": "string[12]",
          "name": "_keys",
          "type": "string[12]"
        },
        {
          "internalType": "string[12]",
          "name": "_values",
          "type": "string[12]"
        }
      ],
      "name": "mint",
      "outputs": [],
      "stateMutability": "nonpayable",
      "type": "function"
    },
    {
      "inputs": [
        {
          "internalType": "uint256",
          "name": "tokenId",
          "type": "uint256"
        }
      ],
      "name": "getRx",
      "outputs": [
        {
          "components": [
            {
              "internalType": "uint256",
              "name": "date",
              "type": "uint256"
            },
            {
              "components": [
                {
                  "internalType": "address",
                  "name": "subjectId",
                  "type": "address"
                },
                {
                  "internalType": "uint256",
                  "name": "birthDate",
                  "type": "uint256"
                },
                {
                  "internalType": "string",
                  "name": "name",
                  "type": "string"
                },
                {
                  "internalType": "string",
                  "name": "homeAddress",
                  "type": "string"
                }
              ],
              "internalType": "struct RxStructs.Subject",
              "name": "patient",
              "type": "tuple"
            },
            {
              "components": [
                {
                  "internalType": "address",
                  "name": "subjectId",
                  "type": "address"
                },
                {
                  "internalType": "uint256",
                  "name": "birthDate",
                  "type": "uint256"
                },
                {
                  "internalType": "string",
                  "name": "name",
                  "type": "string"
                },
                {
                  "internalType": "string",
                  "name": "homeAddress",
                  "type": "string"
                }
              ],
              "internalType": "struct RxStructs.Subject",
              "name": "doctorSubject",
              "type": "tuple"
            },
            {
              "components": [
                {
                  "internalType": "address",
                  "name": "subjectId",
                  "type": "address"
                },
                {
                  "internalType": "uint256",
                  "name": "birthDate",
                  "type": "uint256"
                },
                {
                  "internalType": "string",
                  "name": "name",
                  "type": "string"
                },
                {
                  "internalType": "string",
                  "name": "homeAddress",
                  "type": "string"
                }
              ],
              "internalType": "struct RxStructs.Subject",
              "name": "pharmacistSubject",
              "type": "tuple"
            },
            {
              "components": [
                {
                  "internalType": "address",
                  "name": "subjectId",
                  "type": "address"
                },
                {
                  "internalType": "string",
                  "name": "degree",
                  "type": "string"
                },
                {
                  "internalType": "string",
                  "name": "license",
                  "type": "string"
                }
              ],
              "internalType": "struct RxStructs.Doctor",
              "name": "doctor",
              "type": "tuple"
            },
            {
              "components": [
                {
                  "internalType": "address",
                  "name": "subjectId",
                  "type": "address"
                },
                {
                  "internalType": "string",
                  "name": "degree",
                  "type": "string"
                },
                {
                  "internalType": "string",
                  "name": "license",
                  "type": "string"
                }
              ],
              "internalType": "struct RxStructs.Pharmacist",
              "name": "pharmacist",
              "type": "tuple"
            },
            {
              "internalType": "string[12]",
              "name": "keys",
              "type": "string[12]"
            },
            {
              "internalType": "string[12]",
              "name": "values",
              "type": "string[12]"
            }
          ],
          "internalType": "struct RxStructs.RxData",
          "name": "",
          "type": "tuple"
        }
      ],
      "stateMutability": "view",
      "type": "function",
      "constant": true
    },
    {
      "inputs": [
        {
          "internalType": "bool",
          "name": "_paused",
          "type": "bool"
        }
      ],
      "name": "setPausableRolePaused",
      "outputs": [],
      "stateMutability": "nonpayable",
      "type": "function"
    },
    {
      "inputs": [],
      "name": "getPausableRolePaused",
      "outputs": [
        {
          "internalType": "bool",
          "name": "",
          "type": "bool"
        }
      ],
      "stateMutability": "view",
      "type": "function",
      "constant": true
    },
    {
      "inputs": [
        {
          "internalType": "address",
          "name": "to",
          "type": "address"
        }
      ],
      "name": "addAdmin",
      "outputs": [],
      "stateMutability": "nonpayable",
      "type": "function"
    },
    {
      "inputs": [
        {
          "internalType": "address",
          "name": "to",
          "type": "address"
        }
      ],
      "name": "removeAdmin",
      "outputs": [],
      "stateMutability": "nonpayable",
      "type": "function"
    },
    {
      "inputs": [
        {
          "internalType": "address",
          "name": "to",
          "type": "address"
        }
      ],
      "name": "isAdmin",
      "outputs": [
        {
          "internalType": "bool",
          "name": "",
          "type": "bool"
        }
      ],
      "stateMutability": "view",
      "type": "function",
      "constant": true
    },
    {
      "inputs": [
        {
          "internalType": "address",
          "name": "_subjectId",
          "type": "address"
        }
      ],
      "name": "getSubject",
      "outputs": [
        {
          "components": [
            {
              "internalType": "address",
              "name": "subjectId",
              "type": "address"
            },
            {
              "internalType": "uint256",
              "name": "birthDate",
              "type": "uint256"
            },
            {
              "internalType": "string",
              "name": "name",
              "type": "string"
            },
            {
              "internalType": "string",
              "name": "homeAddress",
              "type": "string"
            }
          ],
          "internalType": "struct RxStructs.Subject",
          "name": "",
          "type": "tuple"
        }
      ],
      "stateMutability": "view",
      "type": "function",
      "constant": true
    },
    {
      "inputs": [
        {
          "internalType": "address",
          "name": "_subjectId",
          "type": "address"
        }
      ],
      "name": "getDoctor",
      "outputs": [
        {
          "components": [
            {
              "internalType": "address",
              "name": "subjectId",
              "type": "address"
            },
            {
              "internalType": "string",
              "name": "degree",
              "type": "string"
            },
            {
              "internalType": "string",
              "name": "license",
              "type": "string"
            }
          ],
          "internalType": "struct RxStructs.Doctor",
          "name": "",
          "type": "tuple"
        }
      ],
      "stateMutability": "view",
      "type": "function",
      "constant": true
    },
    {
      "inputs": [
        {
          "internalType": "address",
          "name": "_subjectId",
          "type": "address"
        }
      ],
      "name": "getPharmacist",
      "outputs": [
        {
          "components": [
            {
              "internalType": "address",
              "name": "subjectId",
              "type": "address"
            },
            {
              "internalType": "string",
              "name": "degree",
              "type": "string"
            },
            {
              "internalType": "string",
              "name": "license",
              "type": "string"
            }
          ],
          "internalType": "struct RxStructs.Pharmacist",
          "name": "",
          "type": "tuple"
        }
      ],
      "stateMutability": "view",
      "type": "function",
      "constant": true
    },
    {
      "inputs": [
        {
          "internalType": "address",
          "name": "_subjectId",
          "type": "address"
        },
        {
          "internalType": "uint256",
          "name": "_birthDate",
          "type": "uint256"
        },
        {
          "internalType": "string",
          "name": "_name",
          "type": "string"
        },
        {
          "internalType": "string",
          "name": "_homeAddress",
          "type": "string"
        }
      ],
      "name": "setSubjectData",
      "outputs": [
        {
          "internalType": "address",
          "name": "",
          "type": "address"
        }
      ],
      "stateMutability": "nonpayable",
      "type": "function"
    },
    {
      "inputs": [
        {
          "internalType": "address",
          "name": "_subjectId",
          "type": "address"
        },
        {
          "internalType": "string",
          "name": "_degree",
          "type": "string"
        },
        {
          "internalType": "string",
          "name": "_license",
          "type": "string"
        }
      ],
      "name": "setDoctorData",
      "outputs": [
        {
          "internalType": "address",
          "name": "",
          "type": "address"
        }
      ],
      "stateMutability": "nonpayable",
      "type": "function"
    },
    {
      "inputs": [
        {
          "internalType": "address",
          "name": "_subjectId",
          "type": "address"
        },
        {
          "internalType": "string",
          "name": "_degree",
          "type": "string"
        },
        {
          "internalType": "string",
          "name": "_license",
          "type": "string"
        }
      ],
      "name": "setPharmacistData",
      "outputs": [
        {
          "internalType": "address",
          "name": "",
          "type": "address"
        }
      ],
      "stateMutability": "nonpayable",
      "type": "function"
    },
    {
      "inputs": [
        {
          "internalType": "address",
          "name": "_subjectId",
          "type": "address"
        }
      ],
      "name": "removeSubject",
      "outputs": [],
      "stateMutability": "nonpayable",
      "type": "function"
    },
    {
      "inputs": [
        {
          "internalType": "address",
          "name": "_subjectId",
          "type": "address"
        }
      ],
      "name": "removeDoctor",
      "outputs": [],
      "stateMutability": "nonpayable",
      "type": "function"
    },
    {
      "inputs": [
        {
          "internalType": "address",
          "name": "_subjectId",
          "type": "address"
        }
      ],
      "name": "removePharmacist",
      "outputs": [],
      "stateMutability": "nonpayable",
      "type": "function"
    }
  ],
  "bytecode": "0x60806040526009805460ff191690553480156200001b57600080fd5b506040805180820182526002808252610a4f60f31b6020808401828152855180870190965292855284015281519192916200005991600091620004cc565b5080516200006f906001906020840190620004cc565b5062000081915060009050336200012f565b620000bc7f9f2df0fed2c77648de5860a4cc508cd0818c85b8b8a1ab4ceeef8d981c8956a6600080516020620065d68339815191526200013f565b620000f77f3c11d16cbaffd01df69ce1c404f6340ee057498f5f00246190ea54220576a848600080516020620065d68339815191526200013f565b62000112600080516020620065d6833981519152336200018a565b620001296008620001b960201b62002da81760201c565b62000729565b6200013b8282620001c2565b5050565b600082815260076020526040808220600101805490849055905190918391839186917fbd79b86ffe0ab8e8776151514217cd7cacd52c909f66475c3af44e129f0b00ff9190a4505050565b600082815260076020526040902060010154620001a8813362000266565b620001b48383620001c2565b505050565b80546001019055565b60008281526007602090815260408083206001600160a01b038516845290915290205460ff166200013b5760008281526007602090815260408083206001600160a01b03851684529091529020805460ff19166001179055620002223390565b6001600160a01b0316816001600160a01b0316837f2f8788117e7eff1d82e926ec794901d17c78024a50270940304540a733656f0d60405160405180910390a45050565b60008281526007602090815260408083206001600160a01b038516845290915290205460ff166200013b57620002b2816001600160a01b031660146200030c60201b62002db11760201c565b620002c883602062002db16200030c821b17811c565b604051602001620002db929190620005a5565b60408051601f198184030181529082905262461bcd60e51b825262000303916004016200061e565b60405180910390fd5b606060006200031d83600262000669565b6200032a9060026200068b565b6001600160401b03811115620003445762000344620006a6565b6040519080825280601f01601f1916602001820160405280156200036f576020820181803683370190505b509050600360fc1b816000815181106200038d576200038d620006bc565b60200101906001600160f81b031916908160001a905350600f60fb1b81600181518110620003bf57620003bf620006bc565b60200101906001600160f81b031916908160001a9053506000620003e584600262000669565b620003f29060016200068b565b90505b600181111562000474576f181899199a1a9b1b9c1cb0b131b232b360811b85600f16601081106200042a576200042a620006bc565b1a60f81b828281518110620004435762000443620006bc565b60200101906001600160f81b031916908160001a90535060049490941c936200046c81620006d2565b9050620003f5565b508315620004c55760405162461bcd60e51b815260206004820181905260248201527f537472696e67733a20686578206c656e67746820696e73756666696369656e74604482015260640162000303565b9392505050565b828054620004da90620006ec565b90600052602060002090601f016020900481019282620004fe576000855562000549565b82601f106200051957805160ff191683800117855562000549565b8280016001018555821562000549579182015b82811115620005495782518255916020019190600101906200052c565b50620005579291506200055b565b5090565b5b808211156200055757600081556001016200055c565b60005b838110156200058f57818101518382015260200162000575565b838111156200059f576000848401525b50505050565b7f416363657373436f6e74726f6c3a206163636f756e7420000000000000000000815260008351620005df81601785016020880162000572565b7001034b99036b4b9b9b4b733903937b6329607d1b60179184019182015283516200061281602884016020880162000572565b01602801949350505050565b60208152600082518060208401526200063f81604085016020870162000572565b601f01601f19169190910160400192915050565b634e487b7160e01b600052601160045260246000fd5b600081600019048311821515161562000686576200068662000653565b500290565b60008219821115620006a157620006a162000653565b500190565b634e487b7160e01b600052604160045260246000fd5b634e487b7160e01b600052603260045260246000fd5b600081620006e457620006e462000653565b506000190190565b600181811c908216806200070157607f821691505b602082108114156200072357634e487b7160e01b600052602260045260246000fd5b50919050565b615e9d80620007396000396000f3fe608060405234801561001057600080fd5b50600436106101fd5760003560e01c8063704802751161011b578063a22cb465116100a8578063a22cb4651461048d578063b88d4fde146104a0578063c491d241146104b3578063c5d14e7d146104c6578063c71b257f146104d9578063c87b56dd146104e4578063d5391393146104f7578063d547741f1461050c578063d9c54dcd1461051f578063e985e9c51461053257600080fd5b806370480275146103d657806370a08231146103e957806375b238fc146103fc57806377a4ef281461041157806384efc52f1461042457806391d148541461043757806395d89b411461044a57806398fc90e9146104525780639c4be14714610465578063a217fddf1461048557600080fd5b806326f313dd1161019957806326f313dd146102fc57806328272a0c1461031c578063282c51f31461032f5780632f04e064146103445780632f2ff15d1461036457806336568abe14610377578063366dbea31461038a57806342842e0e1461039d57806342966c68146103b05780636352211e146103c357600080fd5b806301ffc9a71461020257806305cbbaea1461022a57806306fdde0314610255578063081812fc1461026a578063095ea7b31461027d5780631785f53c1461029257806323b872dd146102a5578063248a9ca3146102b857806324d7806c146102e9575b600080fd5b610215610210366004614767565b610545565b60405190151581526020015b60405180910390f35b61023d6102383660046147e8565b610556565b6040516001600160a01b039091168152602001610221565b61025d610750565b60405161022191906148c0565b61023d6102783660046148d3565b6107e2565b61029061028b3660046148ec565b61086a565b005b6102906102a0366004614916565b61097b565b6102906102b3366004614931565b6109b0565b6102db6102c63660046148d3565b60009081526007602052604090206001015490565b604051908152602001610221565b6102156102f7366004614916565b6109e2565b61030f61030a3660046148d3565b6109fc565b6040516102219190614a46565b61023d61032a366004614b28565b611286565b6102db600080516020615b6a83398151915281565b610357610352366004614916565b611464565b6040516102219190614bb1565b610290610372366004614bc4565b6115ca565b610290610385366004614bc4565b6115f0565b610290610398366004614916565b61166a565b6102906103ab366004614931565b611809565b6102906103be3660046148d3565b611824565b61023d6103d13660046148d3565b61189e565b6102906103e4366004614916565b611915565b6102db6103f7366004614916565b61194f565b6102db600080516020615e1883398151915281565b61023d61041f3660046147e8565b6119d6565b610357610432366004614916565b611bc7565b610215610445366004614bc4565b611c12565b61025d611c3d565b610290610460366004614916565b611c4c565b610478610473366004614916565b611d67565b6040516102219190614bf0565b6102db600081565b61029061049b366004614c13565b611e4d565b6102906104ae366004614ce8565b611e58565b6102906104c1366004614d63565b611e90565b6102906104d4366004614d90565b611eb0565b60095460ff16610215565b61025d6104f23660046148d3565b612357565b6102db600080516020615c9883398151915281565b61029061051a366004614bc4565b612c37565b61029061052d366004614916565b612c5d565b610215610540366004614e03565b612d7a565b600061055082612f53565b92915050565b6000600080516020615e188339815191526105718133612f78565b866001600160a01b038116158015906105a457506001600160a01b038082166000818152600a6020526040902054909116145b6105c95760405162461bcd60e51b81526004016105c090614e2d565b60405180910390fd5b6105e1600080516020615c98833981519152896115ca565b6040518060600160405280896001600160a01b0316815260200188888080601f016020809104026020016040519081016040528093929190818152602001838380828437600092019190915250505090825250604080516020601f89018190048102820181019092528781529181019190889088908190840183828082843760009201829052509390945250506001600160a01b038b81168252600b60209081526040909220845181546001600160a01b03191692169190911781558382015180519193506106b79260018501929101906144ee565b50604082015180516106d39160028401916020909101906144ee565b50905050876001600160a01b0316336001600160a01b03167f71ab4a249153d5423fd06f051b6449c4eface0e55946823b5c7fb08c54123565898989896040516107209493929190614e7d565b60405180910390a36001600160a01b038089166000908152600b6020526040902054169250505095945050505050565b60606000805461075f90614eaf565b80601f016020809104026020016040519081016040528092919081815260200182805461078b90614eaf565b80156107d85780601f106107ad576101008083540402835291602001916107d8565b820191906000526020600020905b8154815290600101906020018083116107bb57829003601f168201915b5050505050905090565b60006107ed82612fdc565b61084e5760405162461bcd60e51b815260206004820152602c60248201527f4552433732313a20617070726f76656420717565727920666f72206e6f6e657860448201526b34b9ba32b73a103a37b5b2b760a11b60648201526084016105c0565b506000908152600460205260409020546001600160a01b031690565b60006108758261189e565b9050806001600160a01b0316836001600160a01b031614156108e35760405162461bcd60e51b815260206004820152602160248201527f4552433732313a20617070726f76616c20746f2063757272656e74206f776e656044820152603960f91b60648201526084016105c0565b336001600160a01b03821614806108ff57506108ff8133612d7a565b61096c5760405162461bcd60e51b815260206004820152603860248201527f4552433732313a20617070726f76652063616c6c6572206973206e6f74206f776044820152771b995c881b9bdc88185c1c1c9bdd995908199bdc88185b1b60421b60648201526084016105c0565b6109768383612ff9565b505050565b600080516020615e188339815191526109948133612f78565b6109ac600080516020615e1883398151915283612c37565b5050565b6109bb335b82613067565b6109d75760405162461bcd60e51b81526004016105c090614eea565b610976838383613131565b6000610550600080516020615e1883398151915283611c12565b610a04614572565b6000828152600d60209081526040918290208251610100810184528154815283516080810185526001830180546001600160a01b031682526002840154828601526003840180549396949587019492939192840191610a6290614eaf565b80601f0160208091040260200160405190810160405280929190818152602001828054610a8e90614eaf565b8015610adb5780601f10610ab057610100808354040283529160200191610adb565b820191906000526020600020905b815481529060010190602001808311610abe57829003601f168201915b50505050508152602001600382018054610af490614eaf565b80601f0160208091040260200160405190810160405280929190818152602001828054610b2090614eaf565b8015610b6d5780601f10610b4257610100808354040283529160200191610b6d565b820191906000526020600020905b815481529060010190602001808311610b5057829003601f168201915b5050505050815250508152602001600582016040518060800160405290816000820160009054906101000a90046001600160a01b03166001600160a01b03166001600160a01b0316815260200160018201548152602001600282018054610bd390614eaf565b80601f0160208091040260200160405190810160405280929190818152602001828054610bff90614eaf565b8015610c4c5780601f10610c2157610100808354040283529160200191610c4c565b820191906000526020600020905b815481529060010190602001808311610c2f57829003601f168201915b50505050508152602001600382018054610c6590614eaf565b80601f0160208091040260200160405190810160405280929190818152602001828054610c9190614eaf565b8015610cde5780601f10610cb357610100808354040283529160200191610cde565b820191906000526020600020905b815481529060010190602001808311610cc157829003601f168201915b5050505050815250508152602001600982016040518060800160405290816000820160009054906101000a90046001600160a01b03166001600160a01b03166001600160a01b0316815260200160018201548152602001600282018054610d4490614eaf565b80601f0160208091040260200160405190810160405280929190818152602001828054610d7090614eaf565b8015610dbd5780601f10610d9257610100808354040283529160200191610dbd565b820191906000526020600020905b815481529060010190602001808311610da057829003601f168201915b50505050508152602001600382018054610dd690614eaf565b80601f0160208091040260200160405190810160405280929190818152602001828054610e0290614eaf565b8015610e4f5780601f10610e2457610100808354040283529160200191610e4f565b820191906000526020600020905b815481529060010190602001808311610e3257829003601f168201915b5050509190925250505081526040805160608101909152600d830180546001600160a01b03168252600e8401805460209485019484019190610e9090614eaf565b80601f0160208091040260200160405190810160405280929190818152602001828054610ebc90614eaf565b8015610f095780601f10610ede57610100808354040283529160200191610f09565b820191906000526020600020905b815481529060010190602001808311610eec57829003601f168201915b50505050508152602001600282018054610f2290614eaf565b80601f0160208091040260200160405190810160405280929190818152602001828054610f4e90614eaf565b8015610f9b5780601f10610f7057610100808354040283529160200191610f9b565b820191906000526020600020905b815481529060010190602001808311610f7e57829003601f168201915b50505091909252505050815260408051606081019091526010830180546001600160a01b0316825260118401805460209485019484019190610fdc90614eaf565b80601f016020809104026020016040519081016040528092919081815260200182805461100890614eaf565b80156110555780601f1061102a57610100808354040283529160200191611055565b820191906000526020600020905b81548152906001019060200180831161103857829003601f168201915b5050505050815260200160028201805461106e90614eaf565b80601f016020809104026020016040519081016040528092919081815260200182805461109a90614eaf565b80156110e75780601f106110bc576101008083540402835291602001916110e7565b820191906000526020600020905b8154815290600101906020018083116110ca57829003601f168201915b50505091909252505050815260408051610180810190915260209091019060138301600c6000835b828210156111b257838201805461112590614eaf565b80601f016020809104026020016040519081016040528092919081815260200182805461115190614eaf565b801561119e5780601f106111735761010080835404028352916020019161119e565b820191906000526020600020905b81548152906001019060200180831161118157829003601f168201915b50505050508152602001906001019061110f565b50505090825250604080516101808101909152602090910190601f8301600c6000835b828210156112785783820180546111eb90614eaf565b80601f016020809104026020016040519081016040528092919081815260200182805461121790614eaf565b80156112645780601f1061123957610100808354040283529160200191611264565b820191906000526020600020905b81548152906001019060200180831161124757829003601f168201915b5050505050815260200190600101906111d5565b505050915250909392505050565b6000600080516020615e188339815191526112a18133612f78565b6001600160a01b0388166112e35760405162461bcd60e51b815260206004820152600960248201526830206164647265737360b81b60448201526064016105c0565b6040518060800160405280896001600160a01b0316815260200188815260200187878080601f016020809104026020016040519081016040528093929190818152602001838380828437600092019190915250505090825250604080516020601f88018190048102820181019092528681529181019190879087908190840183828082843760009201829052509390945250506001600160a01b038b81168252600a6020908152604092839020855181546001600160a01b03191693169290921782558481015160018301559184015180519193506113c99260028501929101906144ee565b50606082015180516113e59160038401916020909101906144ee565b50905050876001600160a01b0316336001600160a01b03167f2899f951603074b4527d7184faf633e100d439bd609ac14a868f4cbaf63a4af28989898989604051611434959493929190614f3b565b60405180910390a36001600160a01b038089166000908152600a6020526040902054169150509695505050505050565b61146c6145e0565b6001600160a01b038083166000908152600b602090815260409182902082516060810190935280549093168252600183018054929392918401916114af90614eaf565b80601f01602080910402602001604051908101604052809291908181526020018280546114db90614eaf565b80156115285780601f106114fd57610100808354040283529160200191611528565b820191906000526020600020905b81548152906001019060200180831161150b57829003601f168201915b5050505050815260200160028201805461154190614eaf565b80601f016020809104026020016040519081016040528092919081815260200182805461156d90614eaf565b80156115ba5780601f1061158f576101008083540402835291602001916115ba565b820191906000526020600020905b81548152906001019060200180831161159d57829003601f168201915b5050505050815250509050919050565b6000828152600760205260409020600101546115e68133612f78565b6109768383613178565b6001600160a01b03811633146116605760405162461bcd60e51b815260206004820152602f60248201527f416363657373436f6e74726f6c3a2063616e206f6e6c792072656e6f756e636560448201526e103937b632b9903337b91039b2b63360891b60648201526084016105c0565b6109ac82826131fe565b600080516020615e188339815191526116838133612f78565b816001600160a01b038116158015906116b657506001600160a01b038082166000818152600a6020526040902054909116145b6116d25760405162461bcd60e51b81526004016105c090614e2d565b6001600160a01b038084166000908152600b60205260409020548491161561172a5760405162461bcd60e51b815260206004820152600b60248201526a34b99030902237b1ba37b960a91b60448201526064016105c0565b6001600160a01b038085166000908152600c6020526040902054859116156117815760405162461bcd60e51b815260206004820152600a6024820152696973206120706861726d60b01b60448201526064016105c0565b6001600160a01b0385166000908152600a6020526040812080546001600160a01b031916815560018101829055906117bc600283018261460a565b6117ca60038301600061460a565b50506040516001600160a01b0386169033907f1c8d73beffb6c2485595977dbefb2a4971542306c173c4a82361342d3fa5bb6890600090a35050505050565b61097683838360405180602001604052806000815250611e58565b61182d336109b5565b6118925760405162461bcd60e51b815260206004820152603060248201527f4552433732314275726e61626c653a2063616c6c6572206973206e6f74206f7760448201526f1b995c881b9bdc88185c1c1c9bdd995960821b60648201526084016105c0565b61189b81613265565b50565b6000818152600260205260408120546001600160a01b0316806105505760405162461bcd60e51b815260206004820152602960248201527f4552433732313a206f776e657220717565727920666f72206e6f6e657869737460448201526832b73a103a37b5b2b760b91b60648201526084016105c0565b60095460ff166119375761189b600080516020615e18833981519152826115ca565b61189b600080516020615e1883398151915282613178565b60006001600160a01b0382166119ba5760405162461bcd60e51b815260206004820152602a60248201527f4552433732313a2062616c616e636520717565727920666f7220746865207a65604482015269726f206164647265737360b01b60648201526084016105c0565b506001600160a01b031660009081526003602052604090205490565b6000600080516020615e188339815191526119f18133612f78565b866001600160a01b03811615801590611a2457506001600160a01b038082166000818152600a6020526040902054909116145b611a405760405162461bcd60e51b81526004016105c090614e2d565b611a58600080516020615b6a833981519152896115ca565b6040518060600160405280896001600160a01b0316815260200188888080601f016020809104026020016040519081016040528093929190818152602001838380828437600092019190915250505090825250604080516020601f89018190048102820181019092528781529181019190889088908190840183828082843760009201829052509390945250506001600160a01b038b81168252600c60209081526040909220845181546001600160a01b0319169216919091178155838201518051919350611b2e9260018501929101906144ee565b5060408201518051611b4a9160028401916020909101906144ee565b50905050876001600160a01b0316336001600160a01b03167f88924f5ec9289c74e3328802e5f6c2bd0fa722d1be9a703f649ec615e52839b289898989604051611b979493929190614e7d565b60405180910390a36001600160a01b038089166000908152600c6020526040902054169250505095945050505050565b611bcf6145e0565b6001600160a01b038083166000908152600c602090815260409182902082516060810190935280549093168252600183018054929392918401916114af90614eaf565b60009182526007602090815260408084206001600160a01b0393909316845291905290205460ff1690565b60606001805461075f90614eaf565b600080516020615e18833981519152611c658133612f78565b816001600160a01b03811615801590611c9857506001600160a01b038082166000818152600b6020526040902054909116145b611cd05760405162461bcd60e51b81526020600482015260096024820152686e6f74206120646f6360b81b60448201526064016105c0565b611ce8600080516020615c9883398151915284612c37565b6001600160a01b0383166000908152600b6020526040812080546001600160a01b031916815590611d1c600183018261460a565b611d2a60028301600061460a565b50506040516001600160a01b0384169033907fa8e594181f47a35fece8945fdb513d77e8438e73821eeea250a5db0b9286dd3d90600090a3505050565b611d6f614644565b6001600160a01b038083166000908152600a60209081526040918290208251608081018452815490941684526001810154918401919091526002810180549192840191611dbb90614eaf565b80601f0160208091040260200160405190810160405280929190818152602001828054611de790614eaf565b8015611e345780601f10611e0957610100808354040283529160200191611e34565b820191906000526020600020905b815481529060010190602001808311611e1757829003601f168201915b5050505050815260200160038201805461154190614eaf565b6109ac3383836133ea565b611e623383613067565b611e7e5760405162461bcd60e51b81526004016105c090614eea565b611e8a848484846134b5565b50505050565b6000611e9c8133612f78565b506009805460ff1916911515919091179055565b600080516020615c98833981519152611ec98133612f78565b836001600160a01b03811615801590611efc57506001600160a01b038082166000818152600a6020526040902054909116145b611f185760405162461bcd60e51b81526004016105c090614e2d565b336001600160a01b0386161415611f645760405162461bcd60e51b815260206004820152601060248201526f36b4b73a103a37903cb7bab939b2b63360811b60448201526064016105c0565b611f6f6014856134e8565b611fa85760405162461bcd60e51b815260206004820152600a6024820152696b65792032206c6f6e6760b01b60448201526064016105c0565b611fb3603e846134e8565b611fee5760405162461bcd60e51b815260206004820152600c60248201526b76616c75652032206c6f6e6760a01b60448201526064016105c0565b6000611ff960085490565b9050612009600880546001019055565b6120138682613545565b60405180610100016040528042815260200161202e88611d67565b815260200161203c33611d67565b8152604080516080810182526000808252602082810182905283518082018552828152838501528351808201855291825260608301919091528301520161208233611464565b8152604080516060810182526000808252825160208181018552828252838101919091528351808201855291825282840191909152830152016120c487614f74565b81526020016120d286614f74565b90526000828152600d6020908152604091829020835181558382015180516001830180546001600160a01b0319166001600160a01b0390921691909117815581840151600284015593810151805192949193919261213692600387019201906144ee565b50606082015180516121529160038401916020909101906144ee565b50505060408281015180516005840180546001600160a01b0319166001600160a01b039092169190911781556020808301516006860155928201518051929391926121a392600787019201906144ee565b50606082015180516121bf9160038401916020909101906144ee565b505050606082015180516009830180546001600160a01b0319166001600160a01b03909216919091178155602080830151600a8501556040830151805161220c92600b87019201906144ee565b50606082015180516122289160038401916020909101906144ee565b50505060808201518051600d830180546001600160a01b0319166001600160a01b03909216919091178155602080830151805161226b92600e87019201906144ee565b50604082015180516122879160028401916020909101906144ee565b50505060a082015180516010830180546001600160a01b0319166001600160a01b0390921691909117815560208083015180516122ca92601187019201906144ee565b50604082015180516122e69160028401916020909101906144ee565b50505060c08201516122fe906013830190600c614675565b5060e082015161231490601f830190600c614675565b50506040518291506001600160a01b0388169033907fe46b50d0a0bf8b2bd44aa8a4e4dd346ba0e8b35d8a438c6ce48d1910401b302390600090a4505050505050565b606061236282612fdc565b6123a25760405162461bcd60e51b81526020600482015260116024820152703737b732bc34b9ba32b73a103a37b5b2b760791b60448201526064016105c0565b610550826123ae610750565b6123b6611c3d565b6000868152600d60209081526040918290208251610100810184528154815283516080810185526001830180546001600160a01b03168252600284015482860152600384018054939694958701949293919284019161241490614eaf565b80601f016020809104026020016040519081016040528092919081815260200182805461244090614eaf565b801561248d5780601f106124625761010080835404028352916020019161248d565b820191906000526020600020905b81548152906001019060200180831161247057829003601f168201915b505050505081526020016003820180546124a690614eaf565b80601f01602080910402602001604051908101604052809291908181526020018280546124d290614eaf565b801561251f5780601f106124f45761010080835404028352916020019161251f565b820191906000526020600020905b81548152906001019060200180831161250257829003601f168201915b5050505050815250508152602001600582016040518060800160405290816000820160009054906101000a90046001600160a01b03166001600160a01b03166001600160a01b031681526020016001820154815260200160028201805461258590614eaf565b80601f01602080910402602001604051908101604052809291908181526020018280546125b190614eaf565b80156125fe5780601f106125d3576101008083540402835291602001916125fe565b820191906000526020600020905b8154815290600101906020018083116125e157829003601f168201915b5050505050815260200160038201805461261790614eaf565b80601f016020809104026020016040519081016040528092919081815260200182805461264390614eaf565b80156126905780601f1061266557610100808354040283529160200191612690565b820191906000526020600020905b81548152906001019060200180831161267357829003601f168201915b5050505050815250508152602001600982016040518060800160405290816000820160009054906101000a90046001600160a01b03166001600160a01b03166001600160a01b03168152602001600182015481526020016002820180546126f690614eaf565b80601f016020809104026020016040519081016040528092919081815260200182805461272290614eaf565b801561276f5780601f106127445761010080835404028352916020019161276f565b820191906000526020600020905b81548152906001019060200180831161275257829003601f168201915b5050505050815260200160038201805461278890614eaf565b80601f01602080910402602001604051908101604052809291908181526020018280546127b490614eaf565b80156128015780601f106127d657610100808354040283529160200191612801565b820191906000526020600020905b8154815290600101906020018083116127e457829003601f168201915b5050509190925250505081526040805160608101909152600d830180546001600160a01b03168252600e840180546020948501948401919061284290614eaf565b80601f016020809104026020016040519081016040528092919081815260200182805461286e90614eaf565b80156128bb5780601f10612890576101008083540402835291602001916128bb565b820191906000526020600020905b81548152906001019060200180831161289e57829003601f168201915b505050505081526020016002820180546128d490614eaf565b80601f016020809104026020016040519081016040528092919081815260200182805461290090614eaf565b801561294d5780601f106129225761010080835404028352916020019161294d565b820191906000526020600020905b81548152906001019060200180831161293057829003601f168201915b50505091909252505050815260408051606081019091526010830180546001600160a01b031682526011840180546020948501948401919061298e90614eaf565b80601f01602080910402602001604051908101604052809291908181526020018280546129ba90614eaf565b8015612a075780601f106129dc57610100808354040283529160200191612a07565b820191906000526020600020905b8154815290600101906020018083116129ea57829003601f168201915b50505050508152602001600282018054612a2090614eaf565b80601f0160208091040260200160405190810160405280929190818152602001828054612a4c90614eaf565b8015612a995780601f10612a6e57610100808354040283529160200191612a99565b820191906000526020600020905b815481529060010190602001808311612a7c57829003601f168201915b50505091909252505050815260408051610180810190915260209091019060138301600c6000835b82821015612b64578382018054612ad790614eaf565b80601f0160208091040260200160405190810160405280929190818152602001828054612b0390614eaf565b8015612b505780601f10612b2557610100808354040283529160200191612b50565b820191906000526020600020905b815481529060010190602001808311612b3357829003601f168201915b505050505081526020019060010190612ac1565b50505090825250604080516101808101909152602090910190601f8301600c6000835b82821015612c2a578382018054612b9d90614eaf565b80601f0160208091040260200160405190810160405280929190818152602001828054612bc990614eaf565b8015612c165780601f10612beb57610100808354040283529160200191612c16565b820191906000526020600020905b815481529060010190602001808311612bf957829003601f168201915b505050505081526020019060010190612b87565b505050508152505061355f565b600082815260076020526040902060010154612c538133612f78565b61097683836131fe565b600080516020615e18833981519152612c768133612f78565b816001600160a01b03811615801590612ca957506001600160a01b038082166000818152600c6020526040902054909116145b612ce35760405162461bcd60e51b815260206004820152600b60248201526a6e6f74206120706861726d60a81b60448201526064016105c0565b612cfb600080516020615b6a83398151915284612c37565b6001600160a01b0383166000908152600c6020526040812080546001600160a01b031916815590612d2f600183018261460a565b612d3d60028301600061460a565b50506040516001600160a01b0384169033907f766e9bc852164ffe6a52a05718450df1911430b9b92597bea4e051b3b1af8dd890600090a3505050565b6001600160a01b03918216600090815260056020908152604080832093909416825291909152205460ff1690565b80546001019055565b60606000612dc0836002615020565b612dcb90600261503f565b6001600160401b03811115612de257612de2614c3d565b6040519080825280601f01601f191660200182016040528015612e0c576020820181803683370190505b509050600360fc1b81600081518110612e2757612e27615057565b60200101906001600160f81b031916908160001a905350600f60fb1b81600181518110612e5657612e56615057565b60200101906001600160f81b031916908160001a9053506000612e7a846002615020565b612e8590600161503f565b90505b6001811115612efd576f181899199a1a9b1b9c1cb0b131b232b360811b85600f1660108110612eb957612eb9615057565b1a60f81b828281518110612ecf57612ecf615057565b60200101906001600160f81b031916908160001a90535060049490941c93612ef68161506d565b9050612e88565b508315612f4c5760405162461bcd60e51b815260206004820181905260248201527f537472696e67733a20686578206c656e67746820696e73756666696369656e7460448201526064016105c0565b9392505050565b60006001600160e01b03198216637965db0b60e01b14806105505750610550826139e9565b612f828282611c12565b6109ac57612f9a816001600160a01b03166014612db1565b612fa5836020612db1565b604051602001612fb6929190615084565b60408051601f198184030181529082905262461bcd60e51b82526105c0916004016148c0565b6000908152600260205260409020546001600160a01b0316151590565b600081815260046020526040902080546001600160a01b0319166001600160a01b038416908117909155819061302e8261189e565b6001600160a01b03167f8c5be1e5ebec7d5bd14f71427d1e84f3dd0314c0f7b2291e5b200ac8c7c3b92560405160405180910390a45050565b600061307282612fdc565b6130d35760405162461bcd60e51b815260206004820152602c60248201527f4552433732313a206f70657261746f7220717565727920666f72206e6f6e657860448201526b34b9ba32b73a103a37b5b2b760a11b60648201526084016105c0565b60006130de8361189e565b9050806001600160a01b0316846001600160a01b031614806131195750836001600160a01b031661310e846107e2565b6001600160a01b0316145b8061312957506131298185612d7a565b949350505050565b33156109765760405162461bcd60e51b81526020600482015260166024820152757278732061726520756e7472616e7366657261626c6560501b60448201526064016105c0565b6131828282611c12565b6109ac5760008281526007602090815260408083206001600160a01b03851684529091529020805460ff191660011790556131ba3390565b6001600160a01b0316816001600160a01b0316837f2f8788117e7eff1d82e926ec794901d17c78024a50270940304540a733656f0d60405160405180910390a45050565b6132088282611c12565b156109ac5760008281526007602090815260408083206001600160a01b0385168085529252808320805460ff1916905551339285917ff6391f5c32d9c69d2a47ea670b442974b53935d1edc7fd64eb21e047a839171b9190a45050565b600080516020615b6a83398151915261327e8133612f78565b33613288836107e2565b6001600160a01b031614806132aa57506132aa6132a48361189e565b33612d7a565b6132eb5760405162461bcd60e51b81526020600482015260126024820152711c1a185c9b481b9bdd08185c1c1c9bdd995960721b60448201526064016105c0565b6132f433611d67565b6000838152600d602090815260409182902083516009820180546001600160a01b0319166001600160a01b0390921691909117815584830151600a83015592840151805161334c93600b9093019291909101906144ee565b50606082015180516133689160038401916020909101906144ee565b5090505061337533611bc7565b6000838152600d6020908152604090912082516010820180546001600160a01b0319166001600160a01b0390921691909117815583830151805191936133c193601101929101906144ee565b50604082015180516133dd9160028401916020909101906144ee565b509050506109ac82613a39565b816001600160a01b0316836001600160a01b031614156134485760405162461bcd60e51b815260206004820152601960248201527822a9219b99189d1030b8383937bb32903a379031b0b63632b960391b60448201526064016105c0565b6001600160a01b03838116600081815260056020908152604080832094871680845294825291829020805460ff191686151590811790915591519182527f17307eab39ab6107e8899845ad3d59bd9653f200f220920489ca2b5937696c31910160405180910390a3505050565b6134c0848484613131565b6134cc84848484613a79565b611e8a5760405162461bcd60e51b81526004016105c0906150f3565b6000805b600c81101561353b57838382600c811061350857613508615057565b6020028101906135189190615145565b905010613529576000915050610550565b806135338161518b565b9150506134ec565b5060019392505050565b6109ac828260405180602001604052806000815250613b83565b8051604051630b11527160e31b8152600481019190915260609060009073__DateTime______________________________9063588a93889060240160006040518083038186803b1580156135b357600080fd5b505af41580156135c7573d6000803e3d6000fd5b505050506040513d6000823e601f3d908101601f191682016040526135ef91908101906151a6565b9050600073__DateTime______________________________63588a93888560200151602001516040518263ffffffff1660e01b815260040161363491815260200190565b60006040518083038186803b15801561364c57600080fd5b505af4158015613660573d6000803e3d6000fd5b505050506040513d6000823e601f3d908101601f1916820160405261368891908101906151a6565b90506136926146c1565b60408051808201825260098152683d913730b6b2911d1160b91b602080830191909152908352828101899052815180830183526002815261202360f01b91810191909152908201526136e388613bb6565b606082015260408051808201909152600c81526b11161139bcb6b137b6111d1160a11b602082015281600460200201528581600560200201819052506040518060600160405280602c8152602001615baf602c913960c082015260408051606081019091526034808252615d92602083013960e082015260208501516040015181600860200201819052506040518060600160405280602e8152602001615dea602e9139610120820152610140810182905260408051606081019091526028808252615bdb6020830139610160820152604085810151810151610180830152805160608101909152602a808252615c2e60208301396101a082015260808501516020015181600e60200201819052506040518060600160405280602b8152602001615c03602b913961020082015260808501516040908101516102208301528051606081019091526024808252615dc660208301396102408201526102608101839052604080518082019091526003815262227d5d60e81b60208201528160146020020181905250604051806060016040528060258152602001615b8a602591396102a082015261389d613898898988613cb3565b6141bb565b6102c08201526040805180820182526002815261227d60f01b6020808301919091526102e0840191909152825181840151838501516060860151608087015160a088015160c089015160e08a01516101008b0151995160009a6139029a909101615213565b60408051808303601f19018152908290526101208401516101408501516101608601516101808701516101a08801516101c08901516101e08a01516102008b0151979950613955988a9890602001615213565b60408051808303601f19018152908290526102208401516102408501516102608601516102808701516102a08801516102c08901516102e08a01519698506139a2978997906020016152d4565b60405160208183030381529060405290506139bc816141bb565b6040516020016139cc9190615379565b604051602081830303815290604052945050505050949350505050565b60006001600160e01b031982166380ac58cd60e01b1480613a1a57506001600160e01b03198216635b5e139f60e01b145b8061055057506301ffc9a760e01b6001600160e01b0319831614610550565b613a4281614320565b60008181526006602052604090208054613a5b90614eaf565b15905061189b57600081815260066020526040812061189b9161460a565b60006001600160a01b0384163b15613b7b57604051630a85bd0160e11b81526001600160a01b0385169063150b7a0290613abd9033908990889088906004016153be565b602060405180830381600087803b158015613ad757600080fd5b505af1925050508015613b07575060408051601f3d908101601f19168201909252613b04918101906153f1565b60015b613b61573d808015613b35576040519150601f19603f3d011682016040523d82523d6000602084013e613b3a565b606091505b508051613b595760405162461bcd60e51b81526004016105c0906150f3565b805181602001fd5b6001600160e01b031916630a85bd0160e11b149050613129565b506001613129565b613b8d83836143bb565b613b9a6000848484613a79565b6109765760405162461bcd60e51b81526004016105c0906150f3565b606081613bda5750506040805180820190915260018152600360fc1b602082015290565b8160005b8115613c045780613bee8161518b565b9150613bfd9050600a83615424565b9150613bde565b6000816001600160401b03811115613c1e57613c1e614c3d565b6040519080825280601f01601f191660200182016040528015613c48576020820181803683370190505b5090505b841561312957613c5d600183615438565b9150613c6a600a8661544f565b613c7590603061503f565b60f81b818381518110613c8a57613c8a615057565b60200101906001600160f81b031916908160001a905350613cac600a86615424565b9450613c4c565b8051604051630b11527160e31b8152600481019190915260609060009073__DateTime______________________________9063588a93889060240160006040518083038186803b158015613d0757600080fd5b505af4158015613d1b573d6000803e3d6000fd5b505050506040513d6000823e601f3d908101601f19168201604052613d4391908101906151a6565b9050600073__DateTime______________________________63588a93888560200151602001516040518263ffffffff1660e01b8152600401613d8891815260200190565b60006040518083038186803b158015613da057600080fd5b505af4158015613db4573d6000803e3d6000fd5b505050506040513d6000823e601f3d908101601f19168201604052613ddc91908101906151a6565b9050613de66146e9565b6040518061032001604052806102e781526020016158836102e7913981526040805160208101909152600080825261011891905b600c811015613eb4578760c0015181600c8110613e3957613e39615057565b6020020151805190925015613e9557613e5183613bb6565b82604051602001613e63929190615476565b60408051601f1981840301815291905284613e7f83600161503f565b601e8110613e8f57613e8f615057565b60200201525b613ea0601e8461503f565b925080613eac8161518b565b915050613e1a565b50604051806060016040528060308152602001615e38603091396101a0840152602087015160408101516060820151915190918691613efd906001600160a01b03166014612db1565b604051602001613f1094939291906154e5565b60408051808303601f190181529190526101c08401528488613f318b613bb6565b604051602001613f43939291906155e0565b60408051808303601f190181529181526101e08501919091528781015181015160808901516020810151928101519051919291613f8a906001600160a01b03166014612db1565b604051602001613f9d94939291906156c5565b60408051808303601f19018152919052610200840152610118915060005b600c811015614055578760e0015181600c8110613fda57613fda615057565b602002015180519092501561403657613ff283613bb6565b826040516020016140049291906157c3565b60408051601f198184030181529190528461402083601161503f565b601e811061403057614030615057565b60200201525b614041601e8461503f565b92508061404d8161518b565b915050613fbb565b5060405180610100016040528060da8152602001615cb860da91396103a084015282516020808501516040808701516060880151608089015160a08a015160c08b015160e08c015195516000996140b09990989791016152d4565b60408051808303601f19018152908290526101008601516101208701516101408801516101608901516101808a01516101a08b01516101c08c01516101e08d0151979950614103988a9890602001615213565b60408051808303601f19018152908290526102008601516102208701516102408801516102608901516102808a01516102a08b01516102c08c01516102e08d0151979950614156988a9890602001615213565b60408051808303601f19018152908290526103008601516103208701516103408801516103608901516103808a01516103a08b015195975061419d968896906020016157f0565b60408051808303601f190181529190529a9950505050505050505050565b60608151600014156141db57505060408051602081019091526000815290565b6000604051806060016040528060408152602001615c58604091399050600060038451600261420a919061503f565b6142149190615424565b61421f906004615020565b9050600061422e82602061503f565b6001600160401b0381111561424557614245614c3d565b6040519080825280601f01601f19166020018201604052801561426f576020820181803683370190505b509050818152600183018586518101602084015b818310156142db576003830192508251603f8160121c168501518253600182019150603f81600c1c168501518253600182019150603f8160061c168501518253600182019150603f8116850151825350600101614283565b6003895106600181146142f5576002811461430657614312565b613d3d60f01b600119830152614312565b603d60f81b6000198301525b509398975050505050505050565b600061432b8261189e565b9050614338600083612ff9565b6001600160a01b0381166000908152600360205260408120805460019290614361908490615438565b909155505060008281526002602052604080822080546001600160a01b0319169055518391906001600160a01b038416907fddf252ad1be2c89b69c2b068fc378daa952ba7f163c4a11628f55a4df523b3ef908390a45050565b6001600160a01b0382166144115760405162461bcd60e51b815260206004820181905260248201527f4552433732313a206d696e7420746f20746865207a65726f206164647265737360448201526064016105c0565b61441a81612fdc565b156144675760405162461bcd60e51b815260206004820152601c60248201527f4552433732313a20746f6b656e20616c7265616479206d696e7465640000000060448201526064016105c0565b6001600160a01b038216600090815260036020526040812080546001929061449090849061503f565b909155505060008181526002602052604080822080546001600160a01b0319166001600160a01b03861690811790915590518392907fddf252ad1be2c89b69c2b068fc378daa952ba7f163c4a11628f55a4df523b3ef908290a45050565b8280546144fa90614eaf565b90600052602060002090601f01602090048101928261451c5760008555614562565b82601f1061453557805160ff1916838001178555614562565b82800160010185558215614562579182015b82811115614562578251825591602001919060010190614547565b5061456e929150614704565b5090565b6040518061010001604052806000815260200161458d614644565b815260200161459a614644565b81526020016145a7614644565b81526020016145b46145e0565b81526020016145c16145e0565b81526020016145ce614719565b81526020016145db614719565b905290565b604051806060016040528060006001600160a01b0316815260200160608152602001606081525090565b50805461461690614eaf565b6000825580601f10614626575050565b601f01602090049060005260206000209081019061189b9190614704565b604051806080016040528060006001600160a01b031681526020016000815260200160608152602001606081525090565b82600c81019282156146b5579160200282015b828111156146b557825180516146a59184916020909101906144ee565b5091602001919060010190614688565b5061456e929150614734565b6040518061030001604052806018905b60608152602001906001900390816146d15790505090565b604080516103c0810190915260608152601d602082016146d1565b5b8082111561456e5760008155600101614705565b60408051610180810190915260608152600b602082016146d1565b8082111561456e576000614748828261460a565b50600101614734565b6001600160e01b03198116811461189b57600080fd5b60006020828403121561477957600080fd5b8135612f4c81614751565b80356001600160a01b038116811461479b57600080fd5b919050565b60008083601f8401126147b257600080fd5b5081356001600160401b038111156147c957600080fd5b6020830191508360208285010111156147e157600080fd5b9250929050565b60008060008060006060868803121561480057600080fd5b61480986614784565b945060208601356001600160401b038082111561482557600080fd5b61483189838a016147a0565b9096509450604088013591508082111561484a57600080fd5b50614857888289016147a0565b969995985093965092949392505050565b60005b8381101561488357818101518382015260200161486b565b83811115611e8a5750506000910152565b600081518084526148ac816020860160208601614868565b601f01601f19169290920160200192915050565b602081526000612f4c6020830184614894565b6000602082840312156148e557600080fd5b5035919050565b600080604083850312156148ff57600080fd5b61490883614784565b946020939093013593505050565b60006020828403121561492857600080fd5b612f4c82614784565b60008060006060848603121561494657600080fd5b61494f84614784565b925061495d60208501614784565b9150604084013590509250925092565b60018060a01b03815116825260208101516020830152600060408201516080604085015261499e6080850182614894565b9050606083015184820360608601526149b78282614894565b95945050505050565b60018060a01b03815116825260006020820151606060208501526149e76060850182614894565b9050604083015184820360408601526149b78282614894565b60008261018081018360005b600c811015614a3b578383038752614a25838351614894565b6020978801979093509190910190600101614a0c565b509095945050505050565b602081528151602082015260006020830151610100806040850152614a6f61012085018361496d565b91506040850151601f1980868503016060870152614a8d848361496d565b93506060870151915080868503016080870152614aaa848361496d565b935060808701519150808685030160a0870152614ac784836149c0565b935060a08701519150808685030160c0870152614ae484836149c0565b935060c08701519150808685030160e0870152614b018483614a00565b935060e0870151915080868503018387015250614b1e8382614a00565b9695505050505050565b60008060008060008060808789031215614b4157600080fd5b614b4a87614784565b95506020870135945060408701356001600160401b0380821115614b6d57600080fd5b614b798a838b016147a0565b90965094506060890135915080821115614b9257600080fd5b50614b9f89828a016147a0565b979a9699509497509295939492505050565b602081526000612f4c60208301846149c0565b60008060408385031215614bd757600080fd5b82359150614be760208401614784565b90509250929050565b602081526000612f4c602083018461496d565b8035801515811461479b57600080fd5b60008060408385031215614c2657600080fd5b614c2f83614784565b9150614be760208401614c03565b634e487b7160e01b600052604160045260246000fd5b604051601f8201601f191681016001600160401b0381118282101715614c7b57614c7b614c3d565b604052919050565b60006001600160401b03821115614c9c57614c9c614c3d565b50601f01601f191660200190565b6000614cbd614cb884614c83565b614c53565b9050828152838383011115614cd157600080fd5b828260208301376000602084830101529392505050565b60008060008060808587031215614cfe57600080fd5b614d0785614784565b9350614d1560208601614784565b92506040850135915060608501356001600160401b03811115614d3757600080fd5b8501601f81018713614d4857600080fd5b614d5787823560208401614caa565b91505092959194509250565b600060208284031215614d7557600080fd5b612f4c82614c03565b80610180810183101561055057600080fd5b600080600060608486031215614da557600080fd5b614dae84614784565b925060208401356001600160401b0380821115614dca57600080fd5b614dd687838801614d7e565b93506040860135915080821115614dec57600080fd5b50614df986828701614d7e565b9150509250925092565b60008060408385031215614e1657600080fd5b614e1f83614784565b9150614be760208401614784565b6020808252600d908201526c1b9bdd0818481cdd589a9958dd609a1b604082015260600190565b81835281816020850137506000828201602090810191909152601f909101601f19169091010190565b604081526000614e91604083018688614e54565b8281036020840152614ea4818587614e54565b979650505050505050565b600181811c90821680614ec357607f821691505b60208210811415614ee457634e487b7160e01b600052602260045260246000fd5b50919050565b60208082526031908201527f4552433732313a207472616e736665722063616c6c6572206973206e6f74206f6040820152701ddb995c881b9bdc88185c1c1c9bdd9959607a1b606082015260800190565b858152606060208201526000614f55606083018688614e54565b8281036040840152614f68818587614e54565b98975050505050505050565b60006040516101808082016001600160401b038382108183111715614f9b57614f9b614c3d565b81604052839150828601925036831115614fb457600080fd5b855b83811015614fff57803582811115614fce5760008081fd5b870136601f820112614fe05760008081fd5b6020614ff0368335838501614caa565b85529093019250602001614fb6565b509295945050505050565b634e487b7160e01b600052601160045260246000fd5b600081600019048311821515161561503a5761503a61500a565b500290565b600082198211156150525761505261500a565b500190565b634e487b7160e01b600052603260045260246000fd5b60008161507c5761507c61500a565b506000190190565b76020b1b1b2b9b9a1b7b73a3937b61d1030b1b1b7bab73a1604d1b8152600083516150b6816017850160208801614868565b7001034b99036b4b9b9b4b733903937b6329607d1b60179184019182015283516150e7816028840160208801614868565b01602801949350505050565b60208082526032908201527f4552433732313a207472616e7366657220746f206e6f6e20455243373231526560408201527131b2b4bb32b91034b6b83632b6b2b73a32b960711b606082015260800190565b6000808335601e1984360301811261515c57600080fd5b8301803591506001600160401b0382111561517657600080fd5b6020019150368190038213156147e157600080fd5b600060001982141561519f5761519f61500a565b5060010190565b6000602082840312156151b857600080fd5b81516001600160401b038111156151ce57600080fd5b8201601f810184136151df57600080fd5b80516151ed614cb882614c83565b81815285602083850101111561520257600080fd5b6149b7826020830160208601614868565b60008a51615225818460208f01614868565b8a516152378183860160208f01614868565b8a51918401019061524c818360208e01614868565b895161525e8183850160208e01614868565b8951929091010190615274818360208c01614868565b87516152868183850160208c01614868565b875192909101019061529c818360208a01614868565b85516152ae8183850160208a01614868565b85519290910101906152c4818360208801614868565b019b9a5050505050505050505050565b6000895160206152e78285838f01614868565b8a51918401916152fa8184848f01614868565b8a5192019161530c8184848e01614868565b895192019161531e8184848d01614868565b88519201916153308184848c01614868565b87519201916153428184848b01614868565b86519201916153548184848a01614868565b85519201916153668184848901614868565b919091019b9a5050505050505050505050565b7f646174613a6170706c69636174696f6e2f6a736f6e3b6261736536342c0000008152600082516153b181601d850160208701614868565b91909101601d0192915050565b6001600160a01b0385811682528416602082015260408101839052608060608201819052600090614b1e90830184614894565b60006020828403121561540357600080fd5b8151612f4c81614751565b634e487b7160e01b600052601260045260246000fd5b6000826154335761543361540e565b500490565b60008282101561544a5761544a61500a565b500390565b60008261545e5761545e61540e565b500690565b661e17ba32bc3a1f60c91b815260070190565b701e3a32bc3a103c1e9118989c11103c9e9160791b815282516000906154a3816011850160208801614868565b61111f60f11b60119184019182015283516154c5816013840160208801614868565b661e17ba32bc3a1f60c91b60139290910191820152601a01949350505050565b741e3a32bc3a103c1e9118991c11103c9e911998111f60591b81528451600090615516816015850160208a01614868565b661e17ba32bc3a1f60c91b6015918401918201819052741e3a32bc3a103c1e9118991c11103c9e911b18111f60591b601c830152865161555d816031850160208b01614868565b60319201918201819052741e3a32bc3a103c1e9118991c11103c9e911c98111f60591b6038830152855161559881604d850160208a01614868565b604d920191820152751e3a32bc3a103c1e9118991c11103c9e91189918111f60511b605482015283516155d281606a840160208801614868565b614f68606a82840101615463565b751e3a32bc3a103c1e9118991c11103c9e911b1b18111f60511b81528351600090615612816016850160208901614868565b7f3c2f746578743e3c7465787420783d223538352220793d2236363022207465786016918401918201527f742d616e63686f723d22656e642220666f6e742d7374796c653d226974616c6960368201526231911f60e91b60568201528451615681816059840160208901614868565b61011960f51b6059929091019182015283516156a481605b840160208801614868565b661e17ba32bc3a1f60c91b605b929091019182015260620195945050505050565b751e3a32bc3a103c1e9118991c11103c9e911b1c98111f60511b815284516000906156f7816016850160208a01614868565b661e17ba32bc3a1f60c91b6016918401918201819052751e3a32bc3a103c1e9118991c11103c9e911b9918111f60511b601d830152865161573f816033850160208b01614868565b60339201918201819052751e3a32bc3a103c1e9118991c11103c9e911b9a98111f60511b603a830152855161577b816050850160208a01614868565b6050920191820152751e3a32bc3a103c1e9118991c11103c9e911b9c18111f60511b605782015283516157b581606d840160208801614868565b614f68606d82840101615463565b701e3a32bc3a103c1e9118991c11103c9e9160791b815282516000906154a3816011850160208801614868565b6000885160206158038285838e01614868565b8951918401916158168184848e01614868565b89519201916158288184848d01614868565b885192019161583a8184848c01614868565b875192019161584c8184848b01614868565b865192019161585e8184848a01614868565b85519201916158708184848901614868565b919091019a995050505050505050505056fe3c73766720786d6c6e733d22687474703a2f2f7777772e77332e6f72672f323030302f7376672220666f6e742d66616d696c793d2273616e732d73657269662220666f6e742d73697a653d223132707822207072657365727665417370656374526174696f3d22784d696e594d696e206d656574222076696577426f783d22302030203630302038303022207374796c653d226261636b67726f756e643a7768697465223e3c672066696c6c3d226e6f6e6522207374726f6b653d222330303022207374726f6b652d77696474683d22317078223e3c7265637420783d22322220793d2232222077696474683d2235393622206865696768743d22373936222f3e3c7061746820643d226d31352031333568353730222f3e3c7061746820643d226d31352036333068353730222f3e3c2f673e3c6720666f6e742d73697a653d2238387078223e3c7465787420783d2231302220793d22323135223e503c2f746578743e3c7465787420783d2233352220793d22323530223e583c2f746578743e3c2f673e3c6720746578742d616e63686f723d22656e64223e3c7465787420783d223131382220793d223330223e4e616d653c2f746578743e3c7465787420783d223131382220793d223630223e44617465206f662042697274683c2f746578743e3c7465787420783d223131382220793d223930223e416464726573733c2f746578743e3c7465787420783d223131382220793d22313230223e50617469656e742057616c6c65743c2f746578743e3c7465787420783d223131382220793d22363630223e446174653c2f746578743e3c7465787420783d223131382220793d22363930223e446f63746f72204e616d653c2f746578743e3c7465787420783d223131382220793d22373230223e4d443c2f746578743e3c7465787420783d223131382220793d22373530223e4c6963656e73653c2f746578743e3c7465787420783d223131382220793d22373830223e446f63746f722057616c6c65743c2f746578743e3c11d16cbaffd01df69ce1c404f6340ee057498f5f00246190ea54220576a8482c22696d616765223a2022646174613a696d6167652f7376672b786d6c3b6261736536342c222c226465736372697074696f6e223a224f6e2d436861696e204e465420507265736372697074696f6e7322227d2c7b2274726169745f74797065223a22446f63746f72204e616d65222c2276616c7565223a22227d2c7b2274726169745f74797065223a22446f63746f72204c6963656e7365222c2276616c7565223a22227d2c7b2274726169745f74797065223a22446f63746f7220446567726565222c2276616c7565223a224142434445464748494a4b4c4d4e4f505152535455565758595a6162636465666768696a6b6c6d6e6f707172737475767778797a303132333435363738392b2f9f2df0fed2c77648de5860a4cc508cd0818c85b8b8a1ab4ceeef8d981c8956a63c2f673e3c67206f7061636974793d22302e36223e3c636972636c652066696c6c3d226461726b626c7565222063783d22353636222063793d223735342e342220723d22372e35222f3e3c706174682066696c6c3d227265642220643d226d3538302e342037363168346c2d31352c3234682d347a222f3e3c706174682066696c6c3d226461726b7265642220643d226d3536352e342037363168346c31352c3234682d347a222f3e3c706174682066696c6c3d22626c75652220643d226d353538203734397632346831357a222f3e3c2f673e3c2f7376673e2c2261747472696275746573223a5b7b2274726169745f74797065223a2250617469656e744e616d65222c2276616c7565223a22227d2c7b2274726169745f74797065223a2252582044617465222c2276616c7565223a22227d2c7b2274726169745f74797065223a2250617469656e7420426972746864617465222c2276616c7565223a22a49807205ce4d355092ef5a8a18f56e8913cf4a201fbe287825b095693c217753c2f673e3c6720666f6e742d66616d696c793d22436f75726965722220666f6e742d7765696768743d22626f6c64223ea2646970667358221220091e5218253cf3eb0e78432e913a7a57ed1c1d8656d67118588cc9179dc20b7764736f6c63430008090033a49807205ce4d355092ef5a8a18f56e8913cf4a201fbe287825b095693c21775",
  "immutableReferences": {},
  "source": "// SPDX-License-Identifier: MIT\npragma solidity 0.8.9;\n\nimport \"@openzeppelin/contracts/token/ERC721/ERC721.sol\";\nimport \"@openzeppelin/contracts/token/ERC721/extensions/ERC721URIStorage.sol\";\nimport \"@openzeppelin/contracts/token/ERC721/extensions/ERC721Burnable.sol\";\nimport \"@openzeppelin/contracts/access/AccessControl.sol\";\nimport \"@openzeppelin/contracts/utils/Counters.sol\";\n// import { Base64 } from \"base64-sol/base64.sol\";\nimport { RxStructs } from \"./libraries/RxStructs.sol\";\nimport { TokenURIDescriptor } from \"./libraries/TokenURIDescriptor.sol\";\n\n/// @title A NFT Prescription creator\n/// @author Matias Parij (@7i7o)\n/// @notice You can use this contract only as a MVP for minting Prescriptions\n/// @dev Features such as workplaces for doctors or pharmacists are for future iterations\ncontract Rx is ERC721, ERC721URIStorage, ERC721Burnable, AccessControl {\n\n    /// @notice Using OpenZeppelin's Counters for TokenId enumeration\n    using Counters for Counters.Counter;\n\n    /// @notice Role definition for Minter\n    bytes32 public constant ADMIN_ROLE = keccak256(\"ADMIN_ROLE\");\n    /// @notice Role definition for Minter\n    bytes32 public constant MINTER_ROLE = keccak256(\"MINTER_ROLE\");\n    /// @notice Role definition for Burner\n    bytes32 public constant BURNER_ROLE = keccak256(\"BURNER_ROLE\");\n\n    /// @notice Using OpenZeppelin's Counters for TokenId enumeration\n    /// @dev We increment the counter in the constructor to start Ids in 1, keeping Id 0 (default for\n    ///      uints in solidity) to signal that someone doesn't have any NFTs\n    Counters.Counter private _tokenIdCounter;\n\n    /** Begin of State Variables & Modifiers for final project */\n\n    bool private pausableRolePaused = false;\n\n    uint256 constant MAX_KEY_LENGTH = 20;\n    uint256 constant MAX_VALUE_LENGTH = 62;\n    uint256 constant RX_LINES = 12; // Has to be same value as in RxStructs !!!\n\n    /// @notice this mapping holds all the subjects registered in the contract\n    mapping ( address => RxStructs.Subject ) private subjects;\n\n    /// @notice this mapping holds all the doctors registered in the contract\n    mapping ( address => RxStructs.Doctor ) private doctors;\n\n    /// @notice this mapping holds all the pharmacists registered in the contract\n    mapping ( address => RxStructs.Pharmacist ) private pharmacists;\n\n    /// @notice this mapping holds all the prescriptions minted in the contract\n    mapping (uint256 => RxStructs.RxData) private rxs;\n\n    /// @dev Modifier that checks that an account is actually a registered subject\n    modifier isSubject(address _subjectId) {\n        require( (_subjectId != address(0) && subjects[_subjectId].subjectId == _subjectId) ,\n                    'not a subject'\n                );\n        _;\n    }\n\n    /// @dev Modifier that checks that an account is a registered doctor\n    modifier isDoctor(address _subjectId) {\n        require( (_subjectId != address(0) && doctors[_subjectId].subjectId == _subjectId) ,\n                    'not a doc'\n                );\n        _;\n    }\n\n    /// @dev Modifier that checks that an account is NOT a registered doctor\n    modifier isNotDoctor(address _subjectId) {\n        require( (doctors[_subjectId].subjectId == address(0)) ,\n                    'is a Doctor'\n                );\n        _;\n    }\n\n    /// @dev Modifier that checks that an account is a registered pharmacist\n    modifier isPharmacist(address _subjectId) {\n        require( (_subjectId != address(0) && pharmacists[_subjectId].subjectId == _subjectId) ,\n                    'not a pharm'\n                );\n        _;\n    }\n\n    /// @dev Modifier that checks that an account is NOT a registered pharmacist\n    modifier isNotPharmacist(address _subjectId) {\n        require( (pharmacists[_subjectId].subjectId == address(0)) ,\n                    'is a pharm'\n                );\n        _;\n    }\n\n    /// @dev Function to allow accounts not registered as patient to have a pausable role\n    function onlyPausableRole(bytes32 role) private view {\n        if (!pausableRolePaused) {\n            _checkRole(role, _msgSender());\n        } else {\n            // Not registered accounts act as pausable role\n            require( subjects[_msgSender()].subjectId == address(0) || hasRole(role, _msgSender()), 'is a patient');\n        }\n        // _;\n    }\n\n    /// @notice Event to signal when a new Rx has been minted\n    /// @param sender address of the Doctor that minted the Rx\n    /// @param receiver address of the Subject that received the Rx minted\n    /// @param tokenId Id of the Token (Rx) that has been minted\n    event minted(address indexed sender, address indexed receiver, uint256 indexed tokenId);\n\n    /// @notice Event to signal when adding/replacing a Subject allowed to receive/hold NFT Prescriptions\n    /// @param sender is the address of the admin that set the Subject's data\n    /// @param _subjectId is the registered address of the subject (approved for holding NFT Prescriptions)\n    /// @param _birthDate is the subjects' date of birth, in seconds, from UNIX Epoch (1970-01-01)\n    /// @param _name is the subject's full name\n    /// @param _homeAddress is the subject's legal home address\n    event subjectDataSet(address indexed sender, address indexed _subjectId, uint256 _birthDate, string _name, string _homeAddress);\n\n    /// @notice Event to signal when adding/replacing a Doctor allowed to mint NFT Prescriptions\n    /// @param sender is the address of the admin that set the Doctor's data\n    /// @param _subjectId is the ethereum address for the doctor (same Id as the subject that holds this doctor's personal details)\n    /// @param _degree contains a string with the degree of the doctor\n    /// @param _license contains a string with the legal license of the doctor\n    event doctorDataSet(address indexed sender, address indexed _subjectId, string _degree, string _license);\n    \n    /// @notice Event to signal when adding/replacing a Pharmacist allowed to burn NFT Prescriptions\n    /// @param sender is the address of the admin that set the Pharmacist's data\n    /// @param _subjectId is the ethereum address for the pahrmacist (same Id as the subject that holds this pharmacist's personal details)\n    /// @param _degree contains a string with the degree of the pharmacist\n    /// @param _license contains a string with the legal license of the pharmacist\n    event pharmacistDataSet(address indexed sender, address indexed _subjectId, string _degree, string _license);\n\n    /// @notice Event to signal a removed Subject\n    /// @param sender is the address of the admin that removed the Subject\n    /// @param _subjectId is the registered address of the subject removed\n    event subjectRemoved(address indexed sender, address indexed _subjectId);\n\n    /// @notice Event to signal a removed Doctor\n    /// @param sender is the address of the admin that removed the Doctor\n    /// @param _subjectId is the registered address of the doctor removed\n    event doctorRemoved(address indexed sender, address indexed _subjectId);\n\n    /// @notice Event to signal a removed Pharmacist\n    /// @param sender is the address of the admin that removed the Pharmacist\n    /// @param _subjectId is the registered address of the pharmacist removed\n    event pharmacistRemoved(address indexed sender, address indexed _subjectId);\n\n    /** End of State Variables & Modifiers for final project */\n\n    /// @notice constructor for NFT Prescriptions contract\n    /// @dev Using ERC721 default constructor with \"Prescription\" and \"Rx\" as Name and Symbol for the tokens\n    /// @dev We set up the contract creator (msg.sender) with the ADMIN_ROLE to manage all the other Roles\n    /// @dev We increment the counter in the constructor to start Ids in 1, keeping Id 0 (default for uints\n    ///      in solidity) to signal that someone doesn't have any NFTs\n    constructor() ERC721(\"Rx\", \"Rx\") {\n        _setupRole(DEFAULT_ADMIN_ROLE, msg.sender);\n\n        // _setRoleAdmin(ADMIN_ROLE, ADMIN_ROLE);  // ADMIN role to manage all 3 roles\n        _setRoleAdmin(MINTER_ROLE, ADMIN_ROLE);\n        _setRoleAdmin(BURNER_ROLE, ADMIN_ROLE);\n\n        grantRole(ADMIN_ROLE, msg.sender);\n\n        // _setupRole(MINTER_ROLE, msg.sender); // MINTER_ROLE reserved for Doctors only\n        // _setupRole(BURNER_ROLE, msg.sender); // BURNER_ROLE reserved for Pharmacists only\n\n        _tokenIdCounter.increment();\n    }\n\n    /// @dev function override required by solidity\n    /// @notice function override to store burner data in the rx before burning\n    function _burn(uint256 tokenId) internal override(ERC721, ERC721URIStorage) onlyRole(BURNER_ROLE) {\n        // delete rxs[tokenId]; // Keep Rx Data to be able to view past Rxs\n        require(\n            getApproved(tokenId) == msg.sender ||\n            isApprovedForAll(ownerOf(tokenId), msg.sender),\n            \"pharm not approved\");\n        // We save the burner (pharmacist) data to the Rx\n        rxs[tokenId].pharmacistSubject = getSubject(msg.sender);\n        rxs[tokenId].pharmacist = getPharmacist(msg.sender);\n        super._burn(tokenId);\n        //TODO: Change prescription life cycle in 'Status' to keep prescription data without burning\n    }\n\n    /// @dev TokenURI generated on the fly from stored data (function override required by solidity)  \n    function tokenURI(uint256 tokenId) public view override(ERC721, ERC721URIStorage) returns (string memory) {\n        require(_exists(tokenId), \"nonexistent token\");\n        return TokenURIDescriptor.constructTokenURI(tokenId, name(), symbol(), rxs[tokenId]);\n    }\n\n    /// @dev function override required by solidity\n    function supportsInterface(bytes4 interfaceId) public view override(ERC721, AccessControl) returns (bool) {\n        return super.supportsInterface(interfaceId);\n    }\n\n    /** Begin of implementation of functions for final project */\n\n    /// @notice Function to verify string length and validate data input\n    /// @param maxLength Maximum string length\n    function _validateStrings(uint256 maxLength, string[RX_LINES] calldata stringArray) internal pure returns (bool) {\n        for (uint256 i = 0; i < RX_LINES; i++) {\n            if ( bytes(stringArray[i]).length >= maxLength) {\n                return false;\n            }\n        }\n        return true;\n    }\n\n    /// @notice Funtion to mint a Prescription. Should be called only by a Doctor (has MINTER_ROLE)\n    /// @param to The id of the subject (patient) recipient of the prescription\n    /// @param _keys Text lines with the 'title' of each content of the prescription (max 19 characters each)\n    /// @param _values Text lines with the 'content' of the prescription (max 61 characters each)\n    /// @dev Does NOT store a tokenURI. It stores Prescription data on contract (tokenURI is generated upon request)\n    function mint(address to, string[RX_LINES] calldata _keys, string[RX_LINES] calldata _values)\n        public\n        onlyRole(MINTER_ROLE)\n        isSubject(to) \n        {\n            require( (msg.sender != to) , 'mint to yourself');\n            require( _validateStrings( MAX_KEY_LENGTH, _keys ) , 'key 2 long' );\n            require( _validateStrings( MAX_VALUE_LENGTH, _values ) , 'value 2 long' );\n\n            uint256 tokenId = _tokenIdCounter.current();\n            _tokenIdCounter.increment();\n            super._safeMint(to, tokenId);\n\n            // Store prescription data in contract, leaving tokenURI empty, for it is generated on request (Uniswap V3 style!)\n            rxs[tokenId] = RxStructs.RxData(\n                                block.timestamp,\n                                getSubject(to),\n                                getSubject(msg.sender),\n                                RxStructs.Subject(address(0), 0, '', ''),\n                                getDoctor(msg.sender),\n                                RxStructs.Pharmacist(address(0), '', ''),\n                                _keys,\n                                _values);\n\n            emit minted(msg.sender, to, tokenId);\n    }\n\n    /// @notice Function to get data for a specific tokenId. Only for Doctor, Patient or Pharmacist of the tokenId.\n    /// @param tokenId uint256 representing an existing tokenId\n    /// @return a RxData struct containing all the Rx Data\n    function getRx(uint256 tokenId) public view returns (RxStructs.RxData memory) {\n        return rxs[tokenId];\n    }\n\n    /// @notice Function to set pausableRolePaused (only deployer of contract is allowed)\n    /// @param _paused bool to set state variable\n    function setPausableRolePaused(bool _paused) public onlyRole(DEFAULT_ADMIN_ROLE) {\n        pausableRolePaused = _paused;\n    }\n\n    /// @notice Function to set pausableRolePaused (only deployer of contract is allowed)\n    /// @return bool with state variable\n    function getPausableRolePaused() public view returns (bool) {\n        return pausableRolePaused;\n    }\n\n    /// @notice function override to prohibit token transfers\n    function _transfer(address from, address to, uint256 tokenId ) internal view override(ERC721) {\n        require(msg.sender == address(0), \"rxs are untransferable\");\n    }\n\n    /// @notice Function to add an admin account\n    /// @param to Address of the account to grant admin role\n    function addAdmin(address to) public   {\n        // onlyPausableRole(ADMIN_ROLE);\n        if (!pausableRolePaused) {\n            grantRole(ADMIN_ROLE, to);\n        } else {\n            // if ( subjects[_msgSender()].subjectId == address(0) || hasRole(role, _msgSender())) {\n            // We skip role manager checks for the final project presentation\n            _grantRole(ADMIN_ROLE, to);\n            // }\n        }\n    }\n\n    /// @notice Function to remove an admin account\n    /// @param to Address of the account to remove admin role\n    function removeAdmin(address to) public onlyRole(ADMIN_ROLE) {\n        // onlyPausableRole(ADMIN_ROLE);\n        revokeRole(ADMIN_ROLE, to);\n    }\n\n    /// @notice Function to check if someone has admin role\n    /// @param to address to check for admin role privilege\n    /// @return true if @param to is an admin or false otherwise\n    function isAdmin(address to) public view returns (bool) {\n        return hasRole(ADMIN_ROLE, to); // || (pausableRolePaused && subjects[_msgSender()].subjectId == address(0));\n    }\n\n    /// @notice Function to retrieve a Subject\n    /// @param _subjectId the registered address of the subject to retrieve\n    /// @return an object with the Subject\n    function getSubject(address _subjectId)\n        public\n        view\n        returns (RxStructs.Subject memory) {\n            return subjects[_subjectId];\n    }\n\n    /// @notice Function to retrieve a Doctor\n    /// @param _subjectId the registered address of the doctor to retrieve\n    /// @return an object with the Doctor\n    function getDoctor(address _subjectId)\n        public\n        view\n        returns (RxStructs.Doctor memory) {\n            return doctors[_subjectId];\n    }\n\n    /// @notice Function to retrieve a Pharmacist\n    /// @param _subjectId the registered address of the pharmacist to retrieve\n    /// @return an object with the Pharmacist\n    function getPharmacist(address _subjectId)\n        public\n        view\n        returns (RxStructs.Pharmacist memory) {\n            return pharmacists[_subjectId];\n    }\n\n    /// @notice Function to add/replace a Subject allowed to receive/hold NFT Prescriptions\n    /// @param _subjectId is the registered address of the subject (approved for holding NFT Prescriptions)\n    /// @param _birthDate is the subjects' date of birth, in seconds, from UNIX Epoch (1970-01-01)\n    /// @param _name is the subject's full name\n    /// @param _homeAddress is the subject's legal home address\n    /// @return the ethereum address of the subject that was registered in the contract\n    /// @dev Only ADMIN_ROLE users are allowed to modify subjects\n    function setSubjectData(address _subjectId, uint256 _birthDate, string calldata _name, string calldata _homeAddress)\n        public\n        onlyRole(ADMIN_ROLE)\n        returns (address) {\n            // onlyPausableRole(ADMIN_ROLE);\n            require (_subjectId != address(0), \"0 address\");\n            // Subject memory newSubject = Subject(_subjectId, _name, _birthDate, _homeAddress);\n            // subjects[_subjectId] = newSubject;\n            subjects[_subjectId] = RxStructs.Subject(_subjectId, _birthDate, _name, _homeAddress);\n            emit subjectDataSet(msg.sender, _subjectId, _birthDate, _name, _homeAddress);\n            return subjects[_subjectId].subjectId;\n    }\n\n    /// @notice Function to add/replace a Doctor allowed to mint NFT Prescriptions\n    /// @param _subjectId should be a valid ethereum address (same Id as the subject that holds this doctor's personal details)\n    /// @param _degree should contain string with the degree of the doctor\n    /// @param _license should contain string with the legal license of the doctor\n    /// @dev @param _workplaces is a feature for future implementations\n    /// @return the ethereum address of the doctor that was registered in the contract\n    function setDoctorData(address _subjectId, string calldata _degree, string calldata _license) //, address[] calldata _workplaces)\n        public\n        onlyRole(ADMIN_ROLE)\n        isSubject(_subjectId)\n        returns (address) {\n            // onlyPausableRole(ADMIN_ROLE);\n            // require (_subjectId != address(0), \"Wallet Address cannot be 0x0\"); // Should be covered by isSubject()\n            // Doctor memory newDoctor = Doctor(_subjectId, _degree, _license);\n            // doctors[_subjectId] = newDoctor;\n            // if (doctors[_subjectId].subjectId == address(0)) { // Doctor didn't exist, should be granted the MINTER_ROLE\n            grantRole(MINTER_ROLE, _subjectId);\n            // }\n            doctors[_subjectId] = RxStructs.Doctor(_subjectId, _degree, _license);\n            emit doctorDataSet(msg.sender, _subjectId, _degree, _license);\n            return doctors[_subjectId].subjectId;\n    }\n\n    /// @notice Function to add/replace a Pharmacist allowed to burn NFT Prescriptions\n    /// @param _subjectId should be a valid ethereum address (same Id as the subject that holds this pharmacist's personal details)\n    /// @param _degree should contain string with the degree of the pharmacist\n    /// @param _license should contain string with the legal license of the pharmacist\n    /// @dev @param _workplaces is a feature for future implementations\n    /// @return the ethereum address of the pharmacist that was registered in the contract\n    function setPharmacistData(address _subjectId, string calldata _degree, string calldata _license) //, address[] calldata _workplaces)\n        public\n        onlyRole(ADMIN_ROLE)\n        isSubject(_subjectId)\n        returns (address) {\n            // onlyPausableRole(ADMIN_ROLE);\n            // require (_subjectId != address(0), \"Wallet Address cannot be 0x0\"); // Should be covered by isSubject()\n            // Pharmacist memory newPharmacist = Pharmacist(_subjectId, _degree, _license);\n            // pharmacists[_subjectId] = newPharmacist;\n            // if (pharmacists[_subjectId].subjectId == address(0)) { // Pharmacist didn't exist, should be granted BURNER_ROLE\n            grantRole(BURNER_ROLE, _subjectId);\n            // }\n            pharmacists[_subjectId] = RxStructs.Pharmacist(_subjectId, _degree, _license);\n            emit pharmacistDataSet(msg.sender, _subjectId, _degree, _license);\n            return pharmacists[_subjectId].subjectId;\n    }\n\n    /// @notice Function to remove a registered Subject \n    /// @param _subjectId is the registered address of the subject to remove\n    /// @dev Only ADMIN_ROLE users are allowed to remove subjects\n    function removeSubject(address _subjectId)\n        public\n        onlyRole(ADMIN_ROLE)\n        isSubject(_subjectId)\n        isNotDoctor(_subjectId)\n        isNotPharmacist(_subjectId) {\n            // onlyPausableRole(ADMIN_ROLE);// require (_subjectId != address(0), \"Wallet Address cannot be 0x0\"); // Should be covered by isSubject()\n            delete subjects[_subjectId];\n            emit subjectRemoved(msg.sender, _subjectId);\n    }\n\n    /// @notice Function to remove a registered Doctor\n    /// @param _subjectId is the registered address of the doctor to remove\n    /// @dev Only ADMIN_ROLE users are allowed to remove doctors\n    function removeDoctor(address _subjectId)\n        public\n        onlyRole(ADMIN_ROLE)\n        isDoctor(_subjectId) {\n            // onlyPausableRole(ADMIN_ROLE);\n            // require (_subjectId != address(0), \"Wallet Address cannot be 0x0\"); // Should be covered by isDoctor()\n            revokeRole(MINTER_ROLE, _subjectId);\n            delete doctors[_subjectId];\n            emit doctorRemoved(msg.sender, _subjectId);\n    }\n\n    /// @notice Function to remove a registered Pharmacist\n    /// @param _subjectId is the registered address of the pharmacist to remove\n    /// @dev Only ADMIN_ROLE users are allowed to remove pharmacists\n    function removePharmacist(address _subjectId)\n        public\n        onlyRole(ADMIN_ROLE)\n        isPharmacist(_subjectId) {\n            \n            // require (_subjectId != address(0), \"Wallet Address cannot be 0x0\"); // Should be covered by isPharmacist()\n            revokeRole(BURNER_ROLE, _subjectId);\n            delete pharmacists[_subjectId];\n            emit pharmacistRemoved(msg.sender, _subjectId);\n    }\n\n}",
  "sourcePath": "/Users/matias/coding/github/blockchain-developer-bootcamp-final-project/contracts/Rx.sol",
  "compiler": {
    "name": "solc",
    "version": "0.8.9+commit.e5eed63a.Emscripten.clang"
  },
  "schemaVersion": "3.4.3",
  "updatedAt": "2021-11-30T09:39:18.942Z",
  "networkType": "ethereum",
  "devdoc": {
    "author": "Matias Parij (@7i7o)",
    "details": "Features such as workplaces for doctors or pharmacists are for future iterations",
    "events": {
      "doctorDataSet(address,address,string,string)": {
        "params": {
          "_degree": "contains a string with the degree of the doctor",
          "_license": "contains a string with the legal license of the doctor",
          "_subjectId": "is the ethereum address for the doctor (same Id as the subject that holds this doctor's personal details)",
          "sender": "is the address of the admin that set the Doctor's data"
        }
      },
      "doctorRemoved(address,address)": {
        "params": {
          "_subjectId": "is the registered address of the doctor removed",
          "sender": "is the address of the admin that removed the Doctor"
        }
      },
      "minted(address,address,uint256)": {
        "params": {
          "receiver": "address of the Subject that received the Rx minted",
          "sender": "address of the Doctor that minted the Rx",
          "tokenId": "Id of the Token (Rx) that has been minted"
        }
      },
      "pharmacistDataSet(address,address,string,string)": {
        "params": {
          "_degree": "contains a string with the degree of the pharmacist",
          "_license": "contains a string with the legal license of the pharmacist",
          "_subjectId": "is the ethereum address for the pahrmacist (same Id as the subject that holds this pharmacist's personal details)",
          "sender": "is the address of the admin that set the Pharmacist's data"
        }
      },
      "pharmacistRemoved(address,address)": {
        "params": {
          "_subjectId": "is the registered address of the pharmacist removed",
          "sender": "is the address of the admin that removed the Pharmacist"
        }
      },
      "subjectDataSet(address,address,uint256,string,string)": {
        "params": {
          "_birthDate": "is the subjects' date of birth, in seconds, from UNIX Epoch (1970-01-01)",
          "_homeAddress": "is the subject's legal home address",
          "_name": "is the subject's full name",
          "_subjectId": "is the registered address of the subject (approved for holding NFT Prescriptions)",
          "sender": "is the address of the admin that set the Subject's data"
        }
      },
      "subjectRemoved(address,address)": {
        "params": {
          "_subjectId": "is the registered address of the subject removed",
          "sender": "is the address of the admin that removed the Subject"
        }
      }
    },
    "kind": "dev",
    "methods": {
      "addAdmin(address)": {
        "params": {
          "to": "Address of the account to grant admin role"
        }
      },
      "approve(address,uint256)": {
        "details": "See {IERC721-approve}."
      },
      "balanceOf(address)": {
        "details": "See {IERC721-balanceOf}."
      },
      "burn(uint256)": {
        "details": "Burns `tokenId`. See {ERC721-_burn}. Requirements: - The caller must own `tokenId` or be an approved operator."
      },
      "constructor": {
        "details": "Using ERC721 default constructor with \"Prescription\" and \"Rx\" as Name and Symbol for the tokensWe set up the contract creator (msg.sender) with the ADMIN_ROLE to manage all the other RolesWe increment the counter in the constructor to start Ids in 1, keeping Id 0 (default for uints      in solidity) to signal that someone doesn't have any NFTs"
      },
      "getApproved(uint256)": {
        "details": "See {IERC721-getApproved}."
      },
      "getDoctor(address)": {
        "params": {
          "_subjectId": "the registered address of the doctor to retrieve"
        },
        "returns": {
          "_0": "an object with the Doctor"
        }
      },
      "getPausableRolePaused()": {
        "returns": {
          "_0": "bool with state variable"
        }
      },
      "getPharmacist(address)": {
        "params": {
          "_subjectId": "the registered address of the pharmacist to retrieve"
        },
        "returns": {
          "_0": "an object with the Pharmacist"
        }
      },
      "getRoleAdmin(bytes32)": {
        "details": "Returns the admin role that controls `role`. See {grantRole} and {revokeRole}. To change a role's admin, use {_setRoleAdmin}."
      },
      "getRx(uint256)": {
        "params": {
          "tokenId": "uint256 representing an existing tokenId"
        },
        "returns": {
          "_0": "a RxData struct containing all the Rx Data"
        }
      },
      "getSubject(address)": {
        "params": {
          "_subjectId": "the registered address of the subject to retrieve"
        },
        "returns": {
          "_0": "an object with the Subject"
        }
      },
      "grantRole(bytes32,address)": {
        "details": "Grants `role` to `account`. If `account` had not been already granted `role`, emits a {RoleGranted} event. Requirements: - the caller must have ``role``'s admin role."
      },
      "hasRole(bytes32,address)": {
        "details": "Returns `true` if `account` has been granted `role`."
      },
      "isAdmin(address)": {
        "params": {
          "to": "address to check for admin role privilege"
        },
        "returns": {
          "_0": "true if @param to is an admin or false otherwise"
        }
      },
      "isApprovedForAll(address,address)": {
        "details": "See {IERC721-isApprovedForAll}."
      },
      "mint(address,string[12],string[12])": {
        "details": "Does NOT store a tokenURI. It stores Prescription data on contract (tokenURI is generated upon request)",
        "params": {
          "_keys": "Text lines with the 'title' of each content of the prescription (max 19 characters each)",
          "_values": "Text lines with the 'content' of the prescription (max 61 characters each)",
          "to": "The id of the subject (patient) recipient of the prescription"
        }
      },
      "name()": {
        "details": "See {IERC721Metadata-name}."
      },
      "ownerOf(uint256)": {
        "details": "See {IERC721-ownerOf}."
      },
      "removeAdmin(address)": {
        "params": {
          "to": "Address of the account to remove admin role"
        }
      },
      "removeDoctor(address)": {
        "details": "Only ADMIN_ROLE users are allowed to remove doctors",
        "params": {
          "_subjectId": "is the registered address of the doctor to remove"
        }
      },
      "removePharmacist(address)": {
        "details": "Only ADMIN_ROLE users are allowed to remove pharmacists",
        "params": {
          "_subjectId": "is the registered address of the pharmacist to remove"
        }
      },
      "removeSubject(address)": {
        "details": "Only ADMIN_ROLE users are allowed to remove subjects",
        "params": {
          "_subjectId": "is the registered address of the subject to remove"
        }
      },
      "renounceRole(bytes32,address)": {
        "details": "Revokes `role` from the calling account. Roles are often managed via {grantRole} and {revokeRole}: this function's purpose is to provide a mechanism for accounts to lose their privileges if they are compromised (such as when a trusted device is misplaced). If the calling account had been revoked `role`, emits a {RoleRevoked} event. Requirements: - the caller must be `account`."
      },
      "revokeRole(bytes32,address)": {
        "details": "Revokes `role` from `account`. If `account` had been granted `role`, emits a {RoleRevoked} event. Requirements: - the caller must have ``role``'s admin role."
      },
      "safeTransferFrom(address,address,uint256)": {
        "details": "See {IERC721-safeTransferFrom}."
      },
      "safeTransferFrom(address,address,uint256,bytes)": {
        "details": "See {IERC721-safeTransferFrom}."
      },
      "setApprovalForAll(address,bool)": {
        "details": "See {IERC721-setApprovalForAll}."
      },
      "setDoctorData(address,string,string)": {
        "details": "@param _workplaces is a feature for future implementations",
        "params": {
          "_degree": "should contain string with the degree of the doctor",
          "_license": "should contain string with the legal license of the doctor",
          "_subjectId": "should be a valid ethereum address (same Id as the subject that holds this doctor's personal details)"
        },
        "returns": {
          "_0": "the ethereum address of the doctor that was registered in the contract"
        }
      },
      "setPausableRolePaused(bool)": {
        "params": {
          "_paused": "bool to set state variable"
        }
      },
      "setPharmacistData(address,string,string)": {
        "details": "@param _workplaces is a feature for future implementations",
        "params": {
          "_degree": "should contain string with the degree of the pharmacist",
          "_license": "should contain string with the legal license of the pharmacist",
          "_subjectId": "should be a valid ethereum address (same Id as the subject that holds this pharmacist's personal details)"
        },
        "returns": {
          "_0": "the ethereum address of the pharmacist that was registered in the contract"
        }
      },
      "setSubjectData(address,uint256,string,string)": {
        "details": "Only ADMIN_ROLE users are allowed to modify subjects",
        "params": {
          "_birthDate": "is the subjects' date of birth, in seconds, from UNIX Epoch (1970-01-01)",
          "_homeAddress": "is the subject's legal home address",
          "_name": "is the subject's full name",
          "_subjectId": "is the registered address of the subject (approved for holding NFT Prescriptions)"
        },
        "returns": {
          "_0": "the ethereum address of the subject that was registered in the contract"
        }
      },
      "supportsInterface(bytes4)": {
        "details": "function override required by solidity"
      },
      "symbol()": {
        "details": "See {IERC721Metadata-symbol}."
      },
      "tokenURI(uint256)": {
        "details": "TokenURI generated on the fly from stored data (function override required by solidity)  "
      },
      "transferFrom(address,address,uint256)": {
        "details": "See {IERC721-transferFrom}."
      }
    },
    "stateVariables": {
      "_tokenIdCounter": {
        "details": "We increment the counter in the constructor to start Ids in 1, keeping Id 0 (default for      uints in solidity) to signal that someone doesn't have any NFTs"
      }
    },
    "title": "A NFT Prescription creator",
    "version": 1
  },
  "userdoc": {
    "events": {
      "doctorDataSet(address,address,string,string)": {
        "notice": "Event to signal when adding/replacing a Doctor allowed to mint NFT Prescriptions"
      },
      "doctorRemoved(address,address)": {
        "notice": "Event to signal a removed Doctor"
      },
      "minted(address,address,uint256)": {
        "notice": "Event to signal when a new Rx has been minted"
      },
      "pharmacistDataSet(address,address,string,string)": {
        "notice": "Event to signal when adding/replacing a Pharmacist allowed to burn NFT Prescriptions"
      },
      "pharmacistRemoved(address,address)": {
        "notice": "Event to signal a removed Pharmacist"
      },
      "subjectDataSet(address,address,uint256,string,string)": {
        "notice": "Event to signal when adding/replacing a Subject allowed to receive/hold NFT Prescriptions"
      },
      "subjectRemoved(address,address)": {
        "notice": "Event to signal a removed Subject"
      }
    },
    "kind": "user",
    "methods": {
      "ADMIN_ROLE()": {
        "notice": "Role definition for Minter"
      },
      "BURNER_ROLE()": {
        "notice": "Role definition for Burner"
      },
      "MINTER_ROLE()": {
        "notice": "Role definition for Minter"
      },
      "addAdmin(address)": {
        "notice": "Function to add an admin account"
      },
      "constructor": {
        "notice": "constructor for NFT Prescriptions contract"
      },
      "getDoctor(address)": {
        "notice": "Function to retrieve a Doctor"
      },
      "getPausableRolePaused()": {
        "notice": "Function to set pausableRolePaused (only deployer of contract is allowed)"
      },
      "getPharmacist(address)": {
        "notice": "Function to retrieve a Pharmacist"
      },
      "getRx(uint256)": {
        "notice": "Function to get data for a specific tokenId. Only for Doctor, Patient or Pharmacist of the tokenId."
      },
      "getSubject(address)": {
        "notice": "Function to retrieve a Subject"
      },
      "isAdmin(address)": {
        "notice": "Function to check if someone has admin role"
      },
      "mint(address,string[12],string[12])": {
        "notice": "Funtion to mint a Prescription. Should be called only by a Doctor (has MINTER_ROLE)"
      },
      "removeAdmin(address)": {
        "notice": "Function to remove an admin account"
      },
      "removeDoctor(address)": {
        "notice": "Function to remove a registered Doctor"
      },
      "removePharmacist(address)": {
        "notice": "Function to remove a registered Pharmacist"
      },
      "removeSubject(address)": {
        "notice": "Function to remove a registered Subject "
      },
      "setDoctorData(address,string,string)": {
        "notice": "Function to add/replace a Doctor allowed to mint NFT Prescriptions"
      },
      "setPausableRolePaused(bool)": {
        "notice": "Function to set pausableRolePaused (only deployer of contract is allowed)"
      },
      "setPharmacistData(address,string,string)": {
        "notice": "Function to add/replace a Pharmacist allowed to burn NFT Prescriptions"
      },
      "setSubjectData(address,uint256,string,string)": {
        "notice": "Function to add/replace a Subject allowed to receive/hold NFT Prescriptions"
      }
    },
    "notice": "You can use this contract only as a MVP for minting Prescriptions",
    "version": 1
  }
}