{
  "contractName": "Rx",
  "abi": [
    {
      "inputs": [],
      "stateMutability": "nonpayable",
      "type": "constructor"
    },
    {
      "anonymous": false,
      "inputs": [
        {
          "indexed": true,
          "internalType": "address",
          "name": "owner",
          "type": "address"
        },
        {
          "indexed": true,
          "internalType": "address",
          "name": "approved",
          "type": "address"
        },
        {
          "indexed": true,
          "internalType": "uint256",
          "name": "tokenId",
          "type": "uint256"
        }
      ],
      "name": "Approval",
      "type": "event"
    },
    {
      "anonymous": false,
      "inputs": [
        {
          "indexed": true,
          "internalType": "address",
          "name": "owner",
          "type": "address"
        },
        {
          "indexed": true,
          "internalType": "address",
          "name": "operator",
          "type": "address"
        },
        {
          "indexed": false,
          "internalType": "bool",
          "name": "approved",
          "type": "bool"
        }
      ],
      "name": "ApprovalForAll",
      "type": "event"
    },
    {
      "anonymous": false,
      "inputs": [
        {
          "indexed": true,
          "internalType": "bytes32",
          "name": "role",
          "type": "bytes32"
        },
        {
          "indexed": true,
          "internalType": "bytes32",
          "name": "previousAdminRole",
          "type": "bytes32"
        },
        {
          "indexed": true,
          "internalType": "bytes32",
          "name": "newAdminRole",
          "type": "bytes32"
        }
      ],
      "name": "RoleAdminChanged",
      "type": "event"
    },
    {
      "anonymous": false,
      "inputs": [
        {
          "indexed": true,
          "internalType": "bytes32",
          "name": "role",
          "type": "bytes32"
        },
        {
          "indexed": true,
          "internalType": "address",
          "name": "account",
          "type": "address"
        },
        {
          "indexed": true,
          "internalType": "address",
          "name": "sender",
          "type": "address"
        }
      ],
      "name": "RoleGranted",
      "type": "event"
    },
    {
      "anonymous": false,
      "inputs": [
        {
          "indexed": true,
          "internalType": "bytes32",
          "name": "role",
          "type": "bytes32"
        },
        {
          "indexed": true,
          "internalType": "address",
          "name": "account",
          "type": "address"
        },
        {
          "indexed": true,
          "internalType": "address",
          "name": "sender",
          "type": "address"
        }
      ],
      "name": "RoleRevoked",
      "type": "event"
    },
    {
      "anonymous": false,
      "inputs": [
        {
          "indexed": true,
          "internalType": "address",
          "name": "from",
          "type": "address"
        },
        {
          "indexed": true,
          "internalType": "address",
          "name": "to",
          "type": "address"
        },
        {
          "indexed": true,
          "internalType": "uint256",
          "name": "tokenId",
          "type": "uint256"
        }
      ],
      "name": "Transfer",
      "type": "event"
    },
    {
      "anonymous": false,
      "inputs": [
        {
          "indexed": true,
          "internalType": "address",
          "name": "sender",
          "type": "address"
        },
        {
          "indexed": true,
          "internalType": "address",
          "name": "_subjectId",
          "type": "address"
        },
        {
          "indexed": false,
          "internalType": "bytes32",
          "name": "_degree",
          "type": "bytes32"
        },
        {
          "indexed": false,
          "internalType": "bytes32",
          "name": "_license",
          "type": "bytes32"
        }
      ],
      "name": "doctorDataSet",
      "type": "event"
    },
    {
      "anonymous": false,
      "inputs": [
        {
          "indexed": true,
          "internalType": "address",
          "name": "sender",
          "type": "address"
        },
        {
          "indexed": true,
          "internalType": "address",
          "name": "_subjectId",
          "type": "address"
        }
      ],
      "name": "doctorRemoved",
      "type": "event"
    },
    {
      "anonymous": false,
      "inputs": [
        {
          "indexed": true,
          "internalType": "address",
          "name": "sender",
          "type": "address"
        },
        {
          "indexed": true,
          "internalType": "address",
          "name": "receiver",
          "type": "address"
        },
        {
          "indexed": true,
          "internalType": "uint256",
          "name": "tokenId",
          "type": "uint256"
        }
      ],
      "name": "minted",
      "type": "event"
    },
    {
      "anonymous": false,
      "inputs": [
        {
          "indexed": true,
          "internalType": "address",
          "name": "sender",
          "type": "address"
        },
        {
          "indexed": true,
          "internalType": "address",
          "name": "_subjectId",
          "type": "address"
        },
        {
          "indexed": false,
          "internalType": "bytes32",
          "name": "_degree",
          "type": "bytes32"
        },
        {
          "indexed": false,
          "internalType": "bytes32",
          "name": "_license",
          "type": "bytes32"
        }
      ],
      "name": "pharmacistDataSet",
      "type": "event"
    },
    {
      "anonymous": false,
      "inputs": [
        {
          "indexed": true,
          "internalType": "address",
          "name": "sender",
          "type": "address"
        },
        {
          "indexed": true,
          "internalType": "address",
          "name": "_subjectId",
          "type": "address"
        }
      ],
      "name": "pharmacistRemoved",
      "type": "event"
    },
    {
      "anonymous": false,
      "inputs": [
        {
          "indexed": true,
          "internalType": "address",
          "name": "sender",
          "type": "address"
        },
        {
          "indexed": true,
          "internalType": "address",
          "name": "_subjectId",
          "type": "address"
        },
        {
          "indexed": false,
          "internalType": "uint256",
          "name": "_birthDate",
          "type": "uint256"
        },
        {
          "indexed": false,
          "internalType": "bytes32",
          "name": "_nameA",
          "type": "bytes32"
        },
        {
          "indexed": false,
          "internalType": "bytes32",
          "name": "_nameB",
          "type": "bytes32"
        },
        {
          "indexed": false,
          "internalType": "bytes32",
          "name": "_homeAddressA",
          "type": "bytes32"
        },
        {
          "indexed": false,
          "internalType": "bytes32",
          "name": "_homeAddressB",
          "type": "bytes32"
        }
      ],
      "name": "subjectDataSet",
      "type": "event"
    },
    {
      "anonymous": false,
      "inputs": [
        {
          "indexed": true,
          "internalType": "address",
          "name": "sender",
          "type": "address"
        },
        {
          "indexed": true,
          "internalType": "address",
          "name": "_subjectId",
          "type": "address"
        }
      ],
      "name": "subjectRemoved",
      "type": "event"
    },
    {
      "inputs": [],
      "name": "ADMIN_ROLE",
      "outputs": [
        {
          "internalType": "bytes32",
          "name": "",
          "type": "bytes32"
        }
      ],
      "stateMutability": "view",
      "type": "function",
      "constant": true
    },
    {
      "inputs": [],
      "name": "BURNER_ROLE",
      "outputs": [
        {
          "internalType": "bytes32",
          "name": "",
          "type": "bytes32"
        }
      ],
      "stateMutability": "view",
      "type": "function",
      "constant": true
    },
    {
      "inputs": [],
      "name": "DEFAULT_ADMIN_ROLE",
      "outputs": [
        {
          "internalType": "bytes32",
          "name": "",
          "type": "bytes32"
        }
      ],
      "stateMutability": "view",
      "type": "function",
      "constant": true
    },
    {
      "inputs": [],
      "name": "MINTER_ROLE",
      "outputs": [
        {
          "internalType": "bytes32",
          "name": "",
          "type": "bytes32"
        }
      ],
      "stateMutability": "view",
      "type": "function",
      "constant": true
    },
    {
      "inputs": [
        {
          "internalType": "address",
          "name": "to",
          "type": "address"
        },
        {
          "internalType": "uint256",
          "name": "tokenId",
          "type": "uint256"
        }
      ],
      "name": "approve",
      "outputs": [],
      "stateMutability": "nonpayable",
      "type": "function"
    },
    {
      "inputs": [
        {
          "internalType": "address",
          "name": "owner",
          "type": "address"
        }
      ],
      "name": "balanceOf",
      "outputs": [
        {
          "internalType": "uint256",
          "name": "",
          "type": "uint256"
        }
      ],
      "stateMutability": "view",
      "type": "function",
      "constant": true
    },
    {
      "inputs": [
        {
          "internalType": "uint256",
          "name": "tokenId",
          "type": "uint256"
        }
      ],
      "name": "burn",
      "outputs": [],
      "stateMutability": "nonpayable",
      "type": "function"
    },
    {
      "inputs": [
        {
          "internalType": "uint256",
          "name": "tokenId",
          "type": "uint256"
        }
      ],
      "name": "getApproved",
      "outputs": [
        {
          "internalType": "address",
          "name": "",
          "type": "address"
        }
      ],
      "stateMutability": "view",
      "type": "function",
      "constant": true
    },
    {
      "inputs": [
        {
          "internalType": "bytes32",
          "name": "role",
          "type": "bytes32"
        }
      ],
      "name": "getRoleAdmin",
      "outputs": [
        {
          "internalType": "bytes32",
          "name": "",
          "type": "bytes32"
        }
      ],
      "stateMutability": "view",
      "type": "function",
      "constant": true
    },
    {
      "inputs": [
        {
          "internalType": "bytes32",
          "name": "role",
          "type": "bytes32"
        },
        {
          "internalType": "address",
          "name": "account",
          "type": "address"
        }
      ],
      "name": "grantRole",
      "outputs": [],
      "stateMutability": "nonpayable",
      "type": "function"
    },
    {
      "inputs": [
        {
          "internalType": "bytes32",
          "name": "role",
          "type": "bytes32"
        },
        {
          "internalType": "address",
          "name": "account",
          "type": "address"
        }
      ],
      "name": "hasRole",
      "outputs": [
        {
          "internalType": "bool",
          "name": "",
          "type": "bool"
        }
      ],
      "stateMutability": "view",
      "type": "function",
      "constant": true
    },
    {
      "inputs": [
        {
          "internalType": "address",
          "name": "owner",
          "type": "address"
        },
        {
          "internalType": "address",
          "name": "operator",
          "type": "address"
        }
      ],
      "name": "isApprovedForAll",
      "outputs": [
        {
          "internalType": "bool",
          "name": "",
          "type": "bool"
        }
      ],
      "stateMutability": "view",
      "type": "function",
      "constant": true
    },
    {
      "inputs": [],
      "name": "name",
      "outputs": [
        {
          "internalType": "string",
          "name": "",
          "type": "string"
        }
      ],
      "stateMutability": "view",
      "type": "function",
      "constant": true
    },
    {
      "inputs": [
        {
          "internalType": "uint256",
          "name": "tokenId",
          "type": "uint256"
        }
      ],
      "name": "ownerOf",
      "outputs": [
        {
          "internalType": "address",
          "name": "",
          "type": "address"
        }
      ],
      "stateMutability": "view",
      "type": "function",
      "constant": true
    },
    {
      "inputs": [
        {
          "internalType": "bytes32",
          "name": "role",
          "type": "bytes32"
        },
        {
          "internalType": "address",
          "name": "account",
          "type": "address"
        }
      ],
      "name": "renounceRole",
      "outputs": [],
      "stateMutability": "nonpayable",
      "type": "function"
    },
    {
      "inputs": [
        {
          "internalType": "bytes32",
          "name": "role",
          "type": "bytes32"
        },
        {
          "internalType": "address",
          "name": "account",
          "type": "address"
        }
      ],
      "name": "revokeRole",
      "outputs": [],
      "stateMutability": "nonpayable",
      "type": "function"
    },
    {
      "inputs": [
        {
          "internalType": "address",
          "name": "from",
          "type": "address"
        },
        {
          "internalType": "address",
          "name": "to",
          "type": "address"
        },
        {
          "internalType": "uint256",
          "name": "tokenId",
          "type": "uint256"
        }
      ],
      "name": "safeTransferFrom",
      "outputs": [],
      "stateMutability": "nonpayable",
      "type": "function"
    },
    {
      "inputs": [
        {
          "internalType": "address",
          "name": "from",
          "type": "address"
        },
        {
          "internalType": "address",
          "name": "to",
          "type": "address"
        },
        {
          "internalType": "uint256",
          "name": "tokenId",
          "type": "uint256"
        },
        {
          "internalType": "bytes",
          "name": "_data",
          "type": "bytes"
        }
      ],
      "name": "safeTransferFrom",
      "outputs": [],
      "stateMutability": "nonpayable",
      "type": "function"
    },
    {
      "inputs": [
        {
          "internalType": "address",
          "name": "operator",
          "type": "address"
        },
        {
          "internalType": "bool",
          "name": "approved",
          "type": "bool"
        }
      ],
      "name": "setApprovalForAll",
      "outputs": [],
      "stateMutability": "nonpayable",
      "type": "function"
    },
    {
      "inputs": [],
      "name": "symbol",
      "outputs": [
        {
          "internalType": "string",
          "name": "",
          "type": "string"
        }
      ],
      "stateMutability": "view",
      "type": "function",
      "constant": true
    },
    {
      "inputs": [
        {
          "internalType": "address",
          "name": "from",
          "type": "address"
        },
        {
          "internalType": "address",
          "name": "to",
          "type": "address"
        },
        {
          "internalType": "uint256",
          "name": "tokenId",
          "type": "uint256"
        }
      ],
      "name": "transferFrom",
      "outputs": [],
      "stateMutability": "nonpayable",
      "type": "function"
    },
    {
      "inputs": [
        {
          "internalType": "bytes4",
          "name": "interfaceId",
          "type": "bytes4"
        }
      ],
      "name": "supportsInterface",
      "outputs": [
        {
          "internalType": "bool",
          "name": "",
          "type": "bool"
        }
      ],
      "stateMutability": "view",
      "type": "function",
      "constant": true
    },
    {
      "inputs": [
        {
          "internalType": "address",
          "name": "newOwner",
          "type": "address"
        }
      ],
      "name": "transferOwnership",
      "outputs": [],
      "stateMutability": "nonpayable",
      "type": "function"
    },
    {
      "inputs": [
        {
          "internalType": "address",
          "name": "to",
          "type": "address"
        },
        {
          "internalType": "bytes32[12]",
          "name": "_keys",
          "type": "bytes32[12]"
        },
        {
          "internalType": "bytes32[24]",
          "name": "_values",
          "type": "bytes32[24]"
        }
      ],
      "name": "mint",
      "outputs": [],
      "stateMutability": "nonpayable",
      "type": "function"
    },
    {
      "inputs": [
        {
          "internalType": "uint256",
          "name": "tokenId",
          "type": "uint256"
        }
      ],
      "name": "tokenURI",
      "outputs": [
        {
          "internalType": "string",
          "name": "",
          "type": "string"
        }
      ],
      "stateMutability": "view",
      "type": "function",
      "constant": true
    },
    {
      "inputs": [
        {
          "internalType": "uint256",
          "name": "tokenId",
          "type": "uint256"
        }
      ],
      "name": "getRx",
      "outputs": [
        {
          "components": [
            {
              "internalType": "uint256",
              "name": "date",
              "type": "uint256"
            },
            {
              "components": [
                {
                  "internalType": "address",
                  "name": "subjectId",
                  "type": "address"
                },
                {
                  "internalType": "uint256",
                  "name": "birthDate",
                  "type": "uint256"
                },
                {
                  "internalType": "bytes32",
                  "name": "nameA",
                  "type": "bytes32"
                },
                {
                  "internalType": "bytes32",
                  "name": "nameB",
                  "type": "bytes32"
                },
                {
                  "internalType": "bytes32",
                  "name": "homeAddressA",
                  "type": "bytes32"
                },
                {
                  "internalType": "bytes32",
                  "name": "homeAddressB",
                  "type": "bytes32"
                }
              ],
              "internalType": "struct RxStructs.Subject",
              "name": "patient",
              "type": "tuple"
            },
            {
              "components": [
                {
                  "internalType": "address",
                  "name": "subjectId",
                  "type": "address"
                },
                {
                  "internalType": "uint256",
                  "name": "birthDate",
                  "type": "uint256"
                },
                {
                  "internalType": "bytes32",
                  "name": "nameA",
                  "type": "bytes32"
                },
                {
                  "internalType": "bytes32",
                  "name": "nameB",
                  "type": "bytes32"
                },
                {
                  "internalType": "bytes32",
                  "name": "homeAddressA",
                  "type": "bytes32"
                },
                {
                  "internalType": "bytes32",
                  "name": "homeAddressB",
                  "type": "bytes32"
                }
              ],
              "internalType": "struct RxStructs.Subject",
              "name": "doctorSubject",
              "type": "tuple"
            },
            {
              "components": [
                {
                  "internalType": "address",
                  "name": "subjectId",
                  "type": "address"
                },
                {
                  "internalType": "uint256",
                  "name": "birthDate",
                  "type": "uint256"
                },
                {
                  "internalType": "bytes32",
                  "name": "nameA",
                  "type": "bytes32"
                },
                {
                  "internalType": "bytes32",
                  "name": "nameB",
                  "type": "bytes32"
                },
                {
                  "internalType": "bytes32",
                  "name": "homeAddressA",
                  "type": "bytes32"
                },
                {
                  "internalType": "bytes32",
                  "name": "homeAddressB",
                  "type": "bytes32"
                }
              ],
              "internalType": "struct RxStructs.Subject",
              "name": "pharmacistSubject",
              "type": "tuple"
            },
            {
              "components": [
                {
                  "internalType": "address",
                  "name": "subjectId",
                  "type": "address"
                },
                {
                  "internalType": "bytes32",
                  "name": "degree",
                  "type": "bytes32"
                },
                {
                  "internalType": "bytes32",
                  "name": "license",
                  "type": "bytes32"
                }
              ],
              "internalType": "struct RxStructs.Doctor",
              "name": "doctor",
              "type": "tuple"
            },
            {
              "components": [
                {
                  "internalType": "address",
                  "name": "subjectId",
                  "type": "address"
                },
                {
                  "internalType": "bytes32",
                  "name": "degree",
                  "type": "bytes32"
                },
                {
                  "internalType": "bytes32",
                  "name": "license",
                  "type": "bytes32"
                }
              ],
              "internalType": "struct RxStructs.Pharmacist",
              "name": "pharmacist",
              "type": "tuple"
            },
            {
              "internalType": "bytes32[12]",
              "name": "keys",
              "type": "bytes32[12]"
            },
            {
              "internalType": "bytes32[24]",
              "name": "values",
              "type": "bytes32[24]"
            }
          ],
          "internalType": "struct RxStructs.RxData",
          "name": "",
          "type": "tuple"
        }
      ],
      "stateMutability": "view",
      "type": "function",
      "constant": true
    },
    {
      "inputs": [
        {
          "internalType": "bool",
          "name": "_selfAdmin",
          "type": "bool"
        }
      ],
      "name": "setSelfGrantAdmin",
      "outputs": [],
      "stateMutability": "nonpayable",
      "type": "function"
    },
    {
      "inputs": [],
      "name": "getSelfGrantAdmin",
      "outputs": [
        {
          "internalType": "bool",
          "name": "",
          "type": "bool"
        }
      ],
      "stateMutability": "view",
      "type": "function",
      "constant": true
    },
    {
      "inputs": [
        {
          "internalType": "address",
          "name": "to",
          "type": "address"
        }
      ],
      "name": "addAdmin",
      "outputs": [],
      "stateMutability": "nonpayable",
      "type": "function"
    },
    {
      "inputs": [
        {
          "internalType": "address",
          "name": "to",
          "type": "address"
        }
      ],
      "name": "removeAdmin",
      "outputs": [],
      "stateMutability": "nonpayable",
      "type": "function"
    },
    {
      "inputs": [
        {
          "internalType": "address",
          "name": "to",
          "type": "address"
        }
      ],
      "name": "isAdmin",
      "outputs": [
        {
          "internalType": "bool",
          "name": "",
          "type": "bool"
        }
      ],
      "stateMutability": "view",
      "type": "function",
      "constant": true
    },
    {
      "inputs": [
        {
          "internalType": "address",
          "name": "_subjectId",
          "type": "address"
        }
      ],
      "name": "getSubject",
      "outputs": [
        {
          "components": [
            {
              "internalType": "address",
              "name": "subjectId",
              "type": "address"
            },
            {
              "internalType": "uint256",
              "name": "birthDate",
              "type": "uint256"
            },
            {
              "internalType": "bytes32",
              "name": "nameA",
              "type": "bytes32"
            },
            {
              "internalType": "bytes32",
              "name": "nameB",
              "type": "bytes32"
            },
            {
              "internalType": "bytes32",
              "name": "homeAddressA",
              "type": "bytes32"
            },
            {
              "internalType": "bytes32",
              "name": "homeAddressB",
              "type": "bytes32"
            }
          ],
          "internalType": "struct RxStructs.Subject",
          "name": "",
          "type": "tuple"
        }
      ],
      "stateMutability": "view",
      "type": "function",
      "constant": true
    },
    {
      "inputs": [
        {
          "internalType": "address",
          "name": "_subjectId",
          "type": "address"
        }
      ],
      "name": "getDoctor",
      "outputs": [
        {
          "components": [
            {
              "internalType": "address",
              "name": "subjectId",
              "type": "address"
            },
            {
              "internalType": "bytes32",
              "name": "degree",
              "type": "bytes32"
            },
            {
              "internalType": "bytes32",
              "name": "license",
              "type": "bytes32"
            }
          ],
          "internalType": "struct RxStructs.Doctor",
          "name": "",
          "type": "tuple"
        }
      ],
      "stateMutability": "view",
      "type": "function",
      "constant": true
    },
    {
      "inputs": [
        {
          "internalType": "address",
          "name": "_subjectId",
          "type": "address"
        }
      ],
      "name": "getPharmacist",
      "outputs": [
        {
          "components": [
            {
              "internalType": "address",
              "name": "subjectId",
              "type": "address"
            },
            {
              "internalType": "bytes32",
              "name": "degree",
              "type": "bytes32"
            },
            {
              "internalType": "bytes32",
              "name": "license",
              "type": "bytes32"
            }
          ],
          "internalType": "struct RxStructs.Pharmacist",
          "name": "",
          "type": "tuple"
        }
      ],
      "stateMutability": "view",
      "type": "function",
      "constant": true
    },
    {
      "inputs": [
        {
          "internalType": "address",
          "name": "_subjectId",
          "type": "address"
        },
        {
          "internalType": "uint256",
          "name": "_birthDate",
          "type": "uint256"
        },
        {
          "internalType": "bytes32",
          "name": "_nameA",
          "type": "bytes32"
        },
        {
          "internalType": "bytes32",
          "name": "_nameB",
          "type": "bytes32"
        },
        {
          "internalType": "bytes32",
          "name": "_homeAddressA",
          "type": "bytes32"
        },
        {
          "internalType": "bytes32",
          "name": "_homeAddressB",
          "type": "bytes32"
        }
      ],
      "name": "setSubjectData",
      "outputs": [],
      "stateMutability": "nonpayable",
      "type": "function"
    },
    {
      "inputs": [
        {
          "internalType": "address",
          "name": "_subjectId",
          "type": "address"
        },
        {
          "internalType": "bytes32",
          "name": "_degree",
          "type": "bytes32"
        },
        {
          "internalType": "bytes32",
          "name": "_license",
          "type": "bytes32"
        }
      ],
      "name": "setDoctorData",
      "outputs": [],
      "stateMutability": "nonpayable",
      "type": "function"
    },
    {
      "inputs": [
        {
          "internalType": "address",
          "name": "_subjectId",
          "type": "address"
        },
        {
          "internalType": "bytes32",
          "name": "_degree",
          "type": "bytes32"
        },
        {
          "internalType": "bytes32",
          "name": "_license",
          "type": "bytes32"
        }
      ],
      "name": "setPharmacistData",
      "outputs": [],
      "stateMutability": "nonpayable",
      "type": "function"
    },
    {
      "inputs": [
        {
          "internalType": "address",
          "name": "_subjectId",
          "type": "address"
        }
      ],
      "name": "removeSubject",
      "outputs": [],
      "stateMutability": "nonpayable",
      "type": "function"
    },
    {
      "inputs": [
        {
          "internalType": "address",
          "name": "_subjectId",
          "type": "address"
        }
      ],
      "name": "removeDoctor",
      "outputs": [],
      "stateMutability": "nonpayable",
      "type": "function"
    },
    {
      "inputs": [
        {
          "internalType": "address",
          "name": "_subjectId",
          "type": "address"
        }
      ],
      "name": "removePharmacist",
      "outputs": [],
      "stateMutability": "nonpayable",
      "type": "function"
    }
  ],
  "bytecode": "0x60806040526008805460ff191690553480156200001b57600080fd5b506040805180820182526002808252610a4f60f31b6020808401828152855180870190965292855284015281519192916200005991600091620004a2565b5080516200006f906001906020840190620004a2565b5062000081915060009050336200011d565b6200009c60008051602062005acf83398151915233620001c2565b620000d77f9f2df0fed2c77648de5860a4cc508cd0818c85b8b8a1ab4ceeef8d981c8956a660008051602062005acf833981519152620001f1565b620001127f3c11d16cbaffd01df69ce1c404f6340ee057498f5f00246190ea54220576a84860008051602062005acf833981519152620001f1565b6001600955620006ff565b60008281526007602090815260408083206001600160a01b038516845290915290205460ff16620001be5760008281526007602090815260408083206001600160a01b03851684529091529020805460ff191660011790556200017d3390565b6001600160a01b0316816001600160a01b0316837f2f8788117e7eff1d82e926ec794901d17c78024a50270940304540a733656f0d60405160405180910390a45b5050565b600082815260076020526040902060010154620001e081336200023c565b620001ec83836200011d565b505050565b600082815260076020526040808220600101805490849055905190918391839186917fbd79b86ffe0ab8e8776151514217cd7cacd52c909f66475c3af44e129f0b00ff9190a4505050565b60008281526007602090815260408083206001600160a01b038516845290915290205460ff16620001be5762000288816001600160a01b03166014620002e260201b620018b31760201c565b6200029e836020620018b3620002e2821b17811c565b604051602001620002b19291906200057b565b60408051601f198184030181529082905262461bcd60e51b8252620002d991600401620005f4565b60405180910390fd5b60606000620002f38360026200063f565b6200030090600262000661565b6001600160401b038111156200031a576200031a6200067c565b6040519080825280601f01601f19166020018201604052801562000345576020820181803683370190505b509050600360fc1b8160008151811062000363576200036362000692565b60200101906001600160f81b031916908160001a905350600f60fb1b8160018151811062000395576200039562000692565b60200101906001600160f81b031916908160001a9053506000620003bb8460026200063f565b620003c890600162000661565b90505b60018111156200044a576f181899199a1a9b1b9c1cb0b131b232b360811b85600f166010811062000400576200040062000692565b1a60f81b82828151811062000419576200041962000692565b60200101906001600160f81b031916908160001a90535060049490941c936200044281620006a8565b9050620003cb565b5083156200049b5760405162461bcd60e51b815260206004820181905260248201527f537472696e67733a20686578206c656e67746820696e73756666696369656e746044820152606401620002d9565b9392505050565b828054620004b090620006c2565b90600052602060002090601f016020900481019282620004d457600085556200051f565b82601f10620004ef57805160ff19168380011785556200051f565b828001600101855582156200051f579182015b828111156200051f57825182559160200191906001019062000502565b506200052d92915062000531565b5090565b5b808211156200052d576000815560010162000532565b60005b83811015620005655781810151838201526020016200054b565b8381111562000575576000848401525b50505050565b7f416363657373436f6e74726f6c3a206163636f756e7420000000000000000000815260008351620005b581601785016020880162000548565b7001034b99036b4b9b9b4b733903937b6329607d1b6017918401918201528351620005e881602884016020880162000548565b01602801949350505050565b60208152600082518060208401526200061581604085016020870162000548565b601f01601f19169190910160400192915050565b634e487b7160e01b600052601160045260246000fd5b60008160001904831182151516156200065c576200065c62000629565b500290565b6000821982111562000677576200067762000629565b500190565b634e487b7160e01b600052604160045260246000fd5b634e487b7160e01b600052603260045260246000fd5b600081620006ba57620006ba62000629565b506000190190565b600181811c90821680620006d757607f821691505b60208210811415620006f957634e487b7160e01b600052602260045260246000fd5b50919050565b6153c0806200070f6000396000f3fe608060405234801561001057600080fd5b50600436106102085760003560e01c80637dcf35ea1161011b578063b88d4fde116100a8578063b88d4fde146104ab578063c87b56dd146104be578063d5391393146104d1578063d547741f146104e6578063d9c54dcd146104f9578063e071b0b01461050c578063e985e9c51461051f578063eead532914610532578063efc090b914610545578063f2fde38b1461055057600080fd5b80637dcf35ea146103f657806384efc52f146104095780638c58ecc81461041c57806391d148541461042f57806395d89b411461044257806398fc90e91461044a5780639c4be1471461045d578063a1f7069b1461047d578063a217fddf14610490578063a22cb4651461049857600080fd5b80632f04e064116101995780632f04e064146103295780632f2ff15d1461034957806336568abe1461035c578063366dbea31461036f57806342842e0e1461038257806342966c68146103955780636352211e146103a857806370480275146103bb57806370a08231146103ce57806375b238fc146103e157600080fd5b806301ffc9a71461020d57806306fdde0314610235578063081812fc1461024a578063095ea7b3146102755780631785f53c1461028a57806323b872dd1461029d578063248a9ca3146102b057806324d7806c146102e157806326f313dd146102f4578063282c51f314610314575b600080fd5b61022061021b366004613df0565b610563565b60405190151581526020015b60405180910390f35b61023d610574565b60405161022c9190613e65565b61025d610258366004613e78565b610606565b6040516001600160a01b03909116815260200161022c565b610288610283366004613ead565b610693565b005b610288610298366004613ed7565b6107a4565b6102886102ab366004613ef2565b6107d9565b6102d36102be366004613e78565b60009081526007602052604090206001015490565b60405190815260200161022c565b6102206102ef366004613ed7565b61080b565b610307610302366004613e78565b610825565b60405161022c9190613fb3565b6102d36000805160206150b283398151915281565b61033c610337366004613ed7565b610a00565b60405161022c9190614068565b610288610357366004614076565b610a4c565b61028861036a366004614076565b610a72565b61028861037d366004613ed7565b610aec565b610288610390366004613ef2565b610c37565b6102886103a3366004613e78565b610c52565b61025d6103b6366004613e78565b610ccc565b6102886103c9366004613ed7565b610d43565b6102d36103dc366004613ed7565b610d7d565b6102d36000805160206152db83398151915281565b6102886104043660046140a2565b610e04565b61033c610417366004613ed7565b610ed2565b61028861042a36600461417b565b610f1e565b61022061043d366004614076565b61117f565b61023d6111aa565b610288610458366004613ed7565b6111b9565b61047061046b366004613ed7565b611290565b60405161022c919061422c565b61028861048b36600461423a565b6112fd565b6102d3600081565b6102886104a6366004614294565b611411565b6102886104b93660046142e5565b61141c565b61023d6104cc366004613e78565b611454565b6102d360008051602061518f83398151915281565b6102886104f4366004614076565b61167e565b610288610507366004613ed7565b6116a4565b61028861051a36600461438f565b61177f565b61022061052d3660046143aa565b61179f565b6102886105403660046140a2565b6117cd565b60085460ff16610220565b61028861055e366004613ed7565b611891565b600061056e82611a55565b92915050565b606060008054610583906143d4565b80601f01602080910402602001604051908101604052809291908181526020018280546105af906143d4565b80156105fc5780601f106105d1576101008083540402835291602001916105fc565b820191906000526020600020905b8154815290600101906020018083116105df57829003601f168201915b5050505050905090565b600061061182611a7a565b6106775760405162461bcd60e51b815260206004820152602c60248201527f4552433732313a20617070726f76656420717565727920666f72206e6f6e657860448201526b34b9ba32b73a103a37b5b2b760a11b60648201526084015b60405180910390fd5b506000908152600460205260409020546001600160a01b031690565b600061069e82610ccc565b9050806001600160a01b0316836001600160a01b0316141561070c5760405162461bcd60e51b815260206004820152602160248201527f4552433732313a20617070726f76616c20746f2063757272656e74206f776e656044820152603960f91b606482015260840161066e565b336001600160a01b03821614806107285750610728813361179f565b6107955760405162461bcd60e51b815260206004820152603860248201527f4552433732313a20617070726f76652063616c6c6572206973206e6f74206f776044820152771b995c881b9bdc88185c1c1c9bdd995908199bdc88185b1b60421b606482015260840161066e565b61079f8383611a97565b505050565b6000805160206152db8339815191526107bd8133611b05565b6107d56000805160206152db8339815191528361167e565b5050565b6107e4335b82611b69565b6108005760405162461bcd60e51b815260040161066e9061440f565b61079f838383611c33565b600061056e6000805160206152db8339815191528361117f565b61082d613bdc565b6000828152600d602081815260409283902083516101008101855281548152845160c0808201875260018401546001600160a01b03908116835260028501548387015260038501548389015260048501546060808501919091526005860154608080860191909152600687015460a0808701919091528689019590955289518085018b526007880154841681526008880154818a01526009880154818c0152600a88015481840152600b88015481830152600c8089015482880152878c01919091528a518086018c529988015484168a52600e8801548a8a0152600f8801548a8c015260108801548a84015260118801548a83015260128801548a8701528287019990995289518083018b526013880154841681526014880154818a01526015880154818c01529086015288519081018952601686015490911681526017850154958101959095526018840154858801529082019390935284516101808101958690529094919392850192909160198501919082845b8154815260200190600101908083116109a35750505091835250506040805161030081019182905260209092019190602584019060189082845b8154815260200190600101908083116109dd575050505050815250509050919050565b610a08613c4a565b506001600160a01b039081166000908152600b6020908152604091829020825160608101845281549094168452600181015491840191909152600201549082015290565b600082815260076020526040902060010154610a688133611b05565b61079f8383611c81565b6001600160a01b0381163314610ae25760405162461bcd60e51b815260206004820152602f60248201527f416363657373436f6e74726f6c3a2063616e206f6e6c792072656e6f756e636560448201526e103937b632b9903337b91039b2b63360891b606482015260840161066e565b6107d58282611d07565b6000805160206152db833981519152610b058133611b05565b610b0e82611d6e565b610b2a5760405162461bcd60e51b815260040161066e90614460565b610b3382611da5565b15610b755760405162461bcd60e51b8152602060048201526012602482015271292c1d1029ba34b6361030902237b1ba37b960711b604482015260640161066e565b610b7e82611ddc565b15610bc45760405162461bcd60e51b815260206004820152601660248201527514960e8814dd1a5b1b081848141a185c9b5858da5cdd60521b604482015260640161066e565b6001600160a01b0382166000818152600a602052604080822080546001600160a01b0319168155600181018390556002810183905560038101839055600481018390556005018290555133917f1c8d73beffb6c2485595977dbefb2a4971542306c173c4a82361342d3fa5bb6891a35050565b61079f8383836040518060200160405280600081525061141c565b610c5b336107de565b610cc05760405162461bcd60e51b815260206004820152603060248201527f4552433732314275726e61626c653a2063616c6c6572206973206e6f74206f7760448201526f1b995c881b9bdc88185c1c1c9bdd995960821b606482015260840161066e565b610cc981611e13565b50565b6000818152600260205260408120546001600160a01b03168061056e5760405162461bcd60e51b815260206004820152602960248201527f4552433732313a206f776e657220717565727920666f72206e6f6e657869737460448201526832b73a103a37b5b2b760b91b606482015260840161066e565b60085460ff16610d6557610cc96000805160206152db83398151915282610a4c565b610cc96000805160206152db83398151915282611c81565b60006001600160a01b038216610de85760405162461bcd60e51b815260206004820152602a60248201527f4552433732313a2062616c616e636520717565727920666f7220746865207a65604482015269726f206164647265737360b01b606482015260840161066e565b506001600160a01b031660009081526003602052604090205490565b6000805160206152db833981519152610e1d8133611b05565b610e2684611d6e565b610e425760405162461bcd60e51b815260040161066e90614460565b610e5a60008051602061518f83398151915285610a4c565b6001600160a01b0384166000818152600b602090815260409182902080546001600160a01b0319168417815560018101879055600201859055815186815290810185905233917fc2c33e2636d9e3a568437bce3ae9a42b869cdd517a5f5dac4bbb084f58323dc891015b60405180910390a350505050565b610eda613c4a565b506001600160a01b039081166000908152600c6020908152604091829020825160608101845281549094168452600181015491840191909152600201549082015290565b60008051602061518f833981519152610f378133611b05565b610f4084611d6e565b610f5c5760405162461bcd60e51b815260040161066e90614460565b336001600160a01b0385161415610fb15760405162461bcd60e51b815260206004820152601960248201527852583a2043616e6e6f742073656c662d70726573637269626560381b604482015260640161066e565b6009805460009182610fc2836144a1565b919050559050610fd28582611f61565b6000818152600d60205260409020429055610fec85611290565b6000828152600d602090815260409182902083516001820180546001600160a01b0319166001600160a01b03909216919091179055908301516002820155908201516003820155606082015160048201556080820151600582015560a09091015160069091015561105c33611290565b6000828152600d602090815260409182902083516007820180546001600160a01b0319166001600160a01b039092169190911790559083015160088201559082015160098201556060820151600a8201556080820151600b82015560a090910151600c909101556110cc33610a00565b6000828152600d602090815260409182902083516013820180546001600160a01b0319166001600160a01b0390921691909117905590830151601482015591015160158201556111219060190185600c613c6a565b506000818152600d6020526040902061113f90602501846018613ca8565b5060405181906001600160a01b0387169033907fe46b50d0a0bf8b2bd44aa8a4e4dd346ba0e8b35d8a438c6ce48d1910401b302390600090a45050505050565b60009182526007602090815260408084206001600160a01b0393909316845291905290205460ff1690565b606060018054610583906143d4565b6000805160206152db8339815191526111d28133611b05565b6111db82611da5565b61121a5760405162461bcd60e51b815260206004820152601060248201526f292c1d102737ba1030902237b1ba37b960811b604482015260640161066e565b61123260008051602061518f8339815191528361167e565b6001600160a01b0382166000818152600b602052604080822080546001600160a01b0319168155600181018390556002018290555133917fa8e594181f47a35fece8945fdb513d77e8438e73821eeea250a5db0b9286dd3d91a35050565b611298613cd5565b506001600160a01b039081166000908152600a6020908152604091829020825160c0810184528154909416845260018101549184019190915260028101549183019190915260038101546060830152600481015460808301526005015460a082015290565b6000805160206152db8339815191526113168133611b05565b6001600160a01b03871661136c5760405162461bcd60e51b815260206004820152601f60248201527f52583a2043616e6e6f7420726567697374657220307830206164647265737300604482015260640161066e565b6001600160a01b0387166000818152600a602090815260409182902080546001600160a01b03191684178155600181018a90556002810189905560038101889055600481018790556005018590558151898152908101889052908101869052606081018590526080810184905233907f2574cc82cc170158f99403c00e04a0e3ee2be5f58f993ea986348d9ee97ac4219060a00160405180910390a350505050505050565b6107d5338383611f7b565b6114263383611b69565b6114425760405162461bcd60e51b815260040161066e9061440f565b61144e84848484612046565b50505050565b606060095482106114995760405162461bcd60e51b815260206004820152600f60248201526e3737b736b4b73a32b2103a37b5b2b760891b604482015260640161066e565b61056e826114a5610574565b6114ad6111aa565b6000868152600d602081815260409283902083516101008101855281548152845160c0808201875260018401546001600160a01b03908116835260028501548387015260038501548389015260048501546060808501919091526005860154608080860191909152600687015460a0808701919091528689019590955289518085018b526007880154841681526008880154818a01526009880154818c0152600a88015481840152600b88015481830152600c8089015482880152878c01919091528a518086018c529988015484168a52600e8801548a8a0152600f8801548a8c015260108801548a84015260118801548a83015260128801548a8701528287019990995289518083018b526013880154841681526014880154818a01526015880154818c01529086015288519081018952601686015490911681526017850154958101959095526018840154858801529082019390935284516101808101958690529094919392850192909160198501919082845b8154815260200190600101908083116116235750505091835250506040805161030081019182905260209092019190602584019060189082845b81548152602001906001019080831161165d57505050505081525050612079565b60008281526007602052604090206001015461169a8133611b05565b61079f8383611d07565b6000805160206152db8339815191526116bd8133611b05565b6116c682611ddc565b6117095760405162461bcd60e51b815260206004820152601460248201527314960e88139bdd081848141a185c9b5858da5cdd60621b604482015260640161066e565b6117216000805160206150b28339815191528361167e565b6001600160a01b0382166000818152600c602052604080822080546001600160a01b0319168155600181018390556002018290555133917f766e9bc852164ffe6a52a05718450df1911430b9b92597bea4e051b3b1af8dd891a35050565b600061178b8133611b05565b506008805460ff1916911515919091179055565b6001600160a01b03918216600090815260056020908152604080832093909416825291909152205460ff1690565b6000805160206152db8339815191526117e68133611b05565b6117ef84611d6e565b61180b5760405162461bcd60e51b815260040161066e90614460565b6118236000805160206150b283398151915285610a4c565b6001600160a01b0384166000818152600c602090815260409182902080546001600160a01b0319168417815560018101879055600201859055815186815290810185905233917fb6207147238a132ce5854e80e1736e9fa164c19681c8f15833e7e217f105b3a09101610ec4565b600061189d8133611b05565b6118a8600083610a4c565b6107d5600033610a72565b606060006118c28360026144bc565b6118cd9060026144db565b6001600160401b038111156118e4576118e46140d5565b6040519080825280601f01601f19166020018201604052801561190e576020820181803683370190505b509050600360fc1b81600081518110611929576119296144f3565b60200101906001600160f81b031916908160001a905350600f60fb1b81600181518110611958576119586144f3565b60200101906001600160f81b031916908160001a905350600061197c8460026144bc565b6119879060016144db565b90505b60018111156119ff576f181899199a1a9b1b9c1cb0b131b232b360811b85600f16601081106119bb576119bb6144f3565b1a60f81b8282815181106119d1576119d16144f3565b60200101906001600160f81b031916908160001a90535060049490941c936119f881614509565b905061198a565b508315611a4e5760405162461bcd60e51b815260206004820181905260248201527f537472696e67733a20686578206c656e67746820696e73756666696369656e74604482015260640161066e565b9392505050565b60006001600160e01b03198216637965db0b60e01b148061056e575061056e82612508565b6000908152600260205260409020546001600160a01b0316151590565b600081815260046020526040902080546001600160a01b0319166001600160a01b0384169081179091558190611acc82610ccc565b6001600160a01b03167f8c5be1e5ebec7d5bd14f71427d1e84f3dd0314c0f7b2291e5b200ac8c7c3b92560405160405180910390a45050565b611b0f828261117f565b6107d557611b27816001600160a01b031660146118b3565b611b328360206118b3565b604051602001611b43929190614520565b60408051601f198184030181529082905262461bcd60e51b825261066e91600401613e65565b6000611b7482611a7a565b611bd55760405162461bcd60e51b815260206004820152602c60248201527f4552433732313a206f70657261746f7220717565727920666f72206e6f6e657860448201526b34b9ba32b73a103a37b5b2b760a11b606482015260840161066e565b6000611be083610ccc565b9050806001600160a01b0316846001600160a01b03161480611c1b5750836001600160a01b0316611c1084610606565b6001600160a01b0316145b80611c2b5750611c2b818561179f565b949350505050565b331561079f5760405162461bcd60e51b815260206004820152601b60248201527f52583a205278732061726520756e7472616e7366657261626c65730000000000604482015260640161066e565b611c8b828261117f565b6107d55760008281526007602090815260408083206001600160a01b03851684529091529020805460ff19166001179055611cc33390565b6001600160a01b0316816001600160a01b0316837f2f8788117e7eff1d82e926ec794901d17c78024a50270940304540a733656f0d60405160405180910390a45050565b611d11828261117f565b156107d55760008281526007602090815260408083206001600160a01b0385168085529252808320805460ff1916905551339285917ff6391f5c32d9c69d2a47ea670b442974b53935d1edc7fd64eb21e047a839171b9190a45050565b60006001600160a01b0382161580159061056e5750506001600160a01b039081166000818152600a60205260409020549091161490565b60006001600160a01b0382161580159061056e5750506001600160a01b039081166000818152600b60205260409020549091161490565b60006001600160a01b0382161580159061056e5750506001600160a01b039081166000818152600c60205260409020549091161490565b6000805160206150b2833981519152611e2c8133611b05565b33611e3683610606565b6001600160a01b03161480611e585750611e58611e5283610ccc565b3361179f565b611e995760405162461bcd60e51b81526020600482015260126024820152711c1a185c9b481b9bdd08185c1c1c9bdd995960721b604482015260640161066e565b611ea233611290565b6000838152600d6020818152604092839020845192810180546001600160a01b0319166001600160a01b0390941693909317909255830151600e82015590820151600f820155606082015160108201556080820151601182015560a090910151601290910155611f1133610ed2565b6000838152600d602090815260409182902083516016820180546001600160a01b0319166001600160a01b039092169190911790559083015160178201559101516018909101556107d582612558565b6107d5828260405180602001604052806000815250612598565b816001600160a01b0316836001600160a01b03161415611fd95760405162461bcd60e51b815260206004820152601960248201527822a9219b99189d1030b8383937bb32903a379031b0b63632b960391b604482015260640161066e565b6001600160a01b03838116600081815260056020908152604080832094871680845294825291829020805460ff191686151590811790915591519182527f17307eab39ab6107e8899845ad3d59bd9653f200f220920489ca2b5937696c31910160405180910390a3505050565b612051848484611c33565b61205d848484846125cb565b61144e5760405162461bcd60e51b815260040161066e9061458f565b8051604051630b11527160e31b8152600481019190915260609060009073__DateTime______________________________9063588a93889060240160006040518083038186803b1580156120cd57600080fd5b505af41580156120e1573d6000803e3d6000fd5b505050506040513d6000823e601f3d908101601f1916820160405261210991908101906145e1565b9050600073__DateTime______________________________63588a93888560200151602001516040518263ffffffff1660e01b815260040161214e91815260200190565b60006040518083038186803b15801561216657600080fd5b505af415801561217a573d6000803e3d6000fd5b505050506040513d6000823e601f3d908101601f191682016040526121a291908101906145e1565b90506121ac613d0a565b60408051808201825260098152683d913730b6b2911d1160b91b602080830191909152908352828101899052815180830183526002815261202360f01b91810191909152908201526121fd886126d5565b606082015260408051808201909152600c81526b11161139bcb6b137b6111d1160a11b6020820152816004602002015285816005602002018190525060405180608001604052806060815260200161532b6060913960c0820152602085015160400151612269906127d2565b60e0820152602085015160600151612280906127d2565b6101008201526040805160608101909152602e8082526152ad60208301396101208201526101408101829052604080516060810190915260288082526150d2602083013961016082015260408581015101516122db906127d2565b6101808201526040850151606001516122f3906127d2565b6101a08201526040805160608101909152602a80825261512560208301396101c0820152608085015160200151612329906127d2565b6101e08201526040805160608101909152602b8082526150fa602083013961020082015260808501516040015161235f906127d2565b61022082015260408051606081019091526024808252615289602083013961024082015261026081018390526040805160608101909152602880825261508a60208301396102808201526123bc6123b7898988612d3f565b6138a9565b6102c08201526040805180820182526002815261227d60f01b6020808301919091526102e0840191909152825181840151838501516060860151608087015160a088015160c089015160e08a01516101008b0151995160009a6124219a909101614657565b60408051808303601f19018152908290526101208401516101408501516101608601516101808701516101a08801516101c08901516101e08a01516102008b0151979950612474988a9890602001614657565b60408051808303601f19018152908290526102208401516102408501516102608601516102808701516102a08801516102c08901516102e08a01519698506124c197899790602001614718565b60405160208183030381529060405290506124db816138a9565b6040516020016124eb91906147bd565b604051602081830303815290604052945050505050949350505050565b60006001600160e01b031982166380ac58cd60e01b148061253957506001600160e01b03198216635b5e139f60e01b145b8061056e57506301ffc9a760e01b6001600160e01b031983161461056e565b61256181613a0e565b6000818152600660205260409020805461257a906143d4565b159050610cc9576000818152600660205260408120610cc991613d32565b6125a28383613aa9565b6125af60008484846125cb565b61079f5760405162461bcd60e51b815260040161066e9061458f565b60006001600160a01b0384163b156126cd57604051630a85bd0160e11b81526001600160a01b0385169063150b7a029061260f903390899088908890600401614802565b602060405180830381600087803b15801561262957600080fd5b505af1925050508015612659575060408051601f3d908101601f191682019092526126569181019061483f565b60015b6126b3573d808015612687576040519150601f19603f3d011682016040523d82523d6000602084013e61268c565b606091505b5080516126ab5760405162461bcd60e51b815260040161066e9061458f565b805181602001fd5b6001600160e01b031916630a85bd0160e11b149050611c2b565b506001611c2b565b6060816126f95750506040805180820190915260018152600360fc1b602082015290565b8160005b8115612723578061270d816144a1565b915061271c9050600a83614872565b91506126fd565b6000816001600160401b0381111561273d5761273d6140d5565b6040519080825280601f01601f191660200182016040528015612767576020820181803683370190505b5090505b8415611c2b5761277c600183614886565b9150612789600a8661489d565b6127949060306144db565b60f81b8183815181106127a9576127a96144f3565b60200101906001600160f81b031916908160001a9053506127cb600a86614872565b945061276b565b60608160001a60f81b6001600160f81b0319166127fd57505060408051602081019091526000815290565b60015b60208160ff161080156128345750828160ff1660208110612823576128236144f3565b1a60f81b6001600160f81b03191615155b1561284b5780612843816148b1565b915050612800565b8060ff166020141561287b576040805160208101859052015b604051602081830303815290604052915050919050565b8060ff16600114156128a2576040516001600160f81b031984166020820152602101612864565b8060ff16600214156128c9576040516001600160f01b031984166020820152602201612864565b8060ff16600314156128f0576040516001600160e81b031984166020820152602301612864565b8060ff1660041415612917576040516001600160e01b031984166020820152602401612864565b8060ff166005141561293e576040516001600160d81b031984166020820152602501612864565b8060ff1660061415612965576040516001600160d01b031984166020820152602601612864565b8060ff166007141561298c576040516001600160c81b031984166020820152602701612864565b8060ff16600814156129b3576040516001600160c01b031984166020820152602801612864565b8060ff16600914156129da576040516001600160b81b031984166020820152602901612864565b8060ff16600a1415612a01576040516001600160b01b031984166020820152602a01612864565b8060ff16600b1415612a28576040516001600160a81b031984166020820152602b01612864565b8060ff16600c1415612a4f576040516001600160a01b031984166020820152602c01612864565b8060ff16600d1415612a76576040516001600160981b031984166020820152602d01612864565b8060ff16600e1415612a9d576040516001600160901b031984166020820152602e01612864565b8060ff16600f1415612ac4576040516001600160881b031984166020820152602f01612864565b8060ff1660101415612aeb576040516001600160801b031984166020820152603001612864565b8060ff1660111415612b12576040516001600160781b031984166020820152603101612864565b8060ff1660121415612b39576040516001600160701b031984166020820152603201612864565b8060ff1660131415612b60576040516001600160681b031984166020820152603301612864565b8060ff1660141415612b87576040516001600160601b031984166020820152603401612864565b8060ff1660151415612bb2576040516affffffffffffffffffffff1984166020820152603501612864565b8060ff1660161415612bdc5760405169ffffffffffffffffffff1984166020820152603601612864565b8060ff1660171415612c055760405168ffffffffffffffffff1984166020820152603701612864565b8060ff1660181415612c2d5760405167ffffffffffffffff1984166020820152603801612864565b8060ff1660191415612c545760405166ffffffffffffff1984166020820152603901612864565b8060ff16601a1415612c7a5760405165ffffffffffff1984166020820152603a01612864565b8060ff16601b1415612c9f5760405164ffffffffff1984166020820152603b01612864565b8060ff16601c1415612cc35760405163ffffffff1984166020820152603c01612864565b8060ff16601d1415612ce65760405162ffffff1984166020820152603d01612864565b8060ff16601e1415612d085760405161ffff1984166020820152603e01612864565b8060ff16601f1415612d295760405160ff1984166020820152603f01612864565b5050604080516020810190915260008152919050565b8051604051630b11527160e31b8152600481019190915260609060009073__DateTime______________________________9063588a93889060240160006040518083038186803b158015612d9357600080fd5b505af4158015612da7573d6000803e3d6000fd5b505050506040513d6000823e601f3d908101601f19168201604052612dcf91908101906145e1565b9050600073__DateTime______________________________63588a93888560200151602001516040518263ffffffff1660e01b8152600401612e1491815260200190565b60006040518083038186803b158015612e2c57600080fd5b505af4158015612e40573d6000803e3d6000fd5b505050506040513d6000823e601f3d908101601f19168201604052612e6891908101906145e1565b9050612e72613d6c565b6040518061032001604052806102e78152602001614da36102e79139815260fa612ea8612ea0601e836144db565b9150816126d5565b60c0870151612ebe9060005b60200201516127d2565b604051602001612ecf9291906148d1565b60408051808303601f190181529190526020830152612ef2612ea0601e836144db565b60c0870151612f02906001612eb4565b604051602001612f139291906148d1565b60408051808303601f19018152918152830152612f34612ea0601e836144db565b60c0870151612f44906002612eb4565b604051602001612f559291906148d1565b60408051808303601f190181529190526060830152612f78612ea0601e836144db565b60c0870151612f88906003612eb4565b604051602001612f999291906148d1565b60408051808303601f190181529190526080830152612fbc612ea0601e836144db565b60c0870151612fcc906004612eb4565b604051602001612fdd9291906148d1565b60408051808303601f1901815291905260a0830152613000612ea0601e836144db565b60c0870151613010906005612eb4565b6040516020016130219291906148d1565b60408051808303601f1901815291905260c0830152613044612ea0601e836144db565b60c0870151613054906006612eb4565b6040516020016130659291906148d1565b60408051808303601f1901815291905260e0830152613088612ea0601e836144db565b60c0870151613098906007612eb4565b6040516020016130a99291906148d1565b60408051808303601f190181529190526101008301526130cd612ea0601e836144db565b60c08701516130dd906008612eb4565b6040516020016130ee9291906148d1565b60408051808303601f19018152919052610120830152613112612ea0601e836144db565b60c0870151613122906009612eb4565b6040516020016131339291906148d1565b60408051808303601f19018152919052610140830152613157612ea0601e836144db565b60c087015161316790600a612eb4565b6040516020016131789291906148d1565b60408051808303601f1901815291905261016083015261319c612ea0601e836144db565b60c08701516131ac90600b612eb4565b6040516020016131bd9291906148d1565b60408051808303601f1901815291815261018084019190915280516060810190915260308082526152fb60208301396101a0830152602086015160400151613204906127d2565b6132158760200151606001516127d2565b846132278960200151608001516127d2565b6132388a6020015160a001516127d2565b60208b015151613252906001600160a01b031660146118b3565b60405160200161326796959493929190614940565b60408051808303601f190181529190526101c083015283876132888a6126d5565b60405160200161329a93929190614a7f565b60408051601f1981840301815291905282600f602002015260408087015101516132c3906127d2565b6132d48760400151606001516127d2565b6132e58860800151602001516127d2565b6132f68960800151604001516127d2565b60808a015151613310906001600160a01b031660146118b3565b604051602001613324959493929190614b64565b60408051808303601f190181529190526102008301525060fa61334b612ea0601e836144db565b60e087015161335b906000612eb4565b60e088015161336b906001612eb4565b60405160200161337d93929190614c8a565b60408051808303601f190181529190526102208301526133a1612ea0601e836144db565b60e08701516133b1906002612eb4565b60e08801516133c1906003612eb4565b6040516020016133d393929190614c8a565b60408051808303601f190181529190526102408301526133f7612ea0601e836144db565b60e0870151613407906004612eb4565b60e0880151613417906005612eb4565b60405160200161342993929190614c8a565b60408051808303601f1901815291905261026083015261344d612ea0601e836144db565b60e087015161345d906006612eb4565b60e088015161346d906007612eb4565b60405160200161347f93929190614c8a565b60408051808303601f190181529190526102808301526134a3612ea0601e836144db565b60e08701516134b3906008612eb4565b60e08801516134c3906009612eb4565b6040516020016134d593929190614c8a565b60408051808303601f190181529190526102a08301526134f9612ea0601e836144db565b60e087015161350990600a612eb4565b60e088015161351990600b612eb4565b60405160200161352b93929190614c8a565b60408051808303601f190181529190526102c083015261354f612ea0601e836144db565b60e087015161355f90600c612eb4565b60e088015161356f90600d612eb4565b60405160200161358193929190614c8a565b60408051808303601f190181529190526102e08301526135a5612ea0601e836144db565b60e08701516135b590600e612eb4565b60e08801516135c590600f612eb4565b6040516020016135d793929190614c8a565b60408051808303601f190181529190526103008301526135fb612ea0601e836144db565b60e087015161360b906010612eb4565b60e088015161361b906011612eb4565b60405160200161362d93929190614c8a565b60408051808303601f19018152919052610320830152613651612ea0601e836144db565b60e0870151613661906012612eb4565b60e0880151613671906013612eb4565b60405160200161368393929190614c8a565b60408051808303601f190181529190526103408301526136a7612ea0601e836144db565b60e08701516136b7906014612eb4565b60e08801516136c7906015612eb4565b6040516020016136d993929190614c8a565b60408051808303601f190181529190526103608301526136fd612ea0601e836144db565b60e087015161370d906016612eb4565b60e088015161371d906017612eb4565b60405160200161372f93929190614c8a565b60408051808303601f190181529181526103808401919091528051610100810190915260da8082526151af60208301396103a083015281516020808401516040808601516060870151608088015160a089015160c08a015160e08b0151955160009961379f999098979101614718565b60408051808303601f19018152908290526101008501516101208601516101408701516101608801516101808901516101a08a01516101c08b01516101e08c01519799506137f2988a9890602001614657565b60408051808303601f19018152908290526102008501516102208601516102408701516102608801516102808901516102a08a01516102c08b01516102e08c0151979950613845988a9890602001614657565b60408051808303601f19018152908290526103008501516103208601516103408701516103608801516103808901516103a08a015195975061388c96889690602001614d10565b60408051808303601f190181529190529998505050505050505050565b60608151600014156138c957505060408051602081019091526000815290565b600060405180606001604052806040815260200161514f60409139905060006003845160026138f891906144db565b6139029190614872565b61390d9060046144bc565b9050600061391c8260206144db565b6001600160401b03811115613933576139336140d5565b6040519080825280601f01601f19166020018201604052801561395d576020820181803683370190505b509050818152600183018586518101602084015b818310156139c9576003830192508251603f8160121c168501518253600182019150603f81600c1c168501518253600182019150603f8160061c168501518253600182019150603f8116850151825350600101613971565b6003895106600181146139e357600281146139f457613a00565b613d3d60f01b600119830152613a00565b603d60f81b6000198301525b509398975050505050505050565b6000613a1982610ccc565b9050613a26600083611a97565b6001600160a01b0381166000908152600360205260408120805460019290613a4f908490614886565b909155505060008281526002602052604080822080546001600160a01b0319169055518391906001600160a01b038416907fddf252ad1be2c89b69c2b068fc378daa952ba7f163c4a11628f55a4df523b3ef908390a45050565b6001600160a01b038216613aff5760405162461bcd60e51b815260206004820181905260248201527f4552433732313a206d696e7420746f20746865207a65726f2061646472657373604482015260640161066e565b613b0881611a7a565b15613b555760405162461bcd60e51b815260206004820152601c60248201527f4552433732313a20746f6b656e20616c7265616479206d696e74656400000000604482015260640161066e565b6001600160a01b0382166000908152600360205260408120805460019290613b7e9084906144db565b909155505060008181526002602052604080822080546001600160a01b0319166001600160a01b03861690811790915590518392907fddf252ad1be2c89b69c2b068fc378daa952ba7f163c4a11628f55a4df523b3ef908290a45050565b60405180610100016040528060008152602001613bf7613cd5565b8152602001613c04613cd5565b8152602001613c11613cd5565b8152602001613c1e613c4a565b8152602001613c2b613c4a565b8152602001613c38613d87565b8152602001613c45613da6565b905290565b604080516060810182526000808252602082018190529181019190915290565b82600c8101928215613c98579160200282015b82811115613c98578251825591602001919060010190613c7d565b50613ca4929150613dc5565b5090565b8260188101928215613c985791602002820182811115613c98578251825591602001919060010190613c7d565b6040805160c081018252600080825260208201819052918101829052606081018290526080810182905260a081019190915290565b6040518061030001604052806018905b6060815260200190600190039081613d1a5790505090565b508054613d3e906143d4565b6000825580601f10613d4e575050565b601f016020900490600052602060002090810190610cc99190613dc5565b604080516103c0810190915260608152601d60208201613d1a565b604051806101800160405280600c906020820280368337509192915050565b6040518061030001604052806018906020820280368337509192915050565b5b80821115613ca45760008155600101613dc6565b6001600160e01b031981168114610cc957600080fd5b600060208284031215613e0257600080fd5b8135611a4e81613dda565b60005b83811015613e28578181015183820152602001613e10565b8381111561144e5750506000910152565b60008151808452613e51816020860160208601613e0d565b601f01601f19169290920160200192915050565b602081526000611a4e6020830184613e39565b600060208284031215613e8a57600080fd5b5035919050565b80356001600160a01b0381168114613ea857600080fd5b919050565b60008060408385031215613ec057600080fd5b613ec983613e91565b946020939093013593505050565b600060208284031215613ee957600080fd5b611a4e82613e91565b600080600060608486031215613f0757600080fd5b613f1084613e91565b9250613f1e60208501613e91565b9150604084013590509250925092565b80516001600160a01b031682526020808201519083015260408082015190830152606080820151908301526080808201519083015260a090810151910152565b80516001600160a01b0316825260208082015190830152604090810151910152565b8060005b601881101561144e578151845260209384019390910190600101613f94565b815181526020808301516107a083019190613fd082850182613f2e565b506040840151613fe360e0850182613f2e565b506060840151613ff76101a0850182613f2e565b50608084015161400b610260850182613f6e565b5060a084015161401f6102c0850182613f6e565b5060c0840151610320840160005b600c81101561404a5782518252918301919083019060010161402d565b5050505060e08301516140616104a0840182613f90565b5092915050565b6060810161056e8284613f6e565b6000806040838503121561408957600080fd5b8235915061409960208401613e91565b90509250929050565b6000806000606084860312156140b757600080fd5b6140c084613e91565b95602085013595506040909401359392505050565b634e487b7160e01b600052604160045260246000fd5b604051601f8201601f191681016001600160401b0381118282101715614113576141136140d5565b604052919050565b60006040516103008082018281106001600160401b0382111715614141576141416140d5565b604052909150819083018481111561415857600080fd5b835b8181101561417257803583526020928301920161415a565b50505092915050565b60008060006104a0848603121561419157600080fd5b61419a84613e91565b9250602085603f8601126141ad57600080fd5b60405161018081018181106001600160401b03821117156141d0576141d06140d5565b604052806101a08701888111156141e657600080fd5b8388015b8181101561420157803583529184019184016141ea565b50829550886101bf89011261421557600080fd5b61421f898261411b565b9450505050509250925092565b60c0810161056e8284613f2e565b60008060008060008060c0878903121561425357600080fd5b61425c87613e91565b9860208801359850604088013597606081013597506080810135965060a00135945092505050565b80358015158114613ea857600080fd5b600080604083850312156142a757600080fd5b6142b083613e91565b915061409960208401614284565b60006001600160401b038211156142d7576142d76140d5565b50601f01601f191660200190565b600080600080608085870312156142fb57600080fd5b61430485613e91565b935061431260208601613e91565b92506040850135915060608501356001600160401b0381111561433457600080fd5b8501601f8101871361434557600080fd5b8035614358614353826142be565b6140eb565b81815288602083850101111561436d57600080fd5b8160208401602083013760006020838301015280935050505092959194509250565b6000602082840312156143a157600080fd5b611a4e82614284565b600080604083850312156143bd57600080fd5b6143c683613e91565b915061409960208401613e91565b600181811c908216806143e857607f821691505b6020821081141561440957634e487b7160e01b600052602260045260246000fd5b50919050565b60208082526031908201527f4552433732313a207472616e736665722063616c6c6572206973206e6f74206f6040820152701ddb995c881b9bdc88185c1c1c9bdd9959607a1b606082015260800190565b60208082526011908201527014960e88139bdd08184814dd589a9958dd607a1b604082015260600190565b634e487b7160e01b600052601160045260246000fd5b60006000198214156144b5576144b561448b565b5060010190565b60008160001904831182151516156144d6576144d661448b565b500290565b600082198211156144ee576144ee61448b565b500190565b634e487b7160e01b600052603260045260246000fd5b6000816145185761451861448b565b506000190190565b76020b1b1b2b9b9a1b7b73a3937b61d1030b1b1b7bab73a1604d1b815260008351614552816017850160208801613e0d565b7001034b99036b4b9b9b4b733903937b6329607d1b6017918401918201528351614583816028840160208801613e0d565b01602801949350505050565b60208082526032908201527f4552433732313a207472616e7366657220746f206e6f6e20455243373231526560408201527131b2b4bb32b91034b6b83632b6b2b73a32b960711b606082015260800190565b6000602082840312156145f357600080fd5b81516001600160401b0381111561460957600080fd5b8201601f8101841361461a57600080fd5b8051614628614353826142be565b81815285602083850101111561463d57600080fd5b61464e826020830160208601613e0d565b95945050505050565b60008a51614669818460208f01613e0d565b8a5161467b8183860160208f01613e0d565b8a519184010190614690818360208e01613e0d565b89516146a28183850160208e01613e0d565b89519290910101906146b8818360208c01613e0d565b87516146ca8183850160208c01613e0d565b87519290910101906146e0818360208a01613e0d565b85516146f28183850160208a01613e0d565b8551929091010190614708818360208801613e0d565b019b9a5050505050505050505050565b60008951602061472b8285838f01613e0d565b8a519184019161473e8184848f01613e0d565b8a519201916147508184848e01613e0d565b89519201916147628184848d01613e0d565b88519201916147748184848c01613e0d565b87519201916147868184848b01613e0d565b86519201916147988184848a01613e0d565b85519201916147aa8184848901613e0d565b919091019b9a5050505050505050505050565b7f646174613a6170706c69636174696f6e2f6a736f6e3b6261736536342c0000008152600082516147f581601d850160208701613e0d565b91909101601d0192915050565b6001600160a01b038581168252841660208201526040810183905260806060820181905260009061483590830184613e39565b9695505050505050565b60006020828403121561485157600080fd5b8151611a4e81613dda565b634e487b7160e01b600052601260045260246000fd5b6000826148815761488161485c565b500490565b6000828210156148985761489861448b565b500390565b6000826148ac576148ac61485c565b500690565b600060ff821660ff8114156148c8576148c861448b565b60010192915050565b701e3a32bc3a103c1e9118989c11103c9e9160791b815282516000906148fe816011850160208801613e0d565b61111f60f11b6011918401918201528351614920816013840160208801613e0d565b661e17ba32bc3a1f60c91b60139290910191820152601a01949350505050565b741e3a32bc3a103c1e9118991c11103c9e911998111f60591b8152865160009060206149728260158601838d01613e0d565b8851918401916149888160158501848d01613e0d565b7f3c2f746578743e3c7465787420783d223132382220793d223630223e000000006015939091019283015287516149c58160318501848c01613e0d565b7f3c2f746578743e3c7465787420783d223132382220793d223930223e00000000603193909101928301528651614a0281604d8501848b01613e0d565b8651920191614a1781604d8501848a01613e0d565b7f3c2f746578743e3c7465787420783d223132382220793d22313230223e000000604d93909101928301528451614a5481606a8501848901613e0d565b614a70606a82850101661e17ba32bc3a1f60c91b815260070190565b9b9a5050505050505050505050565b751e3a32bc3a103c1e9118991c11103c9e911b1b18111f60511b81528351600090614ab1816016850160208901613e0d565b7f3c2f746578743e3c7465787420783d223538352220793d2236363022207465786016918401918201527f742d616e63686f723d22656e642220666f6e742d7374796c653d226974616c6960368201526231911f60e91b60568201528451614b20816059840160208901613e0d565b61011960f51b605992909101918201528351614b4381605b840160208801613e0d565b661e17ba32bc3a1f60c91b605b929091019182015260620195945050505050565b751e3a32bc3a103c1e9118991c11103c9e911b1c98111f60511b81528551600090614b96816016850160208b01613e0d565b865190830190614bad816016840160208b01613e0d565b7f3c2f746578743e3c7465787420783d223132382220793d22373230223e000000601692909101918201528551614beb816033840160208a01613e0d565b7f3c2f746578743e3c7465787420783d223132382220793d22373530223e000000603392909101918201528451614c29816050840160208901613e0d565b7f3c2f746578743e3c7465787420783d223132382220793d22373830223e000000605092909101918201528351614c6781606d840160208801613e0d565b661e17ba32bc3a1f60c91b606d9290910191820152607401979650505050505050565b701e3a32bc3a103c1e9118991c11103c9e9160791b81528351600090614cb7816011850160208901613e0d565b61111f60f11b6011918401918201528451614cd9816013840160208901613e0d565b8451910190614cef816013840160208801613e0d565b661e17ba32bc3a1f60c91b60139290910191820152601a0195945050505050565b600088516020614d238285838e01613e0d565b895191840191614d368184848e01613e0d565b8951920191614d488184848d01613e0d565b8851920191614d5a8184848c01613e0d565b8751920191614d6c8184848b01613e0d565b8651920191614d7e8184848a01613e0d565b8551920191614d908184848901613e0d565b919091019a995050505050505050505056fe3c73766720786d6c6e733d22687474703a2f2f7777772e77332e6f72672f323030302f7376672220666f6e742d66616d696c793d2273616e732d73657269662220666f6e742d73697a653d223132707822207072657365727665417370656374526174696f3d22784d696e594d696e206d656574222076696577426f783d22302030203630302038303022207374796c653d226261636b67726f756e643a7768697465223e3c672066696c6c3d226e6f6e6522207374726f6b653d222330303022207374726f6b652d77696474683d22317078223e3c7265637420783d22322220793d2232222077696474683d2235393622206865696768743d22373936222f3e3c7061746820643d226d31352031333568353730222f3e3c7061746820643d226d31352036333068353730222f3e3c2f673e3c6720666f6e742d73697a653d2238387078223e3c7465787420783d2231302220793d22323135223e503c2f746578743e3c7465787420783d2233352220793d22323530223e583c2f746578743e3c2f673e3c6720746578742d616e63686f723d22656e64223e3c7465787420783d223131382220793d223330223e4e616d653c2f746578743e3c7465787420783d223131382220793d223630223e44617465206f662042697274683c2f746578743e3c7465787420783d223131382220793d223930223e416464726573733c2f746578743e3c7465787420783d223131382220793d22313230223e50617469656e742057616c6c65743c2f746578743e3c7465787420783d223131382220793d22363630223e446174653c2f746578743e3c7465787420783d223131382220793d22363930223e446f63746f72204e616d653c2f746578743e3c7465787420783d223131382220793d22373230223e4d443c2f746578743e3c7465787420783d223131382220793d22373530223e4c6963656e73653c2f746578743e3c7465787420783d223131382220793d22373830223e446f63746f722057616c6c65743c2f746578743e227d5d2c22696d616765223a2022646174613a696d6167652f7376672b786d6c3b6261736536342c3c11d16cbaffd01df69ce1c404f6340ee057498f5f00246190ea54220576a848227d2c7b2274726169745f74797065223a22446f63746f72204e616d65222c2276616c7565223a22227d2c7b2274726169745f74797065223a22446f63746f72204c6963656e7365222c2276616c7565223a22227d2c7b2274726169745f74797065223a22446f63746f7220446567726565222c2276616c7565223a224142434445464748494a4b4c4d4e4f505152535455565758595a6162636465666768696a6b6c6d6e6f707172737475767778797a303132333435363738392b2f9f2df0fed2c77648de5860a4cc508cd0818c85b8b8a1ab4ceeef8d981c8956a63c2f673e3c67206f7061636974793d22302e36223e3c636972636c652066696c6c3d226461726b626c7565222063783d22353636222063793d223735342e342220723d22372e35222f3e3c706174682066696c6c3d227265642220643d226d3538302e342037363168346c2d31352c3234682d347a222f3e3c706174682066696c6c3d226461726b7265642220643d226d3536352e342037363168346c31352c3234682d347a222f3e3c706174682066696c6c3d22626c75652220643d226d353538203734397632346831357a222f3e3c2f673e3c2f7376673e227d2c7b2274726169745f74797065223a2252582044617465222c2276616c7565223a22227d2c7b2274726169745f74797065223a2250617469656e7420426972746864617465222c2276616c7565223a22a49807205ce4d355092ef5a8a18f56e8913cf4a201fbe287825b095693c217753c2f673e3c6720666f6e742d66616d696c793d22436f75726965722220666f6e742d7765696768743d22626f6c64223e222c226465736372697074696f6e223a224f6e2d436861696e204e465420507265736372697074696f6e73222c2261747472696275746573223a5b7b2274726169745f74797065223a2250617469656e744e616d65222c2276616c7565223a22a2646970667358221220800aa2238a7c1fce9f912af24bd60a738c5bcb98de31ddc385b665ecb7702b9664736f6c63430008090033a49807205ce4d355092ef5a8a18f56e8913cf4a201fbe287825b095693c21775",
  "immutableReferences": {},
  "source": "// SPDX-License-Identifier: MIT\npragma solidity 0.8.9;\n\nimport \"@openzeppelin/contracts/token/ERC721/ERC721.sol\";\nimport \"@openzeppelin/contracts/token/ERC721/extensions/ERC721URIStorage.sol\";\nimport \"@openzeppelin/contracts/token/ERC721/extensions/ERC721Burnable.sol\";\nimport \"@openzeppelin/contracts/access/AccessControl.sol\";\n// import \"@openzeppelin/contracts/utils/Counters.sol\";\n// import { Base64 } from \"base64-sol/base64.sol\";\nimport { RxStructs } from \"./libraries/RxStructs.sol\";\nimport { TokenURIDescriptor } from \"./libraries/TokenURIDescriptor.sol\";\n\n/// @title A NFT Prescription creator\n/// @author Matias Parij (@7i7o)\n/// @notice You can use this contract only as a MVP for minting Prescriptions\n/// @dev Features such as workplaces for doctors or pharmacists are for future iterations\ncontract Rx is ERC721, ERC721URIStorage, ERC721Burnable, AccessControl {\n\n    /// @notice Role definition for Minter\n    bytes32 public constant ADMIN_ROLE = keccak256(\"ADMIN_ROLE\");\n    /// @notice Role definition for Minter\n    bytes32 public constant MINTER_ROLE = keccak256(\"MINTER_ROLE\");\n    /// @notice Role definition for Burner\n    bytes32 public constant BURNER_ROLE = keccak256(\"BURNER_ROLE\");\n\n\n    /** Begin of State Variables & Events */\n    // uint8 internal constant MAX_KEY_LENGTH = 20;\n    // uint8 internal constant MAX_VALUE_LENGTH = 62;\n    uint8 internal constant RX_LINES = 12; // Has to be same value as in RxStructs !!!\n\n    bool private selfGrantAdmin = false;\n\n    /// @notice TokenId enumeration (start at '1').\n    uint256 private _tokenIdCounter;\n\n    /// @notice this mapping holds all the subjects registered in the contract\n    mapping ( address => RxStructs.Subject ) private subjects;\n\n    /// @notice this mapping holds all the doctors registered in the contract\n    mapping ( address => RxStructs.Doctor ) private doctors;\n\n    /// @notice this mapping holds all the pharmacists registered in the contract\n    mapping ( address => RxStructs.Pharmacist ) private pharmacists;\n\n    /// @notice this mapping holds all the prescriptions minted in the contract\n    mapping ( uint256 => RxStructs.RxData ) private rxs;\n\n    /// @notice Event to signal when a new Rx has been minted\n    /// @param sender address of the Doctor that minted the Rx\n    /// @param receiver address of the Subject that received the Rx minted\n    /// @param tokenId Id of the Token (Rx) that has been minted\n    event minted(address indexed sender, address indexed receiver, uint256 indexed tokenId);\n\n    /// @notice Event to signal when adding/replacing a Subject allowed to receive/hold NFT Prescriptions\n    /// @param sender is the address of the admin that set the Subject's data\n    /// @param _subjectId is the registered address of the subject (approved for holding NFT Prescriptions)\n    /// @param _birthDate is the subjects' date of birth, in seconds, from UNIX Epoch (1970-01-01)\n    /// @param _nameA is the subject's full name (uses 2 bytes32)\n    /// @param _nameB is the subject's full name (uses 2 bytes32)\n    /// @param _homeAddressA is the subject's legal home address (uses 2 bytes32)\n    /// @param _homeAddressB is the subject's legal home address (uses 2 bytes32)\n    event subjectDataSet(address indexed sender, address indexed _subjectId, uint256 _birthDate, bytes32 _nameA, bytes32 _nameB, bytes32 _homeAddressA, bytes32 _homeAddressB);\n\n    /// @notice Event to signal when adding/replacing a Doctor allowed to mint NFT Prescriptions\n    /// @param sender is the address of the admin that set the Doctor's data\n    /// @param _subjectId is the ethereum address for the doctor (same Id as the subject that holds this doctor's personal details)\n    /// @param _degree contains a string with the degree of the doctor\n    /// @param _license contains a string with the legal license of the doctor\n    event doctorDataSet(address indexed sender, address indexed _subjectId, bytes32 _degree, bytes32 _license);\n    \n    /// @notice Event to signal when adding/replacing a Pharmacist allowed to burn NFT Prescriptions\n    /// @param sender is the address of the admin that set the Pharmacist's data\n    /// @param _subjectId is the ethereum address for the pahrmacist (same Id as the subject that holds this pharmacist's personal details)\n    /// @param _degree contains a string with the degree of the pharmacist\n    /// @param _license contains a string with the legal license of the pharmacist\n    event pharmacistDataSet(address indexed sender, address indexed _subjectId, bytes32 _degree, bytes32 _license);\n\n    /// @notice Event to signal a removed Subject\n    /// @param sender is the address of the admin that removed the Subject\n    /// @param _subjectId is the registered address of the subject removed\n    event subjectRemoved(address indexed sender, address indexed _subjectId);\n\n    /// @notice Event to signal a removed Doctor\n    /// @param sender is the address of the admin that removed the Doctor\n    /// @param _subjectId is the registered address of the doctor removed\n    event doctorRemoved(address indexed sender, address indexed _subjectId);\n\n    /// @notice Event to signal a removed Pharmacist\n    /// @param sender is the address of the admin that removed the Pharmacist\n    /// @param _subjectId is the registered address of the pharmacist removed\n    event pharmacistRemoved(address indexed sender, address indexed _subjectId);\n\n    /** End of State Variables & Events */\n\n    /// @notice constructor for NFT Prescriptions contract\n    /// @dev Using ERC721 default constructor with \"Prescription\" and \"Rx\" as Name and Symbol for the tokens\n    /// @dev We set up the contract creator (msg.sender) with the ADMIN_ROLE to manage all the other Roles\n    /// @dev We increment the counter in the constructor to start Ids in 1, keeping Id 0 (default for uints\n    ///      in solidity) to signal that someone doesn't have any NFTs\n    constructor() ERC721(\"Rx\", \"Rx\") {\n        _grantRole(DEFAULT_ADMIN_ROLE, msg.sender);\n\n        grantRole(ADMIN_ROLE, msg.sender);\n\n        _setRoleAdmin(MINTER_ROLE, ADMIN_ROLE);\n        _setRoleAdmin(BURNER_ROLE, ADMIN_ROLE);\n\n        _tokenIdCounter = 1;\n    }\n\n    /// @dev function override required by solidity\n    function supportsInterface(bytes4 interfaceId)\n        public\n        view\n        override(ERC721, AccessControl)\n        returns (bool)\n        {\n            return super.supportsInterface(interfaceId);\n    }\n\n    /** Begin of implementation of functions for final project */\n\n    /// @dev Transfers ownership of the contract to a new account (`newOwner`). Can only be called by the current owner.\n    function transferOwnership(address newOwner)\n        public\n        onlyRole(DEFAULT_ADMIN_ROLE) \n        {\n            grantRole(DEFAULT_ADMIN_ROLE, newOwner);\n            renounceRole(DEFAULT_ADMIN_ROLE, msg.sender);\n    }\n\n    /// @dev Checks if _addr is a Subject\n    function isSubject(address _addr) private view returns (bool) {\n        return (\n                _addr != address(0)\n            &&  subjects[_addr].subjectId == _addr\n        );\n    }\n\n    /// @dev Checks if _addr is a registered doctor\n    function isDoctor(address _addr) private view returns (bool) {\n        return (\n                _addr != address(0)\n            && doctors[_addr].subjectId == _addr\n        );\n    }\n\n    /// @dev Checks if _addr is a registered pharmacist\n    function isPharmacist(address _addr) private view returns (bool) {\n        return (\n                _addr != address(0)\n            &&  pharmacists[_addr].subjectId == _addr\n        );\n    }\n\n    /// @notice function override to prohibit token transfers\n    function _transfer(address, address, uint256)\n        internal\n        view\n        override(ERC721)\n        {\n            require(msg.sender == address(0), \"RX: Rxs are untransferables\");\n    }\n\n    /// @notice Funtion to mint a Prescription. Should be called only by a Doctor (has MINTER_ROLE)\n    /// @param to The id of the subject (patient) recipient of the prescription\n    /// @param _keys Text lines with the 'title' of each content of the prescription (max 19 characters each)\n    /// @param _values Text lines with the 'content' of the prescription (max 61 characters each)\n    /// @dev Does NOT store a tokenURI. It stores Prescription data on contract (tokenURI is generated upon request)\n    function mint(address to, bytes32[RX_LINES] memory _keys, bytes32[2*RX_LINES] memory _values)\n        public\n        onlyRole(MINTER_ROLE)\n        {\n            require( isSubject(to), 'RX: Not a Subject');\n            require( (msg.sender != to) , 'RX: Cannot self-prescribe');\n\n            uint256 tokenId = _tokenIdCounter++;\n            super._safeMint(to, tokenId);\n\n            // Store prescription data in contract, leaving tokenURI empty, for it is generated on request (Uniswap V3 style!)\n            rxs[tokenId].date = block.timestamp;\n            rxs[tokenId].patient = getSubject(to); // Patient Info\n            rxs[tokenId].doctorSubject = getSubject(msg.sender); // Doctor (Subject) Info\n            rxs[tokenId].doctor = getDoctor(msg.sender); // Doctor Info\n            rxs[tokenId].keys = _keys; // Rx Keys\n            rxs[tokenId].values = _values; // Rx values\n\n            emit minted(msg.sender, to, tokenId);\n    }\n\n    /// @dev function override required by solidity\n    /// @notice function override to store burner data in the rx before burning\n    function _burn(uint256 tokenId)\n        internal\n        override(ERC721, ERC721URIStorage)\n        onlyRole(BURNER_ROLE)\n        {\n            // delete rxs[tokenId]; // Keep Rx Data to be able to view past (dispensed) Prescriptions\n            require(\n                getApproved(tokenId) == msg.sender ||\n                isApprovedForAll(ownerOf(tokenId), msg.sender),\n                \"pharm not approved\");\n            // We save the burner (pharmacist) data to the Rx\n            rxs[tokenId].pharmacistSubject = getSubject(msg.sender);\n            rxs[tokenId].pharmacist = getPharmacist(msg.sender);\n            super._burn(tokenId);\n            //TODO: Change prescription life cycle in 'Status' to keep prescription data without burning\n    }\n\n    /// @dev TokenURI generated on the fly from stored data (function override required by solidity)  \n    function tokenURI(uint256 tokenId)\n        public\n        view\n        override(ERC721, ERC721URIStorage)\n        returns (string memory)\n        {\n            // require(_exists(tokenId), \"nonexistent token\");\n            require(tokenId < _tokenIdCounter, \"nonminted token\"); // Also show TokenURI for 'dispensed' prescriptions\n            return TokenURIDescriptor.constructTokenURI(tokenId, name(), symbol(), rxs[tokenId]);\n            // TODO: Only show TokenURI to authorized people (patient, doctor, pharmacist)\n            // TODO: Modify SVG when a prescription is 'dispensed'\n    }\n\n    /// @notice Function to get data for a specific tokenId. Only for Doctor, Patient or Pharmacist of the tokenId.\n    /// @param tokenId uint256 representing an existing tokenId\n    /// @return a RxData struct containing all the Rx Data\n    function getRx(uint256 tokenId)\n        public\n        view\n        returns (RxStructs.RxData memory)\n        {\n            return rxs[tokenId];\n            // TODO: Only show TokenURI to authorized people (patient, doctor, pharmacist)\n    }\n\n    /// @notice Function to set selfGrantAdmin (only deployer of contract is allowed)\n    /// @param _selfAdmin bool to set state variable\n    function setSelfGrantAdmin(bool _selfAdmin)\n        public\n        onlyRole(DEFAULT_ADMIN_ROLE)\n        {\n            selfGrantAdmin = _selfAdmin;\n    }\n\n    /// @notice Function to set selfGrantAdmin (only deployer of contract is allowed)\n    /// @return bool with state variable\n    function getSelfGrantAdmin()\n        public\n        view\n        returns (bool)\n        {\n            return selfGrantAdmin;\n    }\n\n    /// @notice Function to add an admin account\n    /// @param to Address of the account to grant admin role\n    function addAdmin(address to)\n        public\n        {\n            if (!selfGrantAdmin) {\n                grantRole(ADMIN_ROLE, to);\n            } else {\n                // We skip role manager checks for the final project presentation\n                _grantRole(ADMIN_ROLE, to);\n            }\n    }\n\n    /// @notice Function to remove an admin account\n    /// @param to Address of the account to remove admin role\n    function removeAdmin(address to)\n        public\n        onlyRole(ADMIN_ROLE)\n        {\n            revokeRole(ADMIN_ROLE, to);\n    }\n\n    /// @notice Function to check if someone has admin role\n    /// @param to address to check for admin role privilege\n    /// @return true if @param to is an admin or false otherwise\n    function isAdmin(address to)\n        public\n        view\n        returns (bool)\n        {\n            return hasRole(ADMIN_ROLE, to);\n    }\n\n    /// @notice Function to retrieve a Subject\n    /// @param _subjectId the registered address of the subject to retrieve\n    /// @return an object with the Subject\n    function getSubject(address _subjectId)\n        public\n        view\n        returns (RxStructs.Subject memory)\n        {\n            return subjects[_subjectId];\n    }\n\n    /// @notice Function to retrieve a Doctor\n    /// @param _subjectId the registered address of the doctor to retrieve\n    /// @return an object with the Doctor\n    function getDoctor(address _subjectId)\n        public\n        view\n        returns (RxStructs.Doctor memory) \n        {\n            return doctors[_subjectId];\n    }\n\n    /// @notice Function to retrieve a Pharmacist\n    /// @param _subjectId the registered address of the pharmacist to retrieve\n    /// @return an object with the Pharmacist\n    function getPharmacist(address _subjectId)\n        public\n        view\n        returns (RxStructs.Pharmacist memory)\n        {\n            return pharmacists[_subjectId];\n    }\n\n    /// @notice Function to add/replace a Subject allowed to receive/hold NFT Prescriptions\n    /// @param _subjectId is the registered address of the subject (approved for holding NFT Prescriptions)\n    /// @param _birthDate is the subjects' date of birth, in seconds, from UNIX Epoch (1970-01-01)\n    /// @param _nameA is the subject's full name (uses 2 bytes32)\n    /// @param _nameB is the subject's full name (uses 2 bytes32)\n    /// @param _homeAddressA is the subject's legal home address (uses 2 bytes32)\n    /// @param _homeAddressB is the subject's legal home address (uses 2 bytes32)\n    /// @dev Only ADMIN_ROLE users are allowed to modify subjects\n    function setSubjectData(address _subjectId, uint256 _birthDate, bytes32 _nameA, bytes32 _nameB, bytes32 _homeAddressA, bytes32 _homeAddressB)\n        public\n        onlyRole(ADMIN_ROLE)\n        {\n            require ( _subjectId != address(0), 'RX: Cannot register 0x0 address');\n\n            // subjects[_subjectId] = RxStructs.Subject(_subjectId, _birthDate, _nameA, _nameB, _homeAddressA, _homeAddressB);\n            subjects[_subjectId].subjectId = _subjectId;\n            subjects[_subjectId].birthDate = _birthDate;\n            subjects[_subjectId].nameA = _nameA;\n            subjects[_subjectId].nameB = _nameB;\n            subjects[_subjectId].homeAddressA = _homeAddressA;\n            subjects[_subjectId].homeAddressB = _homeAddressB;\n            \n            emit subjectDataSet(msg.sender, _subjectId, _birthDate, _nameA, _nameB, _homeAddressA, _homeAddressB);\n    }\n\n    /// @notice Function to add/replace a Doctor allowed to mint NFT Prescriptions\n    /// @param _subjectId should be a valid ethereum address (same Id as the subject that holds this doctor's personal details)\n    /// @param _degree should contain the degree of the doctor\n    /// @param _license should contain the legal license of the doctor\n    /// @dev @param _workplaces is a feature for future implementations\n    function setDoctorData(address _subjectId, bytes32 _degree, bytes32 _license) //, address[] calldata _workplaces)\n        public\n        onlyRole(ADMIN_ROLE)\n        {\n            require( isSubject(_subjectId), 'RX: Not a Subject'); // Also checks address!=0x0\n\n            grantRole(MINTER_ROLE, _subjectId);\n            // doctors[_subjectId] = RxStructs.Doctor(_subjectId, _degree, _license);\n            doctors[_subjectId].subjectId = _subjectId;\n            doctors[_subjectId].degree = _degree;\n            doctors[_subjectId].license = _license;\n            emit doctorDataSet(msg.sender, _subjectId, _degree, _license);\n    }\n\n    /// @notice Function to add/replace a Pharmacist allowed to burn NFT Prescriptions\n    /// @param _subjectId should be a valid ethereum address (same Id as the subject that holds this pharmacist's personal details)\n    /// @param _degree should contain the degree of the pharmacist\n    /// @param _license should contain the legal license of the pharmacist\n    /// @dev @param _workplaces is a feature for future implementations\n    function setPharmacistData(address _subjectId, bytes32 _degree, bytes32 _license) //, address[] calldata _workplaces)\n        public\n        onlyRole(ADMIN_ROLE)\n        {\n            require( isSubject(_subjectId), 'RX: Not a Subject'); // Also checks address!=0x0\n\n            grantRole(BURNER_ROLE, _subjectId);\n            // pharmacists[_subjectId] = RxStructs.Pharmacist(_subjectId, _degree, _license);\n            pharmacists[_subjectId].subjectId = _subjectId;\n            pharmacists[_subjectId].degree = _degree;\n            pharmacists[_subjectId].license = _license;\n            emit pharmacistDataSet(msg.sender, _subjectId, _degree, _license);\n    }\n\n    /// @notice Function to remove a registered Subject \n    /// @param _subjectId is the registered address of the subject to remove\n    /// @dev Only ADMIN_ROLE users are allowed to remove subjects\n    function removeSubject(address _subjectId)\n        public\n        onlyRole(ADMIN_ROLE)\n        {\n            require( isSubject(_subjectId), 'RX: Not a Subject'); // Also checks address!=0x0\n            require( !isDoctor(_subjectId), 'RX: Still a Doctor');\n            require( !isPharmacist(_subjectId), 'RX: Still a Pharmacist');\n\n            delete subjects[_subjectId];\n            emit subjectRemoved(msg.sender, _subjectId);\n    }\n\n    /// @notice Function to remove a registered Doctor\n    /// @param _subjectId is the registered address of the doctor to remove\n    /// @dev Only ADMIN_ROLE users are allowed to remove doctors\n    function removeDoctor(address _subjectId)\n        public\n        onlyRole(ADMIN_ROLE)\n        {\n            require( isDoctor(_subjectId), 'RX: Not a Doctor'); // Also checks address!=0x0\n\n            revokeRole(MINTER_ROLE, _subjectId);\n            delete doctors[_subjectId];\n            emit doctorRemoved(msg.sender, _subjectId);\n    }\n\n    /// @notice Function to remove a registered Pharmacist\n    /// @param _subjectId is the registered address of the pharmacist to remove\n    /// @dev Only ADMIN_ROLE users are allowed to remove pharmacists\n    function removePharmacist(address _subjectId)\n        public\n        onlyRole(ADMIN_ROLE)\n        {\n            require( isPharmacist(_subjectId), 'RX: Not a Pharmacist'); // Also checks address!=0x0\n\n            revokeRole(BURNER_ROLE, _subjectId);\n            delete pharmacists[_subjectId];\n            emit pharmacistRemoved(msg.sender, _subjectId);\n    }\n\n}",
  "sourcePath": "/Users/matias/coding/github/blockchain-developer-bootcamp-final-project/contracts/Rx.sol",
  "compiler": {
    "name": "solc",
    "version": "0.8.9+commit.e5eed63a.Emscripten.clang"
  },
  "schemaVersion": "3.4.3",
  "updatedAt": "2022-01-14T14:20:53.801Z",
  "networkType": "ethereum",
  "devdoc": {
    "author": "Matias Parij (@7i7o)",
    "details": "Features such as workplaces for doctors or pharmacists are for future iterations",
    "events": {
      "doctorDataSet(address,address,bytes32,bytes32)": {
        "params": {
          "_degree": "contains a string with the degree of the doctor",
          "_license": "contains a string with the legal license of the doctor",
          "_subjectId": "is the ethereum address for the doctor (same Id as the subject that holds this doctor's personal details)",
          "sender": "is the address of the admin that set the Doctor's data"
        }
      },
      "doctorRemoved(address,address)": {
        "params": {
          "_subjectId": "is the registered address of the doctor removed",
          "sender": "is the address of the admin that removed the Doctor"
        }
      },
      "minted(address,address,uint256)": {
        "params": {
          "receiver": "address of the Subject that received the Rx minted",
          "sender": "address of the Doctor that minted the Rx",
          "tokenId": "Id of the Token (Rx) that has been minted"
        }
      },
      "pharmacistDataSet(address,address,bytes32,bytes32)": {
        "params": {
          "_degree": "contains a string with the degree of the pharmacist",
          "_license": "contains a string with the legal license of the pharmacist",
          "_subjectId": "is the ethereum address for the pahrmacist (same Id as the subject that holds this pharmacist's personal details)",
          "sender": "is the address of the admin that set the Pharmacist's data"
        }
      },
      "pharmacistRemoved(address,address)": {
        "params": {
          "_subjectId": "is the registered address of the pharmacist removed",
          "sender": "is the address of the admin that removed the Pharmacist"
        }
      },
      "subjectDataSet(address,address,uint256,bytes32,bytes32,bytes32,bytes32)": {
        "params": {
          "_birthDate": "is the subjects' date of birth, in seconds, from UNIX Epoch (1970-01-01)",
          "_homeAddressA": "is the subject's legal home address (uses 2 bytes32)",
          "_homeAddressB": "is the subject's legal home address (uses 2 bytes32)",
          "_nameA": "is the subject's full name (uses 2 bytes32)",
          "_nameB": "is the subject's full name (uses 2 bytes32)",
          "_subjectId": "is the registered address of the subject (approved for holding NFT Prescriptions)",
          "sender": "is the address of the admin that set the Subject's data"
        }
      },
      "subjectRemoved(address,address)": {
        "params": {
          "_subjectId": "is the registered address of the subject removed",
          "sender": "is the address of the admin that removed the Subject"
        }
      }
    },
    "kind": "dev",
    "methods": {
      "addAdmin(address)": {
        "params": {
          "to": "Address of the account to grant admin role"
        }
      },
      "approve(address,uint256)": {
        "details": "See {IERC721-approve}."
      },
      "balanceOf(address)": {
        "details": "See {IERC721-balanceOf}."
      },
      "burn(uint256)": {
        "details": "Burns `tokenId`. See {ERC721-_burn}. Requirements: - The caller must own `tokenId` or be an approved operator."
      },
      "constructor": {
        "details": "Using ERC721 default constructor with \"Prescription\" and \"Rx\" as Name and Symbol for the tokensWe set up the contract creator (msg.sender) with the ADMIN_ROLE to manage all the other RolesWe increment the counter in the constructor to start Ids in 1, keeping Id 0 (default for uints      in solidity) to signal that someone doesn't have any NFTs"
      },
      "getApproved(uint256)": {
        "details": "See {IERC721-getApproved}."
      },
      "getDoctor(address)": {
        "params": {
          "_subjectId": "the registered address of the doctor to retrieve"
        },
        "returns": {
          "_0": "an object with the Doctor"
        }
      },
      "getPharmacist(address)": {
        "params": {
          "_subjectId": "the registered address of the pharmacist to retrieve"
        },
        "returns": {
          "_0": "an object with the Pharmacist"
        }
      },
      "getRoleAdmin(bytes32)": {
        "details": "Returns the admin role that controls `role`. See {grantRole} and {revokeRole}. To change a role's admin, use {_setRoleAdmin}."
      },
      "getRx(uint256)": {
        "params": {
          "tokenId": "uint256 representing an existing tokenId"
        },
        "returns": {
          "_0": "a RxData struct containing all the Rx Data"
        }
      },
      "getSelfGrantAdmin()": {
        "returns": {
          "_0": "bool with state variable"
        }
      },
      "getSubject(address)": {
        "params": {
          "_subjectId": "the registered address of the subject to retrieve"
        },
        "returns": {
          "_0": "an object with the Subject"
        }
      },
      "grantRole(bytes32,address)": {
        "details": "Grants `role` to `account`. If `account` had not been already granted `role`, emits a {RoleGranted} event. Requirements: - the caller must have ``role``'s admin role."
      },
      "hasRole(bytes32,address)": {
        "details": "Returns `true` if `account` has been granted `role`."
      },
      "isAdmin(address)": {
        "params": {
          "to": "address to check for admin role privilege"
        },
        "returns": {
          "_0": "true if @param to is an admin or false otherwise"
        }
      },
      "isApprovedForAll(address,address)": {
        "details": "See {IERC721-isApprovedForAll}."
      },
      "mint(address,bytes32[12],bytes32[24])": {
        "details": "Does NOT store a tokenURI. It stores Prescription data on contract (tokenURI is generated upon request)",
        "params": {
          "_keys": "Text lines with the 'title' of each content of the prescription (max 19 characters each)",
          "_values": "Text lines with the 'content' of the prescription (max 61 characters each)",
          "to": "The id of the subject (patient) recipient of the prescription"
        }
      },
      "name()": {
        "details": "See {IERC721Metadata-name}."
      },
      "ownerOf(uint256)": {
        "details": "See {IERC721-ownerOf}."
      },
      "removeAdmin(address)": {
        "params": {
          "to": "Address of the account to remove admin role"
        }
      },
      "removeDoctor(address)": {
        "details": "Only ADMIN_ROLE users are allowed to remove doctors",
        "params": {
          "_subjectId": "is the registered address of the doctor to remove"
        }
      },
      "removePharmacist(address)": {
        "details": "Only ADMIN_ROLE users are allowed to remove pharmacists",
        "params": {
          "_subjectId": "is the registered address of the pharmacist to remove"
        }
      },
      "removeSubject(address)": {
        "details": "Only ADMIN_ROLE users are allowed to remove subjects",
        "params": {
          "_subjectId": "is the registered address of the subject to remove"
        }
      },
      "renounceRole(bytes32,address)": {
        "details": "Revokes `role` from the calling account. Roles are often managed via {grantRole} and {revokeRole}: this function's purpose is to provide a mechanism for accounts to lose their privileges if they are compromised (such as when a trusted device is misplaced). If the calling account had been revoked `role`, emits a {RoleRevoked} event. Requirements: - the caller must be `account`."
      },
      "revokeRole(bytes32,address)": {
        "details": "Revokes `role` from `account`. If `account` had been granted `role`, emits a {RoleRevoked} event. Requirements: - the caller must have ``role``'s admin role."
      },
      "safeTransferFrom(address,address,uint256)": {
        "details": "See {IERC721-safeTransferFrom}."
      },
      "safeTransferFrom(address,address,uint256,bytes)": {
        "details": "See {IERC721-safeTransferFrom}."
      },
      "setApprovalForAll(address,bool)": {
        "details": "See {IERC721-setApprovalForAll}."
      },
      "setDoctorData(address,bytes32,bytes32)": {
        "details": "@param _workplaces is a feature for future implementations",
        "params": {
          "_degree": "should contain the degree of the doctor",
          "_license": "should contain the legal license of the doctor",
          "_subjectId": "should be a valid ethereum address (same Id as the subject that holds this doctor's personal details)"
        }
      },
      "setPharmacistData(address,bytes32,bytes32)": {
        "details": "@param _workplaces is a feature for future implementations",
        "params": {
          "_degree": "should contain the degree of the pharmacist",
          "_license": "should contain the legal license of the pharmacist",
          "_subjectId": "should be a valid ethereum address (same Id as the subject that holds this pharmacist's personal details)"
        }
      },
      "setSelfGrantAdmin(bool)": {
        "params": {
          "_selfAdmin": "bool to set state variable"
        }
      },
      "setSubjectData(address,uint256,bytes32,bytes32,bytes32,bytes32)": {
        "details": "Only ADMIN_ROLE users are allowed to modify subjects",
        "params": {
          "_birthDate": "is the subjects' date of birth, in seconds, from UNIX Epoch (1970-01-01)",
          "_homeAddressA": "is the subject's legal home address (uses 2 bytes32)",
          "_homeAddressB": "is the subject's legal home address (uses 2 bytes32)",
          "_nameA": "is the subject's full name (uses 2 bytes32)",
          "_nameB": "is the subject's full name (uses 2 bytes32)",
          "_subjectId": "is the registered address of the subject (approved for holding NFT Prescriptions)"
        }
      },
      "supportsInterface(bytes4)": {
        "details": "function override required by solidity"
      },
      "symbol()": {
        "details": "See {IERC721Metadata-symbol}."
      },
      "tokenURI(uint256)": {
        "details": "TokenURI generated on the fly from stored data (function override required by solidity)  "
      },
      "transferFrom(address,address,uint256)": {
        "details": "See {IERC721-transferFrom}."
      },
      "transferOwnership(address)": {
        "details": "Transfers ownership of the contract to a new account (`newOwner`). Can only be called by the current owner."
      }
    },
    "title": "A NFT Prescription creator",
    "version": 1
  },
  "userdoc": {
    "events": {
      "doctorDataSet(address,address,bytes32,bytes32)": {
        "notice": "Event to signal when adding/replacing a Doctor allowed to mint NFT Prescriptions"
      },
      "doctorRemoved(address,address)": {
        "notice": "Event to signal a removed Doctor"
      },
      "minted(address,address,uint256)": {
        "notice": "Event to signal when a new Rx has been minted"
      },
      "pharmacistDataSet(address,address,bytes32,bytes32)": {
        "notice": "Event to signal when adding/replacing a Pharmacist allowed to burn NFT Prescriptions"
      },
      "pharmacistRemoved(address,address)": {
        "notice": "Event to signal a removed Pharmacist"
      },
      "subjectDataSet(address,address,uint256,bytes32,bytes32,bytes32,bytes32)": {
        "notice": "Event to signal when adding/replacing a Subject allowed to receive/hold NFT Prescriptions"
      },
      "subjectRemoved(address,address)": {
        "notice": "Event to signal a removed Subject"
      }
    },
    "kind": "user",
    "methods": {
      "ADMIN_ROLE()": {
        "notice": "Role definition for Minter"
      },
      "BURNER_ROLE()": {
        "notice": "Role definition for Burner"
      },
      "MINTER_ROLE()": {
        "notice": "Role definition for Minter"
      },
      "addAdmin(address)": {
        "notice": "Function to add an admin account"
      },
      "constructor": {
        "notice": "constructor for NFT Prescriptions contract"
      },
      "getDoctor(address)": {
        "notice": "Function to retrieve a Doctor"
      },
      "getPharmacist(address)": {
        "notice": "Function to retrieve a Pharmacist"
      },
      "getRx(uint256)": {
        "notice": "Function to get data for a specific tokenId. Only for Doctor, Patient or Pharmacist of the tokenId."
      },
      "getSelfGrantAdmin()": {
        "notice": "Function to set selfGrantAdmin (only deployer of contract is allowed)"
      },
      "getSubject(address)": {
        "notice": "Function to retrieve a Subject"
      },
      "isAdmin(address)": {
        "notice": "Function to check if someone has admin role"
      },
      "mint(address,bytes32[12],bytes32[24])": {
        "notice": "Funtion to mint a Prescription. Should be called only by a Doctor (has MINTER_ROLE)"
      },
      "removeAdmin(address)": {
        "notice": "Function to remove an admin account"
      },
      "removeDoctor(address)": {
        "notice": "Function to remove a registered Doctor"
      },
      "removePharmacist(address)": {
        "notice": "Function to remove a registered Pharmacist"
      },
      "removeSubject(address)": {
        "notice": "Function to remove a registered Subject "
      },
      "setDoctorData(address,bytes32,bytes32)": {
        "notice": "Function to add/replace a Doctor allowed to mint NFT Prescriptions"
      },
      "setPharmacistData(address,bytes32,bytes32)": {
        "notice": "Function to add/replace a Pharmacist allowed to burn NFT Prescriptions"
      },
      "setSelfGrantAdmin(bool)": {
        "notice": "Function to set selfGrantAdmin (only deployer of contract is allowed)"
      },
      "setSubjectData(address,uint256,bytes32,bytes32,bytes32,bytes32)": {
        "notice": "Function to add/replace a Subject allowed to receive/hold NFT Prescriptions"
      }
    },
    "notice": "You can use this contract only as a MVP for minting Prescriptions",
    "version": 1
  }
}