{
  "contractName": "Rx",
  "abi": [
    {
      "inputs": [],
      "stateMutability": "nonpayable",
      "type": "constructor"
    },
    {
      "anonymous": false,
      "inputs": [
        {
          "indexed": true,
          "internalType": "address",
          "name": "owner",
          "type": "address"
        },
        {
          "indexed": true,
          "internalType": "address",
          "name": "approved",
          "type": "address"
        },
        {
          "indexed": true,
          "internalType": "uint256",
          "name": "tokenId",
          "type": "uint256"
        }
      ],
      "name": "Approval",
      "type": "event"
    },
    {
      "anonymous": false,
      "inputs": [
        {
          "indexed": true,
          "internalType": "address",
          "name": "owner",
          "type": "address"
        },
        {
          "indexed": true,
          "internalType": "address",
          "name": "operator",
          "type": "address"
        },
        {
          "indexed": false,
          "internalType": "bool",
          "name": "approved",
          "type": "bool"
        }
      ],
      "name": "ApprovalForAll",
      "type": "event"
    },
    {
      "anonymous": false,
      "inputs": [
        {
          "indexed": true,
          "internalType": "bytes32",
          "name": "role",
          "type": "bytes32"
        },
        {
          "indexed": true,
          "internalType": "bytes32",
          "name": "previousAdminRole",
          "type": "bytes32"
        },
        {
          "indexed": true,
          "internalType": "bytes32",
          "name": "newAdminRole",
          "type": "bytes32"
        }
      ],
      "name": "RoleAdminChanged",
      "type": "event"
    },
    {
      "anonymous": false,
      "inputs": [
        {
          "indexed": true,
          "internalType": "bytes32",
          "name": "role",
          "type": "bytes32"
        },
        {
          "indexed": true,
          "internalType": "address",
          "name": "account",
          "type": "address"
        },
        {
          "indexed": true,
          "internalType": "address",
          "name": "sender",
          "type": "address"
        }
      ],
      "name": "RoleGranted",
      "type": "event"
    },
    {
      "anonymous": false,
      "inputs": [
        {
          "indexed": true,
          "internalType": "bytes32",
          "name": "role",
          "type": "bytes32"
        },
        {
          "indexed": true,
          "internalType": "address",
          "name": "account",
          "type": "address"
        },
        {
          "indexed": true,
          "internalType": "address",
          "name": "sender",
          "type": "address"
        }
      ],
      "name": "RoleRevoked",
      "type": "event"
    },
    {
      "anonymous": false,
      "inputs": [
        {
          "indexed": true,
          "internalType": "address",
          "name": "from",
          "type": "address"
        },
        {
          "indexed": true,
          "internalType": "address",
          "name": "to",
          "type": "address"
        },
        {
          "indexed": true,
          "internalType": "uint256",
          "name": "tokenId",
          "type": "uint256"
        }
      ],
      "name": "Transfer",
      "type": "event"
    },
    {
      "anonymous": false,
      "inputs": [
        {
          "indexed": true,
          "internalType": "address",
          "name": "sender",
          "type": "address"
        },
        {
          "indexed": true,
          "internalType": "address",
          "name": "_subjectId",
          "type": "address"
        },
        {
          "indexed": false,
          "internalType": "string",
          "name": "_degree",
          "type": "string"
        },
        {
          "indexed": false,
          "internalType": "string",
          "name": "_license",
          "type": "string"
        }
      ],
      "name": "doctorDataSet",
      "type": "event"
    },
    {
      "anonymous": false,
      "inputs": [
        {
          "indexed": true,
          "internalType": "address",
          "name": "sender",
          "type": "address"
        },
        {
          "indexed": true,
          "internalType": "address",
          "name": "_subjectId",
          "type": "address"
        }
      ],
      "name": "doctorRemoved",
      "type": "event"
    },
    {
      "anonymous": false,
      "inputs": [
        {
          "indexed": true,
          "internalType": "address",
          "name": "sender",
          "type": "address"
        },
        {
          "indexed": true,
          "internalType": "address",
          "name": "receiver",
          "type": "address"
        },
        {
          "indexed": true,
          "internalType": "uint256",
          "name": "tokenId",
          "type": "uint256"
        }
      ],
      "name": "minted",
      "type": "event"
    },
    {
      "anonymous": false,
      "inputs": [
        {
          "indexed": true,
          "internalType": "address",
          "name": "sender",
          "type": "address"
        },
        {
          "indexed": true,
          "internalType": "address",
          "name": "_subjectId",
          "type": "address"
        },
        {
          "indexed": false,
          "internalType": "string",
          "name": "_degree",
          "type": "string"
        },
        {
          "indexed": false,
          "internalType": "string",
          "name": "_license",
          "type": "string"
        }
      ],
      "name": "pharmacistDataSet",
      "type": "event"
    },
    {
      "anonymous": false,
      "inputs": [
        {
          "indexed": true,
          "internalType": "address",
          "name": "sender",
          "type": "address"
        },
        {
          "indexed": true,
          "internalType": "address",
          "name": "_subjectId",
          "type": "address"
        }
      ],
      "name": "pharmacistRemoved",
      "type": "event"
    },
    {
      "anonymous": false,
      "inputs": [
        {
          "indexed": true,
          "internalType": "address",
          "name": "sender",
          "type": "address"
        },
        {
          "indexed": true,
          "internalType": "address",
          "name": "_subjectId",
          "type": "address"
        },
        {
          "indexed": false,
          "internalType": "uint256",
          "name": "_birthDate",
          "type": "uint256"
        },
        {
          "indexed": false,
          "internalType": "string",
          "name": "_name",
          "type": "string"
        },
        {
          "indexed": false,
          "internalType": "string",
          "name": "_homeAddress",
          "type": "string"
        }
      ],
      "name": "subjectDataSet",
      "type": "event"
    },
    {
      "anonymous": false,
      "inputs": [
        {
          "indexed": true,
          "internalType": "address",
          "name": "sender",
          "type": "address"
        },
        {
          "indexed": true,
          "internalType": "address",
          "name": "_subjectId",
          "type": "address"
        }
      ],
      "name": "subjectRemoved",
      "type": "event"
    },
    {
      "inputs": [],
      "name": "ADMIN_ROLE",
      "outputs": [
        {
          "internalType": "bytes32",
          "name": "",
          "type": "bytes32"
        }
      ],
      "stateMutability": "view",
      "type": "function",
      "constant": true
    },
    {
      "inputs": [],
      "name": "BURNER_ROLE",
      "outputs": [
        {
          "internalType": "bytes32",
          "name": "",
          "type": "bytes32"
        }
      ],
      "stateMutability": "view",
      "type": "function",
      "constant": true
    },
    {
      "inputs": [],
      "name": "DEFAULT_ADMIN_ROLE",
      "outputs": [
        {
          "internalType": "bytes32",
          "name": "",
          "type": "bytes32"
        }
      ],
      "stateMutability": "view",
      "type": "function",
      "constant": true
    },
    {
      "inputs": [],
      "name": "MINTER_ROLE",
      "outputs": [
        {
          "internalType": "bytes32",
          "name": "",
          "type": "bytes32"
        }
      ],
      "stateMutability": "view",
      "type": "function",
      "constant": true
    },
    {
      "inputs": [
        {
          "internalType": "address",
          "name": "to",
          "type": "address"
        },
        {
          "internalType": "uint256",
          "name": "tokenId",
          "type": "uint256"
        }
      ],
      "name": "approve",
      "outputs": [],
      "stateMutability": "nonpayable",
      "type": "function"
    },
    {
      "inputs": [
        {
          "internalType": "address",
          "name": "owner",
          "type": "address"
        }
      ],
      "name": "balanceOf",
      "outputs": [
        {
          "internalType": "uint256",
          "name": "",
          "type": "uint256"
        }
      ],
      "stateMutability": "view",
      "type": "function",
      "constant": true
    },
    {
      "inputs": [
        {
          "internalType": "uint256",
          "name": "tokenId",
          "type": "uint256"
        }
      ],
      "name": "burn",
      "outputs": [],
      "stateMutability": "nonpayable",
      "type": "function"
    },
    {
      "inputs": [
        {
          "internalType": "uint256",
          "name": "tokenId",
          "type": "uint256"
        }
      ],
      "name": "getApproved",
      "outputs": [
        {
          "internalType": "address",
          "name": "",
          "type": "address"
        }
      ],
      "stateMutability": "view",
      "type": "function",
      "constant": true
    },
    {
      "inputs": [
        {
          "internalType": "bytes32",
          "name": "role",
          "type": "bytes32"
        }
      ],
      "name": "getRoleAdmin",
      "outputs": [
        {
          "internalType": "bytes32",
          "name": "",
          "type": "bytes32"
        }
      ],
      "stateMutability": "view",
      "type": "function",
      "constant": true
    },
    {
      "inputs": [
        {
          "internalType": "bytes32",
          "name": "role",
          "type": "bytes32"
        },
        {
          "internalType": "address",
          "name": "account",
          "type": "address"
        }
      ],
      "name": "grantRole",
      "outputs": [],
      "stateMutability": "nonpayable",
      "type": "function"
    },
    {
      "inputs": [
        {
          "internalType": "bytes32",
          "name": "role",
          "type": "bytes32"
        },
        {
          "internalType": "address",
          "name": "account",
          "type": "address"
        }
      ],
      "name": "hasRole",
      "outputs": [
        {
          "internalType": "bool",
          "name": "",
          "type": "bool"
        }
      ],
      "stateMutability": "view",
      "type": "function",
      "constant": true
    },
    {
      "inputs": [
        {
          "internalType": "address",
          "name": "owner",
          "type": "address"
        },
        {
          "internalType": "address",
          "name": "operator",
          "type": "address"
        }
      ],
      "name": "isApprovedForAll",
      "outputs": [
        {
          "internalType": "bool",
          "name": "",
          "type": "bool"
        }
      ],
      "stateMutability": "view",
      "type": "function",
      "constant": true
    },
    {
      "inputs": [],
      "name": "name",
      "outputs": [
        {
          "internalType": "string",
          "name": "",
          "type": "string"
        }
      ],
      "stateMutability": "view",
      "type": "function",
      "constant": true
    },
    {
      "inputs": [
        {
          "internalType": "uint256",
          "name": "tokenId",
          "type": "uint256"
        }
      ],
      "name": "ownerOf",
      "outputs": [
        {
          "internalType": "address",
          "name": "",
          "type": "address"
        }
      ],
      "stateMutability": "view",
      "type": "function",
      "constant": true
    },
    {
      "inputs": [
        {
          "internalType": "bytes32",
          "name": "role",
          "type": "bytes32"
        },
        {
          "internalType": "address",
          "name": "account",
          "type": "address"
        }
      ],
      "name": "renounceRole",
      "outputs": [],
      "stateMutability": "nonpayable",
      "type": "function"
    },
    {
      "inputs": [
        {
          "internalType": "bytes32",
          "name": "role",
          "type": "bytes32"
        },
        {
          "internalType": "address",
          "name": "account",
          "type": "address"
        }
      ],
      "name": "revokeRole",
      "outputs": [],
      "stateMutability": "nonpayable",
      "type": "function"
    },
    {
      "inputs": [
        {
          "internalType": "address",
          "name": "from",
          "type": "address"
        },
        {
          "internalType": "address",
          "name": "to",
          "type": "address"
        },
        {
          "internalType": "uint256",
          "name": "tokenId",
          "type": "uint256"
        }
      ],
      "name": "safeTransferFrom",
      "outputs": [],
      "stateMutability": "nonpayable",
      "type": "function"
    },
    {
      "inputs": [
        {
          "internalType": "address",
          "name": "from",
          "type": "address"
        },
        {
          "internalType": "address",
          "name": "to",
          "type": "address"
        },
        {
          "internalType": "uint256",
          "name": "tokenId",
          "type": "uint256"
        },
        {
          "internalType": "bytes",
          "name": "_data",
          "type": "bytes"
        }
      ],
      "name": "safeTransferFrom",
      "outputs": [],
      "stateMutability": "nonpayable",
      "type": "function"
    },
    {
      "inputs": [
        {
          "internalType": "address",
          "name": "operator",
          "type": "address"
        },
        {
          "internalType": "bool",
          "name": "approved",
          "type": "bool"
        }
      ],
      "name": "setApprovalForAll",
      "outputs": [],
      "stateMutability": "nonpayable",
      "type": "function"
    },
    {
      "inputs": [],
      "name": "symbol",
      "outputs": [
        {
          "internalType": "string",
          "name": "",
          "type": "string"
        }
      ],
      "stateMutability": "view",
      "type": "function",
      "constant": true
    },
    {
      "inputs": [
        {
          "internalType": "address",
          "name": "from",
          "type": "address"
        },
        {
          "internalType": "address",
          "name": "to",
          "type": "address"
        },
        {
          "internalType": "uint256",
          "name": "tokenId",
          "type": "uint256"
        }
      ],
      "name": "transferFrom",
      "outputs": [],
      "stateMutability": "nonpayable",
      "type": "function"
    },
    {
      "inputs": [
        {
          "internalType": "uint256",
          "name": "tokenId",
          "type": "uint256"
        }
      ],
      "name": "tokenURI",
      "outputs": [
        {
          "internalType": "string",
          "name": "",
          "type": "string"
        }
      ],
      "stateMutability": "view",
      "type": "function",
      "constant": true
    },
    {
      "inputs": [
        {
          "internalType": "bytes4",
          "name": "interfaceId",
          "type": "bytes4"
        }
      ],
      "name": "supportsInterface",
      "outputs": [
        {
          "internalType": "bool",
          "name": "",
          "type": "bool"
        }
      ],
      "stateMutability": "view",
      "type": "function",
      "constant": true
    },
    {
      "inputs": [
        {
          "internalType": "address",
          "name": "to",
          "type": "address"
        },
        {
          "internalType": "string[12]",
          "name": "_keys",
          "type": "string[12]"
        },
        {
          "internalType": "string[12]",
          "name": "_values",
          "type": "string[12]"
        }
      ],
      "name": "mint",
      "outputs": [],
      "stateMutability": "nonpayable",
      "type": "function"
    },
    {
      "inputs": [
        {
          "internalType": "uint256",
          "name": "tokenId",
          "type": "uint256"
        }
      ],
      "name": "getRx",
      "outputs": [
        {
          "components": [
            {
              "internalType": "uint256",
              "name": "date",
              "type": "uint256"
            },
            {
              "components": [
                {
                  "internalType": "address",
                  "name": "subjectId",
                  "type": "address"
                },
                {
                  "internalType": "uint256",
                  "name": "birthDate",
                  "type": "uint256"
                },
                {
                  "internalType": "string",
                  "name": "name",
                  "type": "string"
                },
                {
                  "internalType": "string",
                  "name": "homeAddress",
                  "type": "string"
                }
              ],
              "internalType": "struct RxStructs.Subject",
              "name": "patient",
              "type": "tuple"
            },
            {
              "components": [
                {
                  "internalType": "address",
                  "name": "subjectId",
                  "type": "address"
                },
                {
                  "internalType": "uint256",
                  "name": "birthDate",
                  "type": "uint256"
                },
                {
                  "internalType": "string",
                  "name": "name",
                  "type": "string"
                },
                {
                  "internalType": "string",
                  "name": "homeAddress",
                  "type": "string"
                }
              ],
              "internalType": "struct RxStructs.Subject",
              "name": "doctorSubject",
              "type": "tuple"
            },
            {
              "components": [
                {
                  "internalType": "address",
                  "name": "subjectId",
                  "type": "address"
                },
                {
                  "internalType": "uint256",
                  "name": "birthDate",
                  "type": "uint256"
                },
                {
                  "internalType": "string",
                  "name": "name",
                  "type": "string"
                },
                {
                  "internalType": "string",
                  "name": "homeAddress",
                  "type": "string"
                }
              ],
              "internalType": "struct RxStructs.Subject",
              "name": "pharmacistSubject",
              "type": "tuple"
            },
            {
              "components": [
                {
                  "internalType": "address",
                  "name": "subjectId",
                  "type": "address"
                },
                {
                  "internalType": "string",
                  "name": "degree",
                  "type": "string"
                },
                {
                  "internalType": "string",
                  "name": "license",
                  "type": "string"
                }
              ],
              "internalType": "struct RxStructs.Doctor",
              "name": "doctor",
              "type": "tuple"
            },
            {
              "components": [
                {
                  "internalType": "address",
                  "name": "subjectId",
                  "type": "address"
                },
                {
                  "internalType": "string",
                  "name": "degree",
                  "type": "string"
                },
                {
                  "internalType": "string",
                  "name": "license",
                  "type": "string"
                }
              ],
              "internalType": "struct RxStructs.Pharmacist",
              "name": "pharmacist",
              "type": "tuple"
            },
            {
              "internalType": "string[12]",
              "name": "keys",
              "type": "string[12]"
            },
            {
              "internalType": "string[12]",
              "name": "values",
              "type": "string[12]"
            }
          ],
          "internalType": "struct RxStructs.RxData",
          "name": "",
          "type": "tuple"
        }
      ],
      "stateMutability": "view",
      "type": "function",
      "constant": true
    },
    {
      "inputs": [
        {
          "internalType": "address",
          "name": "to",
          "type": "address"
        }
      ],
      "name": "addAdmin",
      "outputs": [],
      "stateMutability": "nonpayable",
      "type": "function"
    },
    {
      "inputs": [
        {
          "internalType": "address",
          "name": "to",
          "type": "address"
        }
      ],
      "name": "removeAdmin",
      "outputs": [],
      "stateMutability": "nonpayable",
      "type": "function"
    },
    {
      "inputs": [
        {
          "internalType": "address",
          "name": "to",
          "type": "address"
        }
      ],
      "name": "isAdmin",
      "outputs": [
        {
          "internalType": "bool",
          "name": "",
          "type": "bool"
        }
      ],
      "stateMutability": "view",
      "type": "function",
      "constant": true
    },
    {
      "inputs": [
        {
          "internalType": "address",
          "name": "_subjectId",
          "type": "address"
        }
      ],
      "name": "getSubject",
      "outputs": [
        {
          "components": [
            {
              "internalType": "address",
              "name": "subjectId",
              "type": "address"
            },
            {
              "internalType": "uint256",
              "name": "birthDate",
              "type": "uint256"
            },
            {
              "internalType": "string",
              "name": "name",
              "type": "string"
            },
            {
              "internalType": "string",
              "name": "homeAddress",
              "type": "string"
            }
          ],
          "internalType": "struct RxStructs.Subject",
          "name": "",
          "type": "tuple"
        }
      ],
      "stateMutability": "view",
      "type": "function",
      "constant": true
    },
    {
      "inputs": [
        {
          "internalType": "address",
          "name": "_subjectId",
          "type": "address"
        }
      ],
      "name": "getDoctor",
      "outputs": [
        {
          "components": [
            {
              "internalType": "address",
              "name": "subjectId",
              "type": "address"
            },
            {
              "internalType": "string",
              "name": "degree",
              "type": "string"
            },
            {
              "internalType": "string",
              "name": "license",
              "type": "string"
            }
          ],
          "internalType": "struct RxStructs.Doctor",
          "name": "",
          "type": "tuple"
        }
      ],
      "stateMutability": "view",
      "type": "function",
      "constant": true
    },
    {
      "inputs": [
        {
          "internalType": "address",
          "name": "_subjectId",
          "type": "address"
        }
      ],
      "name": "getPharmacist",
      "outputs": [
        {
          "components": [
            {
              "internalType": "address",
              "name": "subjectId",
              "type": "address"
            },
            {
              "internalType": "string",
              "name": "degree",
              "type": "string"
            },
            {
              "internalType": "string",
              "name": "license",
              "type": "string"
            }
          ],
          "internalType": "struct RxStructs.Pharmacist",
          "name": "",
          "type": "tuple"
        }
      ],
      "stateMutability": "view",
      "type": "function",
      "constant": true
    },
    {
      "inputs": [
        {
          "internalType": "address",
          "name": "_subjectId",
          "type": "address"
        },
        {
          "internalType": "uint256",
          "name": "_birthDate",
          "type": "uint256"
        },
        {
          "internalType": "string",
          "name": "_name",
          "type": "string"
        },
        {
          "internalType": "string",
          "name": "_homeAddress",
          "type": "string"
        }
      ],
      "name": "setSubjectData",
      "outputs": [
        {
          "internalType": "address",
          "name": "",
          "type": "address"
        }
      ],
      "stateMutability": "nonpayable",
      "type": "function"
    },
    {
      "inputs": [
        {
          "internalType": "address",
          "name": "_subjectId",
          "type": "address"
        },
        {
          "internalType": "string",
          "name": "_degree",
          "type": "string"
        },
        {
          "internalType": "string",
          "name": "_license",
          "type": "string"
        }
      ],
      "name": "setDoctorData",
      "outputs": [
        {
          "internalType": "address",
          "name": "",
          "type": "address"
        }
      ],
      "stateMutability": "nonpayable",
      "type": "function"
    },
    {
      "inputs": [
        {
          "internalType": "address",
          "name": "_subjectId",
          "type": "address"
        },
        {
          "internalType": "string",
          "name": "_degree",
          "type": "string"
        },
        {
          "internalType": "string",
          "name": "_license",
          "type": "string"
        }
      ],
      "name": "setPharmacistData",
      "outputs": [
        {
          "internalType": "address",
          "name": "",
          "type": "address"
        }
      ],
      "stateMutability": "nonpayable",
      "type": "function"
    },
    {
      "inputs": [
        {
          "internalType": "address",
          "name": "_subjectId",
          "type": "address"
        }
      ],
      "name": "removeSubject",
      "outputs": [],
      "stateMutability": "nonpayable",
      "type": "function"
    },
    {
      "inputs": [
        {
          "internalType": "address",
          "name": "_subjectId",
          "type": "address"
        }
      ],
      "name": "removeDoctor",
      "outputs": [],
      "stateMutability": "nonpayable",
      "type": "function"
    },
    {
      "inputs": [
        {
          "internalType": "address",
          "name": "_subjectId",
          "type": "address"
        }
      ],
      "name": "removePharmacist",
      "outputs": [],
      "stateMutability": "nonpayable",
      "type": "function"
    }
  ],
  "bytecode": "0x60806040523480156200001157600080fd5b506040805180820182526002808252610a4f60f31b6020808401828152855180870190965292855284015281519192916200004f91600091620004fe565b50805162000065906001906020840190620004fe565b50620000779150600090503362000125565b620000b27f9f2df0fed2c77648de5860a4cc508cd0818c85b8b8a1ab4ceeef8d981c8956a6600080516020620066ad83398151915262000135565b620000ed7f3c11d16cbaffd01df69ce1c404f6340ee057498f5f00246190ea54220576a848600080516020620066ad83398151915262000135565b62000108600080516020620066ad8339815191523362000180565b6200011f6008620001af60201b62002ec21760201c565b6200072f565b620001318282620001b8565b5050565b600082815260076020526040808220600101805490849055905190918391839186917fbd79b86ffe0ab8e8776151514217cd7cacd52c909f66475c3af44e129f0b00ff9190a4505050565b6000828152600760205260409020600101546200019e81336200025c565b620001aa8383620001b8565b505050565b80546001019055565b60008281526007602090815260408083206001600160a01b038516845290915290205460ff16620001315760008281526007602090815260408083206001600160a01b03851684529091529020805460ff19166001179055620002183390565b6001600160a01b0316816001600160a01b0316837f2f8788117e7eff1d82e926ec794901d17c78024a50270940304540a733656f0d60405160405180910390a45050565b60008281526007602090815260408083206001600160a01b038516845290915290205460ff166200013157620002a8816001600160a01b031660146200030260201b62002ecb1760201c565b620002be83602062002ecb62000302821b17811c565b604051602001620002d1929190620005a4565b60408051601f198184030181529082905262461bcd60e51b8252620002f9916004016200061d565b60405180910390fd5b60606000620003138360026200066d565b6200032090600262000652565b6001600160401b038111156200034657634e487b7160e01b600052604160045260246000fd5b6040519080825280601f01601f19166020018201604052801562000371576020820181803683370190505b509050600360fc1b816000815181106200039b57634e487b7160e01b600052603260045260246000fd5b60200101906001600160f81b031916908160001a905350600f60fb1b81600181518110620003d957634e487b7160e01b600052603260045260246000fd5b60200101906001600160f81b031916908160001a9053506000620003ff8460026200066d565b6200040c90600162000652565b90505b6001811115620004a6576f181899199a1a9b1b9c1cb0b131b232b360811b85600f16601081106200045057634e487b7160e01b600052603260045260246000fd5b1a60f81b8282815181106200047557634e487b7160e01b600052603260045260246000fd5b60200101906001600160f81b031916908160001a90535060049490941c936200049e81620006c2565b90506200040f565b508315620004f75760405162461bcd60e51b815260206004820181905260248201527f537472696e67733a20686578206c656e67746820696e73756666696369656e746044820152606401620002f9565b9392505050565b8280546200050c90620006dc565b90600052602060002090601f0160209004810192826200053057600085556200057b565b82601f106200054b57805160ff19168380011785556200057b565b828001600101855582156200057b579182015b828111156200057b5782518255916020019190600101906200055e565b50620005899291506200058d565b5090565b5b808211156200058957600081556001016200058e565b7f416363657373436f6e74726f6c3a206163636f756e7420000000000000000000815260008351620005de8160178501602088016200068f565b7001034b99036b4b9b9b4b733903937b6329607d1b6017918401918201528351620006118160288401602088016200068f565b01602801949350505050565b60208152600082518060208401526200063e8160408501602087016200068f565b601f01601f19169190910160400192915050565b6000821982111562000668576200066862000719565b500190565b60008160001904831182151516156200068a576200068a62000719565b500290565b60005b83811015620006ac57818101518382015260200162000692565b83811115620006bc576000848401525b50505050565b600081620006d457620006d462000719565b506000190190565b600181811c90821680620006f157607f821691505b602082108114156200071357634e487b7160e01b600052602260045260246000fd5b50919050565b634e487b7160e01b600052601160045260246000fd5b615f6e806200073f6000396000f3fe608060405234801561001057600080fd5b50600436106102275760003560e01c80636352211e116101305780639c4be147116100b8578063c87b56dd1161007c578063c87b56dd146104f0578063d539139314610503578063d547741f14610518578063d9c54dcd1461052b578063e985e9c51461053e57600080fd5b80639c4be1471461048f578063a217fddf146104af578063a22cb465146104b7578063b88d4fde146104ca578063c5d14e7d146104dd57600080fd5b806377a4ef28116100ff57806377a4ef281461043b57806384efc52f1461044e57806391d148541461046157806395d89b411461047457806398fc90e91461047c57600080fd5b80636352211e146103ed578063704802751461040057806370a082311461041357806375b238fc1461042657600080fd5b806326f313dd116101b35780632f2ff15d116101825780632f2ff15d1461038e57806336568abe146103a1578063366dbea3146103b457806342842e0e146103c757806342966c68146103da57600080fd5b806326f313dd1461032657806328272a0c14610346578063282c51f3146103595780632f04e0641461036e57600080fd5b8063095ea7b3116101fa578063095ea7b3146102a75780631785f53c146102bc57806323b872dd146102cf578063248a9ca3146102e257806324d7806c1461031357600080fd5b806301ffc9a71461022c57806305cbbaea1461025457806306fdde031461027f578063081812fc14610294575b600080fd5b61023f61023a366004614c1d565b610551565b60405190151581526020015b60405180910390f35b610267610262366004614ab7565b610562565b6040516001600160a01b03909116815260200161024b565b61028761075c565b60405161024b91906154ae565b6102676102a2366004614be3565b6107ee565b6102ba6102b5366004614b34565b610883565b005b6102ba6102ca36600461490e565b610999565b6102ba6102dd36600461495a565b6109ce565b6103056102f0366004614be3565b60009081526007602052604090206001015490565b60405190815260200161024b565b61023f61032136600461490e565b610a00565b610339610334366004614be3565b610a1a565b60405161024b919061559e565b610267610354366004614b5d565b6112a4565b610305600080516020615c3b83398151915281565b61038161037c36600461490e565b611482565b60405161024b919061558b565b6102ba61039c366004614bfb565b61160d565b6102ba6103af366004614bfb565b611633565b6102ba6103c236600461490e565b6116ad565b6102ba6103d536600461495a565b611851565b6102ba6103e8366004614be3565b61186c565b6102676103fb366004614be3565b6118e6565b6102ba61040e36600461490e565b61195d565b61030561042136600461490e565b61198e565b610305600080516020615ee983398151915281565b610267610449366004614ab7565b611a15565b61038161045c36600461490e565b611c06565b61023f61046f366004614bfb565b611c76565b610287611ca1565b6102ba61048a36600461490e565b611cb0565b6104a261049d36600461490e565b611dce565b60405161024b9190615676565b610305600081565b6102ba6104c5366004614a7d565b611eb4565b6102ba6104d8366004614995565b611f79565b6102ba6104eb366004614a0d565b611fb1565b6102876104fe366004614be3565b61245c565b610305600080516020615d6983398151915281565b6102ba610526366004614bfb565b612d4c565b6102ba61053936600461490e565b612d72565b61023f61054c366004614928565b612e94565b600061055c826130b3565b92915050565b6000600080516020615ee983398151915261057d81336130d8565b866001600160a01b038116158015906105b057506001600160a01b03808216600081815260096020526040902054909116145b6105d55760405162461bcd60e51b81526004016105cc90615564565b60405180910390fd5b6105ed600080516020615d698339815191528961160d565b6040518060600160405280896001600160a01b0316815260200188888080601f016020809104026020016040519081016040528093929190818152602001838380828437600092019190915250505090825250604080516020601f89018190048102820181019092528781529181019190889088908190840183828082843760009201829052509390945250506001600160a01b038b81168252600a60209081526040909220845181546001600160a01b03191692169190911781558382015180519193506106c39260018501929101906145fd565b50604082015180516106df9160028401916020909101906145fd565b50905050876001600160a01b0316336001600160a01b03167f71ab4a249153d5423fd06f051b6449c4eface0e55946823b5c7fb08c541235658989898960405161072c949392919061547c565b60405180910390a36001600160a01b038089166000908152600a6020526040902054169250505095945050505050565b60606000805461076b90615891565b80601f016020809104026020016040519081016040528092919081815260200182805461079790615891565b80156107e45780601f106107b9576101008083540402835291602001916107e4565b820191906000526020600020905b8154815290600101906020018083116107c757829003601f168201915b5050505050905090565b6000818152600260205260408120546001600160a01b03166108675760405162461bcd60e51b815260206004820152602c60248201527f4552433732313a20617070726f76656420717565727920666f72206e6f6e657860448201526b34b9ba32b73a103a37b5b2b760a11b60648201526084016105cc565b506000908152600460205260409020546001600160a01b031690565b600061088e826118e6565b9050806001600160a01b0316836001600160a01b031614156108fc5760405162461bcd60e51b815260206004820152602160248201527f4552433732313a20617070726f76616c20746f2063757272656e74206f776e656044820152603960f91b60648201526084016105cc565b336001600160a01b038216148061091857506109188133612e94565b61098a5760405162461bcd60e51b815260206004820152603860248201527f4552433732313a20617070726f76652063616c6c6572206973206e6f74206f7760448201527f6e6572206e6f7220617070726f76656420666f7220616c6c000000000000000060648201526084016105cc565b610994838361313c565b505050565b600080516020615ee98339815191526109b281336130d8565b6109ca600080516020615ee983398151915283612d4c565b5050565b6109d9335b826131aa565b6109f55760405162461bcd60e51b81526004016105cc90615513565b610994838383613281565b600061055c600080516020615ee983398151915283611c76565b610a22614681565b6000828152600c60209081526040918290208251610100810184528154815283516080810185526001830180546001600160a01b031682526002840154828601526003840180549396949587019492939192840191610a8090615891565b80601f0160208091040260200160405190810160405280929190818152602001828054610aac90615891565b8015610af95780601f10610ace57610100808354040283529160200191610af9565b820191906000526020600020905b815481529060010190602001808311610adc57829003601f168201915b50505050508152602001600382018054610b1290615891565b80601f0160208091040260200160405190810160405280929190818152602001828054610b3e90615891565b8015610b8b5780601f10610b6057610100808354040283529160200191610b8b565b820191906000526020600020905b815481529060010190602001808311610b6e57829003601f168201915b5050505050815250508152602001600582016040518060800160405290816000820160009054906101000a90046001600160a01b03166001600160a01b03166001600160a01b0316815260200160018201548152602001600282018054610bf190615891565b80601f0160208091040260200160405190810160405280929190818152602001828054610c1d90615891565b8015610c6a5780601f10610c3f57610100808354040283529160200191610c6a565b820191906000526020600020905b815481529060010190602001808311610c4d57829003601f168201915b50505050508152602001600382018054610c8390615891565b80601f0160208091040260200160405190810160405280929190818152602001828054610caf90615891565b8015610cfc5780601f10610cd157610100808354040283529160200191610cfc565b820191906000526020600020905b815481529060010190602001808311610cdf57829003601f168201915b5050505050815250508152602001600982016040518060800160405290816000820160009054906101000a90046001600160a01b03166001600160a01b03166001600160a01b0316815260200160018201548152602001600282018054610d6290615891565b80601f0160208091040260200160405190810160405280929190818152602001828054610d8e90615891565b8015610ddb5780601f10610db057610100808354040283529160200191610ddb565b820191906000526020600020905b815481529060010190602001808311610dbe57829003601f168201915b50505050508152602001600382018054610df490615891565b80601f0160208091040260200160405190810160405280929190818152602001828054610e2090615891565b8015610e6d5780601f10610e4257610100808354040283529160200191610e6d565b820191906000526020600020905b815481529060010190602001808311610e5057829003601f168201915b5050509190925250505081526040805160608101909152600d830180546001600160a01b03168252600e8401805460209485019484019190610eae90615891565b80601f0160208091040260200160405190810160405280929190818152602001828054610eda90615891565b8015610f275780601f10610efc57610100808354040283529160200191610f27565b820191906000526020600020905b815481529060010190602001808311610f0a57829003601f168201915b50505050508152602001600282018054610f4090615891565b80601f0160208091040260200160405190810160405280929190818152602001828054610f6c90615891565b8015610fb95780601f10610f8e57610100808354040283529160200191610fb9565b820191906000526020600020905b815481529060010190602001808311610f9c57829003601f168201915b50505091909252505050815260408051606081019091526010830180546001600160a01b0316825260118401805460209485019484019190610ffa90615891565b80601f016020809104026020016040519081016040528092919081815260200182805461102690615891565b80156110735780601f1061104857610100808354040283529160200191611073565b820191906000526020600020905b81548152906001019060200180831161105657829003601f168201915b5050505050815260200160028201805461108c90615891565b80601f01602080910402602001604051908101604052809291908181526020018280546110b890615891565b80156111055780601f106110da57610100808354040283529160200191611105565b820191906000526020600020905b8154815290600101906020018083116110e857829003601f168201915b50505091909252505050815260408051610180810190915260209091019060138301600c6000835b828210156111d057838201805461114390615891565b80601f016020809104026020016040519081016040528092919081815260200182805461116f90615891565b80156111bc5780601f10611191576101008083540402835291602001916111bc565b820191906000526020600020905b81548152906001019060200180831161119f57829003601f168201915b50505050508152602001906001019061112d565b50505090825250604080516101808101909152602090910190601f8301600c6000835b8282101561129657838201805461120990615891565b80601f016020809104026020016040519081016040528092919081815260200182805461123590615891565b80156112825780601f1061125757610100808354040283529160200191611282565b820191906000526020600020905b81548152906001019060200180831161126557829003601f168201915b5050505050815260200190600101906111f3565b505050915250909392505050565b6000600080516020615ee98339815191526112bf81336130d8565b6001600160a01b0388166113015760405162461bcd60e51b815260206004820152600960248201526830206164647265737360b81b60448201526064016105cc565b6040518060800160405280896001600160a01b0316815260200188815260200187878080601f016020809104026020016040519081016040528093929190818152602001838380828437600092019190915250505090825250604080516020601f88018190048102820181019092528681529181019190879087908190840183828082843760009201829052509390945250506001600160a01b038b8116825260096020908152604092839020855181546001600160a01b03191693169290921782558481015160018301559184015180519193506113e79260028501929101906145fd565b50606082015180516114039160038401916020909101906145fd565b50905050876001600160a01b0316336001600160a01b03167f2899f951603074b4527d7184faf633e100d439bd609ac14a868f4cbaf63a4af28989898989604051611452959493929190615689565b60405180910390a36001600160a01b03808916600090815260096020526040902054169150509695505050505050565b6114af604051806060016040528060006001600160a01b0316815260200160608152602001606081525090565b6001600160a01b038083166000908152600a602090815260409182902082516060810190935280549093168252600183018054929392918401916114f290615891565b80601f016020809104026020016040519081016040528092919081815260200182805461151e90615891565b801561156b5780601f106115405761010080835404028352916020019161156b565b820191906000526020600020905b81548152906001019060200180831161154e57829003601f168201915b5050505050815260200160028201805461158490615891565b80601f01602080910402602001604051908101604052809291908181526020018280546115b090615891565b80156115fd5780601f106115d2576101008083540402835291602001916115fd565b820191906000526020600020905b8154815290600101906020018083116115e057829003601f168201915b5050505050815250509050919050565b60008281526007602052604090206001015461162981336130d8565b61099483836132c8565b6001600160a01b03811633146116a35760405162461bcd60e51b815260206004820152602f60248201527f416363657373436f6e74726f6c3a2063616e206f6e6c792072656e6f756e636560448201526e103937b632b9903337b91039b2b63360891b60648201526084016105cc565b6109ca828261334e565b600080516020615ee98339815191526116c681336130d8565b816001600160a01b038116158015906116f957506001600160a01b03808216600081815260096020526040902054909116145b6117155760405162461bcd60e51b81526004016105cc90615564565b6001600160a01b038084166000908152600a60205260409020548491161561176d5760405162461bcd60e51b815260206004820152600b60248201526a34b99030902237b1ba37b960a91b60448201526064016105cc565b6001600160a01b038085166000908152600b6020526040902054859116156117c95760405162461bcd60e51b815260206004820152600f60248201526e1a5cc818481c1a185c9b5858da5cdd608a1b60448201526064016105cc565b6001600160a01b038516600090815260096020526040812080546001600160a01b031916815560018101829055906118046002830182614715565b611812600383016000614715565b50506040516001600160a01b0386169033907f1c8d73beffb6c2485595977dbefb2a4971542306c173c4a82361342d3fa5bb6890600090a35050505050565b61099483838360405180602001604052806000815250611f79565b611875336109d3565b6118da5760405162461bcd60e51b815260206004820152603060248201527f4552433732314275726e61626c653a2063616c6c6572206973206e6f74206f7760448201526f1b995c881b9bdc88185c1c1c9bdd995960821b60648201526084016105cc565b6118e3816133b5565b50565b6000818152600260205260408120546001600160a01b03168061055c5760405162461bcd60e51b815260206004820152602960248201527f4552433732313a206f776e657220717565727920666f72206e6f6e657869737460448201526832b73a103a37b5b2b760b91b60648201526084016105cc565b600080516020615ee983398151915261197681336130d8565b6109ca600080516020615ee98339815191528361160d565b60006001600160a01b0382166119f95760405162461bcd60e51b815260206004820152602a60248201527f4552433732313a2062616c616e636520717565727920666f7220746865207a65604482015269726f206164647265737360b01b60648201526084016105cc565b506001600160a01b031660009081526003602052604090205490565b6000600080516020615ee9833981519152611a3081336130d8565b866001600160a01b03811615801590611a6357506001600160a01b03808216600081815260096020526040902054909116145b611a7f5760405162461bcd60e51b81526004016105cc90615564565b611a97600080516020615c3b8339815191528961160d565b6040518060600160405280896001600160a01b0316815260200188888080601f016020809104026020016040519081016040528093929190818152602001838380828437600092019190915250505090825250604080516020601f89018190048102820181019092528781529181019190889088908190840183828082843760009201829052509390945250506001600160a01b038b81168252600b60209081526040909220845181546001600160a01b0319169216919091178155838201518051919350611b6d9260018501929101906145fd565b5060408201518051611b899160028401916020909101906145fd565b50905050876001600160a01b0316336001600160a01b03167f88924f5ec9289c74e3328802e5f6c2bd0fa722d1be9a703f649ec615e52839b289898989604051611bd6949392919061547c565b60405180910390a36001600160a01b038089166000908152600b6020526040902054169250505095945050505050565b611c33604051806060016040528060006001600160a01b0316815260200160608152602001606081525090565b6001600160a01b038083166000908152600b602090815260409182902082516060810190935280549093168252600183018054929392918401916114f290615891565b60009182526007602090815260408084206001600160a01b0393909316845291905290205460ff1690565b60606001805461076b90615891565b600080516020615ee9833981519152611cc981336130d8565b816001600160a01b03811615801590611cfc57506001600160a01b038082166000818152600a6020526040902054909116145b611d375760405162461bcd60e51b815260206004820152600c60248201526b3737ba1030903237b1ba37b960a11b60448201526064016105cc565b611d4f600080516020615d6983398151915284612d4c565b6001600160a01b0383166000908152600a6020526040812080546001600160a01b031916815590611d836001830182614715565b611d91600283016000614715565b50506040516001600160a01b0384169033907fa8e594181f47a35fece8945fdb513d77e8438e73821eeea250a5db0b9286dd3d90600090a3505050565b611dd661474f565b6001600160a01b038083166000908152600960209081526040918290208251608081018452815490941684526001810154918401919091526002810180549192840191611e2290615891565b80601f0160208091040260200160405190810160405280929190818152602001828054611e4e90615891565b8015611e9b5780601f10611e7057610100808354040283529160200191611e9b565b820191906000526020600020905b815481529060010190602001808311611e7e57829003601f168201915b5050505050815260200160038201805461158490615891565b6001600160a01b038216331415611f0d5760405162461bcd60e51b815260206004820152601960248201527f4552433732313a20617070726f766520746f2063616c6c65720000000000000060448201526064016105cc565b3360008181526005602090815260408083206001600160a01b03871680855290835292819020805460ff191686151590811790915590519081529192917f17307eab39ab6107e8899845ad3d59bd9653f200f220920489ca2b5937696c31910160405180910390a35050565b611f8333836131aa565b611f9f5760405162461bcd60e51b81526004016105cc90615513565b611fab84848484613545565b50505050565b600080516020615d69833981519152611fca81336130d8565b836001600160a01b03811615801590611ffd57506001600160a01b03808216600081815260096020526040902054909116145b6120195760405162461bcd60e51b81526004016105cc90615564565b336001600160a01b03861614156120655760405162461bcd60e51b815260206004820152601060248201526f36b4b73a103a37903cb7bab939b2b63360811b60448201526064016105cc565b612070601485613578565b6120ab5760405162461bcd60e51b815260206004820152600c60248201526b6b657920746f6f206c6f6e6760a01b60448201526064016105cc565b6120b6603e84613578565b6120f35760405162461bcd60e51b815260206004820152600e60248201526d76616c756520746f6f206c6f6e6760901b60448201526064016105cc565b60006120fe60085490565b905061210e600880546001019055565b61211886826135e3565b60405180610100016040528042815260200161213388611dce565b815260200161214133611dce565b8152604080516080810182526000808252602082810182905283518082018552828152838501528351808201855291825260608301919091528301520161218733611482565b8152604080516060810182526000808252825160208181018552828252838101919091528351808201855291825282840191909152830152016121c9876157b3565b81526020016121d7866157b3565b90526000828152600c6020908152604091829020835181558382015180516001830180546001600160a01b0319166001600160a01b0390921691909117815581840151600284015593810151805192949193919261223b92600387019201906145fd565b50606082015180516122579160038401916020909101906145fd565b50505060408281015180516005840180546001600160a01b0319166001600160a01b039092169190911781556020808301516006860155928201518051929391926122a892600787019201906145fd565b50606082015180516122c49160038401916020909101906145fd565b505050606082015180516009830180546001600160a01b0319166001600160a01b03909216919091178155602080830151600a8501556040830151805161231192600b87019201906145fd565b506060820151805161232d9160038401916020909101906145fd565b50505060808201518051600d830180546001600160a01b0319166001600160a01b03909216919091178155602080830151805161237092600e87019201906145fd565b506040820151805161238c9160028401916020909101906145fd565b50505060a082015180516010830180546001600160a01b0319166001600160a01b0390921691909117815560208083015180516123cf92601187019201906145fd565b50604082015180516123eb9160028401916020909101906145fd565b50505060c0820151612403906013830190600c614780565b5060e082015161241990601f830190600c614780565b50506040518291506001600160a01b0388169033907fe46b50d0a0bf8b2bd44aa8a4e4dd346ba0e8b35d8a438c6ce48d1910401b302390600090a4505050505050565b6000818152600260205260409020546060906001600160a01b03166124b75760405162461bcd60e51b81526020600482015260116024820152703737b732bc34b9ba32b73a103a37b5b2b760791b60448201526064016105cc565b61055c826124c361075c565b6124cb611ca1565b6000868152600c60209081526040918290208251610100810184528154815283516080810185526001830180546001600160a01b03168252600284015482860152600384018054939694958701949293919284019161252990615891565b80601f016020809104026020016040519081016040528092919081815260200182805461255590615891565b80156125a25780601f10612577576101008083540402835291602001916125a2565b820191906000526020600020905b81548152906001019060200180831161258557829003601f168201915b505050505081526020016003820180546125bb90615891565b80601f01602080910402602001604051908101604052809291908181526020018280546125e790615891565b80156126345780601f1061260957610100808354040283529160200191612634565b820191906000526020600020905b81548152906001019060200180831161261757829003601f168201915b5050505050815250508152602001600582016040518060800160405290816000820160009054906101000a90046001600160a01b03166001600160a01b03166001600160a01b031681526020016001820154815260200160028201805461269a90615891565b80601f01602080910402602001604051908101604052809291908181526020018280546126c690615891565b80156127135780601f106126e857610100808354040283529160200191612713565b820191906000526020600020905b8154815290600101906020018083116126f657829003601f168201915b5050505050815260200160038201805461272c90615891565b80601f016020809104026020016040519081016040528092919081815260200182805461275890615891565b80156127a55780601f1061277a576101008083540402835291602001916127a5565b820191906000526020600020905b81548152906001019060200180831161278857829003601f168201915b5050505050815250508152602001600982016040518060800160405290816000820160009054906101000a90046001600160a01b03166001600160a01b03166001600160a01b031681526020016001820154815260200160028201805461280b90615891565b80601f016020809104026020016040519081016040528092919081815260200182805461283790615891565b80156128845780601f1061285957610100808354040283529160200191612884565b820191906000526020600020905b81548152906001019060200180831161286757829003601f168201915b5050505050815260200160038201805461289d90615891565b80601f01602080910402602001604051908101604052809291908181526020018280546128c990615891565b80156129165780601f106128eb57610100808354040283529160200191612916565b820191906000526020600020905b8154815290600101906020018083116128f957829003601f168201915b5050509190925250505081526040805160608101909152600d830180546001600160a01b03168252600e840180546020948501948401919061295790615891565b80601f016020809104026020016040519081016040528092919081815260200182805461298390615891565b80156129d05780601f106129a5576101008083540402835291602001916129d0565b820191906000526020600020905b8154815290600101906020018083116129b357829003601f168201915b505050505081526020016002820180546129e990615891565b80601f0160208091040260200160405190810160405280929190818152602001828054612a1590615891565b8015612a625780601f10612a3757610100808354040283529160200191612a62565b820191906000526020600020905b815481529060010190602001808311612a4557829003601f168201915b50505091909252505050815260408051606081019091526010830180546001600160a01b0316825260118401805460209485019484019190612aa390615891565b80601f0160208091040260200160405190810160405280929190818152602001828054612acf90615891565b8015612b1c5780601f10612af157610100808354040283529160200191612b1c565b820191906000526020600020905b815481529060010190602001808311612aff57829003601f168201915b50505050508152602001600282018054612b3590615891565b80601f0160208091040260200160405190810160405280929190818152602001828054612b6190615891565b8015612bae5780601f10612b8357610100808354040283529160200191612bae565b820191906000526020600020905b815481529060010190602001808311612b9157829003601f168201915b50505091909252505050815260408051610180810190915260209091019060138301600c6000835b82821015612c79578382018054612bec90615891565b80601f0160208091040260200160405190810160405280929190818152602001828054612c1890615891565b8015612c655780601f10612c3a57610100808354040283529160200191612c65565b820191906000526020600020905b815481529060010190602001808311612c4857829003601f168201915b505050505081526020019060010190612bd6565b50505090825250604080516101808101909152602090910190601f8301600c6000835b82821015612d3f578382018054612cb290615891565b80601f0160208091040260200160405190810160405280929190818152602001828054612cde90615891565b8015612d2b5780601f10612d0057610100808354040283529160200191612d2b565b820191906000526020600020905b815481529060010190602001808311612d0e57829003601f168201915b505050505081526020019060010190612c9c565b50505050815250506135fd565b600082815260076020526040902060010154612d6881336130d8565b610994838361334e565b600080516020615ee9833981519152612d8b81336130d8565b816001600160a01b03811615801590612dbe57506001600160a01b038082166000818152600b6020526040902054909116145b612dfd5760405162461bcd60e51b815260206004820152601060248201526f1b9bdd0818481c1a185c9b5858da5cdd60821b60448201526064016105cc565b612e15600080516020615c3b83398151915284612d4c565b6001600160a01b0383166000908152600b6020526040812080546001600160a01b031916815590612e496001830182614715565b612e57600283016000614715565b50506040516001600160a01b0384169033907f766e9bc852164ffe6a52a05718450df1911430b9b92597bea4e051b3b1af8dd890600090a3505050565b6001600160a01b03918216600090815260056020908152604080832093909416825291909152205460ff1690565b80546001019055565b60606000612eda83600261577d565b612ee5906002615751565b6001600160401b03811115612f0a57634e487b7160e01b600052604160045260246000fd5b6040519080825280601f01601f191660200182016040528015612f34576020820181803683370190505b509050600360fc1b81600081518110612f5d57634e487b7160e01b600052603260045260246000fd5b60200101906001600160f81b031916908160001a905350600f60fb1b81600181518110612f9a57634e487b7160e01b600052603260045260246000fd5b60200101906001600160f81b031916908160001a9053506000612fbe84600261577d565b612fc9906001615751565b90505b600181111561305d576f181899199a1a9b1b9c1cb0b131b232b360811b85600f166010811061300b57634e487b7160e01b600052603260045260246000fd5b1a60f81b82828151811061302f57634e487b7160e01b600052603260045260246000fd5b60200101906001600160f81b031916908160001a90535060049490941c936130568161587a565b9050612fcc565b5083156130ac5760405162461bcd60e51b815260206004820181905260248201527f537472696e67733a20686578206c656e67746820696e73756666696369656e7460448201526064016105cc565b9392505050565b60006001600160e01b03198216637965db0b60e01b148061055c575061055c82613a87565b6130e28282611c76565b6109ca576130fa816001600160a01b03166014612ecb565b613105836020612ecb565b6040516020016131169291906153ca565b60408051601f198184030181529082905262461bcd60e51b82526105cc916004016154ae565b600081815260046020526040902080546001600160a01b0319166001600160a01b0384169081179091558190613171826118e6565b6001600160a01b03167f8c5be1e5ebec7d5bd14f71427d1e84f3dd0314c0f7b2291e5b200ac8c7c3b92560405160405180910390a45050565b6000818152600260205260408120546001600160a01b03166132235760405162461bcd60e51b815260206004820152602c60248201527f4552433732313a206f70657261746f7220717565727920666f72206e6f6e657860448201526b34b9ba32b73a103a37b5b2b760a11b60648201526084016105cc565b600061322e836118e6565b9050806001600160a01b0316846001600160a01b031614806132695750836001600160a01b031661325e846107ee565b6001600160a01b0316145b8061327957506132798185612e94565b949350505050565b33156109945760405162461bcd60e51b81526020600482015260166024820152757278732061726520756e7472616e7366657261626c6560501b60448201526064016105cc565b6132d28282611c76565b6109ca5760008281526007602090815260408083206001600160a01b03851684529091529020805460ff1916600117905561330a3390565b6001600160a01b0316816001600160a01b0316837f2f8788117e7eff1d82e926ec794901d17c78024a50270940304540a733656f0d60405160405180910390a45050565b6133588282611c76565b156109ca5760008281526007602090815260408083206001600160a01b0385168085529252808320805460ff1916905551339285917ff6391f5c32d9c69d2a47ea670b442974b53935d1edc7fd64eb21e047a839171b9190a45050565b600080516020615c3b8339815191526133ce81336130d8565b336133d8836107ee565b6001600160a01b031614806133fa57506133fa6133f4836118e6565b33612e94565b6134465760405162461bcd60e51b815260206004820152601760248201527f706861726d6163697374206e6f7420617070726f76656400000000000000000060448201526064016105cc565b61344f33611dce565b6000838152600c602090815260409182902083516009820180546001600160a01b0319166001600160a01b0390921691909117815584830151600a8301559284015180516134a793600b9093019291909101906145fd565b50606082015180516134c39160038401916020909101906145fd565b509050506134d033611c06565b6000838152600c6020908152604090912082516010820180546001600160a01b0319166001600160a01b03909216919091178155838301518051919361351c93601101929101906145fd565b50604082015180516135389160028401916020909101906145fd565b509050506109ca82613ad7565b613550848484613281565b61355c84848484613b17565b611fab5760405162461bcd60e51b81526004016105cc906154c1565b6000805b600c8110156135d957838382600c81106135a657634e487b7160e01b600052603260045260246000fd5b6020028101906135b691906156b6565b9050106135c757600091505061055c565b806135d1816158cc565b91505061357c565b5060019392505050565b6109ca828260405180602001604052806000815250613c21565b8051604051630b11527160e31b8152600481019190915260609060009073__DateTime______________________________9063588a93889060240160006040518083038186803b15801561365157600080fd5b505af4158015613665573d6000803e3d6000fd5b505050506040513d6000823e601f3d908101601f1916820160405261368d9190810190614c55565b9050600073__DateTime______________________________63588a93888560200151602001516040518263ffffffff1660e01b81526004016136d291815260200190565b60006040518083038186803b1580156136ea57600080fd5b505af41580156136fe573d6000803e3d6000fd5b505050506040513d6000823e601f3d908101601f191682016040526137269190810190614c55565b90506137306147cc565b60408051808201825260098152683d913730b6b2911d1160b91b602080830191909152908352828101899052815180830183526002815261202360f01b918101919091529082015261378188613c54565b606082015260408051808201909152600c81526b11161139bcb6b137b6111d1160a11b602082015281600460200201528581600560200201819052506040518060600160405280602c8152602001615c80602c913960c082015260408051606081019091526034808252615e63602083013960e082015260208501516040015181600860200201819052506040518060600160405280602e8152602001615ebb602e9139610120820152610140810182905260408051606081019091526028808252615cac6020830139610160820152604085810151810151610180830152805160608101909152602a808252615cff60208301396101a082015260808501516020015181600e60200201819052506040518060600160405280602b8152602001615cd4602b913961020082015260808501516040908101516102208301528051606081019091526024808252615e9760208301396102408201526102608101839052604080518082019091526003815262227d5d60e81b60208201528160146020020181905250604051806060016040528060258152602001615c5b602591396102a082015261393b613936898988613d6d565b6142ad565b6102c08201526040805180820182526002815261227d60f01b6020808301919091526102e0840191909152825181840151838501516060860151608087015160a088015160c089015160e08a01516101008b0151995160009a6139a09a909101614f22565b60408051808303601f19018152908290526101208401516101408501516101608601516101808701516101a08801516101c08901516101e08a01516102008b01519799506139f3988a9890602001614f22565b60408051808303601f19018152908290526102208401516102408501516102608601516102808701516102a08801516102c08901516102e08a0151969850613a4097899790602001614e7d565b6040516020818303038152906040529050613a5a816142ad565b604051602001613a6a9190615385565b604051602081830303815290604052945050505050949350505050565b60006001600160e01b031982166380ac58cd60e01b1480613ab857506001600160e01b03198216635b5e139f60e01b145b8061055c57506301ffc9a760e01b6001600160e01b031983161461055c565b613ae081614420565b60008181526006602052604090208054613af990615891565b1590506118e35760008181526006602052604081206118e391614715565b60006001600160a01b0384163b15613c1957604051630a85bd0160e11b81526001600160a01b0385169063150b7a0290613b5b90339089908890889060040161543f565b602060405180830381600087803b158015613b7557600080fd5b505af1925050508015613ba5575060408051601f3d908101601f19168201909252613ba291810190614c39565b60015b613bff573d808015613bd3576040519150601f19603f3d011682016040523d82523d6000602084013e613bd8565b606091505b508051613bf75760405162461bcd60e51b81526004016105cc906154c1565b805181602001fd5b6001600160e01b031916630a85bd0160e11b149050613279565b506001613279565b613c2b83836144bb565b613c386000848484613b17565b6109945760405162461bcd60e51b81526004016105cc906154c1565b606081613c785750506040805180820190915260018152600360fc1b602082015290565b8160005b8115613ca25780613c8c816158cc565b9150613c9b9050600a83615769565b9150613c7c565b6000816001600160401b03811115613cca57634e487b7160e01b600052604160045260246000fd5b6040519080825280601f01601f191660200182016040528015613cf4576020820181803683370190505b5090505b841561327957613d0960018361579c565b9150613d16600a866158e7565b613d21906030615751565b60f81b818381518110613d4457634e487b7160e01b600052603260045260246000fd5b60200101906001600160f81b031916908160001a905350613d66600a86615769565b9450613cf8565b8051604051630b11527160e31b8152600481019190915260609060009073__DateTime______________________________9063588a93889060240160006040518083038186803b158015613dc157600080fd5b505af4158015613dd5573d6000803e3d6000fd5b505050506040513d6000823e601f3d908101601f19168201604052613dfd9190810190614c55565b9050600073__DateTime______________________________63588a93888560200151602001516040518263ffffffff1660e01b8152600401613e4291815260200190565b60006040518083038186803b158015613e5a57600080fd5b505af4158015613e6e573d6000803e3d6000fd5b505050506040513d6000823e601f3d908101601f19168201604052613e969190810190614c55565b9050613ea06147f4565b6040518061032001604052806102e781526020016159546102e7913981526040805160208101909152600080825261011891905b600c811015613f8a578760c0015181600c8110613f0157634e487b7160e01b600052603260045260246000fd5b6020020151805190925015613f6b57613f1983613c54565b82604051602001613f2b9291906150fb565b60408051601f1981840301815291905284613f47836001615751565b601e8110613f6557634e487b7160e01b600052603260045260246000fd5b60200201525b613f76601e84615751565b925080613f82816158cc565b915050613ed4565b50604051806060016040528060308152602001615f09603091396101a0840152602087015160408101516060820151915190918691613fd3906001600160a01b03166014612ecb565b604051602001613fe69493929190615197565b60408051808303601f190181529190526101c084015284886140078b613c54565b604051602001614019939291906152a0565b60408051808303601f190181529181526101e08501919091528781015181015160808901516020810151928101519051919291614060906001600160a01b03166014612ecb565b6040516020016140739493929190614fe3565b60408051808303601f19018152919052610200840152610118915060005b600c811015614147578760e0015181600c81106140be57634e487b7160e01b600052603260045260246000fd5b6020020151805190925015614128576140d683613c54565b826040516020016140e892919061516a565b60408051601f1981840301815291905284614104836011615751565b601e811061412257634e487b7160e01b600052603260045260246000fd5b60200201525b614133601e84615751565b92508061413f816158cc565b915050614091565b5060405180610100016040528060da8152602001615d8960da91396103a084015282516020808501516040808701516060880151608089015160a08a015160c08b015160e08c015195516000996141a2999098979101614e7d565b60408051808303601f19018152908290526101008601516101208701516101408801516101608901516101808a01516101a08b01516101c08c01516101e08d01519799506141f5988a9890602001614f22565b60408051808303601f19018152908290526102008601516102208701516102408801516102608901516102808a01516102a08b01516102c08c01516102e08d0151979950614248988a9890602001614f22565b60408051808303601f19018152908290526103008601516103208701516103408801516103608901516103808a01516103a08b015195975061428f96889690602001614deb565b60408051808303601f190181529190529a9950505050505050505050565b60608151600014156142cd57505060408051602081019091526000815290565b6000604051806060016040528060408152602001615d2960409139905060006003845160026142fc9190615751565b6143069190615769565b61431190600461577d565b90506000614320826020615751565b6001600160401b0381111561434557634e487b7160e01b600052604160045260246000fd5b6040519080825280601f01601f19166020018201604052801561436f576020820181803683370190505b509050818152600183018586518101602084015b818310156143db576003830192508251603f8160121c168501518253600182019150603f81600c1c168501518253600182019150603f8160061c168501518253600182019150603f8116850151825350600101614383565b6003895106600181146143f5576002811461440657614412565b613d3d60f01b600119830152614412565b603d60f81b6000198301525b509398975050505050505050565b600061442b826118e6565b905061443860008361313c565b6001600160a01b038116600090815260036020526040812080546001929061446190849061579c565b909155505060008281526002602052604080822080546001600160a01b0319169055518391906001600160a01b038416907fddf252ad1be2c89b69c2b068fc378daa952ba7f163c4a11628f55a4df523b3ef908390a45050565b6001600160a01b0382166145115760405162461bcd60e51b815260206004820181905260248201527f4552433732313a206d696e7420746f20746865207a65726f206164647265737360448201526064016105cc565b6000818152600260205260409020546001600160a01b0316156145765760405162461bcd60e51b815260206004820152601c60248201527f4552433732313a20746f6b656e20616c7265616479206d696e7465640000000060448201526064016105cc565b6001600160a01b038216600090815260036020526040812080546001929061459f908490615751565b909155505060008181526002602052604080822080546001600160a01b0319166001600160a01b03861690811790915590518392907fddf252ad1be2c89b69c2b068fc378daa952ba7f163c4a11628f55a4df523b3ef908290a45050565b82805461460990615891565b90600052602060002090601f01602090048101928261462b5760008555614671565b82601f1061464457805160ff1916838001178555614671565b82800160010185558215614671579182015b82811115614671578251825591602001919060010190614656565b5061467d92915061480f565b5090565b6040518061010001604052806000815260200161469c61474f565b81526020016146a961474f565b81526020016146b661474f565b815260408051606080820183526000825260208281018290529282015291019081526040805160608082018352600082526020828101829052928201529101908152602001614703614824565b8152602001614710614824565b905290565b50805461472190615891565b6000825580601f10614731575050565b601f0160209004906000526020600020908101906118e3919061480f565b604051806080016040528060006001600160a01b031681526020016000815260200160608152602001606081525090565b82600c81019282156147c0579160200282015b828111156147c057825180516147b09184916020909101906145fd565b5091602001919060010190614793565b5061467d92915061483f565b6040518061030001604052806018905b60608152602001906001900390816147dc5790505090565b604080516103c0810190915260608152601d602082016147dc565b5b8082111561467d5760008155600101614810565b60408051610180810190915260608152600b602082016147dc565b8082111561467d5760006148538282614715565b5060010161483f565b600061486f61486a8461572a565b6156fa565b905082815283838301111561488357600080fd5b828260208301376000602084830101529392505050565b80356001600160a01b03811681146148b157600080fd5b919050565b80610180810183101561055c57600080fd5b60008083601f8401126148d9578182fd5b5081356001600160401b038111156148ef578182fd5b60208301915083602082850101111561490757600080fd5b9250929050565b60006020828403121561491f578081fd5b6130ac8261489a565b6000806040838503121561493a578081fd5b6149438361489a565b91506149516020840161489a565b90509250929050565b60008060006060848603121561496e578081fd5b6149778461489a565b92506149856020850161489a565b9150604084013590509250925092565b600080600080608085870312156149aa578081fd5b6149b38561489a565b93506149c16020860161489a565b92506040850135915060608501356001600160401b038111156149e2578182fd5b8501601f810187136149f2578182fd5b614a018782356020840161485c565b91505092959194509250565b600080600060608486031215614a21578283fd5b614a2a8461489a565b925060208401356001600160401b0380821115614a45578384fd5b614a51878388016148b6565b93506040860135915080821115614a66578283fd5b50614a73868287016148b6565b9150509250925092565b60008060408385031215614a8f578182fd5b614a988361489a565b915060208301358015158114614aac578182fd5b809150509250929050565b600080600080600060608688031215614ace578081fd5b614ad78661489a565b945060208601356001600160401b0380821115614af2578283fd5b614afe89838a016148c8565b90965094506040880135915080821115614b16578283fd5b50614b23888289016148c8565b969995985093965092949392505050565b60008060408385031215614b46578182fd5b614b4f8361489a565b946020939093013593505050565b60008060008060008060808789031215614b75578384fd5b614b7e8761489a565b95506020870135945060408701356001600160401b0380821115614ba0578586fd5b614bac8a838b016148c8565b90965094506060890135915080821115614bc4578283fd5b50614bd189828a016148c8565b979a9699509497509295939492505050565b600060208284031215614bf4578081fd5b5035919050565b60008060408385031215614c0d578182fd5b823591506149516020840161489a565b600060208284031215614c2e578081fd5b81356130ac8161593d565b600060208284031215614c4a578081fd5b81516130ac8161593d565b600060208284031215614c66578081fd5b81516001600160401b03811115614c7b578182fd5b8201601f81018413614c8b578182fd5b8051614c9961486a8261572a565b818152856020838501011115614cad578384fd5b614cbe82602083016020860161584e565b95945050505050565b600082610180810183835b600c811015614d01578383038752614ceb838351614d0c565b6020978801979093509190910190600101614cd2565b509095945050505050565b60008151808452614d2481602086016020860161584e565b601f01601f19169290920160200192915050565b81835281816020850137506000828201602090810191909152601f909101601f19169091010190565b60018060a01b0381511682526000602082015160606020850152614d886060850182614d0c565b905060408301518482036040860152614cbe8282614d0c565b60018060a01b038151168252602081015160208301526000604082015160806040850152614dd26080850182614d0c565b905060608301518482036060860152614cbe8282614d0c565b600088516020614dfe8285838e0161584e565b895191840191614e118184848e0161584e565b8951920191614e238184848d0161584e565b8851920191614e358184848c0161584e565b8751920191614e478184848b0161584e565b8651920191614e598184848a0161584e565b8551920191614e6b818484890161584e565b919091019a9950505050505050505050565b600089516020614e908285838f0161584e565b8a5191840191614ea38184848f0161584e565b8a51920191614eb58184848e0161584e565b8951920191614ec78184848d0161584e565b8851920191614ed98184848c0161584e565b8751920191614eeb8184848b0161584e565b8651920191614efd8184848a0161584e565b8551920191614f0f818484890161584e565b919091019b9a5050505050505050505050565b60008a51614f34818460208f0161584e565b8a51614f468183860160208f0161584e565b8a519184010190614f5b818360208e0161584e565b8951614f6d8183850160208e0161584e565b8951929091010190614f83818360208c0161584e565b8751614f958183850160208c0161584e565b8751929091010190614fab818360208a0161584e565b8551614fbd8183850160208a0161584e565b8551929091010190614fd381836020880161584e565b019b9a5050505050505050505050565b751e3a32bc3a103c1e9118991c11103c9e911b1c98111f60511b81528451600090615015816016850160208a0161584e565b661e17ba32bc3a1f60c91b6016918401918201819052751e3a32bc3a103c1e9118991c11103c9e911b9918111f60511b601d830152865161505d816033850160208b0161584e565b60339201918201819052751e3a32bc3a103c1e9118991c11103c9e911b9a98111f60511b603a8301528551615099816050850160208a0161584e565b6050920191820152751e3a32bc3a103c1e9118991c11103c9e911b9c18111f60511b605782015283516150d381606d84016020880161584e565b6150ef606d82840101661e17ba32bc3a1f60c91b815260070190565b98975050505050505050565b701e3a32bc3a103c1e9118989c11103c9e9160791b8152825160009061512881601185016020880161584e565b61111f60f11b601191840191820152835161514a81601384016020880161584e565b661e17ba32bc3a1f60c91b60139290910191820152601a01949350505050565b701e3a32bc3a103c1e9118991c11103c9e9160791b8152825160009061512881601185016020880161584e565b741e3a32bc3a103c1e9118991c11103c9e911998111f60591b815284516000906151c8816015850160208a0161584e565b661e17ba32bc3a1f60c91b6015918401918201819052741e3a32bc3a103c1e9118991c11103c9e911b18111f60591b601c830152865161520f816031850160208b0161584e565b60319201918201819052741e3a32bc3a103c1e9118991c11103c9e911c98111f60591b6038830152855161524a81604d850160208a0161584e565b604d920191820152751e3a32bc3a103c1e9118991c11103c9e91189918111f60511b6054820152835161528481606a84016020880161584e565b6150ef606a82840101661e17ba32bc3a1f60c91b815260070190565b751e3a32bc3a103c1e9118991c11103c9e911b1b18111f60511b815283516000906152d281601685016020890161584e565b7f3c2f746578743e3c7465787420783d223538352220793d2236363022207465786016918401918201527f742d616e63686f723d22656e642220666f6e742d7374796c653d226974616c6960368201526231911f60e91b6056820152845161534181605984016020890161584e565b61011960f51b60599290910191820152835161536481605b84016020880161584e565b661e17ba32bc3a1f60c91b605b929091019182015260620195945050505050565b7f646174613a6170706c69636174696f6e2f6a736f6e3b6261736536342c0000008152600082516153bd81601d85016020870161584e565b91909101601d0192915050565b7f416363657373436f6e74726f6c3a206163636f756e742000000000000000000081526000835161540281601785016020880161584e565b7001034b99036b4b9b9b4b733903937b6329607d1b601791840191820152835161543381602884016020880161584e565b01602801949350505050565b6001600160a01b038581168252841660208201526040810183905260806060820181905260009061547290830184614d0c565b9695505050505050565b604081526000615490604083018688614d38565b82810360208401526154a3818587614d38565b979650505050505050565b6020815260006130ac6020830184614d0c565b60208082526032908201527f4552433732313a207472616e7366657220746f206e6f6e20455243373231526560408201527131b2b4bb32b91034b6b83632b6b2b73a32b960711b606082015260800190565b60208082526031908201527f4552433732313a207472616e736665722063616c6c6572206973206e6f74206f6040820152701ddb995c881b9bdc88185c1c1c9bdd9959607a1b606082015260800190565b6020808252600d908201526c1b9bdd0818481cdd589a9958dd609a1b604082015260600190565b6020815260006130ac6020830184614d61565b6020815281516020820152600060208301516101008060408501526155c7610120850183614da1565b91506040850151601f19808685030160608701526155e58483614da1565b935060608701519150808685030160808701526156028483614da1565b935060808701519150808685030160a087015261561f8483614d61565b935060a08701519150808685030160c087015261563c8483614d61565b935060c08701519150808685030160e08701526156598483614cc7565b935060e08701519150808685030183870152506154728382614cc7565b6020815260006130ac6020830184614da1565b8581526060602082015260006156a3606083018688614d38565b82810360408401526150ef818587614d38565b6000808335601e198436030181126156cc578283fd5b8301803591506001600160401b038211156156e5578283fd5b60200191503681900382131561490757600080fd5b604051601f8201601f191681016001600160401b038111828210171561572257615722615927565b604052919050565b60006001600160401b0382111561574357615743615927565b50601f01601f191660200190565b60008219821115615764576157646158fb565b500190565b60008261577857615778615911565b500490565b6000816000190483118215151615615797576157976158fb565b500290565b6000828210156157ae576157ae6158fb565b500390565b60006040516101808082016001600160401b0383821081831117156157da576157da615927565b81604052839150853684880111156157f0578586fd5b8593505b600c8410156158435780358281111561580b578687fd5b870136601f82011261581b578687fd5b602061582b36833583850161485c565b855260019590950194938401939190910190506157f4565b509295945050505050565b60005b83811015615869578181015183820152602001615851565b83811115611fab5750506000910152565b600081615889576158896158fb565b506000190190565b600181811c908216806158a557607f821691505b602082108114156158c657634e487b7160e01b600052602260045260246000fd5b50919050565b60006000198214156158e0576158e06158fb565b5060010190565b6000826158f6576158f6615911565b500690565b634e487b7160e01b600052601160045260246000fd5b634e487b7160e01b600052601260045260246000fd5b634e487b7160e01b600052604160045260246000fd5b6001600160e01b0319811681146118e357600080fdfe3c73766720786d6c6e733d22687474703a2f2f7777772e77332e6f72672f323030302f7376672220666f6e742d66616d696c793d2273616e732d73657269662220666f6e742d73697a653d223132707822207072657365727665417370656374526174696f3d22784d696e594d696e206d656574222076696577426f783d22302030203630302038303022207374796c653d226261636b67726f756e643a7768697465223e3c672066696c6c3d226e6f6e6522207374726f6b653d222330303022207374726f6b652d77696474683d22317078223e3c7265637420783d22322220793d2232222077696474683d2235393622206865696768743d22373936222f3e3c7061746820643d226d31352031333568353730222f3e3c7061746820643d226d31352036333068353730222f3e3c2f673e3c6720666f6e742d73697a653d2238387078223e3c7465787420783d2231302220793d22323135223e503c2f746578743e3c7465787420783d2233352220793d22323530223e583c2f746578743e3c2f673e3c6720746578742d616e63686f723d22656e64223e3c7465787420783d223131382220793d223330223e4e616d653c2f746578743e3c7465787420783d223131382220793d223630223e44617465206f662042697274683c2f746578743e3c7465787420783d223131382220793d223930223e416464726573733c2f746578743e3c7465787420783d223131382220793d22313230223e50617469656e742057616c6c65743c2f746578743e3c7465787420783d223131382220793d22363630223e446174653c2f746578743e3c7465787420783d223131382220793d22363930223e446f63746f72204e616d653c2f746578743e3c7465787420783d223131382220793d22373230223e4d443c2f746578743e3c7465787420783d223131382220793d22373530223e4c6963656e73653c2f746578743e3c7465787420783d223131382220793d22373830223e446f63746f722057616c6c65743c2f746578743e3c11d16cbaffd01df69ce1c404f6340ee057498f5f00246190ea54220576a8482c22696d616765223a2022646174613a696d6167652f7376672b786d6c3b6261736536342c222c226465736372697074696f6e223a224f6e2d436861696e204e465420507265736372697074696f6e7322227d2c7b2274726169745f74797065223a22446f63746f72204e616d65222c2276616c7565223a22227d2c7b2274726169745f74797065223a22446f63746f72204c6963656e7365222c2276616c7565223a22227d2c7b2274726169745f74797065223a22446f63746f7220446567726565222c2276616c7565223a224142434445464748494a4b4c4d4e4f505152535455565758595a6162636465666768696a6b6c6d6e6f707172737475767778797a303132333435363738392b2f9f2df0fed2c77648de5860a4cc508cd0818c85b8b8a1ab4ceeef8d981c8956a63c2f673e3c67206f7061636974793d22302e36223e3c636972636c652066696c6c3d226461726b626c7565222063783d22353636222063793d223735342e342220723d22372e35222f3e3c706174682066696c6c3d227265642220643d226d3538302e342037363168346c2d31352c3234682d347a222f3e3c706174682066696c6c3d226461726b7265642220643d226d3536352e342037363168346c31352c3234682d347a222f3e3c706174682066696c6c3d22626c75652220643d226d353538203734397632346831357a222f3e3c2f673e3c2f7376673e2c2261747472696275746573223a5b7b2274726169745f74797065223a2250617469656e744e616d65222c2276616c7565223a22227d2c7b2274726169745f74797065223a2252582044617465222c2276616c7565223a22227d2c7b2274726169745f74797065223a2250617469656e7420426972746864617465222c2276616c7565223a22a49807205ce4d355092ef5a8a18f56e8913cf4a201fbe287825b095693c217753c2f673e3c6720666f6e742d66616d696c793d22436f75726965722220666f6e742d7765696768743d22626f6c64223ea2646970667358221220dc52b32996b21ec39e5d836f32a215f73015ef07d941f76e7e133f93b759f9a064736f6c63430008040033a49807205ce4d355092ef5a8a18f56e8913cf4a201fbe287825b095693c21775",
  "immutableReferences": {},
  "source": "// SPDX-License-Identifier: MIT\npragma solidity ^0.8.2;\n\nimport \"@openzeppelin/contracts/token/ERC721/ERC721.sol\";\nimport \"@openzeppelin/contracts/token/ERC721/extensions/ERC721URIStorage.sol\";\nimport \"@openzeppelin/contracts/token/ERC721/extensions/ERC721Burnable.sol\";\nimport \"@openzeppelin/contracts/access/AccessControl.sol\";\nimport \"@openzeppelin/contracts/utils/Counters.sol\";\n// import { Base64 } from \"base64-sol/base64.sol\";\nimport { RxStructs } from \"./libraries/RxStructs.sol\";\nimport { TokenURIDescriptor } from \"./libraries/TokenURIDescriptor.sol\";\n\n/// @title A NFT Prescription creator\n/// @author Matias Parij (@7i7o)\n/// @notice You can use this contract only as a MVP for minting Prescriptions\n/// @dev Features such as workplaces for doctors or pharmacists are for future iterations\ncontract Rx is ERC721, ERC721URIStorage, ERC721Burnable, AccessControl {\n\n    /// @notice Using OpenZeppelin's Counters for TokenId enumeration\n    using Counters for Counters.Counter;\n\n    /// @notice Role definition for Minter\n    bytes32 public constant ADMIN_ROLE = keccak256(\"ADMIN_ROLE\");\n    /// @notice Role definition for Minter\n    bytes32 public constant MINTER_ROLE = keccak256(\"MINTER_ROLE\");\n    /// @notice Role definition for Burner\n    bytes32 public constant BURNER_ROLE = keccak256(\"BURNER_ROLE\");\n\n    /// @notice Using OpenZeppelin's Counters for TokenId enumeration\n    /// @dev We increment the counter in the constructor to start Ids in 1, keeping Id 0 (default for\n    ///      uints in solidity) to signal that someone doesn't have any NFTs\n    Counters.Counter private _tokenIdCounter;\n\n    /** Begin of State Variables & Modifiers for final project */\n\n    uint256 constant MAX_KEY_LENGTH = 20;\n    uint256 constant MAX_VALUE_LENGTH = 62;\n    uint256 constant RX_LINES = 12; // Has to be same value as in RxStructs !!!\n\n    /// @notice this mapping holds all the subjects registered in the contract\n    mapping ( address => RxStructs.Subject ) private subjects;\n\n    /// @notice this mapping holds all the doctors registered in the contract\n    mapping ( address => RxStructs.Doctor ) private doctors;\n\n    /// @notice this mapping holds all the pharmacists registered in the contract\n    mapping ( address => RxStructs.Pharmacist ) private pharmacists;\n\n    /// @notice this mapping holds all the prescriptions minted in the contract\n    mapping (uint256 => RxStructs.RxData) private rxs;\n\n    /// @dev Modifier that checks that an account is actually a registered subject\n    modifier isSubject(address _subjectId) {\n        require( (_subjectId != address(0) && subjects[_subjectId].subjectId == _subjectId) ,\n                    'not a subject'\n                );\n        _;\n    }\n\n    /// @dev Modifier that checks that an account is a registered doctor\n    modifier isDoctor(address _subjectId) {\n        require( (_subjectId != address(0) && doctors[_subjectId].subjectId == _subjectId) ,\n                    'not a doctor'\n                );\n        _;\n    }\n\n    /// @dev Modifier that checks that an account is NOT a registered doctor\n    modifier isNotDoctor(address _subjectId) {\n        require( (doctors[_subjectId].subjectId == address(0)) ,\n                    'is a Doctor'\n                );\n        _;\n    }\n\n    /// @dev Modifier that checks that an account is a registered pharmacist\n    modifier isPharmacist(address _subjectId) {\n        require( (_subjectId != address(0) && pharmacists[_subjectId].subjectId == _subjectId) ,\n                    'not a pharmacist'\n                );\n        _;\n    }\n\n    /// @dev Modifier that checks that an account is NOT a registered pharmacist\n    modifier isNotPharmacist(address _subjectId) {\n        require( (pharmacists[_subjectId].subjectId == address(0)) ,\n                    'is a pharmacist'\n                );\n        _;\n    }\n\n    /// @notice Event to signal when a new Rx has been minted\n    /// @param sender address of the Doctor that minted the Rx\n    /// @param receiver address of the Subject that received the Rx minted\n    /// @param tokenId Id of the Token (Rx) that has been minted\n    event minted(address indexed sender, address indexed receiver, uint256 indexed tokenId);\n\n    /// @notice Event to signal when adding/replacing a Subject allowed to receive/hold NFT Prescriptions\n    /// @param sender is the address of the admin that set the Subject's data\n    /// @param _subjectId is the registered address of the subject (approved for holding NFT Prescriptions)\n    /// @param _birthDate is the subjects' date of birth, in seconds, from UNIX Epoch (1970-01-01)\n    /// @param _name is the subject's full name\n    /// @param _homeAddress is the subject's legal home address\n    event subjectDataSet(address indexed sender, address indexed _subjectId, uint256 _birthDate, string _name, string _homeAddress);\n\n    /// @notice Event to signal when adding/replacing a Doctor allowed to mint NFT Prescriptions\n    /// @param sender is the address of the admin that set the Doctor's data\n    /// @param _subjectId is the ethereum address for the doctor (same Id as the subject that holds this doctor's personal details)\n    /// @param _degree contains a string with the degree of the doctor\n    /// @param _license contains a string with the legal license of the doctor\n    event doctorDataSet(address indexed sender, address indexed _subjectId, string _degree, string _license);\n    \n    /// @notice Event to signal when adding/replacing a Pharmacist allowed to burn NFT Prescriptions\n    /// @param sender is the address of the admin that set the Pharmacist's data\n    /// @param _subjectId is the ethereum address for the pahrmacist (same Id as the subject that holds this pharmacist's personal details)\n    /// @param _degree contains a string with the degree of the pharmacist\n    /// @param _license contains a string with the legal license of the pharmacist\n    event pharmacistDataSet(address indexed sender, address indexed _subjectId, string _degree, string _license);\n\n    /// @notice Event to signal a removed Subject\n    /// @param sender is the address of the admin that removed the Subject\n    /// @param _subjectId is the registered address of the subject removed\n    event subjectRemoved(address indexed sender, address indexed _subjectId);\n\n    /// @notice Event to signal a removed Doctor\n    /// @param sender is the address of the admin that removed the Doctor\n    /// @param _subjectId is the registered address of the doctor removed\n    event doctorRemoved(address indexed sender, address indexed _subjectId);\n\n    /// @notice Event to signal a removed Pharmacist\n    /// @param sender is the address of the admin that removed the Pharmacist\n    /// @param _subjectId is the registered address of the pharmacist removed\n    event pharmacistRemoved(address indexed sender, address indexed _subjectId);\n\n    /** End of State Variables & Modifiers for final project */\n\n    /// @notice constructor for NFT Prescriptions contract\n    /// @dev Using ERC721 default constructor with \"Prescription\" and \"Rx\" as Name and Symbol for the tokens\n    /// @dev We set up the contract creator (msg.sender) with the ADMIN_ROLE to manage all the other Roles\n    /// @dev We increment the counter in the constructor to start Ids in 1, keeping Id 0 (default for uints\n    ///      in solidity) to signal that someone doesn't have any NFTs\n    constructor() ERC721(\"Rx\", \"Rx\") {\n        _setupRole(DEFAULT_ADMIN_ROLE, msg.sender);\n\n        // _setRoleAdmin(ADMIN_ROLE, ADMIN_ROLE);  // ADMIN role to manage all 3 roles\n        _setRoleAdmin(MINTER_ROLE, ADMIN_ROLE);\n        _setRoleAdmin(BURNER_ROLE, ADMIN_ROLE);\n\n        grantRole(ADMIN_ROLE, msg.sender);\n\n        // _setupRole(MINTER_ROLE, msg.sender); // MINTER_ROLE reserved for Doctors only\n        // _setupRole(BURNER_ROLE, msg.sender); // BURNER_ROLE reserved for Pharmacists only\n\n        _tokenIdCounter.increment();\n    }\n\n    /// @dev function override required by solidity\n    /// @notice function override to store burner data in the rx before burning\n    function _burn(uint256 tokenId) internal override(ERC721, ERC721URIStorage) onlyRole(BURNER_ROLE) {\n        // delete rxs[tokenId]; // Keep Rx Data to be able to view past Rxs\n        require(\n            getApproved(tokenId) == msg.sender ||\n            isApprovedForAll(ownerOf(tokenId), msg.sender),\n            \"pharmacist not approved\");\n        // We save the burner (pharmacist) data to the Rx\n        rxs[tokenId].pharmacistSubject = getSubject(msg.sender);\n        rxs[tokenId].pharmacist = getPharmacist(msg.sender);\n        super._burn(tokenId);\n        //TODO: Change prescription life cycle in 'Status' to keep prescription data without burning\n    }\n\n    /// @dev TokenURI generated on the fly from stored data (function override required by solidity)  \n    function tokenURI(uint256 tokenId) public view override(ERC721, ERC721URIStorage) returns (string memory) {\n        require(_exists(tokenId), \"nonexistent token\");\n        return TokenURIDescriptor.constructTokenURI(tokenId, name(), symbol(), rxs[tokenId]);\n    }\n\n    /// @dev function override required by solidity\n    function supportsInterface(bytes4 interfaceId) public view override(ERC721, AccessControl) returns (bool) {\n        return super.supportsInterface(interfaceId);\n    }\n\n    /** Begin of implementation of functions for final project */\n\n    /// @notice Function to verify string length and validate data input\n    /// @param maxLength Maximum string length\n    function _validateStrings(uint256 maxLength, string[RX_LINES] calldata stringArray) internal pure returns (bool) {\n        for (uint256 i = 0; i < RX_LINES; i++) {\n            if ( bytes(stringArray[i]).length >= maxLength) {\n                return false;\n            }\n        }\n        return true;\n    }\n\n    /// @notice Funtion to mint a Prescription. Should be called only by a Doctor (has MINTER_ROLE)\n    /// @param to The id of the subject (patient) recipient of the prescription\n    /// @param _keys Text lines with the 'title' of each content of the prescription (max 19 characters each)\n    /// @param _values Text lines with the 'content' of the prescription (max 61 characters each)\n    /// @dev Does NOT store a tokenURI. It stores Prescription data on contract (tokenURI is generated upon request)\n    function mint(address to, string[RX_LINES] calldata _keys, string[RX_LINES] calldata _values)\n        public\n        onlyRole(MINTER_ROLE)\n        isSubject(to) \n        // validateInputs(_keys, _values)\n        {\n            require( (msg.sender != to) , 'mint to yourself');\n            require( _validateStrings( MAX_KEY_LENGTH, _keys ) , 'key too long' );\n            require( _validateStrings( MAX_VALUE_LENGTH, _values ) , 'value too long' );\n\n            uint256 tokenId = _tokenIdCounter.current();\n            _tokenIdCounter.increment();\n            super._safeMint(to, tokenId);\n\n            // Store prescription data in contract, leaving tokenURI empty, for it is generated on request (Uniswap V3 style!)\n            rxs[tokenId] = RxStructs.RxData(\n                                block.timestamp,\n                                getSubject(to),\n                                getSubject(msg.sender),\n                                RxStructs.Subject(address(0), 0, '', ''),\n                                getDoctor(msg.sender),\n                                RxStructs.Pharmacist(address(0), '', ''),\n                                _keys,\n                                _values);\n\n            emit minted(msg.sender, to, tokenId);\n            //TODO: Add life cycle Status to the prescription\n            // rxs[tokenId] = RxData(Status.Draft, block.timestamp, getSubject(to), getSubject(msg.sender), getDoctor(msg.sender), _keys, _values);\n    }\n\n    /// @notice Function to get data for a specific tokenId. Only for Doctor, Patient or Pharmacist of the tokenId.\n    /// @param tokenId uint256 representing an existing tokenId\n    /// @return a RxData struct containing all the Rx Data\n    function getRx(uint256 tokenId) public view returns (RxStructs.RxData memory) {\n        return rxs[tokenId];\n    }\n\n    // /// @notice function override to only approve pharmacists and register the pharmacist data\n    // function approve(address to, uint256 tokenId) public override(ERC721) {\n    //     require(to == address(0) || pharmacists[to].subjectId == to, \"Rx: approve to non-pharmacist\");\n    //     super.approve(to, tokenId);\n    // }\n\n    // /// @notice function override to only approve pharmacists\n    // function setApprovalForAll(address operator, bool approved) public override(ERC721) {\n    //     require(operator == address(0) || pharmacists[operator].subjectId == operator, \"Rx: setApprovalForAll to non-pharmacist\");\n    //     super.setApprovalForAll(operator, approved);\n    // }\n\n    /// @notice function override to prohibit token transfers\n    function _transfer(address from, address to, uint256 tokenId ) internal view override(ERC721) {\n        require(msg.sender == address(0), \"rxs are untransferable\");\n    }\n\n    /// @notice Function to add an admin account\n    /// @param to Address of the account to grant admin role\n    function addAdmin(address to) public onlyRole(ADMIN_ROLE) {\n        grantRole(ADMIN_ROLE, to);\n    }\n\n    /// @notice Function to remove an admin account\n    /// @param to Address of the account to remove admin role\n    function removeAdmin(address to) public onlyRole(ADMIN_ROLE) {\n        revokeRole(ADMIN_ROLE, to);\n    }\n\n    /// @notice Function to check if someone has admin role\n    /// @param to address to check for admin role privilege\n    /// @return true if @param to is an admin or false otherwise\n    function isAdmin(address to) public view returns (bool) {\n        return hasRole(ADMIN_ROLE, to);\n    }\n\n    /// @notice Function to retrieve a Subject\n    /// @param _subjectId the registered address of the subject to retrieve\n    /// @return an object with the Subject\n    function getSubject(address _subjectId)\n        public\n        view\n        returns (RxStructs.Subject memory) {\n            return subjects[_subjectId];\n    }\n\n    /// @notice Function to retrieve a Doctor\n    /// @param _subjectId the registered address of the doctor to retrieve\n    /// @return an object with the Doctor\n    function getDoctor(address _subjectId)\n        public\n        view\n        returns (RxStructs.Doctor memory) {\n            return doctors[_subjectId];\n    }\n\n    /// @notice Function to retrieve a Pharmacist\n    /// @param _subjectId the registered address of the pharmacist to retrieve\n    /// @return an object with the Pharmacist\n    function getPharmacist(address _subjectId)\n        public\n        view\n        returns (RxStructs.Pharmacist memory) {\n            return pharmacists[_subjectId];\n    }\n\n    /// @notice Function to add/replace a Subject allowed to receive/hold NFT Prescriptions\n    /// @param _subjectId is the registered address of the subject (approved for holding NFT Prescriptions)\n    /// @param _birthDate is the subjects' date of birth, in seconds, from UNIX Epoch (1970-01-01)\n    /// @param _name is the subject's full name\n    /// @param _homeAddress is the subject's legal home address\n    /// @return the ethereum address of the subject that was registered in the contract\n    /// @dev Only ADMIN_ROLE users are allowed to modify subjects\n    function setSubjectData(address _subjectId, uint256 _birthDate, string calldata _name, string calldata _homeAddress)\n        public\n        onlyRole(ADMIN_ROLE)\n        returns (address) {\n            require (_subjectId != address(0), \"0 address\");\n            // Subject memory newSubject = Subject(_subjectId, _name, _birthDate, _homeAddress);\n            // subjects[_subjectId] = newSubject;\n            subjects[_subjectId] = RxStructs.Subject(_subjectId, _birthDate, _name, _homeAddress);\n            emit subjectDataSet(msg.sender, _subjectId, _birthDate, _name, _homeAddress);\n            return subjects[_subjectId].subjectId;\n    }\n\n    /// @notice Function to add/replace a Doctor allowed to mint NFT Prescriptions\n    /// @param _subjectId should be a valid ethereum address (same Id as the subject that holds this doctor's personal details)\n    /// @param _degree should contain string with the degree of the doctor\n    /// @param _license should contain string with the legal license of the doctor\n    /// @dev @param _workplaces is a feature for future implementations\n    /// @return the ethereum address of the doctor that was registered in the contract\n    function setDoctorData(address _subjectId, string calldata _degree, string calldata _license) //, address[] calldata _workplaces)\n        public\n        onlyRole(ADMIN_ROLE)\n        isSubject(_subjectId)\n        returns (address) {\n            // require (_subjectId != address(0), \"Wallet Address cannot be 0x0\"); // Should be covered by isSubject()\n            // Doctor memory newDoctor = Doctor(_subjectId, _degree, _license);\n            // doctors[_subjectId] = newDoctor;\n            // if (doctors[_subjectId].subjectId == address(0)) { // Doctor didn't exist, should be granted the MINTER_ROLE\n            grantRole(MINTER_ROLE, _subjectId);\n            // }\n            doctors[_subjectId] = RxStructs.Doctor(_subjectId, _degree, _license);\n            emit doctorDataSet(msg.sender, _subjectId, _degree, _license);\n            return doctors[_subjectId].subjectId;\n    }\n\n    /// @notice Function to add/replace a Pharmacist allowed to burn NFT Prescriptions\n    /// @param _subjectId should be a valid ethereum address (same Id as the subject that holds this pharmacist's personal details)\n    /// @param _degree should contain string with the degree of the pharmacist\n    /// @param _license should contain string with the legal license of the pharmacist\n    /// @dev @param _workplaces is a feature for future implementations\n    /// @return the ethereum address of the pharmacist that was registered in the contract\n    function setPharmacistData(address _subjectId, string calldata _degree, string calldata _license) //, address[] calldata _workplaces)\n        public\n        onlyRole(ADMIN_ROLE)\n        isSubject(_subjectId)\n        returns (address) {\n            // require (_subjectId != address(0), \"Wallet Address cannot be 0x0\"); // Should be covered by isSubject()\n            // Pharmacist memory newPharmacist = Pharmacist(_subjectId, _degree, _license);\n            // pharmacists[_subjectId] = newPharmacist;\n            // if (pharmacists[_subjectId].subjectId == address(0)) { // Pharmacist didn't exist, should be granted BURNER_ROLE\n            grantRole(BURNER_ROLE, _subjectId);\n            // }\n            pharmacists[_subjectId] = RxStructs.Pharmacist(_subjectId, _degree, _license);\n            emit pharmacistDataSet(msg.sender, _subjectId, _degree, _license);\n            return pharmacists[_subjectId].subjectId;\n    }\n\n    /// @notice Function to remove a registered Subject \n    /// @param _subjectId is the registered address of the subject to remove\n    /// @dev Only ADMIN_ROLE users are allowed to remove subjects\n    function removeSubject(address _subjectId)\n        public\n        onlyRole(ADMIN_ROLE)\n        isSubject(_subjectId)\n        isNotDoctor(_subjectId)\n        isNotPharmacist(_subjectId) {\n            // require (_subjectId != address(0), \"Wallet Address cannot be 0x0\"); // Should be covered by isSubject()\n            delete subjects[_subjectId];\n            emit subjectRemoved(msg.sender, _subjectId);\n    }\n\n    /// @notice Function to remove a registered Doctor\n    /// @param _subjectId is the registered address of the doctor to remove\n    /// @dev Only ADMIN_ROLE users are allowed to remove doctors\n    function removeDoctor(address _subjectId)\n        public\n        onlyRole(ADMIN_ROLE)\n        isDoctor(_subjectId) {\n            // require (_subjectId != address(0), \"Wallet Address cannot be 0x0\"); // Should be covered by isDoctor()\n            revokeRole(MINTER_ROLE, _subjectId);\n            delete doctors[_subjectId];\n            emit doctorRemoved(msg.sender, _subjectId);\n    }\n\n    /// @notice Function to remove a registered Pharmacist\n    /// @param _subjectId is the registered address of the pharmacist to remove\n    /// @dev Only ADMIN_ROLE users are allowed to remove pharmacists\n    function removePharmacist(address _subjectId)\n        public\n        onlyRole(ADMIN_ROLE)\n        isPharmacist(_subjectId) {\n            // require (_subjectId != address(0), \"Wallet Address cannot be 0x0\"); // Should be covered by isPharmacist()\n            revokeRole(BURNER_ROLE, _subjectId);\n            delete pharmacists[_subjectId];\n            emit pharmacistRemoved(msg.sender, _subjectId);\n    }\n\n}",
  "sourcePath": "/Users/matias/coding/github/blockchain-developer-bootcamp-final-project/contracts/Rx.sol",
  "compiler": {
    "name": "solc",
    "version": "0.8.4+commit.c7e474f2.Emscripten.clang"
  },
  "schemaVersion": "3.4.3",
  "updatedAt": "2021-11-29T05:09:26.892Z",
  "networkType": "ethereum",
  "devdoc": {
    "author": "Matias Parij (@7i7o)",
    "details": "Features such as workplaces for doctors or pharmacists are for future iterations",
    "events": {
      "doctorDataSet(address,address,string,string)": {
        "params": {
          "_degree": "contains a string with the degree of the doctor",
          "_license": "contains a string with the legal license of the doctor",
          "_subjectId": "is the ethereum address for the doctor (same Id as the subject that holds this doctor's personal details)",
          "sender": "is the address of the admin that set the Doctor's data"
        }
      },
      "doctorRemoved(address,address)": {
        "params": {
          "_subjectId": "is the registered address of the doctor removed",
          "sender": "is the address of the admin that removed the Doctor"
        }
      },
      "minted(address,address,uint256)": {
        "params": {
          "receiver": "address of the Subject that received the Rx minted",
          "sender": "address of the Doctor that minted the Rx",
          "tokenId": "Id of the Token (Rx) that has been minted"
        }
      },
      "pharmacistDataSet(address,address,string,string)": {
        "params": {
          "_degree": "contains a string with the degree of the pharmacist",
          "_license": "contains a string with the legal license of the pharmacist",
          "_subjectId": "is the ethereum address for the pahrmacist (same Id as the subject that holds this pharmacist's personal details)",
          "sender": "is the address of the admin that set the Pharmacist's data"
        }
      },
      "pharmacistRemoved(address,address)": {
        "params": {
          "_subjectId": "is the registered address of the pharmacist removed",
          "sender": "is the address of the admin that removed the Pharmacist"
        }
      },
      "subjectDataSet(address,address,uint256,string,string)": {
        "params": {
          "_birthDate": "is the subjects' date of birth, in seconds, from UNIX Epoch (1970-01-01)",
          "_homeAddress": "is the subject's legal home address",
          "_name": "is the subject's full name",
          "_subjectId": "is the registered address of the subject (approved for holding NFT Prescriptions)",
          "sender": "is the address of the admin that set the Subject's data"
        }
      },
      "subjectRemoved(address,address)": {
        "params": {
          "_subjectId": "is the registered address of the subject removed",
          "sender": "is the address of the admin that removed the Subject"
        }
      }
    },
    "kind": "dev",
    "methods": {
      "addAdmin(address)": {
        "params": {
          "to": "Address of the account to grant admin role"
        }
      },
      "approve(address,uint256)": {
        "details": "See {IERC721-approve}."
      },
      "balanceOf(address)": {
        "details": "See {IERC721-balanceOf}."
      },
      "burn(uint256)": {
        "details": "Burns `tokenId`. See {ERC721-_burn}. Requirements: - The caller must own `tokenId` or be an approved operator."
      },
      "constructor": {
        "details": "Using ERC721 default constructor with \"Prescription\" and \"Rx\" as Name and Symbol for the tokensWe set up the contract creator (msg.sender) with the ADMIN_ROLE to manage all the other RolesWe increment the counter in the constructor to start Ids in 1, keeping Id 0 (default for uints      in solidity) to signal that someone doesn't have any NFTs"
      },
      "getApproved(uint256)": {
        "details": "See {IERC721-getApproved}."
      },
      "getDoctor(address)": {
        "params": {
          "_subjectId": "the registered address of the doctor to retrieve"
        },
        "returns": {
          "_0": "an object with the Doctor"
        }
      },
      "getPharmacist(address)": {
        "params": {
          "_subjectId": "the registered address of the pharmacist to retrieve"
        },
        "returns": {
          "_0": "an object with the Pharmacist"
        }
      },
      "getRoleAdmin(bytes32)": {
        "details": "Returns the admin role that controls `role`. See {grantRole} and {revokeRole}. To change a role's admin, use {_setRoleAdmin}."
      },
      "getRx(uint256)": {
        "params": {
          "tokenId": "uint256 representing an existing tokenId"
        },
        "returns": {
          "_0": "a RxData struct containing all the Rx Data"
        }
      },
      "getSubject(address)": {
        "params": {
          "_subjectId": "the registered address of the subject to retrieve"
        },
        "returns": {
          "_0": "an object with the Subject"
        }
      },
      "grantRole(bytes32,address)": {
        "details": "Grants `role` to `account`. If `account` had not been already granted `role`, emits a {RoleGranted} event. Requirements: - the caller must have ``role``'s admin role."
      },
      "hasRole(bytes32,address)": {
        "details": "Returns `true` if `account` has been granted `role`."
      },
      "isAdmin(address)": {
        "params": {
          "to": "address to check for admin role privilege"
        },
        "returns": {
          "_0": "true if @param to is an admin or false otherwise"
        }
      },
      "isApprovedForAll(address,address)": {
        "details": "See {IERC721-isApprovedForAll}."
      },
      "mint(address,string[12],string[12])": {
        "details": "Does NOT store a tokenURI. It stores Prescription data on contract (tokenURI is generated upon request)",
        "params": {
          "_keys": "Text lines with the 'title' of each content of the prescription (max 19 characters each)",
          "_values": "Text lines with the 'content' of the prescription (max 61 characters each)",
          "to": "The id of the subject (patient) recipient of the prescription"
        }
      },
      "name()": {
        "details": "See {IERC721Metadata-name}."
      },
      "ownerOf(uint256)": {
        "details": "See {IERC721-ownerOf}."
      },
      "removeAdmin(address)": {
        "params": {
          "to": "Address of the account to remove admin role"
        }
      },
      "removeDoctor(address)": {
        "details": "Only ADMIN_ROLE users are allowed to remove doctors",
        "params": {
          "_subjectId": "is the registered address of the doctor to remove"
        }
      },
      "removePharmacist(address)": {
        "details": "Only ADMIN_ROLE users are allowed to remove pharmacists",
        "params": {
          "_subjectId": "is the registered address of the pharmacist to remove"
        }
      },
      "removeSubject(address)": {
        "details": "Only ADMIN_ROLE users are allowed to remove subjects",
        "params": {
          "_subjectId": "is the registered address of the subject to remove"
        }
      },
      "renounceRole(bytes32,address)": {
        "details": "Revokes `role` from the calling account. Roles are often managed via {grantRole} and {revokeRole}: this function's purpose is to provide a mechanism for accounts to lose their privileges if they are compromised (such as when a trusted device is misplaced). If the calling account had been granted `role`, emits a {RoleRevoked} event. Requirements: - the caller must be `account`."
      },
      "revokeRole(bytes32,address)": {
        "details": "Revokes `role` from `account`. If `account` had been granted `role`, emits a {RoleRevoked} event. Requirements: - the caller must have ``role``'s admin role."
      },
      "safeTransferFrom(address,address,uint256)": {
        "details": "See {IERC721-safeTransferFrom}."
      },
      "safeTransferFrom(address,address,uint256,bytes)": {
        "details": "See {IERC721-safeTransferFrom}."
      },
      "setApprovalForAll(address,bool)": {
        "details": "See {IERC721-setApprovalForAll}."
      },
      "setDoctorData(address,string,string)": {
        "details": "@param _workplaces is a feature for future implementations",
        "params": {
          "_degree": "should contain string with the degree of the doctor",
          "_license": "should contain string with the legal license of the doctor",
          "_subjectId": "should be a valid ethereum address (same Id as the subject that holds this doctor's personal details)"
        },
        "returns": {
          "_0": "the ethereum address of the doctor that was registered in the contract"
        }
      },
      "setPharmacistData(address,string,string)": {
        "details": "@param _workplaces is a feature for future implementations",
        "params": {
          "_degree": "should contain string with the degree of the pharmacist",
          "_license": "should contain string with the legal license of the pharmacist",
          "_subjectId": "should be a valid ethereum address (same Id as the subject that holds this pharmacist's personal details)"
        },
        "returns": {
          "_0": "the ethereum address of the pharmacist that was registered in the contract"
        }
      },
      "setSubjectData(address,uint256,string,string)": {
        "details": "Only ADMIN_ROLE users are allowed to modify subjects",
        "params": {
          "_birthDate": "is the subjects' date of birth, in seconds, from UNIX Epoch (1970-01-01)",
          "_homeAddress": "is the subject's legal home address",
          "_name": "is the subject's full name",
          "_subjectId": "is the registered address of the subject (approved for holding NFT Prescriptions)"
        },
        "returns": {
          "_0": "the ethereum address of the subject that was registered in the contract"
        }
      },
      "supportsInterface(bytes4)": {
        "details": "function override required by solidity"
      },
      "symbol()": {
        "details": "See {IERC721Metadata-symbol}."
      },
      "tokenURI(uint256)": {
        "details": "TokenURI generated on the fly from stored data (function override required by solidity)  "
      },
      "transferFrom(address,address,uint256)": {
        "details": "See {IERC721-transferFrom}."
      }
    },
    "stateVariables": {
      "_tokenIdCounter": {
        "details": "We increment the counter in the constructor to start Ids in 1, keeping Id 0 (default for      uints in solidity) to signal that someone doesn't have any NFTs"
      }
    },
    "title": "A NFT Prescription creator",
    "version": 1
  },
  "userdoc": {
    "events": {
      "doctorDataSet(address,address,string,string)": {
        "notice": "Event to signal when adding/replacing a Doctor allowed to mint NFT Prescriptions"
      },
      "doctorRemoved(address,address)": {
        "notice": "Event to signal a removed Doctor"
      },
      "minted(address,address,uint256)": {
        "notice": "Event to signal when a new Rx has been minted"
      },
      "pharmacistDataSet(address,address,string,string)": {
        "notice": "Event to signal when adding/replacing a Pharmacist allowed to burn NFT Prescriptions"
      },
      "pharmacistRemoved(address,address)": {
        "notice": "Event to signal a removed Pharmacist"
      },
      "subjectDataSet(address,address,uint256,string,string)": {
        "notice": "Event to signal when adding/replacing a Subject allowed to receive/hold NFT Prescriptions"
      },
      "subjectRemoved(address,address)": {
        "notice": "Event to signal a removed Subject"
      }
    },
    "kind": "user",
    "methods": {
      "ADMIN_ROLE()": {
        "notice": "Role definition for Minter"
      },
      "BURNER_ROLE()": {
        "notice": "Role definition for Burner"
      },
      "MINTER_ROLE()": {
        "notice": "Role definition for Minter"
      },
      "addAdmin(address)": {
        "notice": "Function to add an admin account"
      },
      "constructor": {
        "notice": "constructor for NFT Prescriptions contract"
      },
      "getDoctor(address)": {
        "notice": "Function to retrieve a Doctor"
      },
      "getPharmacist(address)": {
        "notice": "Function to retrieve a Pharmacist"
      },
      "getRx(uint256)": {
        "notice": "Function to get data for a specific tokenId. Only for Doctor, Patient or Pharmacist of the tokenId."
      },
      "getSubject(address)": {
        "notice": "Function to retrieve a Subject"
      },
      "isAdmin(address)": {
        "notice": "Function to check if someone has admin role"
      },
      "mint(address,string[12],string[12])": {
        "notice": "Funtion to mint a Prescription. Should be called only by a Doctor (has MINTER_ROLE)"
      },
      "removeAdmin(address)": {
        "notice": "Function to remove an admin account"
      },
      "removeDoctor(address)": {
        "notice": "Function to remove a registered Doctor"
      },
      "removePharmacist(address)": {
        "notice": "Function to remove a registered Pharmacist"
      },
      "removeSubject(address)": {
        "notice": "Function to remove a registered Subject "
      },
      "setDoctorData(address,string,string)": {
        "notice": "Function to add/replace a Doctor allowed to mint NFT Prescriptions"
      },
      "setPharmacistData(address,string,string)": {
        "notice": "Function to add/replace a Pharmacist allowed to burn NFT Prescriptions"
      },
      "setSubjectData(address,uint256,string,string)": {
        "notice": "Function to add/replace a Subject allowed to receive/hold NFT Prescriptions"
      }
    },
    "notice": "You can use this contract only as a MVP for minting Prescriptions",
    "version": 1
  }
}