{
  "contractName": "Rx",
  "abi": [
    {
      "inputs": [],
      "stateMutability": "nonpayable",
      "type": "constructor"
    },
    {
      "anonymous": false,
      "inputs": [
        {
          "indexed": true,
          "internalType": "address",
          "name": "owner",
          "type": "address"
        },
        {
          "indexed": true,
          "internalType": "address",
          "name": "approved",
          "type": "address"
        },
        {
          "indexed": true,
          "internalType": "uint256",
          "name": "tokenId",
          "type": "uint256"
        }
      ],
      "name": "Approval",
      "type": "event"
    },
    {
      "anonymous": false,
      "inputs": [
        {
          "indexed": true,
          "internalType": "address",
          "name": "owner",
          "type": "address"
        },
        {
          "indexed": true,
          "internalType": "address",
          "name": "operator",
          "type": "address"
        },
        {
          "indexed": false,
          "internalType": "bool",
          "name": "approved",
          "type": "bool"
        }
      ],
      "name": "ApprovalForAll",
      "type": "event"
    },
    {
      "anonymous": false,
      "inputs": [
        {
          "indexed": true,
          "internalType": "bytes32",
          "name": "role",
          "type": "bytes32"
        },
        {
          "indexed": true,
          "internalType": "bytes32",
          "name": "previousAdminRole",
          "type": "bytes32"
        },
        {
          "indexed": true,
          "internalType": "bytes32",
          "name": "newAdminRole",
          "type": "bytes32"
        }
      ],
      "name": "RoleAdminChanged",
      "type": "event"
    },
    {
      "anonymous": false,
      "inputs": [
        {
          "indexed": true,
          "internalType": "bytes32",
          "name": "role",
          "type": "bytes32"
        },
        {
          "indexed": true,
          "internalType": "address",
          "name": "account",
          "type": "address"
        },
        {
          "indexed": true,
          "internalType": "address",
          "name": "sender",
          "type": "address"
        }
      ],
      "name": "RoleGranted",
      "type": "event"
    },
    {
      "anonymous": false,
      "inputs": [
        {
          "indexed": true,
          "internalType": "bytes32",
          "name": "role",
          "type": "bytes32"
        },
        {
          "indexed": true,
          "internalType": "address",
          "name": "account",
          "type": "address"
        },
        {
          "indexed": true,
          "internalType": "address",
          "name": "sender",
          "type": "address"
        }
      ],
      "name": "RoleRevoked",
      "type": "event"
    },
    {
      "anonymous": false,
      "inputs": [
        {
          "indexed": true,
          "internalType": "address",
          "name": "from",
          "type": "address"
        },
        {
          "indexed": true,
          "internalType": "address",
          "name": "to",
          "type": "address"
        },
        {
          "indexed": true,
          "internalType": "uint256",
          "name": "tokenId",
          "type": "uint256"
        }
      ],
      "name": "Transfer",
      "type": "event"
    },
    {
      "anonymous": false,
      "inputs": [
        {
          "indexed": true,
          "internalType": "address",
          "name": "sender",
          "type": "address"
        },
        {
          "indexed": true,
          "internalType": "address",
          "name": "_subjectId",
          "type": "address"
        },
        {
          "indexed": false,
          "internalType": "string",
          "name": "_degree",
          "type": "string"
        },
        {
          "indexed": false,
          "internalType": "string",
          "name": "_license",
          "type": "string"
        }
      ],
      "name": "doctorDataSet",
      "type": "event"
    },
    {
      "anonymous": false,
      "inputs": [
        {
          "indexed": true,
          "internalType": "address",
          "name": "sender",
          "type": "address"
        },
        {
          "indexed": true,
          "internalType": "address",
          "name": "_subjectId",
          "type": "address"
        }
      ],
      "name": "doctorRemoved",
      "type": "event"
    },
    {
      "anonymous": false,
      "inputs": [
        {
          "indexed": true,
          "internalType": "address",
          "name": "sender",
          "type": "address"
        },
        {
          "indexed": true,
          "internalType": "address",
          "name": "receiver",
          "type": "address"
        },
        {
          "indexed": true,
          "internalType": "uint256",
          "name": "tokenId",
          "type": "uint256"
        }
      ],
      "name": "minted",
      "type": "event"
    },
    {
      "anonymous": false,
      "inputs": [
        {
          "indexed": true,
          "internalType": "address",
          "name": "sender",
          "type": "address"
        },
        {
          "indexed": true,
          "internalType": "address",
          "name": "_subjectId",
          "type": "address"
        },
        {
          "indexed": false,
          "internalType": "string",
          "name": "_degree",
          "type": "string"
        },
        {
          "indexed": false,
          "internalType": "string",
          "name": "_license",
          "type": "string"
        }
      ],
      "name": "pharmacistDataSet",
      "type": "event"
    },
    {
      "anonymous": false,
      "inputs": [
        {
          "indexed": true,
          "internalType": "address",
          "name": "sender",
          "type": "address"
        },
        {
          "indexed": true,
          "internalType": "address",
          "name": "_subjectId",
          "type": "address"
        }
      ],
      "name": "pharmacistRemoved",
      "type": "event"
    },
    {
      "anonymous": false,
      "inputs": [
        {
          "indexed": true,
          "internalType": "address",
          "name": "sender",
          "type": "address"
        },
        {
          "indexed": true,
          "internalType": "address",
          "name": "_subjectId",
          "type": "address"
        },
        {
          "indexed": false,
          "internalType": "uint256",
          "name": "_birthDate",
          "type": "uint256"
        },
        {
          "indexed": false,
          "internalType": "string",
          "name": "_name",
          "type": "string"
        },
        {
          "indexed": false,
          "internalType": "string",
          "name": "_homeAddress",
          "type": "string"
        }
      ],
      "name": "subjectDataSet",
      "type": "event"
    },
    {
      "anonymous": false,
      "inputs": [
        {
          "indexed": true,
          "internalType": "address",
          "name": "sender",
          "type": "address"
        },
        {
          "indexed": true,
          "internalType": "address",
          "name": "_subjectId",
          "type": "address"
        }
      ],
      "name": "subjectRemoved",
      "type": "event"
    },
    {
      "inputs": [],
      "name": "ADMIN_ROLE",
      "outputs": [
        {
          "internalType": "bytes32",
          "name": "",
          "type": "bytes32"
        }
      ],
      "stateMutability": "view",
      "type": "function",
      "constant": true
    },
    {
      "inputs": [],
      "name": "BURNER_ROLE",
      "outputs": [
        {
          "internalType": "bytes32",
          "name": "",
          "type": "bytes32"
        }
      ],
      "stateMutability": "view",
      "type": "function",
      "constant": true
    },
    {
      "inputs": [],
      "name": "DEFAULT_ADMIN_ROLE",
      "outputs": [
        {
          "internalType": "bytes32",
          "name": "",
          "type": "bytes32"
        }
      ],
      "stateMutability": "view",
      "type": "function",
      "constant": true
    },
    {
      "inputs": [],
      "name": "MINTER_ROLE",
      "outputs": [
        {
          "internalType": "bytes32",
          "name": "",
          "type": "bytes32"
        }
      ],
      "stateMutability": "view",
      "type": "function",
      "constant": true
    },
    {
      "inputs": [
        {
          "internalType": "address",
          "name": "to",
          "type": "address"
        },
        {
          "internalType": "uint256",
          "name": "tokenId",
          "type": "uint256"
        }
      ],
      "name": "approve",
      "outputs": [],
      "stateMutability": "nonpayable",
      "type": "function"
    },
    {
      "inputs": [
        {
          "internalType": "address",
          "name": "owner",
          "type": "address"
        }
      ],
      "name": "balanceOf",
      "outputs": [
        {
          "internalType": "uint256",
          "name": "",
          "type": "uint256"
        }
      ],
      "stateMutability": "view",
      "type": "function",
      "constant": true
    },
    {
      "inputs": [
        {
          "internalType": "uint256",
          "name": "tokenId",
          "type": "uint256"
        }
      ],
      "name": "burn",
      "outputs": [],
      "stateMutability": "nonpayable",
      "type": "function"
    },
    {
      "inputs": [
        {
          "internalType": "uint256",
          "name": "tokenId",
          "type": "uint256"
        }
      ],
      "name": "getApproved",
      "outputs": [
        {
          "internalType": "address",
          "name": "",
          "type": "address"
        }
      ],
      "stateMutability": "view",
      "type": "function",
      "constant": true
    },
    {
      "inputs": [
        {
          "internalType": "bytes32",
          "name": "role",
          "type": "bytes32"
        }
      ],
      "name": "getRoleAdmin",
      "outputs": [
        {
          "internalType": "bytes32",
          "name": "",
          "type": "bytes32"
        }
      ],
      "stateMutability": "view",
      "type": "function",
      "constant": true
    },
    {
      "inputs": [
        {
          "internalType": "bytes32",
          "name": "role",
          "type": "bytes32"
        },
        {
          "internalType": "address",
          "name": "account",
          "type": "address"
        }
      ],
      "name": "grantRole",
      "outputs": [],
      "stateMutability": "nonpayable",
      "type": "function"
    },
    {
      "inputs": [
        {
          "internalType": "bytes32",
          "name": "role",
          "type": "bytes32"
        },
        {
          "internalType": "address",
          "name": "account",
          "type": "address"
        }
      ],
      "name": "hasRole",
      "outputs": [
        {
          "internalType": "bool",
          "name": "",
          "type": "bool"
        }
      ],
      "stateMutability": "view",
      "type": "function",
      "constant": true
    },
    {
      "inputs": [
        {
          "internalType": "address",
          "name": "owner",
          "type": "address"
        },
        {
          "internalType": "address",
          "name": "operator",
          "type": "address"
        }
      ],
      "name": "isApprovedForAll",
      "outputs": [
        {
          "internalType": "bool",
          "name": "",
          "type": "bool"
        }
      ],
      "stateMutability": "view",
      "type": "function",
      "constant": true
    },
    {
      "inputs": [],
      "name": "name",
      "outputs": [
        {
          "internalType": "string",
          "name": "",
          "type": "string"
        }
      ],
      "stateMutability": "view",
      "type": "function",
      "constant": true
    },
    {
      "inputs": [
        {
          "internalType": "uint256",
          "name": "tokenId",
          "type": "uint256"
        }
      ],
      "name": "ownerOf",
      "outputs": [
        {
          "internalType": "address",
          "name": "",
          "type": "address"
        }
      ],
      "stateMutability": "view",
      "type": "function",
      "constant": true
    },
    {
      "inputs": [
        {
          "internalType": "bytes32",
          "name": "role",
          "type": "bytes32"
        },
        {
          "internalType": "address",
          "name": "account",
          "type": "address"
        }
      ],
      "name": "renounceRole",
      "outputs": [],
      "stateMutability": "nonpayable",
      "type": "function"
    },
    {
      "inputs": [
        {
          "internalType": "bytes32",
          "name": "role",
          "type": "bytes32"
        },
        {
          "internalType": "address",
          "name": "account",
          "type": "address"
        }
      ],
      "name": "revokeRole",
      "outputs": [],
      "stateMutability": "nonpayable",
      "type": "function"
    },
    {
      "inputs": [
        {
          "internalType": "address",
          "name": "from",
          "type": "address"
        },
        {
          "internalType": "address",
          "name": "to",
          "type": "address"
        },
        {
          "internalType": "uint256",
          "name": "tokenId",
          "type": "uint256"
        }
      ],
      "name": "safeTransferFrom",
      "outputs": [],
      "stateMutability": "nonpayable",
      "type": "function"
    },
    {
      "inputs": [
        {
          "internalType": "address",
          "name": "from",
          "type": "address"
        },
        {
          "internalType": "address",
          "name": "to",
          "type": "address"
        },
        {
          "internalType": "uint256",
          "name": "tokenId",
          "type": "uint256"
        },
        {
          "internalType": "bytes",
          "name": "_data",
          "type": "bytes"
        }
      ],
      "name": "safeTransferFrom",
      "outputs": [],
      "stateMutability": "nonpayable",
      "type": "function"
    },
    {
      "inputs": [
        {
          "internalType": "address",
          "name": "operator",
          "type": "address"
        },
        {
          "internalType": "bool",
          "name": "approved",
          "type": "bool"
        }
      ],
      "name": "setApprovalForAll",
      "outputs": [],
      "stateMutability": "nonpayable",
      "type": "function"
    },
    {
      "inputs": [],
      "name": "symbol",
      "outputs": [
        {
          "internalType": "string",
          "name": "",
          "type": "string"
        }
      ],
      "stateMutability": "view",
      "type": "function",
      "constant": true
    },
    {
      "inputs": [
        {
          "internalType": "address",
          "name": "from",
          "type": "address"
        },
        {
          "internalType": "address",
          "name": "to",
          "type": "address"
        },
        {
          "internalType": "uint256",
          "name": "tokenId",
          "type": "uint256"
        }
      ],
      "name": "transferFrom",
      "outputs": [],
      "stateMutability": "nonpayable",
      "type": "function"
    },
    {
      "inputs": [
        {
          "internalType": "uint256",
          "name": "tokenId",
          "type": "uint256"
        }
      ],
      "name": "tokenURI",
      "outputs": [
        {
          "internalType": "string",
          "name": "",
          "type": "string"
        }
      ],
      "stateMutability": "view",
      "type": "function",
      "constant": true
    },
    {
      "inputs": [
        {
          "internalType": "bytes4",
          "name": "interfaceId",
          "type": "bytes4"
        }
      ],
      "name": "supportsInterface",
      "outputs": [
        {
          "internalType": "bool",
          "name": "",
          "type": "bool"
        }
      ],
      "stateMutability": "view",
      "type": "function",
      "constant": true
    },
    {
      "inputs": [
        {
          "internalType": "address",
          "name": "to",
          "type": "address"
        },
        {
          "internalType": "string[12]",
          "name": "_keys",
          "type": "string[12]"
        },
        {
          "internalType": "string[12]",
          "name": "_values",
          "type": "string[12]"
        }
      ],
      "name": "mint",
      "outputs": [],
      "stateMutability": "nonpayable",
      "type": "function"
    },
    {
      "inputs": [
        {
          "internalType": "uint256",
          "name": "tokenId",
          "type": "uint256"
        }
      ],
      "name": "getRx",
      "outputs": [
        {
          "components": [
            {
              "internalType": "uint256",
              "name": "date",
              "type": "uint256"
            },
            {
              "components": [
                {
                  "internalType": "address",
                  "name": "subjectId",
                  "type": "address"
                },
                {
                  "internalType": "uint256",
                  "name": "birthDate",
                  "type": "uint256"
                },
                {
                  "internalType": "string",
                  "name": "name",
                  "type": "string"
                },
                {
                  "internalType": "string",
                  "name": "homeAddress",
                  "type": "string"
                }
              ],
              "internalType": "struct RxStructs.Subject",
              "name": "patient",
              "type": "tuple"
            },
            {
              "components": [
                {
                  "internalType": "address",
                  "name": "subjectId",
                  "type": "address"
                },
                {
                  "internalType": "uint256",
                  "name": "birthDate",
                  "type": "uint256"
                },
                {
                  "internalType": "string",
                  "name": "name",
                  "type": "string"
                },
                {
                  "internalType": "string",
                  "name": "homeAddress",
                  "type": "string"
                }
              ],
              "internalType": "struct RxStructs.Subject",
              "name": "doctorSubject",
              "type": "tuple"
            },
            {
              "components": [
                {
                  "internalType": "address",
                  "name": "subjectId",
                  "type": "address"
                },
                {
                  "internalType": "uint256",
                  "name": "birthDate",
                  "type": "uint256"
                },
                {
                  "internalType": "string",
                  "name": "name",
                  "type": "string"
                },
                {
                  "internalType": "string",
                  "name": "homeAddress",
                  "type": "string"
                }
              ],
              "internalType": "struct RxStructs.Subject",
              "name": "pharmacistSubject",
              "type": "tuple"
            },
            {
              "components": [
                {
                  "internalType": "address",
                  "name": "subjectId",
                  "type": "address"
                },
                {
                  "internalType": "string",
                  "name": "degree",
                  "type": "string"
                },
                {
                  "internalType": "string",
                  "name": "license",
                  "type": "string"
                }
              ],
              "internalType": "struct RxStructs.Doctor",
              "name": "doctor",
              "type": "tuple"
            },
            {
              "components": [
                {
                  "internalType": "address",
                  "name": "subjectId",
                  "type": "address"
                },
                {
                  "internalType": "string",
                  "name": "degree",
                  "type": "string"
                },
                {
                  "internalType": "string",
                  "name": "license",
                  "type": "string"
                }
              ],
              "internalType": "struct RxStructs.Pharmacist",
              "name": "pharmacist",
              "type": "tuple"
            },
            {
              "internalType": "string[12]",
              "name": "keys",
              "type": "string[12]"
            },
            {
              "internalType": "string[12]",
              "name": "values",
              "type": "string[12]"
            }
          ],
          "internalType": "struct RxStructs.RxData",
          "name": "",
          "type": "tuple"
        }
      ],
      "stateMutability": "view",
      "type": "function",
      "constant": true
    },
    {
      "inputs": [
        {
          "internalType": "bool",
          "name": "_paused",
          "type": "bool"
        }
      ],
      "name": "setPausableRolePaused",
      "outputs": [],
      "stateMutability": "nonpayable",
      "type": "function"
    },
    {
      "inputs": [
        {
          "internalType": "address",
          "name": "to",
          "type": "address"
        }
      ],
      "name": "addAdmin",
      "outputs": [],
      "stateMutability": "nonpayable",
      "type": "function"
    },
    {
      "inputs": [
        {
          "internalType": "address",
          "name": "to",
          "type": "address"
        }
      ],
      "name": "removeAdmin",
      "outputs": [],
      "stateMutability": "nonpayable",
      "type": "function"
    },
    {
      "inputs": [
        {
          "internalType": "address",
          "name": "to",
          "type": "address"
        }
      ],
      "name": "isAdmin",
      "outputs": [
        {
          "internalType": "bool",
          "name": "",
          "type": "bool"
        }
      ],
      "stateMutability": "view",
      "type": "function",
      "constant": true
    },
    {
      "inputs": [
        {
          "internalType": "address",
          "name": "_subjectId",
          "type": "address"
        }
      ],
      "name": "getSubject",
      "outputs": [
        {
          "components": [
            {
              "internalType": "address",
              "name": "subjectId",
              "type": "address"
            },
            {
              "internalType": "uint256",
              "name": "birthDate",
              "type": "uint256"
            },
            {
              "internalType": "string",
              "name": "name",
              "type": "string"
            },
            {
              "internalType": "string",
              "name": "homeAddress",
              "type": "string"
            }
          ],
          "internalType": "struct RxStructs.Subject",
          "name": "",
          "type": "tuple"
        }
      ],
      "stateMutability": "view",
      "type": "function",
      "constant": true
    },
    {
      "inputs": [
        {
          "internalType": "address",
          "name": "_subjectId",
          "type": "address"
        }
      ],
      "name": "getDoctor",
      "outputs": [
        {
          "components": [
            {
              "internalType": "address",
              "name": "subjectId",
              "type": "address"
            },
            {
              "internalType": "string",
              "name": "degree",
              "type": "string"
            },
            {
              "internalType": "string",
              "name": "license",
              "type": "string"
            }
          ],
          "internalType": "struct RxStructs.Doctor",
          "name": "",
          "type": "tuple"
        }
      ],
      "stateMutability": "view",
      "type": "function",
      "constant": true
    },
    {
      "inputs": [
        {
          "internalType": "address",
          "name": "_subjectId",
          "type": "address"
        }
      ],
      "name": "getPharmacist",
      "outputs": [
        {
          "components": [
            {
              "internalType": "address",
              "name": "subjectId",
              "type": "address"
            },
            {
              "internalType": "string",
              "name": "degree",
              "type": "string"
            },
            {
              "internalType": "string",
              "name": "license",
              "type": "string"
            }
          ],
          "internalType": "struct RxStructs.Pharmacist",
          "name": "",
          "type": "tuple"
        }
      ],
      "stateMutability": "view",
      "type": "function",
      "constant": true
    },
    {
      "inputs": [
        {
          "internalType": "address",
          "name": "_subjectId",
          "type": "address"
        },
        {
          "internalType": "uint256",
          "name": "_birthDate",
          "type": "uint256"
        },
        {
          "internalType": "string",
          "name": "_name",
          "type": "string"
        },
        {
          "internalType": "string",
          "name": "_homeAddress",
          "type": "string"
        }
      ],
      "name": "setSubjectData",
      "outputs": [
        {
          "internalType": "address",
          "name": "",
          "type": "address"
        }
      ],
      "stateMutability": "nonpayable",
      "type": "function"
    },
    {
      "inputs": [
        {
          "internalType": "address",
          "name": "_subjectId",
          "type": "address"
        },
        {
          "internalType": "string",
          "name": "_degree",
          "type": "string"
        },
        {
          "internalType": "string",
          "name": "_license",
          "type": "string"
        }
      ],
      "name": "setDoctorData",
      "outputs": [
        {
          "internalType": "address",
          "name": "",
          "type": "address"
        }
      ],
      "stateMutability": "nonpayable",
      "type": "function"
    },
    {
      "inputs": [
        {
          "internalType": "address",
          "name": "_subjectId",
          "type": "address"
        },
        {
          "internalType": "string",
          "name": "_degree",
          "type": "string"
        },
        {
          "internalType": "string",
          "name": "_license",
          "type": "string"
        }
      ],
      "name": "setPharmacistData",
      "outputs": [
        {
          "internalType": "address",
          "name": "",
          "type": "address"
        }
      ],
      "stateMutability": "nonpayable",
      "type": "function"
    },
    {
      "inputs": [
        {
          "internalType": "address",
          "name": "_subjectId",
          "type": "address"
        }
      ],
      "name": "removeSubject",
      "outputs": [],
      "stateMutability": "nonpayable",
      "type": "function"
    },
    {
      "inputs": [
        {
          "internalType": "address",
          "name": "_subjectId",
          "type": "address"
        }
      ],
      "name": "removeDoctor",
      "outputs": [],
      "stateMutability": "nonpayable",
      "type": "function"
    },
    {
      "inputs": [
        {
          "internalType": "address",
          "name": "_subjectId",
          "type": "address"
        }
      ],
      "name": "removePharmacist",
      "outputs": [],
      "stateMutability": "nonpayable",
      "type": "function"
    }
  ],
  "bytecode": "0x60806040526009805460ff191690553480156200001b57600080fd5b506040805180820182526002808252610a4f60f31b6020808401828152855180870190965292855284015281519192916200005991600091620004cc565b5080516200006f906001906020840190620004cc565b5062000081915060009050336200012f565b620000bc7f9f2df0fed2c77648de5860a4cc508cd0818c85b8b8a1ab4ceeef8d981c8956a6600080516020620066098339815191526200013f565b620000f77f3c11d16cbaffd01df69ce1c404f6340ee057498f5f00246190ea54220576a848600080516020620066098339815191526200013f565b6200011260008051602062006609833981519152336200018a565b620001296008620001b960201b62002d721760201c565b62000729565b6200013b8282620001c2565b5050565b600082815260076020526040808220600101805490849055905190918391839186917fbd79b86ffe0ab8e8776151514217cd7cacd52c909f66475c3af44e129f0b00ff9190a4505050565b600082815260076020526040902060010154620001a8813362000266565b620001b48383620001c2565b505050565b80546001019055565b60008281526007602090815260408083206001600160a01b038516845290915290205460ff166200013b5760008281526007602090815260408083206001600160a01b03851684529091529020805460ff19166001179055620002223390565b6001600160a01b0316816001600160a01b0316837f2f8788117e7eff1d82e926ec794901d17c78024a50270940304540a733656f0d60405160405180910390a45050565b60008281526007602090815260408083206001600160a01b038516845290915290205460ff166200013b57620002b2816001600160a01b031660146200030c60201b62002d7b1760201c565b620002c883602062002d7b6200030c821b17811c565b604051602001620002db929190620005a5565b60408051601f198184030181529082905262461bcd60e51b825262000303916004016200061e565b60405180910390fd5b606060006200031d83600262000669565b6200032a9060026200068b565b6001600160401b03811115620003445762000344620006a6565b6040519080825280601f01601f1916602001820160405280156200036f576020820181803683370190505b509050600360fc1b816000815181106200038d576200038d620006bc565b60200101906001600160f81b031916908160001a905350600f60fb1b81600181518110620003bf57620003bf620006bc565b60200101906001600160f81b031916908160001a9053506000620003e584600262000669565b620003f29060016200068b565b90505b600181111562000474576f181899199a1a9b1b9c1cb0b131b232b360811b85600f16601081106200042a576200042a620006bc565b1a60f81b828281518110620004435762000443620006bc565b60200101906001600160f81b031916908160001a90535060049490941c936200046c81620006d2565b9050620003f5565b508315620004c55760405162461bcd60e51b815260206004820181905260248201527f537472696e67733a20686578206c656e67746820696e73756666696369656e74604482015260640162000303565b9392505050565b828054620004da90620006ec565b90600052602060002090601f016020900481019282620004fe576000855562000549565b82601f106200051957805160ff191683800117855562000549565b8280016001018555821562000549579182015b82811115620005495782518255916020019190600101906200052c565b50620005579291506200055b565b5090565b5b808211156200055757600081556001016200055c565b60005b838110156200058f57818101518382015260200162000575565b838111156200059f576000848401525b50505050565b7f416363657373436f6e74726f6c3a206163636f756e7420000000000000000000815260008351620005df81601785016020880162000572565b7001034b99036b4b9b9b4b733903937b6329607d1b60179184019182015283516200061281602884016020880162000572565b01602801949350505050565b60208152600082518060208401526200063f81604085016020870162000572565b601f01601f19169190910160400192915050565b634e487b7160e01b600052601160045260246000fd5b600081600019048311821515161562000686576200068662000653565b500290565b60008219821115620006a157620006a162000653565b500190565b634e487b7160e01b600052604160045260246000fd5b634e487b7160e01b600052603260045260246000fd5b600081620006e457620006e462000653565b506000190190565b600181811c908216806200070157607f821691505b602082108114156200072357634e487b7160e01b600052602260045260246000fd5b50919050565b615ed080620007396000396000f3fe608060405234801561001057600080fd5b50600436106101f25760003560e01c80637048027511610110578063a217fddf116100a8578063a217fddf1461047a578063a22cb46514610482578063b88d4fde14610495578063c491d241146104a8578063c5d14e7d146104bb578063c87b56dd146104ce578063d5391393146104e1578063d547741f146104f6578063d9c54dcd14610509578063e985e9c51461051c57600080fd5b806370480275146103cb57806370a08231146103de57806375b238fc146103f157806377a4ef281461040657806384efc52f1461041957806391d148541461042c57806395d89b411461043f57806398fc90e9146104475780639c4be1471461045a57600080fd5b806326f313dd1161018e57806326f313dd146102f157806328272a0c14610311578063282c51f3146103245780632f04e064146103395780632f2ff15d1461035957806336568abe1461036c578063366dbea31461037f57806342842e0e1461039257806342966c68146103a55780636352211e146103b857600080fd5b806301ffc9a7146101f757806305cbbaea1461021f57806306fdde031461024a578063081812fc1461025f578063095ea7b3146102725780631785f53c1461028757806323b872dd1461029a578063248a9ca3146102ad57806324d7806c146102de575b600080fd5b61020a61020536600461479a565b61052f565b60405190151581526020015b60405180910390f35b61023261022d36600461481b565b610540565b6040516001600160a01b039091168152602001610216565b610252610737565b60405161021691906148f3565b61023261026d366004614906565b6107c9565b61028561028036600461491f565b610851565b005b610285610295366004614949565b610962565b6102856102a8366004614964565b610994565b6102d06102bb366004614906565b60009081526007602052604090206001015490565b604051908152602001610216565b61020a6102ec366004614949565b6109c6565b6103046102ff366004614906565b6109e0565b6040516102169190614a79565b61023261031f366004614b5b565b61126a565b6102d0600080516020615b9d83398151915281565b61034c610347366004614949565b611444565b6040516102169190614be4565b610285610367366004614bf7565b6115aa565b61028561037a366004614bf7565b6115d0565b61028561038d366004614949565b61164e565b6102856103a0366004614964565b6117ea565b6102856103b3366004614906565b611805565b6102326103c6366004614906565b61187c565b6102856103d9366004614949565b6118f3565b6102d06103ec366004614949565b611922565b6102d0600080516020615e4b83398151915281565b61023261041436600461481b565b6119a9565b61034c610427366004614949565b611b97565b61020a61043a366004614bf7565b611be2565b610252611c0d565b610285610455366004614949565b611c1c565b61046d610468366004614949565b611d34565b6040516102169190614c23565b6102d0600081565b610285610490366004614c46565b611e1a565b6102856104a3366004614d1b565b611e25565b6102856104b6366004614d96565b611e5d565b6102856104c9366004614dc3565b611e7d565b6102526104dc366004614906565b612324565b6102d0600080516020615ccb83398151915281565b610285610504366004614bf7565b612c04565b610285610517366004614949565b612c2a565b61020a61052a366004614e36565b612d44565b600061053a82612f1d565b92915050565b6000856001600160a01b0381161580159061057557506001600160a01b038082166000818152600a6020526040902054909116145b61059a5760405162461bcd60e51b815260040161059190614e60565b60405180910390fd5b6105b1600080516020615e4b833981519152612f42565b6105c9600080516020615ccb833981519152886115aa565b6040518060600160405280886001600160a01b0316815260200187878080601f016020809104026020016040519081016040528093929190818152602001838380828437600092019190915250505090825250604080516020601f88018190048102820181019092528681529181019190879087908190840183828082843760009201829052509390945250506001600160a01b038a81168252600b60209081526040909220845181546001600160a01b031916921691909117815583820151805191935061069f926001850192910190614521565b50604082015180516106bb916002840191602090910190614521565b50905050866001600160a01b0316336001600160a01b03167f71ab4a249153d5423fd06f051b6449c4eface0e55946823b5c7fb08c54123565888888886040516107089493929190614eb0565b60405180910390a36001600160a01b038088166000908152600b60205260409020541691505095945050505050565b60606000805461074690614ee2565b80601f016020809104026020016040519081016040528092919081815260200182805461077290614ee2565b80156107bf5780601f10610794576101008083540402835291602001916107bf565b820191906000526020600020905b8154815290600101906020018083116107a257829003601f168201915b5050505050905090565b60006107d482612fab565b6108355760405162461bcd60e51b815260206004820152602c60248201527f4552433732313a20617070726f76656420717565727920666f72206e6f6e657860448201526b34b9ba32b73a103a37b5b2b760a11b6064820152608401610591565b506000908152600460205260409020546001600160a01b031690565b600061085c8261187c565b9050806001600160a01b0316836001600160a01b031614156108ca5760405162461bcd60e51b815260206004820152602160248201527f4552433732313a20617070726f76616c20746f2063757272656e74206f776e656044820152603960f91b6064820152608401610591565b336001600160a01b03821614806108e657506108e68133612d44565b6109535760405162461bcd60e51b815260206004820152603860248201527f4552433732313a20617070726f76652063616c6c6572206973206e6f74206f776044820152771b995c881b9bdc88185c1c1c9bdd995908199bdc88185b1b60421b6064820152608401610591565b61095d8383612fc8565b505050565b610979600080516020615e4b833981519152612f42565b610991600080516020615e4b83398151915282612c04565b50565b61099f335b82613036565b6109bb5760405162461bcd60e51b815260040161059190614f1d565b61095d838383613100565b600061053a600080516020615e4b83398151915283611be2565b6109e86145a5565b6000828152600d60209081526040918290208251610100810184528154815283516080810185526001830180546001600160a01b031682526002840154828601526003840180549396949587019492939192840191610a4690614ee2565b80601f0160208091040260200160405190810160405280929190818152602001828054610a7290614ee2565b8015610abf5780601f10610a9457610100808354040283529160200191610abf565b820191906000526020600020905b815481529060010190602001808311610aa257829003601f168201915b50505050508152602001600382018054610ad890614ee2565b80601f0160208091040260200160405190810160405280929190818152602001828054610b0490614ee2565b8015610b515780601f10610b2657610100808354040283529160200191610b51565b820191906000526020600020905b815481529060010190602001808311610b3457829003601f168201915b5050505050815250508152602001600582016040518060800160405290816000820160009054906101000a90046001600160a01b03166001600160a01b03166001600160a01b0316815260200160018201548152602001600282018054610bb790614ee2565b80601f0160208091040260200160405190810160405280929190818152602001828054610be390614ee2565b8015610c305780601f10610c0557610100808354040283529160200191610c30565b820191906000526020600020905b815481529060010190602001808311610c1357829003601f168201915b50505050508152602001600382018054610c4990614ee2565b80601f0160208091040260200160405190810160405280929190818152602001828054610c7590614ee2565b8015610cc25780601f10610c9757610100808354040283529160200191610cc2565b820191906000526020600020905b815481529060010190602001808311610ca557829003601f168201915b5050505050815250508152602001600982016040518060800160405290816000820160009054906101000a90046001600160a01b03166001600160a01b03166001600160a01b0316815260200160018201548152602001600282018054610d2890614ee2565b80601f0160208091040260200160405190810160405280929190818152602001828054610d5490614ee2565b8015610da15780601f10610d7657610100808354040283529160200191610da1565b820191906000526020600020905b815481529060010190602001808311610d8457829003601f168201915b50505050508152602001600382018054610dba90614ee2565b80601f0160208091040260200160405190810160405280929190818152602001828054610de690614ee2565b8015610e335780601f10610e0857610100808354040283529160200191610e33565b820191906000526020600020905b815481529060010190602001808311610e1657829003601f168201915b5050509190925250505081526040805160608101909152600d830180546001600160a01b03168252600e8401805460209485019484019190610e7490614ee2565b80601f0160208091040260200160405190810160405280929190818152602001828054610ea090614ee2565b8015610eed5780601f10610ec257610100808354040283529160200191610eed565b820191906000526020600020905b815481529060010190602001808311610ed057829003601f168201915b50505050508152602001600282018054610f0690614ee2565b80601f0160208091040260200160405190810160405280929190818152602001828054610f3290614ee2565b8015610f7f5780601f10610f5457610100808354040283529160200191610f7f565b820191906000526020600020905b815481529060010190602001808311610f6257829003601f168201915b50505091909252505050815260408051606081019091526010830180546001600160a01b0316825260118401805460209485019484019190610fc090614ee2565b80601f0160208091040260200160405190810160405280929190818152602001828054610fec90614ee2565b80156110395780601f1061100e57610100808354040283529160200191611039565b820191906000526020600020905b81548152906001019060200180831161101c57829003601f168201915b5050505050815260200160028201805461105290614ee2565b80601f016020809104026020016040519081016040528092919081815260200182805461107e90614ee2565b80156110cb5780601f106110a0576101008083540402835291602001916110cb565b820191906000526020600020905b8154815290600101906020018083116110ae57829003601f168201915b50505091909252505050815260408051610180810190915260209091019060138301600c6000835b8282101561119657838201805461110990614ee2565b80601f016020809104026020016040519081016040528092919081815260200182805461113590614ee2565b80156111825780601f1061115757610100808354040283529160200191611182565b820191906000526020600020905b81548152906001019060200180831161116557829003601f168201915b5050505050815260200190600101906110f3565b50505090825250604080516101808101909152602090910190601f8301600c6000835b8282101561125c5783820180546111cf90614ee2565b80601f01602080910402602001604051908101604052809291908181526020018280546111fb90614ee2565b80156112485780601f1061121d57610100808354040283529160200191611248565b820191906000526020600020905b81548152906001019060200180831161122b57829003601f168201915b5050505050815260200190600101906111b9565b505050915250909392505050565b6000611283600080516020615e4b833981519152612f42565b6001600160a01b0387166112c55760405162461bcd60e51b815260206004820152600960248201526830206164647265737360b81b6044820152606401610591565b6040518060800160405280886001600160a01b0316815260200187815260200186868080601f016020809104026020016040519081016040528093929190818152602001838380828437600092019190915250505090825250604080516020601f87018190048102820181019092528581529181019190869086908190840183828082843760009201829052509390945250506001600160a01b038a81168252600a6020908152604092839020855181546001600160a01b03191693169290921782558481015160018301559184015180519193506113ab926002850192910190614521565b50606082015180516113c7916003840191602090910190614521565b50905050866001600160a01b0316336001600160a01b03167f2899f951603074b4527d7184faf633e100d439bd609ac14a868f4cbaf63a4af28888888888604051611416959493929190614f6e565b60405180910390a3506001600160a01b038087166000908152600a6020526040902054169695505050505050565b61144c614613565b6001600160a01b038083166000908152600b6020908152604091829020825160608101909352805490931682526001830180549293929184019161148f90614ee2565b80601f01602080910402602001604051908101604052809291908181526020018280546114bb90614ee2565b80156115085780601f106114dd57610100808354040283529160200191611508565b820191906000526020600020905b8154815290600101906020018083116114eb57829003601f168201915b5050505050815260200160028201805461152190614ee2565b80601f016020809104026020016040519081016040528092919081815260200182805461154d90614ee2565b801561159a5780601f1061156f5761010080835404028352916020019161159a565b820191906000526020600020905b81548152906001019060200180831161157d57829003601f168201915b5050505050815250509050919050565b6000828152600760205260409020600101546115c68133613147565b61095d83836131ab565b6001600160a01b03811633146116405760405162461bcd60e51b815260206004820152602f60248201527f416363657373436f6e74726f6c3a2063616e206f6e6c792072656e6f756e636560448201526e103937b632b9903337b91039b2b63360891b6064820152608401610591565b61164a8282613231565b5050565b806001600160a01b0381161580159061168157506001600160a01b038082166000818152600a6020526040902054909116145b61169d5760405162461bcd60e51b815260040161059190614e60565b6001600160a01b038083166000908152600b6020526040902054839116156116f55760405162461bcd60e51b815260206004820152600b60248201526a34b99030902237b1ba37b960a91b6044820152606401610591565b6001600160a01b038084166000908152600c60205260409020548491161561174c5760405162461bcd60e51b815260206004820152600a6024820152696973206120706861726d60b01b6044820152606401610591565b611763600080516020615e4b833981519152612f42565b6001600160a01b0384166000908152600a6020526040812080546001600160a01b0319168155600181018290559061179e600283018261463d565b6117ac60038301600061463d565b50506040516001600160a01b0385169033907f1c8d73beffb6c2485595977dbefb2a4971542306c173c4a82361342d3fa5bb6890600090a350505050565b61095d83838360405180602001604052806000815250611e25565b61180e33610999565b6118735760405162461bcd60e51b815260206004820152603060248201527f4552433732314275726e61626c653a2063616c6c6572206973206e6f74206f7760448201526f1b995c881b9bdc88185c1c1c9bdd995960821b6064820152608401610591565b61099181613298565b6000818152600260205260408120546001600160a01b03168061053a5760405162461bcd60e51b815260206004820152602960248201527f4552433732313a206f776e657220717565727920666f72206e6f6e657869737460448201526832b73a103a37b5b2b760b91b6064820152608401610591565b61190a600080516020615e4b833981519152612f42565b610991600080516020615e4b833981519152826115aa565b60006001600160a01b03821661198d5760405162461bcd60e51b815260206004820152602a60248201527f4552433732313a2062616c616e636520717565727920666f7220746865207a65604482015269726f206164647265737360b01b6064820152608401610591565b506001600160a01b031660009081526003602052604090205490565b6000856001600160a01b038116158015906119de57506001600160a01b038082166000818152600a6020526040902054909116145b6119fa5760405162461bcd60e51b815260040161059190614e60565b611a11600080516020615e4b833981519152612f42565b611a29600080516020615b9d833981519152886115aa565b6040518060600160405280886001600160a01b0316815260200187878080601f016020809104026020016040519081016040528093929190818152602001838380828437600092019190915250505090825250604080516020601f88018190048102820181019092528681529181019190879087908190840183828082843760009201829052509390945250506001600160a01b038a81168252600c60209081526040909220845181546001600160a01b0319169216919091178155838201518051919350611aff926001850192910190614521565b5060408201518051611b1b916002840191602090910190614521565b50905050866001600160a01b0316336001600160a01b03167f88924f5ec9289c74e3328802e5f6c2bd0fa722d1be9a703f649ec615e52839b288888888604051611b689493929190614eb0565b60405180910390a36001600160a01b038088166000908152600c60205260409020541691505095945050505050565b611b9f614613565b6001600160a01b038083166000908152600c6020908152604091829020825160608101909352805490931682526001830180549293929184019161148f90614ee2565b60009182526007602090815260408084206001600160a01b0393909316845291905290205460ff1690565b60606001805461074690614ee2565b806001600160a01b03811615801590611c4f57506001600160a01b038082166000818152600b6020526040902054909116145b611c875760405162461bcd60e51b81526020600482015260096024820152686e6f74206120646f6360b81b6044820152606401610591565b611c9e600080516020615e4b833981519152612f42565b611cb6600080516020615ccb83398151915283612c04565b6001600160a01b0382166000908152600b6020526040812080546001600160a01b031916815590611cea600183018261463d565b611cf860028301600061463d565b50506040516001600160a01b0383169033907fa8e594181f47a35fece8945fdb513d77e8438e73821eeea250a5db0b9286dd3d90600090a35050565b611d3c614677565b6001600160a01b038083166000908152600a60209081526040918290208251608081018452815490941684526001810154918401919091526002810180549192840191611d8890614ee2565b80601f0160208091040260200160405190810160405280929190818152602001828054611db490614ee2565b8015611e015780601f10611dd657610100808354040283529160200191611e01565b820191906000526020600020905b815481529060010190602001808311611de457829003601f168201915b5050505050815260200160038201805461152190614ee2565b61164a33838361341d565b611e2f3383613036565b611e4b5760405162461bcd60e51b815260040161059190614f1d565b611e57848484846134e8565b50505050565b6000611e698133613147565b506009805460ff1916911515919091179055565b600080516020615ccb833981519152611e968133613147565b836001600160a01b03811615801590611ec957506001600160a01b038082166000818152600a6020526040902054909116145b611ee55760405162461bcd60e51b815260040161059190614e60565b336001600160a01b0386161415611f315760405162461bcd60e51b815260206004820152601060248201526f36b4b73a103a37903cb7bab939b2b63360811b6044820152606401610591565b611f3c60148561351b565b611f755760405162461bcd60e51b815260206004820152600a6024820152696b65792032206c6f6e6760b01b6044820152606401610591565b611f80603e8461351b565b611fbb5760405162461bcd60e51b815260206004820152600c60248201526b76616c75652032206c6f6e6760a01b6044820152606401610591565b6000611fc660085490565b9050611fd6600880546001019055565b611fe08682613578565b604051806101000160405280428152602001611ffb88611d34565b815260200161200933611d34565b8152604080516080810182526000808252602082810182905283518082018552828152838501528351808201855291825260608301919091528301520161204f33611444565b81526040805160608101825260008082528251602081810185528282528381019190915283518082018552918252828401919091528301520161209187614fa7565b815260200161209f86614fa7565b90526000828152600d6020908152604091829020835181558382015180516001830180546001600160a01b0319166001600160a01b039092169190911781558184015160028401559381015180519294919391926121039260038701920190614521565b506060820151805161211f916003840191602090910190614521565b50505060408281015180516005840180546001600160a01b0319166001600160a01b039092169190911781556020808301516006860155928201518051929391926121709260078701920190614521565b506060820151805161218c916003840191602090910190614521565b505050606082015180516009830180546001600160a01b0319166001600160a01b03909216919091178155602080830151600a850155604083015180516121d992600b8701920190614521565b50606082015180516121f5916003840191602090910190614521565b50505060808201518051600d830180546001600160a01b0319166001600160a01b03909216919091178155602080830151805161223892600e8701920190614521565b5060408201518051612254916002840191602090910190614521565b50505060a082015180516010830180546001600160a01b0319166001600160a01b0390921691909117815560208083015180516122979260118701920190614521565b50604082015180516122b3916002840191602090910190614521565b50505060c08201516122cb906013830190600c6146a8565b5060e08201516122e190601f830190600c6146a8565b50506040518291506001600160a01b0388169033907fe46b50d0a0bf8b2bd44aa8a4e4dd346ba0e8b35d8a438c6ce48d1910401b302390600090a4505050505050565b606061232f82612fab565b61236f5760405162461bcd60e51b81526020600482015260116024820152703737b732bc34b9ba32b73a103a37b5b2b760791b6044820152606401610591565b61053a8261237b610737565b612383611c0d565b6000868152600d60209081526040918290208251610100810184528154815283516080810185526001830180546001600160a01b0316825260028401548286015260038401805493969495870194929391928401916123e190614ee2565b80601f016020809104026020016040519081016040528092919081815260200182805461240d90614ee2565b801561245a5780601f1061242f5761010080835404028352916020019161245a565b820191906000526020600020905b81548152906001019060200180831161243d57829003601f168201915b5050505050815260200160038201805461247390614ee2565b80601f016020809104026020016040519081016040528092919081815260200182805461249f90614ee2565b80156124ec5780601f106124c1576101008083540402835291602001916124ec565b820191906000526020600020905b8154815290600101906020018083116124cf57829003601f168201915b5050505050815250508152602001600582016040518060800160405290816000820160009054906101000a90046001600160a01b03166001600160a01b03166001600160a01b031681526020016001820154815260200160028201805461255290614ee2565b80601f016020809104026020016040519081016040528092919081815260200182805461257e90614ee2565b80156125cb5780601f106125a0576101008083540402835291602001916125cb565b820191906000526020600020905b8154815290600101906020018083116125ae57829003601f168201915b505050505081526020016003820180546125e490614ee2565b80601f016020809104026020016040519081016040528092919081815260200182805461261090614ee2565b801561265d5780601f106126325761010080835404028352916020019161265d565b820191906000526020600020905b81548152906001019060200180831161264057829003601f168201915b5050505050815250508152602001600982016040518060800160405290816000820160009054906101000a90046001600160a01b03166001600160a01b03166001600160a01b03168152602001600182015481526020016002820180546126c390614ee2565b80601f01602080910402602001604051908101604052809291908181526020018280546126ef90614ee2565b801561273c5780601f106127115761010080835404028352916020019161273c565b820191906000526020600020905b81548152906001019060200180831161271f57829003601f168201915b5050505050815260200160038201805461275590614ee2565b80601f016020809104026020016040519081016040528092919081815260200182805461278190614ee2565b80156127ce5780601f106127a3576101008083540402835291602001916127ce565b820191906000526020600020905b8154815290600101906020018083116127b157829003601f168201915b5050509190925250505081526040805160608101909152600d830180546001600160a01b03168252600e840180546020948501948401919061280f90614ee2565b80601f016020809104026020016040519081016040528092919081815260200182805461283b90614ee2565b80156128885780601f1061285d57610100808354040283529160200191612888565b820191906000526020600020905b81548152906001019060200180831161286b57829003601f168201915b505050505081526020016002820180546128a190614ee2565b80601f01602080910402602001604051908101604052809291908181526020018280546128cd90614ee2565b801561291a5780601f106128ef5761010080835404028352916020019161291a565b820191906000526020600020905b8154815290600101906020018083116128fd57829003601f168201915b50505091909252505050815260408051606081019091526010830180546001600160a01b031682526011840180546020948501948401919061295b90614ee2565b80601f016020809104026020016040519081016040528092919081815260200182805461298790614ee2565b80156129d45780601f106129a9576101008083540402835291602001916129d4565b820191906000526020600020905b8154815290600101906020018083116129b757829003601f168201915b505050505081526020016002820180546129ed90614ee2565b80601f0160208091040260200160405190810160405280929190818152602001828054612a1990614ee2565b8015612a665780601f10612a3b57610100808354040283529160200191612a66565b820191906000526020600020905b815481529060010190602001808311612a4957829003601f168201915b50505091909252505050815260408051610180810190915260209091019060138301600c6000835b82821015612b31578382018054612aa490614ee2565b80601f0160208091040260200160405190810160405280929190818152602001828054612ad090614ee2565b8015612b1d5780601f10612af257610100808354040283529160200191612b1d565b820191906000526020600020905b815481529060010190602001808311612b0057829003601f168201915b505050505081526020019060010190612a8e565b50505090825250604080516101808101909152602090910190601f8301600c6000835b82821015612bf7578382018054612b6a90614ee2565b80601f0160208091040260200160405190810160405280929190818152602001828054612b9690614ee2565b8015612be35780601f10612bb857610100808354040283529160200191612be3565b820191906000526020600020905b815481529060010190602001808311612bc657829003601f168201915b505050505081526020019060010190612b54565b5050505081525050613592565b600082815260076020526040902060010154612c208133613147565b61095d8383613231565b806001600160a01b03811615801590612c5d57506001600160a01b038082166000818152600c6020526040902054909116145b612c975760405162461bcd60e51b815260206004820152600b60248201526a6e6f74206120706861726d60a81b6044820152606401610591565b612cae600080516020615e4b833981519152612f42565b612cc6600080516020615b9d83398151915283612c04565b6001600160a01b0382166000908152600c6020526040812080546001600160a01b031916815590612cfa600183018261463d565b612d0860028301600061463d565b50506040516001600160a01b0383169033907f766e9bc852164ffe6a52a05718450df1911430b9b92597bea4e051b3b1af8dd890600090a35050565b6001600160a01b03918216600090815260056020908152604080832093909416825291909152205460ff1690565b80546001019055565b60606000612d8a836002615053565b612d95906002615072565b6001600160401b03811115612dac57612dac614c70565b6040519080825280601f01601f191660200182016040528015612dd6576020820181803683370190505b509050600360fc1b81600081518110612df157612df161508a565b60200101906001600160f81b031916908160001a905350600f60fb1b81600181518110612e2057612e2061508a565b60200101906001600160f81b031916908160001a9053506000612e44846002615053565b612e4f906001615072565b90505b6001811115612ec7576f181899199a1a9b1b9c1cb0b131b232b360811b85600f1660108110612e8357612e8361508a565b1a60f81b828281518110612e9957612e9961508a565b60200101906001600160f81b031916908160001a90535060049490941c93612ec0816150a0565b9050612e52565b508315612f165760405162461bcd60e51b815260206004820181905260248201527f537472696e67733a20686578206c656e67746820696e73756666696369656e746044820152606401610591565b9392505050565b60006001600160e01b03198216637965db0b60e01b148061053a575061053a82613a1c565b60095460ff16612f56576109918133613147565b336000908152600a60205260409020546001600160a01b0316156109915760405162461bcd60e51b815260206004820152600c60248201526b1a5cc818481c185d1a595b9d60a21b6044820152606401610591565b6000908152600260205260409020546001600160a01b0316151590565b600081815260046020526040902080546001600160a01b0319166001600160a01b0384169081179091558190612ffd8261187c565b6001600160a01b03167f8c5be1e5ebec7d5bd14f71427d1e84f3dd0314c0f7b2291e5b200ac8c7c3b92560405160405180910390a45050565b600061304182612fab565b6130a25760405162461bcd60e51b815260206004820152602c60248201527f4552433732313a206f70657261746f7220717565727920666f72206e6f6e657860448201526b34b9ba32b73a103a37b5b2b760a11b6064820152608401610591565b60006130ad8361187c565b9050806001600160a01b0316846001600160a01b031614806130e85750836001600160a01b03166130dd846107c9565b6001600160a01b0316145b806130f857506130f88185612d44565b949350505050565b331561095d5760405162461bcd60e51b81526020600482015260166024820152757278732061726520756e7472616e7366657261626c6560501b6044820152606401610591565b6131518282611be2565b61164a57613169816001600160a01b03166014612d7b565b613174836020612d7b565b6040516020016131859291906150b7565b60408051601f198184030181529082905262461bcd60e51b8252610591916004016148f3565b6131b58282611be2565b61164a5760008281526007602090815260408083206001600160a01b03851684529091529020805460ff191660011790556131ed3390565b6001600160a01b0316816001600160a01b0316837f2f8788117e7eff1d82e926ec794901d17c78024a50270940304540a733656f0d60405160405180910390a45050565b61323b8282611be2565b1561164a5760008281526007602090815260408083206001600160a01b0385168085529252808320805460ff1916905551339285917ff6391f5c32d9c69d2a47ea670b442974b53935d1edc7fd64eb21e047a839171b9190a45050565b600080516020615b9d8339815191526132b18133613147565b336132bb836107c9565b6001600160a01b031614806132dd57506132dd6132d78361187c565b33612d44565b61331e5760405162461bcd60e51b81526020600482015260126024820152711c1a185c9b481b9bdd08185c1c1c9bdd995960721b6044820152606401610591565b61332733611d34565b6000838152600d602090815260409182902083516009820180546001600160a01b0319166001600160a01b0390921691909117815584830151600a83015592840151805161337f93600b909301929190910190614521565b506060820151805161339b916003840191602090910190614521565b509050506133a833611b97565b6000838152600d6020908152604090912082516010820180546001600160a01b0319166001600160a01b0390921691909117815583830151805191936133f49360110192910190614521565b5060408201518051613410916002840191602090910190614521565b5090505061164a82613a6c565b816001600160a01b0316836001600160a01b0316141561347b5760405162461bcd60e51b815260206004820152601960248201527822a9219b99189d1030b8383937bb32903a379031b0b63632b960391b6044820152606401610591565b6001600160a01b03838116600081815260056020908152604080832094871680845294825291829020805460ff191686151590811790915591519182527f17307eab39ab6107e8899845ad3d59bd9653f200f220920489ca2b5937696c31910160405180910390a3505050565b6134f3848484613100565b6134ff84848484613aac565b611e575760405162461bcd60e51b815260040161059190615126565b6000805b600c81101561356e57838382600c811061353b5761353b61508a565b60200281019061354b9190615178565b90501061355c57600091505061053a565b80613566816151be565b91505061351f565b5060019392505050565b61164a828260405180602001604052806000815250613bb6565b8051604051630b11527160e31b8152600481019190915260609060009073__DateTime______________________________9063588a93889060240160006040518083038186803b1580156135e657600080fd5b505af41580156135fa573d6000803e3d6000fd5b505050506040513d6000823e601f3d908101601f1916820160405261362291908101906151d9565b9050600073__DateTime______________________________63588a93888560200151602001516040518263ffffffff1660e01b815260040161366791815260200190565b60006040518083038186803b15801561367f57600080fd5b505af4158015613693573d6000803e3d6000fd5b505050506040513d6000823e601f3d908101601f191682016040526136bb91908101906151d9565b90506136c56146f4565b60408051808201825260098152683d913730b6b2911d1160b91b602080830191909152908352828101899052815180830183526002815261202360f01b918101919091529082015261371688613be9565b606082015260408051808201909152600c81526b11161139bcb6b137b6111d1160a11b602082015281600460200201528581600560200201819052506040518060600160405280602c8152602001615be2602c913960c082015260408051606081019091526034808252615dc5602083013960e082015260208501516040015181600860200201819052506040518060600160405280602e8152602001615e1d602e9139610120820152610140810182905260408051606081019091526028808252615c0e6020830139610160820152604085810151810151610180830152805160608101909152602a808252615c6160208301396101a082015260808501516020015181600e60200201819052506040518060600160405280602b8152602001615c36602b913961020082015260808501516040908101516102208301528051606081019091526024808252615df960208301396102408201526102608101839052604080518082019091526003815262227d5d60e81b60208201528160146020020181905250604051806060016040528060258152602001615bbd602591396102a08201526138d06138cb898988613ce6565b6141ee565b6102c08201526040805180820182526002815261227d60f01b6020808301919091526102e0840191909152825181840151838501516060860151608087015160a088015160c089015160e08a01516101008b0151995160009a6139359a909101615246565b60408051808303601f19018152908290526101208401516101408501516101608601516101808701516101a08801516101c08901516101e08a01516102008b0151979950613988988a9890602001615246565b60408051808303601f19018152908290526102208401516102408501516102608601516102808701516102a08801516102c08901516102e08a01519698506139d597899790602001615307565b60405160208183030381529060405290506139ef816141ee565b6040516020016139ff91906153ac565b604051602081830303815290604052945050505050949350505050565b60006001600160e01b031982166380ac58cd60e01b1480613a4d57506001600160e01b03198216635b5e139f60e01b145b8061053a57506301ffc9a760e01b6001600160e01b031983161461053a565b613a7581614353565b60008181526006602052604090208054613a8e90614ee2565b1590506109915760008181526006602052604081206109919161463d565b60006001600160a01b0384163b15613bae57604051630a85bd0160e11b81526001600160a01b0385169063150b7a0290613af09033908990889088906004016153f1565b602060405180830381600087803b158015613b0a57600080fd5b505af1925050508015613b3a575060408051601f3d908101601f19168201909252613b3791810190615424565b60015b613b94573d808015613b68576040519150601f19603f3d011682016040523d82523d6000602084013e613b6d565b606091505b508051613b8c5760405162461bcd60e51b815260040161059190615126565b805181602001fd5b6001600160e01b031916630a85bd0160e11b1490506130f8565b5060016130f8565b613bc083836143ee565b613bcd6000848484613aac565b61095d5760405162461bcd60e51b815260040161059190615126565b606081613c0d5750506040805180820190915260018152600360fc1b602082015290565b8160005b8115613c375780613c21816151be565b9150613c309050600a83615457565b9150613c11565b6000816001600160401b03811115613c5157613c51614c70565b6040519080825280601f01601f191660200182016040528015613c7b576020820181803683370190505b5090505b84156130f857613c9060018361546b565b9150613c9d600a86615482565b613ca8906030615072565b60f81b818381518110613cbd57613cbd61508a565b60200101906001600160f81b031916908160001a905350613cdf600a86615457565b9450613c7f565b8051604051630b11527160e31b8152600481019190915260609060009073__DateTime______________________________9063588a93889060240160006040518083038186803b158015613d3a57600080fd5b505af4158015613d4e573d6000803e3d6000fd5b505050506040513d6000823e601f3d908101601f19168201604052613d7691908101906151d9565b9050600073__DateTime______________________________63588a93888560200151602001516040518263ffffffff1660e01b8152600401613dbb91815260200190565b60006040518083038186803b158015613dd357600080fd5b505af4158015613de7573d6000803e3d6000fd5b505050506040513d6000823e601f3d908101601f19168201604052613e0f91908101906151d9565b9050613e1961471c565b6040518061032001604052806102e781526020016158b66102e7913981526040805160208101909152600080825261011891905b600c811015613ee7578760c0015181600c8110613e6c57613e6c61508a565b6020020151805190925015613ec857613e8483613be9565b82604051602001613e969291906154a9565b60408051601f1981840301815291905284613eb2836001615072565b601e8110613ec257613ec261508a565b60200201525b613ed3601e84615072565b925080613edf816151be565b915050613e4d565b50604051806060016040528060308152602001615e6b603091396101a0840152602087015160408101516060820151915190918691613f30906001600160a01b03166014612d7b565b604051602001613f439493929190615518565b60408051808303601f190181529190526101c08401528488613f648b613be9565b604051602001613f7693929190615613565b60408051808303601f190181529181526101e08501919091528781015181015160808901516020810151928101519051919291613fbd906001600160a01b03166014612d7b565b604051602001613fd094939291906156f8565b60408051808303601f19018152919052610200840152610118915060005b600c811015614088578760e0015181600c811061400d5761400d61508a565b60200201518051909250156140695761402583613be9565b826040516020016140379291906157f6565b60408051601f1981840301815291905284614053836011615072565b601e81106140635761406361508a565b60200201525b614074601e84615072565b925080614080816151be565b915050613fee565b5060405180610100016040528060da8152602001615ceb60da91396103a084015282516020808501516040808701516060880151608089015160a08a015160c08b015160e08c015195516000996140e3999098979101615307565b60408051808303601f19018152908290526101008601516101208701516101408801516101608901516101808a01516101a08b01516101c08c01516101e08d0151979950614136988a9890602001615246565b60408051808303601f19018152908290526102008601516102208701516102408801516102608901516102808a01516102a08b01516102c08c01516102e08d0151979950614189988a9890602001615246565b60408051808303601f19018152908290526103008601516103208701516103408801516103608901516103808a01516103a08b01519597506141d096889690602001615823565b60408051808303601f190181529190529a9950505050505050505050565b606081516000141561420e57505060408051602081019091526000815290565b6000604051806060016040528060408152602001615c8b604091399050600060038451600261423d9190615072565b6142479190615457565b614252906004615053565b90506000614261826020615072565b6001600160401b0381111561427857614278614c70565b6040519080825280601f01601f1916602001820160405280156142a2576020820181803683370190505b509050818152600183018586518101602084015b8183101561430e576003830192508251603f8160121c168501518253600182019150603f81600c1c168501518253600182019150603f8160061c168501518253600182019150603f81168501518253506001016142b6565b600389510660018114614328576002811461433957614345565b613d3d60f01b600119830152614345565b603d60f81b6000198301525b509398975050505050505050565b600061435e8261187c565b905061436b600083612fc8565b6001600160a01b038116600090815260036020526040812080546001929061439490849061546b565b909155505060008281526002602052604080822080546001600160a01b0319169055518391906001600160a01b038416907fddf252ad1be2c89b69c2b068fc378daa952ba7f163c4a11628f55a4df523b3ef908390a45050565b6001600160a01b0382166144445760405162461bcd60e51b815260206004820181905260248201527f4552433732313a206d696e7420746f20746865207a65726f20616464726573736044820152606401610591565b61444d81612fab565b1561449a5760405162461bcd60e51b815260206004820152601c60248201527f4552433732313a20746f6b656e20616c7265616479206d696e746564000000006044820152606401610591565b6001600160a01b03821660009081526003602052604081208054600192906144c3908490615072565b909155505060008181526002602052604080822080546001600160a01b0319166001600160a01b03861690811790915590518392907fddf252ad1be2c89b69c2b068fc378daa952ba7f163c4a11628f55a4df523b3ef908290a45050565b82805461452d90614ee2565b90600052602060002090601f01602090048101928261454f5760008555614595565b82601f1061456857805160ff1916838001178555614595565b82800160010185558215614595579182015b8281111561459557825182559160200191906001019061457a565b506145a1929150614737565b5090565b604051806101000160405280600081526020016145c0614677565b81526020016145cd614677565b81526020016145da614677565b81526020016145e7614613565b81526020016145f4614613565b815260200161460161474c565b815260200161460e61474c565b905290565b604051806060016040528060006001600160a01b0316815260200160608152602001606081525090565b50805461464990614ee2565b6000825580601f10614659575050565b601f0160209004906000526020600020908101906109919190614737565b604051806080016040528060006001600160a01b031681526020016000815260200160608152602001606081525090565b82600c81019282156146e8579160200282015b828111156146e857825180516146d8918491602090910190614521565b50916020019190600101906146bb565b506145a1929150614767565b6040518061030001604052806018905b60608152602001906001900390816147045790505090565b604080516103c0810190915260608152601d60208201614704565b5b808211156145a15760008155600101614738565b60408051610180810190915260608152600b60208201614704565b808211156145a157600061477b828261463d565b50600101614767565b6001600160e01b03198116811461099157600080fd5b6000602082840312156147ac57600080fd5b8135612f1681614784565b80356001600160a01b03811681146147ce57600080fd5b919050565b60008083601f8401126147e557600080fd5b5081356001600160401b038111156147fc57600080fd5b60208301915083602082850101111561481457600080fd5b9250929050565b60008060008060006060868803121561483357600080fd5b61483c866147b7565b945060208601356001600160401b038082111561485857600080fd5b61486489838a016147d3565b9096509450604088013591508082111561487d57600080fd5b5061488a888289016147d3565b969995985093965092949392505050565b60005b838110156148b657818101518382015260200161489e565b83811115611e575750506000910152565b600081518084526148df81602086016020860161489b565b601f01601f19169290920160200192915050565b602081526000612f1660208301846148c7565b60006020828403121561491857600080fd5b5035919050565b6000806040838503121561493257600080fd5b61493b836147b7565b946020939093013593505050565b60006020828403121561495b57600080fd5b612f16826147b7565b60008060006060848603121561497957600080fd5b614982846147b7565b9250614990602085016147b7565b9150604084013590509250925092565b60018060a01b0381511682526020810151602083015260006040820151608060408501526149d160808501826148c7565b9050606083015184820360608601526149ea82826148c7565b95945050505050565b60018060a01b0381511682526000602082015160606020850152614a1a60608501826148c7565b9050604083015184820360408601526149ea82826148c7565b60008261018081018360005b600c811015614a6e578383038752614a588383516148c7565b6020978801979093509190910190600101614a3f565b509095945050505050565b602081528151602082015260006020830151610100806040850152614aa26101208501836149a0565b91506040850151601f1980868503016060870152614ac084836149a0565b93506060870151915080868503016080870152614add84836149a0565b935060808701519150808685030160a0870152614afa84836149f3565b935060a08701519150808685030160c0870152614b1784836149f3565b935060c08701519150808685030160e0870152614b348483614a33565b935060e0870151915080868503018387015250614b518382614a33565b9695505050505050565b60008060008060008060808789031215614b7457600080fd5b614b7d876147b7565b95506020870135945060408701356001600160401b0380821115614ba057600080fd5b614bac8a838b016147d3565b90965094506060890135915080821115614bc557600080fd5b50614bd289828a016147d3565b979a9699509497509295939492505050565b602081526000612f1660208301846149f3565b60008060408385031215614c0a57600080fd5b82359150614c1a602084016147b7565b90509250929050565b602081526000612f1660208301846149a0565b803580151581146147ce57600080fd5b60008060408385031215614c5957600080fd5b614c62836147b7565b9150614c1a60208401614c36565b634e487b7160e01b600052604160045260246000fd5b604051601f8201601f191681016001600160401b0381118282101715614cae57614cae614c70565b604052919050565b60006001600160401b03821115614ccf57614ccf614c70565b50601f01601f191660200190565b6000614cf0614ceb84614cb6565b614c86565b9050828152838383011115614d0457600080fd5b828260208301376000602084830101529392505050565b60008060008060808587031215614d3157600080fd5b614d3a856147b7565b9350614d48602086016147b7565b92506040850135915060608501356001600160401b03811115614d6a57600080fd5b8501601f81018713614d7b57600080fd5b614d8a87823560208401614cdd565b91505092959194509250565b600060208284031215614da857600080fd5b612f1682614c36565b80610180810183101561053a57600080fd5b600080600060608486031215614dd857600080fd5b614de1846147b7565b925060208401356001600160401b0380821115614dfd57600080fd5b614e0987838801614db1565b93506040860135915080821115614e1f57600080fd5b50614e2c86828701614db1565b9150509250925092565b60008060408385031215614e4957600080fd5b614e52836147b7565b9150614c1a602084016147b7565b6020808252600d908201526c1b9bdd0818481cdd589a9958dd609a1b604082015260600190565b81835281816020850137506000828201602090810191909152601f909101601f19169091010190565b604081526000614ec4604083018688614e87565b8281036020840152614ed7818587614e87565b979650505050505050565b600181811c90821680614ef657607f821691505b60208210811415614f1757634e487b7160e01b600052602260045260246000fd5b50919050565b60208082526031908201527f4552433732313a207472616e736665722063616c6c6572206973206e6f74206f6040820152701ddb995c881b9bdc88185c1c1c9bdd9959607a1b606082015260800190565b858152606060208201526000614f88606083018688614e87565b8281036040840152614f9b818587614e87565b98975050505050505050565b60006040516101808082016001600160401b038382108183111715614fce57614fce614c70565b81604052839150828601925036831115614fe757600080fd5b855b83811015615032578035828111156150015760008081fd5b870136601f8201126150135760008081fd5b6020615023368335838501614cdd565b85529093019250602001614fe9565b509295945050505050565b634e487b7160e01b600052601160045260246000fd5b600081600019048311821515161561506d5761506d61503d565b500290565b600082198211156150855761508561503d565b500190565b634e487b7160e01b600052603260045260246000fd5b6000816150af576150af61503d565b506000190190565b76020b1b1b2b9b9a1b7b73a3937b61d1030b1b1b7bab73a1604d1b8152600083516150e981601785016020880161489b565b7001034b99036b4b9b9b4b733903937b6329607d1b601791840191820152835161511a81602884016020880161489b565b01602801949350505050565b60208082526032908201527f4552433732313a207472616e7366657220746f206e6f6e20455243373231526560408201527131b2b4bb32b91034b6b83632b6b2b73a32b960711b606082015260800190565b6000808335601e1984360301811261518f57600080fd5b8301803591506001600160401b038211156151a957600080fd5b60200191503681900382131561481457600080fd5b60006000198214156151d2576151d261503d565b5060010190565b6000602082840312156151eb57600080fd5b81516001600160401b0381111561520157600080fd5b8201601f8101841361521257600080fd5b8051615220614ceb82614cb6565b81815285602083850101111561523557600080fd5b6149ea82602083016020860161489b565b60008a51615258818460208f0161489b565b8a5161526a8183860160208f0161489b565b8a51918401019061527f818360208e0161489b565b89516152918183850160208e0161489b565b89519290910101906152a7818360208c0161489b565b87516152b98183850160208c0161489b565b87519290910101906152cf818360208a0161489b565b85516152e18183850160208a0161489b565b85519290910101906152f781836020880161489b565b019b9a5050505050505050505050565b60008951602061531a8285838f0161489b565b8a519184019161532d8184848f0161489b565b8a5192019161533f8184848e0161489b565b89519201916153518184848d0161489b565b88519201916153638184848c0161489b565b87519201916153758184848b0161489b565b86519201916153878184848a0161489b565b8551920191615399818484890161489b565b919091019b9a5050505050505050505050565b7f646174613a6170706c69636174696f6e2f6a736f6e3b6261736536342c0000008152600082516153e481601d85016020870161489b565b91909101601d0192915050565b6001600160a01b0385811682528416602082015260408101839052608060608201819052600090614b51908301846148c7565b60006020828403121561543657600080fd5b8151612f1681614784565b634e487b7160e01b600052601260045260246000fd5b60008261546657615466615441565b500490565b60008282101561547d5761547d61503d565b500390565b60008261549157615491615441565b500690565b661e17ba32bc3a1f60c91b815260070190565b701e3a32bc3a103c1e9118989c11103c9e9160791b815282516000906154d681601185016020880161489b565b61111f60f11b60119184019182015283516154f881601384016020880161489b565b661e17ba32bc3a1f60c91b60139290910191820152601a01949350505050565b741e3a32bc3a103c1e9118991c11103c9e911998111f60591b81528451600090615549816015850160208a0161489b565b661e17ba32bc3a1f60c91b6015918401918201819052741e3a32bc3a103c1e9118991c11103c9e911b18111f60591b601c8301528651615590816031850160208b0161489b565b60319201918201819052741e3a32bc3a103c1e9118991c11103c9e911c98111f60591b603883015285516155cb81604d850160208a0161489b565b604d920191820152751e3a32bc3a103c1e9118991c11103c9e91189918111f60511b6054820152835161560581606a84016020880161489b565b614f9b606a82840101615496565b751e3a32bc3a103c1e9118991c11103c9e911b1b18111f60511b8152835160009061564581601685016020890161489b565b7f3c2f746578743e3c7465787420783d223538352220793d2236363022207465786016918401918201527f742d616e63686f723d22656e642220666f6e742d7374796c653d226974616c6960368201526231911f60e91b605682015284516156b481605984016020890161489b565b61011960f51b6059929091019182015283516156d781605b84016020880161489b565b661e17ba32bc3a1f60c91b605b929091019182015260620195945050505050565b751e3a32bc3a103c1e9118991c11103c9e911b1c98111f60511b8152845160009061572a816016850160208a0161489b565b661e17ba32bc3a1f60c91b6016918401918201819052751e3a32bc3a103c1e9118991c11103c9e911b9918111f60511b601d8301528651615772816033850160208b0161489b565b60339201918201819052751e3a32bc3a103c1e9118991c11103c9e911b9a98111f60511b603a83015285516157ae816050850160208a0161489b565b6050920191820152751e3a32bc3a103c1e9118991c11103c9e911b9c18111f60511b605782015283516157e881606d84016020880161489b565b614f9b606d82840101615496565b701e3a32bc3a103c1e9118991c11103c9e9160791b815282516000906154d681601185016020880161489b565b6000885160206158368285838e0161489b565b8951918401916158498184848e0161489b565b895192019161585b8184848d0161489b565b885192019161586d8184848c0161489b565b875192019161587f8184848b0161489b565b86519201916158918184848a0161489b565b85519201916158a3818484890161489b565b919091019a995050505050505050505056fe3c73766720786d6c6e733d22687474703a2f2f7777772e77332e6f72672f323030302f7376672220666f6e742d66616d696c793d2273616e732d73657269662220666f6e742d73697a653d223132707822207072657365727665417370656374526174696f3d22784d696e594d696e206d656574222076696577426f783d22302030203630302038303022207374796c653d226261636b67726f756e643a7768697465223e3c672066696c6c3d226e6f6e6522207374726f6b653d222330303022207374726f6b652d77696474683d22317078223e3c7265637420783d22322220793d2232222077696474683d2235393622206865696768743d22373936222f3e3c7061746820643d226d31352031333568353730222f3e3c7061746820643d226d31352036333068353730222f3e3c2f673e3c6720666f6e742d73697a653d2238387078223e3c7465787420783d2231302220793d22323135223e503c2f746578743e3c7465787420783d2233352220793d22323530223e583c2f746578743e3c2f673e3c6720746578742d616e63686f723d22656e64223e3c7465787420783d223131382220793d223330223e4e616d653c2f746578743e3c7465787420783d223131382220793d223630223e44617465206f662042697274683c2f746578743e3c7465787420783d223131382220793d223930223e416464726573733c2f746578743e3c7465787420783d223131382220793d22313230223e50617469656e742057616c6c65743c2f746578743e3c7465787420783d223131382220793d22363630223e446174653c2f746578743e3c7465787420783d223131382220793d22363930223e446f63746f72204e616d653c2f746578743e3c7465787420783d223131382220793d22373230223e4d443c2f746578743e3c7465787420783d223131382220793d22373530223e4c6963656e73653c2f746578743e3c7465787420783d223131382220793d22373830223e446f63746f722057616c6c65743c2f746578743e3c11d16cbaffd01df69ce1c404f6340ee057498f5f00246190ea54220576a8482c22696d616765223a2022646174613a696d6167652f7376672b786d6c3b6261736536342c222c226465736372697074696f6e223a224f6e2d436861696e204e465420507265736372697074696f6e7322227d2c7b2274726169745f74797065223a22446f63746f72204e616d65222c2276616c7565223a22227d2c7b2274726169745f74797065223a22446f63746f72204c6963656e7365222c2276616c7565223a22227d2c7b2274726169745f74797065223a22446f63746f7220446567726565222c2276616c7565223a224142434445464748494a4b4c4d4e4f505152535455565758595a6162636465666768696a6b6c6d6e6f707172737475767778797a303132333435363738392b2f9f2df0fed2c77648de5860a4cc508cd0818c85b8b8a1ab4ceeef8d981c8956a63c2f673e3c67206f7061636974793d22302e36223e3c636972636c652066696c6c3d226461726b626c7565222063783d22353636222063793d223735342e342220723d22372e35222f3e3c706174682066696c6c3d227265642220643d226d3538302e342037363168346c2d31352c3234682d347a222f3e3c706174682066696c6c3d226461726b7265642220643d226d3536352e342037363168346c31352c3234682d347a222f3e3c706174682066696c6c3d22626c75652220643d226d353538203734397632346831357a222f3e3c2f673e3c2f7376673e2c2261747472696275746573223a5b7b2274726169745f74797065223a2250617469656e744e616d65222c2276616c7565223a22227d2c7b2274726169745f74797065223a2252582044617465222c2276616c7565223a22227d2c7b2274726169745f74797065223a2250617469656e7420426972746864617465222c2276616c7565223a22a49807205ce4d355092ef5a8a18f56e8913cf4a201fbe287825b095693c217753c2f673e3c6720666f6e742d66616d696c793d22436f75726965722220666f6e742d7765696768743d22626f6c64223ea2646970667358221220faeb7cf0eb02cc90aa9404681212ca9478e733e2c099f9f05f0c94827e1fc02464736f6c63430008090033a49807205ce4d355092ef5a8a18f56e8913cf4a201fbe287825b095693c21775",
  "immutableReferences": {},
  "source": "// SPDX-License-Identifier: MIT\npragma solidity 0.8.9;\n\nimport \"@openzeppelin/contracts/token/ERC721/ERC721.sol\";\nimport \"@openzeppelin/contracts/token/ERC721/extensions/ERC721URIStorage.sol\";\nimport \"@openzeppelin/contracts/token/ERC721/extensions/ERC721Burnable.sol\";\nimport \"@openzeppelin/contracts/access/AccessControl.sol\";\nimport \"@openzeppelin/contracts/utils/Counters.sol\";\n// import { Base64 } from \"base64-sol/base64.sol\";\nimport { RxStructs } from \"./libraries/RxStructs.sol\";\nimport { TokenURIDescriptor } from \"./libraries/TokenURIDescriptor.sol\";\n\n/// @title A NFT Prescription creator\n/// @author Matias Parij (@7i7o)\n/// @notice You can use this contract only as a MVP for minting Prescriptions\n/// @dev Features such as workplaces for doctors or pharmacists are for future iterations\ncontract Rx is ERC721, ERC721URIStorage, ERC721Burnable, AccessControl {\n\n    /// @notice Using OpenZeppelin's Counters for TokenId enumeration\n    using Counters for Counters.Counter;\n\n    /// @notice Role definition for Minter\n    bytes32 public constant ADMIN_ROLE = keccak256(\"ADMIN_ROLE\");\n    /// @notice Role definition for Minter\n    bytes32 public constant MINTER_ROLE = keccak256(\"MINTER_ROLE\");\n    /// @notice Role definition for Burner\n    bytes32 public constant BURNER_ROLE = keccak256(\"BURNER_ROLE\");\n\n    /// @notice Using OpenZeppelin's Counters for TokenId enumeration\n    /// @dev We increment the counter in the constructor to start Ids in 1, keeping Id 0 (default for\n    ///      uints in solidity) to signal that someone doesn't have any NFTs\n    Counters.Counter private _tokenIdCounter;\n\n    /** Begin of State Variables & Modifiers for final project */\n\n    bool private pausableRolePaused = false;\n\n    uint256 constant MAX_KEY_LENGTH = 20;\n    uint256 constant MAX_VALUE_LENGTH = 62;\n    uint256 constant RX_LINES = 12; // Has to be same value as in RxStructs !!!\n\n    /// @notice this mapping holds all the subjects registered in the contract\n    mapping ( address => RxStructs.Subject ) private subjects;\n\n    /// @notice this mapping holds all the doctors registered in the contract\n    mapping ( address => RxStructs.Doctor ) private doctors;\n\n    /// @notice this mapping holds all the pharmacists registered in the contract\n    mapping ( address => RxStructs.Pharmacist ) private pharmacists;\n\n    /// @notice this mapping holds all the prescriptions minted in the contract\n    mapping (uint256 => RxStructs.RxData) private rxs;\n\n    /// @dev Modifier that checks that an account is actually a registered subject\n    modifier isSubject(address _subjectId) {\n        require( (_subjectId != address(0) && subjects[_subjectId].subjectId == _subjectId) ,\n                    'not a subject'\n                );\n        _;\n    }\n\n    /// @dev Modifier that checks that an account is a registered doctor\n    modifier isDoctor(address _subjectId) {\n        require( (_subjectId != address(0) && doctors[_subjectId].subjectId == _subjectId) ,\n                    'not a doc'\n                );\n        _;\n    }\n\n    /// @dev Modifier that checks that an account is NOT a registered doctor\n    modifier isNotDoctor(address _subjectId) {\n        require( (doctors[_subjectId].subjectId == address(0)) ,\n                    'is a Doctor'\n                );\n        _;\n    }\n\n    /// @dev Modifier that checks that an account is a registered pharmacist\n    modifier isPharmacist(address _subjectId) {\n        require( (_subjectId != address(0) && pharmacists[_subjectId].subjectId == _subjectId) ,\n                    'not a pharm'\n                );\n        _;\n    }\n\n    /// @dev Modifier that checks that an account is NOT a registered pharmacist\n    modifier isNotPharmacist(address _subjectId) {\n        require( (pharmacists[_subjectId].subjectId == address(0)) ,\n                    'is a pharm'\n                );\n        _;\n    }\n\n    /// @dev Function to allow accounts not registered as patient to have a pausable role\n    function onlyPausableRole(bytes32 role) private view {\n        if (!pausableRolePaused) {\n            _checkRole(role, _msgSender());\n        } else {\n            // Not registered accounts act as pausable role\n            require( subjects[_msgSender()].subjectId == address(0), 'is a patient');\n        }\n        // _;\n    }\n\n    /// @notice Event to signal when a new Rx has been minted\n    /// @param sender address of the Doctor that minted the Rx\n    /// @param receiver address of the Subject that received the Rx minted\n    /// @param tokenId Id of the Token (Rx) that has been minted\n    event minted(address indexed sender, address indexed receiver, uint256 indexed tokenId);\n\n    /// @notice Event to signal when adding/replacing a Subject allowed to receive/hold NFT Prescriptions\n    /// @param sender is the address of the admin that set the Subject's data\n    /// @param _subjectId is the registered address of the subject (approved for holding NFT Prescriptions)\n    /// @param _birthDate is the subjects' date of birth, in seconds, from UNIX Epoch (1970-01-01)\n    /// @param _name is the subject's full name\n    /// @param _homeAddress is the subject's legal home address\n    event subjectDataSet(address indexed sender, address indexed _subjectId, uint256 _birthDate, string _name, string _homeAddress);\n\n    /// @notice Event to signal when adding/replacing a Doctor allowed to mint NFT Prescriptions\n    /// @param sender is the address of the admin that set the Doctor's data\n    /// @param _subjectId is the ethereum address for the doctor (same Id as the subject that holds this doctor's personal details)\n    /// @param _degree contains a string with the degree of the doctor\n    /// @param _license contains a string with the legal license of the doctor\n    event doctorDataSet(address indexed sender, address indexed _subjectId, string _degree, string _license);\n    \n    /// @notice Event to signal when adding/replacing a Pharmacist allowed to burn NFT Prescriptions\n    /// @param sender is the address of the admin that set the Pharmacist's data\n    /// @param _subjectId is the ethereum address for the pahrmacist (same Id as the subject that holds this pharmacist's personal details)\n    /// @param _degree contains a string with the degree of the pharmacist\n    /// @param _license contains a string with the legal license of the pharmacist\n    event pharmacistDataSet(address indexed sender, address indexed _subjectId, string _degree, string _license);\n\n    /// @notice Event to signal a removed Subject\n    /// @param sender is the address of the admin that removed the Subject\n    /// @param _subjectId is the registered address of the subject removed\n    event subjectRemoved(address indexed sender, address indexed _subjectId);\n\n    /// @notice Event to signal a removed Doctor\n    /// @param sender is the address of the admin that removed the Doctor\n    /// @param _subjectId is the registered address of the doctor removed\n    event doctorRemoved(address indexed sender, address indexed _subjectId);\n\n    /// @notice Event to signal a removed Pharmacist\n    /// @param sender is the address of the admin that removed the Pharmacist\n    /// @param _subjectId is the registered address of the pharmacist removed\n    event pharmacistRemoved(address indexed sender, address indexed _subjectId);\n\n    /** End of State Variables & Modifiers for final project */\n\n    /// @notice constructor for NFT Prescriptions contract\n    /// @dev Using ERC721 default constructor with \"Prescription\" and \"Rx\" as Name and Symbol for the tokens\n    /// @dev We set up the contract creator (msg.sender) with the ADMIN_ROLE to manage all the other Roles\n    /// @dev We increment the counter in the constructor to start Ids in 1, keeping Id 0 (default for uints\n    ///      in solidity) to signal that someone doesn't have any NFTs\n    constructor() ERC721(\"Rx\", \"Rx\") {\n        _setupRole(DEFAULT_ADMIN_ROLE, msg.sender);\n\n        // _setRoleAdmin(ADMIN_ROLE, ADMIN_ROLE);  // ADMIN role to manage all 3 roles\n        _setRoleAdmin(MINTER_ROLE, ADMIN_ROLE);\n        _setRoleAdmin(BURNER_ROLE, ADMIN_ROLE);\n\n        grantRole(ADMIN_ROLE, msg.sender);\n\n        // _setupRole(MINTER_ROLE, msg.sender); // MINTER_ROLE reserved for Doctors only\n        // _setupRole(BURNER_ROLE, msg.sender); // BURNER_ROLE reserved for Pharmacists only\n\n        _tokenIdCounter.increment();\n    }\n\n    /// @dev function override required by solidity\n    /// @notice function override to store burner data in the rx before burning\n    function _burn(uint256 tokenId) internal override(ERC721, ERC721URIStorage) onlyRole(BURNER_ROLE) {\n        // delete rxs[tokenId]; // Keep Rx Data to be able to view past Rxs\n        require(\n            getApproved(tokenId) == msg.sender ||\n            isApprovedForAll(ownerOf(tokenId), msg.sender),\n            \"pharm not approved\");\n        // We save the burner (pharmacist) data to the Rx\n        rxs[tokenId].pharmacistSubject = getSubject(msg.sender);\n        rxs[tokenId].pharmacist = getPharmacist(msg.sender);\n        super._burn(tokenId);\n        //TODO: Change prescription life cycle in 'Status' to keep prescription data without burning\n    }\n\n    /// @dev TokenURI generated on the fly from stored data (function override required by solidity)  \n    function tokenURI(uint256 tokenId) public view override(ERC721, ERC721URIStorage) returns (string memory) {\n        require(_exists(tokenId), \"nonexistent token\");\n        return TokenURIDescriptor.constructTokenURI(tokenId, name(), symbol(), rxs[tokenId]);\n    }\n\n    /// @dev function override required by solidity\n    function supportsInterface(bytes4 interfaceId) public view override(ERC721, AccessControl) returns (bool) {\n        return super.supportsInterface(interfaceId);\n    }\n\n    /** Begin of implementation of functions for final project */\n\n    /// @notice Function to verify string length and validate data input\n    /// @param maxLength Maximum string length\n    function _validateStrings(uint256 maxLength, string[RX_LINES] calldata stringArray) internal pure returns (bool) {\n        for (uint256 i = 0; i < RX_LINES; i++) {\n            if ( bytes(stringArray[i]).length >= maxLength) {\n                return false;\n            }\n        }\n        return true;\n    }\n\n    /// @notice Funtion to mint a Prescription. Should be called only by a Doctor (has MINTER_ROLE)\n    /// @param to The id of the subject (patient) recipient of the prescription\n    /// @param _keys Text lines with the 'title' of each content of the prescription (max 19 characters each)\n    /// @param _values Text lines with the 'content' of the prescription (max 61 characters each)\n    /// @dev Does NOT store a tokenURI. It stores Prescription data on contract (tokenURI is generated upon request)\n    function mint(address to, string[RX_LINES] calldata _keys, string[RX_LINES] calldata _values)\n        public\n        onlyRole(MINTER_ROLE)\n        isSubject(to) \n        {\n            require( (msg.sender != to) , 'mint to yourself');\n            require( _validateStrings( MAX_KEY_LENGTH, _keys ) , 'key 2 long' );\n            require( _validateStrings( MAX_VALUE_LENGTH, _values ) , 'value 2 long' );\n\n            uint256 tokenId = _tokenIdCounter.current();\n            _tokenIdCounter.increment();\n            super._safeMint(to, tokenId);\n\n            // Store prescription data in contract, leaving tokenURI empty, for it is generated on request (Uniswap V3 style!)\n            rxs[tokenId] = RxStructs.RxData(\n                                block.timestamp,\n                                getSubject(to),\n                                getSubject(msg.sender),\n                                RxStructs.Subject(address(0), 0, '', ''),\n                                getDoctor(msg.sender),\n                                RxStructs.Pharmacist(address(0), '', ''),\n                                _keys,\n                                _values);\n\n            emit minted(msg.sender, to, tokenId);\n    }\n\n    /// @notice Function to get data for a specific tokenId. Only for Doctor, Patient or Pharmacist of the tokenId.\n    /// @param tokenId uint256 representing an existing tokenId\n    /// @return a RxData struct containing all the Rx Data\n    function getRx(uint256 tokenId) public view returns (RxStructs.RxData memory) {\n        return rxs[tokenId];\n    }\n\n    /// @notice Function to set pausableRolePaused (only deployer of contract is allowed)\n    /// @param _paused bool to set state variable\n    function setPausableRolePaused(bool _paused) public onlyRole(DEFAULT_ADMIN_ROLE) {\n        pausableRolePaused = _paused;\n    }\n\n    /// @notice function override to prohibit token transfers\n    function _transfer(address from, address to, uint256 tokenId ) internal view override(ERC721) {\n        require(msg.sender == address(0), \"rxs are untransferable\");\n    }\n\n    /// @notice Function to add an admin account\n    /// @param to Address of the account to grant admin role\n    function addAdmin(address to) public   {\n        onlyPausableRole(ADMIN_ROLE);\n        grantRole(ADMIN_ROLE, to);\n    }\n\n    /// @notice Function to remove an admin account\n    /// @param to Address of the account to remove admin role\n    function removeAdmin(address to) public  {\n        onlyPausableRole(ADMIN_ROLE);\n        revokeRole(ADMIN_ROLE, to);\n    }\n\n    /// @notice Function to check if someone has admin role\n    /// @param to address to check for admin role privilege\n    /// @return true if @param to is an admin or false otherwise\n    function isAdmin(address to) public view returns (bool) {\n        return hasRole(ADMIN_ROLE, to);\n    }\n\n    /// @notice Function to retrieve a Subject\n    /// @param _subjectId the registered address of the subject to retrieve\n    /// @return an object with the Subject\n    function getSubject(address _subjectId)\n        public\n        view\n        returns (RxStructs.Subject memory) {\n            return subjects[_subjectId];\n    }\n\n    /// @notice Function to retrieve a Doctor\n    /// @param _subjectId the registered address of the doctor to retrieve\n    /// @return an object with the Doctor\n    function getDoctor(address _subjectId)\n        public\n        view\n        returns (RxStructs.Doctor memory) {\n            return doctors[_subjectId];\n    }\n\n    /// @notice Function to retrieve a Pharmacist\n    /// @param _subjectId the registered address of the pharmacist to retrieve\n    /// @return an object with the Pharmacist\n    function getPharmacist(address _subjectId)\n        public\n        view\n        returns (RxStructs.Pharmacist memory) {\n            return pharmacists[_subjectId];\n    }\n\n    /// @notice Function to add/replace a Subject allowed to receive/hold NFT Prescriptions\n    /// @param _subjectId is the registered address of the subject (approved for holding NFT Prescriptions)\n    /// @param _birthDate is the subjects' date of birth, in seconds, from UNIX Epoch (1970-01-01)\n    /// @param _name is the subject's full name\n    /// @param _homeAddress is the subject's legal home address\n    /// @return the ethereum address of the subject that was registered in the contract\n    /// @dev Only ADMIN_ROLE users are allowed to modify subjects\n    function setSubjectData(address _subjectId, uint256 _birthDate, string calldata _name, string calldata _homeAddress)\n        public\n        \n        returns (address) {\n            onlyPausableRole(ADMIN_ROLE);\n            require (_subjectId != address(0), \"0 address\");\n            // Subject memory newSubject = Subject(_subjectId, _name, _birthDate, _homeAddress);\n            // subjects[_subjectId] = newSubject;\n            subjects[_subjectId] = RxStructs.Subject(_subjectId, _birthDate, _name, _homeAddress);\n            emit subjectDataSet(msg.sender, _subjectId, _birthDate, _name, _homeAddress);\n            return subjects[_subjectId].subjectId;\n    }\n\n    /// @notice Function to add/replace a Doctor allowed to mint NFT Prescriptions\n    /// @param _subjectId should be a valid ethereum address (same Id as the subject that holds this doctor's personal details)\n    /// @param _degree should contain string with the degree of the doctor\n    /// @param _license should contain string with the legal license of the doctor\n    /// @dev @param _workplaces is a feature for future implementations\n    /// @return the ethereum address of the doctor that was registered in the contract\n    function setDoctorData(address _subjectId, string calldata _degree, string calldata _license) //, address[] calldata _workplaces)\n        public\n        \n        isSubject(_subjectId)\n        returns (address) {\n            onlyPausableRole(ADMIN_ROLE);\n            // require (_subjectId != address(0), \"Wallet Address cannot be 0x0\"); // Should be covered by isSubject()\n            // Doctor memory newDoctor = Doctor(_subjectId, _degree, _license);\n            // doctors[_subjectId] = newDoctor;\n            // if (doctors[_subjectId].subjectId == address(0)) { // Doctor didn't exist, should be granted the MINTER_ROLE\n            grantRole(MINTER_ROLE, _subjectId);\n            // }\n            doctors[_subjectId] = RxStructs.Doctor(_subjectId, _degree, _license);\n            emit doctorDataSet(msg.sender, _subjectId, _degree, _license);\n            return doctors[_subjectId].subjectId;\n    }\n\n    /// @notice Function to add/replace a Pharmacist allowed to burn NFT Prescriptions\n    /// @param _subjectId should be a valid ethereum address (same Id as the subject that holds this pharmacist's personal details)\n    /// @param _degree should contain string with the degree of the pharmacist\n    /// @param _license should contain string with the legal license of the pharmacist\n    /// @dev @param _workplaces is a feature for future implementations\n    /// @return the ethereum address of the pharmacist that was registered in the contract\n    function setPharmacistData(address _subjectId, string calldata _degree, string calldata _license) //, address[] calldata _workplaces)\n        public\n        \n        isSubject(_subjectId)\n        returns (address) {\n            onlyPausableRole(ADMIN_ROLE);\n            // require (_subjectId != address(0), \"Wallet Address cannot be 0x0\"); // Should be covered by isSubject()\n            // Pharmacist memory newPharmacist = Pharmacist(_subjectId, _degree, _license);\n            // pharmacists[_subjectId] = newPharmacist;\n            // if (pharmacists[_subjectId].subjectId == address(0)) { // Pharmacist didn't exist, should be granted BURNER_ROLE\n            grantRole(BURNER_ROLE, _subjectId);\n            // }\n            pharmacists[_subjectId] = RxStructs.Pharmacist(_subjectId, _degree, _license);\n            emit pharmacistDataSet(msg.sender, _subjectId, _degree, _license);\n            return pharmacists[_subjectId].subjectId;\n    }\n\n    /// @notice Function to remove a registered Subject \n    /// @param _subjectId is the registered address of the subject to remove\n    /// @dev Only ADMIN_ROLE users are allowed to remove subjects\n    function removeSubject(address _subjectId)\n        public\n        \n        isSubject(_subjectId)\n        isNotDoctor(_subjectId)\n        isNotPharmacist(_subjectId) {\n            onlyPausableRole(ADMIN_ROLE);// require (_subjectId != address(0), \"Wallet Address cannot be 0x0\"); // Should be covered by isSubject()\n            delete subjects[_subjectId];\n            emit subjectRemoved(msg.sender, _subjectId);\n    }\n\n    /// @notice Function to remove a registered Doctor\n    /// @param _subjectId is the registered address of the doctor to remove\n    /// @dev Only ADMIN_ROLE users are allowed to remove doctors\n    function removeDoctor(address _subjectId)\n        public\n        \n        isDoctor(_subjectId) {\n            onlyPausableRole(ADMIN_ROLE);\n            // require (_subjectId != address(0), \"Wallet Address cannot be 0x0\"); // Should be covered by isDoctor()\n            revokeRole(MINTER_ROLE, _subjectId);\n            delete doctors[_subjectId];\n            emit doctorRemoved(msg.sender, _subjectId);\n    }\n\n    /// @notice Function to remove a registered Pharmacist\n    /// @param _subjectId is the registered address of the pharmacist to remove\n    /// @dev Only ADMIN_ROLE users are allowed to remove pharmacists\n    function removePharmacist(address _subjectId)\n        public\n        \n        isPharmacist(_subjectId) {\n            onlyPausableRole(ADMIN_ROLE);\n            // require (_subjectId != address(0), \"Wallet Address cannot be 0x0\"); // Should be covered by isPharmacist()\n            revokeRole(BURNER_ROLE, _subjectId);\n            delete pharmacists[_subjectId];\n            emit pharmacistRemoved(msg.sender, _subjectId);\n    }\n\n}",
  "sourcePath": "/Users/matias/coding/github/blockchain-developer-bootcamp-final-project/contracts/Rx.sol",
  "compiler": {
    "name": "solc",
    "version": "0.8.9+commit.e5eed63a.Emscripten.clang"
  },
  "schemaVersion": "3.4.3",
  "updatedAt": "2021-11-30T07:43:20.226Z",
  "networkType": "ethereum",
  "devdoc": {
    "author": "Matias Parij (@7i7o)",
    "details": "Features such as workplaces for doctors or pharmacists are for future iterations",
    "events": {
      "doctorDataSet(address,address,string,string)": {
        "params": {
          "_degree": "contains a string with the degree of the doctor",
          "_license": "contains a string with the legal license of the doctor",
          "_subjectId": "is the ethereum address for the doctor (same Id as the subject that holds this doctor's personal details)",
          "sender": "is the address of the admin that set the Doctor's data"
        }
      },
      "doctorRemoved(address,address)": {
        "params": {
          "_subjectId": "is the registered address of the doctor removed",
          "sender": "is the address of the admin that removed the Doctor"
        }
      },
      "minted(address,address,uint256)": {
        "params": {
          "receiver": "address of the Subject that received the Rx minted",
          "sender": "address of the Doctor that minted the Rx",
          "tokenId": "Id of the Token (Rx) that has been minted"
        }
      },
      "pharmacistDataSet(address,address,string,string)": {
        "params": {
          "_degree": "contains a string with the degree of the pharmacist",
          "_license": "contains a string with the legal license of the pharmacist",
          "_subjectId": "is the ethereum address for the pahrmacist (same Id as the subject that holds this pharmacist's personal details)",
          "sender": "is the address of the admin that set the Pharmacist's data"
        }
      },
      "pharmacistRemoved(address,address)": {
        "params": {
          "_subjectId": "is the registered address of the pharmacist removed",
          "sender": "is the address of the admin that removed the Pharmacist"
        }
      },
      "subjectDataSet(address,address,uint256,string,string)": {
        "params": {
          "_birthDate": "is the subjects' date of birth, in seconds, from UNIX Epoch (1970-01-01)",
          "_homeAddress": "is the subject's legal home address",
          "_name": "is the subject's full name",
          "_subjectId": "is the registered address of the subject (approved for holding NFT Prescriptions)",
          "sender": "is the address of the admin that set the Subject's data"
        }
      },
      "subjectRemoved(address,address)": {
        "params": {
          "_subjectId": "is the registered address of the subject removed",
          "sender": "is the address of the admin that removed the Subject"
        }
      }
    },
    "kind": "dev",
    "methods": {
      "addAdmin(address)": {
        "params": {
          "to": "Address of the account to grant admin role"
        }
      },
      "approve(address,uint256)": {
        "details": "See {IERC721-approve}."
      },
      "balanceOf(address)": {
        "details": "See {IERC721-balanceOf}."
      },
      "burn(uint256)": {
        "details": "Burns `tokenId`. See {ERC721-_burn}. Requirements: - The caller must own `tokenId` or be an approved operator."
      },
      "constructor": {
        "details": "Using ERC721 default constructor with \"Prescription\" and \"Rx\" as Name and Symbol for the tokensWe set up the contract creator (msg.sender) with the ADMIN_ROLE to manage all the other RolesWe increment the counter in the constructor to start Ids in 1, keeping Id 0 (default for uints      in solidity) to signal that someone doesn't have any NFTs"
      },
      "getApproved(uint256)": {
        "details": "See {IERC721-getApproved}."
      },
      "getDoctor(address)": {
        "params": {
          "_subjectId": "the registered address of the doctor to retrieve"
        },
        "returns": {
          "_0": "an object with the Doctor"
        }
      },
      "getPharmacist(address)": {
        "params": {
          "_subjectId": "the registered address of the pharmacist to retrieve"
        },
        "returns": {
          "_0": "an object with the Pharmacist"
        }
      },
      "getRoleAdmin(bytes32)": {
        "details": "Returns the admin role that controls `role`. See {grantRole} and {revokeRole}. To change a role's admin, use {_setRoleAdmin}."
      },
      "getRx(uint256)": {
        "params": {
          "tokenId": "uint256 representing an existing tokenId"
        },
        "returns": {
          "_0": "a RxData struct containing all the Rx Data"
        }
      },
      "getSubject(address)": {
        "params": {
          "_subjectId": "the registered address of the subject to retrieve"
        },
        "returns": {
          "_0": "an object with the Subject"
        }
      },
      "grantRole(bytes32,address)": {
        "details": "Grants `role` to `account`. If `account` had not been already granted `role`, emits a {RoleGranted} event. Requirements: - the caller must have ``role``'s admin role."
      },
      "hasRole(bytes32,address)": {
        "details": "Returns `true` if `account` has been granted `role`."
      },
      "isAdmin(address)": {
        "params": {
          "to": "address to check for admin role privilege"
        },
        "returns": {
          "_0": "true if @param to is an admin or false otherwise"
        }
      },
      "isApprovedForAll(address,address)": {
        "details": "See {IERC721-isApprovedForAll}."
      },
      "mint(address,string[12],string[12])": {
        "details": "Does NOT store a tokenURI. It stores Prescription data on contract (tokenURI is generated upon request)",
        "params": {
          "_keys": "Text lines with the 'title' of each content of the prescription (max 19 characters each)",
          "_values": "Text lines with the 'content' of the prescription (max 61 characters each)",
          "to": "The id of the subject (patient) recipient of the prescription"
        }
      },
      "name()": {
        "details": "See {IERC721Metadata-name}."
      },
      "ownerOf(uint256)": {
        "details": "See {IERC721-ownerOf}."
      },
      "removeAdmin(address)": {
        "params": {
          "to": "Address of the account to remove admin role"
        }
      },
      "removeDoctor(address)": {
        "details": "Only ADMIN_ROLE users are allowed to remove doctors",
        "params": {
          "_subjectId": "is the registered address of the doctor to remove"
        }
      },
      "removePharmacist(address)": {
        "details": "Only ADMIN_ROLE users are allowed to remove pharmacists",
        "params": {
          "_subjectId": "is the registered address of the pharmacist to remove"
        }
      },
      "removeSubject(address)": {
        "details": "Only ADMIN_ROLE users are allowed to remove subjects",
        "params": {
          "_subjectId": "is the registered address of the subject to remove"
        }
      },
      "renounceRole(bytes32,address)": {
        "details": "Revokes `role` from the calling account. Roles are often managed via {grantRole} and {revokeRole}: this function's purpose is to provide a mechanism for accounts to lose their privileges if they are compromised (such as when a trusted device is misplaced). If the calling account had been revoked `role`, emits a {RoleRevoked} event. Requirements: - the caller must be `account`."
      },
      "revokeRole(bytes32,address)": {
        "details": "Revokes `role` from `account`. If `account` had been granted `role`, emits a {RoleRevoked} event. Requirements: - the caller must have ``role``'s admin role."
      },
      "safeTransferFrom(address,address,uint256)": {
        "details": "See {IERC721-safeTransferFrom}."
      },
      "safeTransferFrom(address,address,uint256,bytes)": {
        "details": "See {IERC721-safeTransferFrom}."
      },
      "setApprovalForAll(address,bool)": {
        "details": "See {IERC721-setApprovalForAll}."
      },
      "setDoctorData(address,string,string)": {
        "details": "@param _workplaces is a feature for future implementations",
        "params": {
          "_degree": "should contain string with the degree of the doctor",
          "_license": "should contain string with the legal license of the doctor",
          "_subjectId": "should be a valid ethereum address (same Id as the subject that holds this doctor's personal details)"
        },
        "returns": {
          "_0": "the ethereum address of the doctor that was registered in the contract"
        }
      },
      "setPausableRolePaused(bool)": {
        "params": {
          "_paused": "bool to set state variable"
        }
      },
      "setPharmacistData(address,string,string)": {
        "details": "@param _workplaces is a feature for future implementations",
        "params": {
          "_degree": "should contain string with the degree of the pharmacist",
          "_license": "should contain string with the legal license of the pharmacist",
          "_subjectId": "should be a valid ethereum address (same Id as the subject that holds this pharmacist's personal details)"
        },
        "returns": {
          "_0": "the ethereum address of the pharmacist that was registered in the contract"
        }
      },
      "setSubjectData(address,uint256,string,string)": {
        "details": "Only ADMIN_ROLE users are allowed to modify subjects",
        "params": {
          "_birthDate": "is the subjects' date of birth, in seconds, from UNIX Epoch (1970-01-01)",
          "_homeAddress": "is the subject's legal home address",
          "_name": "is the subject's full name",
          "_subjectId": "is the registered address of the subject (approved for holding NFT Prescriptions)"
        },
        "returns": {
          "_0": "the ethereum address of the subject that was registered in the contract"
        }
      },
      "supportsInterface(bytes4)": {
        "details": "function override required by solidity"
      },
      "symbol()": {
        "details": "See {IERC721Metadata-symbol}."
      },
      "tokenURI(uint256)": {
        "details": "TokenURI generated on the fly from stored data (function override required by solidity)  "
      },
      "transferFrom(address,address,uint256)": {
        "details": "See {IERC721-transferFrom}."
      }
    },
    "stateVariables": {
      "_tokenIdCounter": {
        "details": "We increment the counter in the constructor to start Ids in 1, keeping Id 0 (default for      uints in solidity) to signal that someone doesn't have any NFTs"
      }
    },
    "title": "A NFT Prescription creator",
    "version": 1
  },
  "userdoc": {
    "events": {
      "doctorDataSet(address,address,string,string)": {
        "notice": "Event to signal when adding/replacing a Doctor allowed to mint NFT Prescriptions"
      },
      "doctorRemoved(address,address)": {
        "notice": "Event to signal a removed Doctor"
      },
      "minted(address,address,uint256)": {
        "notice": "Event to signal when a new Rx has been minted"
      },
      "pharmacistDataSet(address,address,string,string)": {
        "notice": "Event to signal when adding/replacing a Pharmacist allowed to burn NFT Prescriptions"
      },
      "pharmacistRemoved(address,address)": {
        "notice": "Event to signal a removed Pharmacist"
      },
      "subjectDataSet(address,address,uint256,string,string)": {
        "notice": "Event to signal when adding/replacing a Subject allowed to receive/hold NFT Prescriptions"
      },
      "subjectRemoved(address,address)": {
        "notice": "Event to signal a removed Subject"
      }
    },
    "kind": "user",
    "methods": {
      "ADMIN_ROLE()": {
        "notice": "Role definition for Minter"
      },
      "BURNER_ROLE()": {
        "notice": "Role definition for Burner"
      },
      "MINTER_ROLE()": {
        "notice": "Role definition for Minter"
      },
      "addAdmin(address)": {
        "notice": "Function to add an admin account"
      },
      "constructor": {
        "notice": "constructor for NFT Prescriptions contract"
      },
      "getDoctor(address)": {
        "notice": "Function to retrieve a Doctor"
      },
      "getPharmacist(address)": {
        "notice": "Function to retrieve a Pharmacist"
      },
      "getRx(uint256)": {
        "notice": "Function to get data for a specific tokenId. Only for Doctor, Patient or Pharmacist of the tokenId."
      },
      "getSubject(address)": {
        "notice": "Function to retrieve a Subject"
      },
      "isAdmin(address)": {
        "notice": "Function to check if someone has admin role"
      },
      "mint(address,string[12],string[12])": {
        "notice": "Funtion to mint a Prescription. Should be called only by a Doctor (has MINTER_ROLE)"
      },
      "removeAdmin(address)": {
        "notice": "Function to remove an admin account"
      },
      "removeDoctor(address)": {
        "notice": "Function to remove a registered Doctor"
      },
      "removePharmacist(address)": {
        "notice": "Function to remove a registered Pharmacist"
      },
      "removeSubject(address)": {
        "notice": "Function to remove a registered Subject "
      },
      "setDoctorData(address,string,string)": {
        "notice": "Function to add/replace a Doctor allowed to mint NFT Prescriptions"
      },
      "setPausableRolePaused(bool)": {
        "notice": "Function to set pausableRolePaused (only deployer of contract is allowed)"
      },
      "setPharmacistData(address,string,string)": {
        "notice": "Function to add/replace a Pharmacist allowed to burn NFT Prescriptions"
      },
      "setSubjectData(address,uint256,string,string)": {
        "notice": "Function to add/replace a Subject allowed to receive/hold NFT Prescriptions"
      }
    },
    "notice": "You can use this contract only as a MVP for minting Prescriptions",
    "version": 1
  }
}